{
  "_format": "hh-sol-artifact-1",
  "contractName": "BattlePass",
  "sourceName": "contracts/BattlePass.sol",
  "abi": [
    {
      "inputs": [
        {
          "internalType": "address",
          "name": "_armadaTokenAddress",
          "type": "address"
        }
      ],
      "stateMutability": "nonpayable",
      "type": "constructor"
    },
    {
      "inputs": [
        {
          "internalType": "address",
          "name": "owner",
          "type": "address"
        }
      ],
      "name": "OwnableInvalidOwner",
      "type": "error"
    },
    {
      "inputs": [
        {
          "internalType": "address",
          "name": "account",
          "type": "address"
        }
      ],
      "name": "OwnableUnauthorizedAccount",
      "type": "error"
    },
    {
      "inputs": [],
      "name": "ReentrancyGuardReentrantCall",
      "type": "error"
    },
    {
      "anonymous": false,
      "inputs": [
        {
          "indexed": true,
          "internalType": "address",
          "name": "player",
          "type": "address"
        },
        {
          "indexed": false,
          "internalType": "uint256",
          "name": "xp",
          "type": "uint256"
        },
        {
          "indexed": false,
          "internalType": "string",
          "name": "action",
          "type": "string"
        }
      ],
      "name": "ExperienceGained",
      "type": "event"
    },
    {
      "anonymous": false,
      "inputs": [
        {
          "indexed": true,
          "internalType": "address",
          "name": "player",
          "type": "address"
        },
        {
          "indexed": false,
          "internalType": "uint256",
          "name": "newLevel",
          "type": "uint256"
        }
      ],
      "name": "LevelUp",
      "type": "event"
    },
    {
      "anonymous": false,
      "inputs": [
        {
          "indexed": true,
          "internalType": "address",
          "name": "previousOwner",
          "type": "address"
        },
        {
          "indexed": true,
          "internalType": "address",
          "name": "newOwner",
          "type": "address"
        }
      ],
      "name": "OwnershipTransferred",
      "type": "event"
    },
    {
      "anonymous": false,
      "inputs": [
        {
          "indexed": true,
          "internalType": "address",
          "name": "player",
          "type": "address"
        },
        {
          "indexed": false,
          "internalType": "bool",
          "name": "isPremium",
          "type": "bool"
        },
        {
          "indexed": false,
          "internalType": "uint256",
          "name": "season",
          "type": "uint256"
        }
      ],
      "name": "PassCreated",
      "type": "event"
    },
    {
      "anonymous": false,
      "inputs": [
        {
          "indexed": true,
          "internalType": "address",
          "name": "player",
          "type": "address"
        },
        {
          "indexed": false,
          "internalType": "uint256",
          "name": "season",
          "type": "uint256"
        }
      ],
      "name": "PassUpgradedToPremium",
      "type": "event"
    },
    {
      "anonymous": false,
      "inputs": [
        {
          "indexed": true,
          "internalType": "address",
          "name": "player",
          "type": "address"
        },
        {
          "indexed": false,
          "internalType": "uint256",
          "name": "level",
          "type": "uint256"
        },
        {
          "indexed": false,
          "internalType": "uint256",
          "name": "goldReward",
          "type": "uint256"
        },
        {
          "indexed": false,
          "internalType": "uint256",
          "name": "diamondReward",
          "type": "uint256"
        },
        {
          "indexed": false,
          "internalType": "uint256",
          "name": "armadaReward",
          "type": "uint256"
        }
      ],
      "name": "RewardClaimed",
      "type": "event"
    },
    {
      "anonymous": false,
      "inputs": [
        {
          "indexed": false,
          "internalType": "uint256",
          "name": "season",
          "type": "uint256"
        }
      ],
      "name": "SeasonEnded",
      "type": "event"
    },
    {
      "anonymous": false,
      "inputs": [
        {
          "indexed": false,
          "internalType": "uint256",
          "name": "season",
          "type": "uint256"
        },
        {
          "indexed": false,
          "internalType": "uint256",
          "name": "startTime",
          "type": "uint256"
        },
        {
          "indexed": false,
          "internalType": "uint256",
          "name": "endTime",
          "type": "uint256"
        }
      ],
      "name": "SeasonStarted",
      "type": "event"
    },
    {
      "inputs": [],
      "name": "MAX_LEVEL",
      "outputs": [
        {
          "internalType": "uint256",
          "name": "",
          "type": "uint256"
        }
      ],
      "stateMutability": "view",
      "type": "function"
    },
    {
      "inputs": [],
      "name": "PREMIUM_COST",
      "outputs": [
        {
          "internalType": "uint256",
          "name": "",
          "type": "uint256"
        }
      ],
      "stateMutability": "view",
      "type": "function"
    },
    {
      "inputs": [],
      "name": "SEASON_DURATION",
      "outputs": [
        {
          "internalType": "uint256",
          "name": "",
          "type": "uint256"
        }
      ],
      "stateMutability": "view",
      "type": "function"
    },
    {
      "inputs": [],
      "name": "XP_PER_BATTLE_WIN",
      "outputs": [
        {
          "internalType": "uint256",
          "name": "",
          "type": "uint256"
        }
      ],
      "stateMutability": "view",
      "type": "function"
    },
    {
      "inputs": [],
      "name": "XP_PER_CHECKIN",
      "outputs": [
        {
          "internalType": "uint256",
          "name": "",
          "type": "uint256"
        }
      ],
      "stateMutability": "view",
      "type": "function"
    },
    {
      "inputs": [],
      "name": "XP_PER_GPM_CLAIM",
      "outputs": [
        {
          "internalType": "uint256",
          "name": "",
          "type": "uint256"
        }
      ],
      "stateMutability": "view",
      "type": "function"
    },
    {
      "inputs": [],
      "name": "XP_PER_UPGRADE",
      "outputs": [
        {
          "internalType": "uint256",
          "name": "",
          "type": "uint256"
        }
      ],
      "stateMutability": "view",
      "type": "function"
    },
    {
      "inputs": [],
      "name": "armadaToken",
      "outputs": [
        {
          "internalType": "contract IArmadaToken",
          "name": "",
          "type": "address"
        }
      ],
      "stateMutability": "view",
      "type": "function"
    },
    {
      "inputs": [
        {
          "internalType": "uint256",
          "name": "_level",
          "type": "uint256"
        }
      ],
      "name": "claimLevelReward",
      "outputs": [],
      "stateMutability": "nonpayable",
      "type": "function"
    },
    {
      "inputs": [
        {
          "internalType": "uint256[]",
          "name": "_levels",
          "type": "uint256[]"
        }
      ],
      "name": "claimMultipleLevelRewards",
      "outputs": [],
      "stateMutability": "nonpayable",
      "type": "function"
    },
    {
      "inputs": [],
      "name": "createPass",
      "outputs": [],
      "stateMutability": "nonpayable",
      "type": "function"
    },
    {
      "inputs": [],
      "name": "currentSeason",
      "outputs": [
        {
          "internalType": "uint256",
          "name": "",
          "type": "uint256"
        }
      ],
      "stateMutability": "view",
      "type": "function"
    },
    {
      "inputs": [],
      "name": "endSeasonAndStartNew",
      "outputs": [],
      "stateMutability": "nonpayable",
      "type": "function"
    },
    {
      "inputs": [
        {
          "internalType": "address",
          "name": "_player",
          "type": "address"
        },
        {
          "internalType": "uint256",
          "name": "_xp",
          "type": "uint256"
        },
        {
          "internalType": "string",
          "name": "_action",
          "type": "string"
        }
      ],
      "name": "gainExperience",
      "outputs": [],
      "stateMutability": "nonpayable",
      "type": "function"
    },
    {
      "inputs": [],
      "name": "gameContract",
      "outputs": [
        {
          "internalType": "address",
          "name": "",
          "type": "address"
        }
      ],
      "stateMutability": "view",
      "type": "function"
    },
    {
      "inputs": [
        {
          "internalType": "uint256",
          "name": "_level",
          "type": "uint256"
        }
      ],
      "name": "getPassLevel",
      "outputs": [
        {
          "components": [
            {
              "internalType": "uint256",
              "name": "experienceRequired",
              "type": "uint256"
            },
            {
              "internalType": "uint256",
              "name": "goldReward",
              "type": "uint256"
            },
            {
              "internalType": "uint256",
              "name": "diamondReward",
              "type": "uint256"
            },
            {
              "internalType": "uint256",
              "name": "armadaReward",
              "type": "uint256"
            },
            {
              "internalType": "string",
              "name": "cosmeticReward",
              "type": "string"
            },
            {
              "internalType": "bool",
              "name": "hasPremiumReward",
              "type": "bool"
            }
          ],
          "internalType": "struct BattlePass.PassLevel",
          "name": "",
          "type": "tuple"
        }
      ],
      "stateMutability": "view",
      "type": "function"
    },
    {
      "inputs": [
        {
          "internalType": "address",
          "name": "_player",
          "type": "address"
        }
      ],
      "name": "getPlayerPass",
      "outputs": [
        {
          "components": [
            {
              "internalType": "uint256",
              "name": "season",
              "type": "uint256"
            },
            {
              "internalType": "uint256",
              "name": "level",
              "type": "uint256"
            },
            {
              "internalType": "uint256",
              "name": "experience",
              "type": "uint256"
            },
            {
              "internalType": "bool",
              "name": "isPremium",
              "type": "bool"
            },
            {
              "internalType": "uint256",
              "name": "lastRewardClaimed",
              "type": "uint256"
            },
            {
              "internalType": "uint256",
              "name": "createdAt",
              "type": "uint256"
            }
          ],
          "internalType": "struct BattlePass.PlayerPass",
          "name": "",
          "type": "tuple"
        }
      ],
      "stateMutability": "view",
      "type": "function"
    },
    {
      "inputs": [],
      "name": "getSeasonInfo",
      "outputs": [
        {
          "internalType": "uint256",
          "name": "season",
          "type": "uint256"
        },
        {
          "internalType": "uint256",
          "name": "startTime",
          "type": "uint256"
        },
        {
          "internalType": "uint256",
          "name": "endTime",
          "type": "uint256"
        },
        {
          "internalType": "uint256",
          "name": "timeRemaining",
          "type": "uint256"
        }
      ],
      "stateMutability": "view",
      "type": "function"
    },
    {
      "inputs": [
        {
          "internalType": "address",
          "name": "_player",
          "type": "address"
        }
      ],
      "name": "getUnclaimedRewards",
      "outputs": [
        {
          "internalType": "uint256[]",
          "name": "levels",
          "type": "uint256[]"
        },
        {
          "internalType": "uint256",
          "name": "totalGold",
          "type": "uint256"
        },
        {
          "internalType": "uint256",
          "name": "totalDiamonds",
          "type": "uint256"
        },
        {
          "internalType": "uint256",
          "name": "totalArmada",
          "type": "uint256"
        }
      ],
      "stateMutability": "view",
      "type": "function"
    },
    {
      "inputs": [
        {
          "internalType": "address",
          "name": "_player",
          "type": "address"
        }
      ],
      "name": "getXPForNextLevel",
      "outputs": [
        {
          "internalType": "uint256",
          "name": "",
          "type": "uint256"
        }
      ],
      "stateMutability": "view",
      "type": "function"
    },
    {
      "inputs": [
        {
          "internalType": "address",
          "name": "_player",
          "type": "address"
        }
      ],
      "name": "hasActivePass",
      "outputs": [
        {
          "internalType": "bool",
          "name": "",
          "type": "bool"
        }
      ],
      "stateMutability": "view",
      "type": "function"
    },
    {
      "inputs": [],
      "name": "owner",
      "outputs": [
        {
          "internalType": "address",
          "name": "",
          "type": "address"
        }
      ],
      "stateMutability": "view",
      "type": "function"
    },
    {
      "inputs": [
        {
          "internalType": "uint256",
          "name": "",
          "type": "uint256"
        }
      ],
      "name": "passLevels",
      "outputs": [
        {
          "internalType": "uint256",
          "name": "experienceRequired",
          "type": "uint256"
        },
        {
          "internalType": "uint256",
          "name": "goldReward",
          "type": "uint256"
        },
        {
          "internalType": "uint256",
          "name": "diamondReward",
          "type": "uint256"
        },
        {
          "internalType": "uint256",
          "name": "armadaReward",
          "type": "uint256"
        },
        {
          "internalType": "string",
          "name": "cosmeticReward",
          "type": "string"
        },
        {
          "internalType": "bool",
          "name": "hasPremiumReward",
          "type": "bool"
        }
      ],
      "stateMutability": "view",
      "type": "function"
    },
    {
      "inputs": [
        {
          "internalType": "address",
          "name": "",
          "type": "address"
        }
      ],
      "name": "playerPasses",
      "outputs": [
        {
          "internalType": "uint256",
          "name": "season",
          "type": "uint256"
        },
        {
          "internalType": "uint256",
          "name": "level",
          "type": "uint256"
        },
        {
          "internalType": "uint256",
          "name": "experience",
          "type": "uint256"
        },
        {
          "internalType": "bool",
          "name": "isPremium",
          "type": "bool"
        },
        {
          "internalType": "uint256",
          "name": "lastRewardClaimed",
          "type": "uint256"
        },
        {
          "internalType": "uint256",
          "name": "createdAt",
          "type": "uint256"
        }
      ],
      "stateMutability": "view",
      "type": "function"
    },
    {
      "inputs": [],
      "name": "renounceOwnership",
      "outputs": [],
      "stateMutability": "nonpayable",
      "type": "function"
    },
    {
      "inputs": [],
      "name": "seasonEndTime",
      "outputs": [
        {
          "internalType": "uint256",
          "name": "",
          "type": "uint256"
        }
      ],
      "stateMutability": "view",
      "type": "function"
    },
    {
      "inputs": [],
      "name": "seasonStartTime",
      "outputs": [
        {
          "internalType": "uint256",
          "name": "",
          "type": "uint256"
        }
      ],
      "stateMutability": "view",
      "type": "function"
    },
    {
      "inputs": [
        {
          "internalType": "address",
          "name": "_gameContract",
          "type": "address"
        }
      ],
      "name": "setGameContract",
      "outputs": [],
      "stateMutability": "nonpayable",
      "type": "function"
    },
    {
      "inputs": [
        {
          "internalType": "address",
          "name": "newOwner",
          "type": "address"
        }
      ],
      "name": "transferOwnership",
      "outputs": [],
      "stateMutability": "nonpayable",
      "type": "function"
    },
    {
      "inputs": [],
      "name": "upgradeToPremium",
      "outputs": [],
      "stateMutability": "nonpayable",
      "type": "function"
    }
  ],
  "bytecode": "0x608034620008e657601f6200280538819003918201601f19168301916001600160401b038311848410176200035457808492602094604052833981010312620008e657516001600160a01b0380821691829003620008e6573315620008cd576000549060018060a01b0319913383821617600055604051913391167f8be0079c531659141344cd1fd0a4f28419497f9722a3daafe3b4186f6b6457e0600080a360018055600160065582156200088b57506002541617600255426007556276a70042018042116200038d5760085560015b60148111156200067b5760155b6032811115620003f15760335b606490818111620003a3578181029181830414811517156200038d57603281810290810482036200038d57600a8206620003835760ff60025b600584066200036a5760405168636f736d657469635f60b81b6020820152602985818301528152620001558162000923565b925b604051956200016687620008eb565b86526020860152166040840152674563918244f4000060608401526080830152600581061560a083015280600052600460205260406000209180518355602081015160018401556040810151600284015560608101516003840155608081015192835160018060401b03811162000354576004820154600181811c9116801562000349575b60208210146200033357601f8111620002e3575b506020601f82116001146200026657918160059260a09462000254986000926200025a575b50508160011b916000199060031b1c19161760048201555b01910151151560ff801983541691161790556200093f565b620000ea565b01519050888062000224565b6004830160005260206000209560005b601f1984168110620002ca575082620002549760a09593600193600596601f19811610620002b0575b505050811b0160048201556200023c565b015160001960f88460031b161c191690558880806200029f565b8282015188556001909701966020928301920162000276565b600483016000526020600020601f830160051c8101916020841062000328575b601f0160051c01905b8181106200031b5750620001ff565b600081556001016200030c565b909150819062000303565b634e487b7160e01b600052602260045260246000fd5b90607f1690620001eb565b634e487b7160e01b600052604160045260246000fd5b604051620003788162000907565b600081529262000157565b60ff600062000123565b634e487b7160e01b600052601160045260246000fd5b7f140b0d71aeb7929ef4342c1cf14dc9b6c83b015cf00b0442ff0d4f916abdd29560606006546007546008549060405192835260208301526040820152a1604051611eb59081620009508239f35b600a8106159060648082029082820414821517156200038d5760149282840293840483036200038d57801562000672576001905b8015620006595760405168636f736d657469635f60b81b6020820152602985818301528152620004558162000923565b905b604051936200046685620008eb565b84526020840195865260ff60408501931683526060840190671bc16d674ec8000082526080850192835260a08501528460005260049283602052604060002096855188555160018801555160028701555160038601555180519060018060401b038211620006445782860154600181811c9116801562000639575b60208210146200062457601f8111620005d9575b50602090601f83116001146200055c5792826005936200054a989360a09660009262000550575b50508160011b916000199060031b1c1916179082015501910151151560ff801983541691161790556200093f565b620000dd565b0151905089806200051c565b9083870160005260206000209160005b601f1985168110620005c05750836200054a989360a09693600193600597601f19811610620005a6575b505050811b01908201556200023c565b015160001960f88460031b161c1916905589808062000596565b919260206001819286850151815501940192016200056c565b8387016000526020600020601f840160051c8101602085106200061c575b601f830160051c820181106200060f575050620004f5565b60008155600101620005f7565b5080620005f7565b602284634e487b7160e01b6000525260246000fd5b90607f1690620004e1565b604183634e487b7160e01b6000525260246000fd5b604051620006678162000907565b600081529062000457565b60009062000425565b6064908181029181830414811517156200038d57600a9181830292830482036200038d5760405190620006ae82620008eb565b815260208101928352604081016000815260608201670de0b6b3a7640000815260405190620006dd8262000907565b6000825260808401918252600060a08501528460005260049283602052604060002096855188555160018801555160028701555160038601555180519060018060401b038211620006445782860154600181811c9116801562000880575b60208210146200062457601f811162000831575b50602090601f8311600114620007b5579282600593620007a3989360a096600092620007a95750508160011b916000199060031b1c1916179082015501910151151560ff801983541691161790556200093f565b620000d0565b0151905038806200051c565b9083870160005260206000209160005b601f198516811062000818575083620007a3989360a09693600193600597601f19811610620007fe57505050811b01908201556200023c565b015160001960f88460031b161c1916905538808062000596565b91926020600181928685015181550194019201620007c5565b8387016000526020600020601f840160051c8101916020851062000875575b601f0160051c01905b8181106200086857506200074f565b6000815560010162000859565b909150819062000850565b90607f16906200073b565b62461bcd60e51b815260206004820152601560248201527f496e76616c696420746f6b656e206164647265737300000000000000000000006044820152606490fd5b604051631e4fbdf760e01b815260006004820152602490fd5b600080fd5b60c081019081106001600160401b038211176200035457604052565b602081019081106001600160401b038211176200035457604052565b606081019081106001600160401b038211176200035457604052565b60001981146200038d576001019056fe608080604052600436101561001357600080fd5b600090813560e01c90816307ac1a5314611953575080630a137ffe1461192f578063189f0032146119135780632b6d7a66146118d6578063347027501461161a5780633ab3c647146115455780633babd14b1461151c578063405ebd4d146114935780634fe19878146113ab5780635311252b14611359578063549a4df2146112da57806369a69e29146112655780636a7ac177146112495780636c48d0ca1461122d578063715018a6146111d35780637277a192146111a75780637603d4b614610f6a5780637d67d6a414610e085780637e9bcf3114610c005780638104ae4d14610be257806385d4d88214610bc65780638da5cb5b14610b9f578063a49062d414610b83578063ba7b3b6114610b0d578063bcb3962114610aef578063d36f4a271461099c578063d3f3300914610973578063da032da21461021b578063dc185e35146101fd5763f2fde38b1461016b57600080fd5b346101fa5760203660031901126101fa5761018461196f565b61018c611e53565b6001600160a01b039081169081156101e157600054826bffffffffffffffffffffffff60a01b821617600055167f8be0079c531659141344cd1fd0a4f28419497f9722a3daafe3b4186f6b6457e0600080a380f35b604051631e4fbdf760e01b815260048101849052602490fd5b80fd5b50346101fa57806003193601126101fa5760206040516276a7008152f35b50346101fa57806003193601126101fa57610234611e53565b600854421061093757600654610275604051918083527f71b1ed1af5dc112f73a5ec9d0960e84a848b781220620ccc8fb91814ab3047be60208094a1611b6c565b600655426007556276a70042018042116109235760085560015b6014811115610779575060155b603281111561054b575060335b6064808211610509576005808306158284029284840414841517156104f557603284810290810485036104e157600a85066104da576002905b82156104c45760405168636f736d657469635f60b81b8882015260298781830152815261030e81611a66565b915b6040519561031d87611a04565b865287860191825260ff60408701911681526060860191674563918244f4000083526080870193845260a08701948552878a526004895260408a209651875551600187015551600286015560039051818601556004850191519081519167ffffffffffffffff83116104b05761039384546119ca565b90601f91828111610472575b508991841160011461040057926103eb96949281926103f09a9997958d936103f5575b50508260011b92600019911b1c19161790555b51151591019060ff801983541691151516179055565b611b6c565b6102a9565b0151915038806103c2565b848b52898b20929190601f1985168c5b8c82821061045c5750509285926103eb999795926103f09c9b999760019610610442575b50505050811b0190556103d5565b01519060f884600019921b161c1916905538808080610434565b6001859782939686015181550196019301610410565b858c528a8c20838087018a1c8201928d88106104a7575b01891c01905b81811061049c575061039f565b8c815560010161048f565b92508192610489565b634e487b7160e01b8a52604160045260248afd5b6040516104d081611a4a565b6000815291610310565b86906102e2565b634e487b7160e01b87526011600452602487fd5b634e487b7160e01b86526011600452602486fd5b837f140b0d71aeb7929ef4342c1cf14dc9b6c83b015cf00b0442ff0d4f916abdd29560608560065490600754600854916040519384528301526040820152a180f35b9190600a83061592606480820290828204148215171561076557601494828602958604830361075157801561074b5760015b81156107355760405168636f736d657469635f60b81b868201526029858183015281526105a981611a66565b905b604051936105b885611a04565b845285840197885260ff60408501911681526060840197671bc16d674ec8000089526080850192835260a08501938452858852600487526040882094518555516001850155516002840155600396518784015560048301905180519067ffffffffffffffff82116107215761062d83546119ca565b90601f918281116106e1575b508791831160011461068a579180899a600595936103eb9897956106859b9c936103f55750508260011b92600019911b1c191617905551151591019060ff801983541691151516179055565b61029c565b8389528789209190601f1984168a5b8181106106ca575092610685999a9b60019386936103eb9a999760059997106104425750505050811b0190556103d5565b92938a600181928786015181550195019301610699565b848a52888a20600584808701821c8301938c8810610718575b01901c01905b81811061070d5750610639565b8a8155600101610700565b935082936106fa565b634e487b7160e01b88526041600452602488fd5b60405161074181611a4a565b60008152906105ab565b8461057d565b634e487b7160e01b85526011600452602485fd5b634e487b7160e01b84526011600452602484fd5b919060649283810293818504148115171561092357600a93818502948504820361076557604051906107aa82611a04565b815282810194855260408101948486526060820195670de0b6b3a76400008752604051906107d782611a4a565b600082526080840191825260a0840192878452858852600487526040882094518555516001850155516002840155600396518784015560048301905180519067ffffffffffffffff82116107215761082f83546119ca565b90601f918281116108e3575b508791831160011461088c579180899a600595936103eb9897956108879b9c936103f55750508260011b92600019911b1c191617905551151591019060ff801983541691151516179055565b61028f565b8389528789209190601f1984168a5b8181106108cc575092610887999a9b60019386936103eb9a999760059997106104425750505050811b0190556103d5565b92938a60018192878601518155019501930161089b565b848a52888a20600584808701821c8301938c881061091a575b01901c01905b81811061090f575061083b565b8a8155600101610902565b935082936108fc565b634e487b7160e01b83526011600452602483fd5b60405162461bcd60e51b815260206004820152601460248201527314d9585cdbdb881b9bdd08195b991959081e595d60621b6044820152606490fd5b50346101fa57806003193601126101fa576003546040516001600160a01b039091168152602090f35b50346101fa57806003193601126101fa576109b5611e30565b33815260056020526003604082206109d1815460065414611db3565b0160ff815416610ab85760025482906001600160a01b0316803b15610aa95781809160a460405180948193634bca186960e11b835233600484015268056bc75e2d631000006024840152606060448401526013606484015272626174746c655f706173735f7072656d69756d60681b60848401525af18015610aad57610a95575b5050600160ff198254161790556006546040519081527ff61fde8ec7a5768ef660f77e081ad2d30433077f5ddc9edc94e4ce37fa28690560203392a26001805580f35b610a9e90611a36565b610aa9578138610a52565b5080fd5b6040513d84823e3d90fd5b60405162461bcd60e51b815260206004820152600f60248201526e416c7265616479207072656d69756d60881b6044820152606490fd5b50346101fa57806003193601126101fa576020600654604051908152f35b50346101fa5760203660031901126101fa5760c0906040906001600160a01b03610b3561196f565b168152600560205220805490600181015490600281015460ff6003830154169060056004840154930154936040519586526020860152604085015215156060840152608083015260a0820152f35b50346101fa57806003193601126101fa57602060405160648152f35b50346101fa57806003193601126101fa57546040516001600160a01b039091168152602090f35b50346101fa57806003193601126101fa576020604051600a8152f35b50346101fa57806003193601126101fa576020600754604051908152f35b50346101fa5760203660031901126101fa5767ffffffffffffffff8060043511610aa957366023600435011215610aa95760043560040135116101fa573660246004356004013560051b6004350101116101fa57610c5c611e30565b338152600560205260408120610c76815460065414611db3565b815b600435600401358110610c8d57826001805580f35b60248160051b600435010135600183015410610e0057600482015460248260051b6004350101351115610e0057606460248260051b60043501013511610e005760048035600583901b016024013580855260208290526040852091840155600181015460028201546003928301549285015492939260ff16610dcb575b83610d68575b604080516024600586901b60043501013581526020810193909352820152606081019290925260019133907f9e80c048bc588b388047ffc6e8153e7c11aa34312de7ed62e1858ff3a44ddce890608090a25b01610c78565b60025486906001600160a01b0316803b15610aa95781604051809262fe211960e51b8252818381610d9d8c3360048401611df0565b03925af18015610aad57610db3575b5050610d10565b610dbc90611a36565b610dc7578538610dac565b8580fd5b9290609690818102908082048314901517156104e157606490049180828102048214811517156104e157606491020492610d0a565b600190610d62565b50346101fa57806003193601126101fa57610e21611e30565b3381526020600581526040822054600654809114610f2557600854421015610ef15760405190610e5082611a04565b8152600582820184815260408301858152610ead60608501878152608086019288845260a0870194428652338a5286895260408a2097518855516001880155516002870155511515600386019060ff801983541691151516179055565b51600484015551910155600654604051918383528201527f865733bc245693104ccbd31e07509959719b9aa1f0b31481432822c9d73bb32160403392a26001805580f35b60405162461bcd60e51b815260048101839052600c60248201526b14d9585cdbdb88195b99195960a21b6044820152606490fd5b60405162461bcd60e51b815260048101839052601d60248201527f416c726561647920686176652070617373207468697320736561736f6e0000006044820152606490fd5b50346101fa57602090816003193601126101fa57600435610f89611e30565b338252600583526040822092610fa3845460065414611db3565b8160018501541061116f57600484019081548311156111395760648311611105576004908385525281604084209155600181015460ff6003806002850154940154960154166110d0575b84611042575b60408051938452602084019190915282015260608101929092529033907f9e80c048bc588b388047ffc6e8153e7c11aa34312de7ed62e1858ff3a44ddce89080608081015b0390a26001805580f35b6002546001600160a01b0316803b156110cc5784604051809262fe211960e51b82528183816110758c3360048401611df0565b03925af180156110c15761108a575b50610ff3565b7f9e80c048bc588b388047ffc6e8153e7c11aa34312de7ed62e1858ff3a44ddce893946110b961103892611a36565b949350611084565b6040513d87823e3d90fd5b8480fd5b609681029080820460961490151715610765576064900493609681029080820460961490151715610765576064900493610fed565b6064906040519062461bcd60e51b82526004820152600d60248201526c125b9d985b1a59081b195d995b609a1b6044820152fd5b6064906040519062461bcd60e51b82526004820152600f60248201526e105b1c9958591e4818db185a5b5959608a1b6044820152fd5b6064906040519062461bcd60e51b82526004820152601160248201527013195d995b081b9bdd081c995858da1959607a1b6044820152fd5b50346101fa5760203660031901126101fa5760206111cb6111c661196f565b611d3b565b604051908152f35b50346101fa57806003193601126101fa576111ec611e53565b80546001600160a01b03198116825581906001600160a01b03167f8be0079c531659141344cd1fd0a4f28419497f9722a3daafe3b4186f6b6457e08280a380f35b50346101fa57806003193601126101fa57602060405160058152f35b50346101fa57806003193601126101fa57602060405160018152f35b50346101fa5760209060206003193601126101fa5761128a61128561196f565b611ba0565b916040519460808601608087528551809152602060a088019601915b8181106112c6575050508495506020850152604084015260608301520390f35b8251875295880195918801916001016112a6565b50346101fa5760203660031901126101fa576040906004358152600460205220805460018201549161134d600282015491600381015460ff600561132060048501611aa4565b9301541693604051968796875260208701526040860152606085015260c0608085015260c084019061198a565b90151560a08301520390f35b50346101fa57806003193601126101fa576008549042821161139b575b6006546007546040805192835260208301919091528101929092526060820152608090f35b506113a64282611b7b565b611376565b50346101fa57602090816003193601126101fa578060409160a083516113d081611a04565b82815282868201528285820152826060820152606060808201520152600435815260048352206040519061140382611a04565b805482526114866001820154918484019283526002810154604085019081526003820154906060860191825260ff600561143f60048601611aa4565b94608089019586520154169460a08701951515865260405197889781895251908801525160408701525160608601525160808501525160c060a085015260e084019061198a565b9051151560c08301520390f35b50346101fa5760203660031901126101fa576114ad61196f565b6114b5611e53565b6001600160a01b031680156114df576bffffffffffffffffffffffff60a01b600354161760035580f35b60405162461bcd60e51b8152602060048201526015602482015274125b9d985b1a590819d85b594818dbdb9d1c9858dd605a1b6044820152606490fd5b50346101fa57806003193601126101fa576002546040516001600160a01b039091168152602090f35b50346101fa5760203660031901126101fa57604060c09161156461196f565b8160a0845161157281611a04565b8281528260208201528286820152826060820152826080820152015260018060a01b031681526005602052206040516115aa81611a04565b81549182825260018101546020830190815260028201546040840190815260ff6003840154169160608501921515835260a06005600486015495608088019687520154950194855260405195865251602086015251604085015251151560608401525160808301525160a0820152f35b50346101fa5760603660031901126101fa5761163461196f565b60249182359167ffffffffffffffff9160443591838311610aa95736602384011215610aa9578260040135938411610aa95736868585010111610aa957611679611e30565b6003546001600160a01b03919082163303611892571693841561185d5784825260209360058552604083209687546006548091036117ad575b5060028801946116c3848754611b49565b86555b6001808a019081549060648210908161177a575b501561171c57888a9261170d7f91e51c29e7e87a74ad3b8ccba98538970f50a4309242735467f41e27c6b0fbac93611b6c565b809155604051908152a26116c6565b868a7f616438abc33145cf0e17c768a844bd5f0a52ae38624743a3c5bacd67d5b36bef8b60608a8a808b8b60408051978896875286015282604086015201848401378181018301879052601f01601f19168101030190a26001805580f35b89549150820180831161179a57885260048a5260408820541115386116da565b634e487b7160e01b895260116004528589fd5b6040519198506117bc82611a04565b81528581018481526040820185815261181860608401878152608085019288845260a08601944286528c8a5260058c5260408a2096518755516001870155516002860155511515600385019060ff801983541691151516179055565b51600483015551600582015596867f865733bc245693104ccbd31e07509959719b9aa1f0b31481432822c9d73bb32160406006548151908882528a820152a2386116b2565b60405162461bcd60e51b815260206004820152600e818801526d24b73b30b634b210383630bcb2b960911b6044820152606490fd5b60405162461bcd60e51b815260206004820152601f818901527f4f6e6c792067616d6520636f6e74726163742063616e206177617264205850006044820152606490fd5b50346101fa5760203660031901126101fa576020906040906001600160a01b036118fe61196f565b16815260058352205460065414604051908152f35b50346101fa57806003193601126101fa57602060405160038152f35b50346101fa57806003193601126101fa57602060405168056bc75e2d631000008152f35b905034610aa95781600319360112610aa9576020906008548152f35b600435906001600160a01b038216820361198557565b600080fd5b919082519283825260005b8481106119b6575050826000602080949584010152601f8019910116010190565b602081830181015184830182015201611995565b90600182811c921680156119fa575b60208310146119e457565b634e487b7160e01b600052602260045260246000fd5b91607f16916119d9565b60c0810190811067ffffffffffffffff821117611a2057604052565b634e487b7160e01b600052604160045260246000fd5b67ffffffffffffffff8111611a2057604052565b6020810190811067ffffffffffffffff821117611a2057604052565b6060810190811067ffffffffffffffff821117611a2057604052565b90601f8019910116810190811067ffffffffffffffff821117611a2057604052565b90604051918260008254611ab7816119ca565b90818452602094600191600181169081600014611b275750600114611ae8575b505050611ae692500383611a82565b565b600090815285812095935091905b818310611b0f575050611ae69350820101388080611ad7565b85548884018501529485019487945091830191611af6565b92505050611ae694925060ff191682840152151560051b820101388080611ad7565b91908201809211611b5657565b634e487b7160e01b600052601160045260246000fd5b6000198114611b565760010190565b91908203918211611b5657565b67ffffffffffffffff8111611a205760051b60200190565b9060009160009160009160018060a01b031660005260056020526040600020805460065403611d2a57600181015490600481015490611bdf8284611b7b565b928315611d0157611bef84611b88565b93611bfd6040519586611a82565b808552611c0c601f1991611b88565b0136602086013760009260018101809111611b5657600360ff91930154165b81831115611c3d575050505093929190565b90919295968451871015611ceb5781908460208960051b8801015284600052600460205260406000209960018b01549060038c015493611cb4575b92611c9b611ca7936002611c92611ca195611cad98611b49565b9e015490611b49565b9a611b49565b97611b6c565b93611b6c565b9190611c2b565b90609681029080820460961490151715611b56576064900490609684029380850460961490151715611b5657606490930492611c78565b634e487b7160e01b600052603260045260246000fd5b5050505092505050604051611d1581611a4a565b60008152600036813790600090600090600090565b5092505050604051611d1581611a4a565b6001600160a01b03166000908152600560205260408120805460065414801590611da4575b611da0576001810154600181018091116109235782526004602052600260408320549101549080821015611d9b57611d989250611b7b565b90565b505090565b5090565b50606460018201541015611d60565b15611dba57565b60405162461bcd60e51b815260206004820152600e60248201526d4e6f20616374697665207061737360901b6044820152606490fd5b909160a092600180851b03168252602082015260606040820152601260608201527118985d1d1b1957dc185cdcd7dc995dd85c9960721b60808201520190565b600260015414611e41576002600155565b604051633ee5aeb560e01b8152600490fd5b6000546001600160a01b03163303611e6757565b60405163118cdaa760e01b8152336004820152602490fdfea26469706673582212203ddb8b81cb8dff9bf7a489c901439290f4ae27e4765b4ada0972607e5fe851e164736f6c63430008180033",
  "linkReferences": {},
  "deployedLinkReferences": {}
}