{"contracts/WagerArena.sol":{"WagerArena":{"abi":[{"inputs":[{"internalType":"address","name":"_gameContract","type":"address"},{"internalType":"address","name":"_agentController","type":"address"},{"internalType":"address","name":"_seasToken","type":"address"},{"internalType":"address","name":"_treasury","type":"address"}],"stateMutability":"nonpayable","type":"constructor"},{"inputs":[{"internalType":"address","name":"owner","type":"address"}],"name":"OwnableInvalidOwner","type":"error"},{"inputs":[{"internalType":"address","name":"account","type":"address"}],"name":"OwnableUnauthorizedAccount","type":"error"},{"inputs":[],"name":"ReentrancyGuardReentrantCall","type":"error"},{"anonymous":false,"inputs":[{"indexed":true,"internalType":"uint256","name":"matchId","type":"uint256"},{"indexed":true,"internalType":"address","name":"opponent","type":"address"}],"name":"MatchAccepted","type":"event"},{"anonymous":false,"inputs":[{"indexed":true,"internalType":"uint256","name":"matchId","type":"uint256"},{"indexed":true,"internalType":"address","name":"challenger","type":"address"}],"name":"MatchCancelled","type":"event"},{"anonymous":false,"inputs":[{"indexed":true,"internalType":"uint256","name":"matchId","type":"uint256"},{"indexed":true,"internalType":"address","name":"winner","type":"address"},{"indexed":false,"internalType":"uint256","name":"payout","type":"uint256"},{"indexed":false,"internalType":"uint256","name":"rounds","type":"uint256"}],"name":"MatchCompleted","type":"event"},{"anonymous":false,"inputs":[{"indexed":true,"internalType":"uint256","name":"matchId","type":"uint256"},{"indexed":true,"internalType":"address","name":"challenger","type":"address"},{"indexed":true,"internalType":"address","name":"opponent","type":"address"},{"indexed":false,"internalType":"uint256","name":"wagerAmount","type":"uint256"}],"name":"MatchCreated","type":"event"},{"anonymous":false,"inputs":[{"indexed":true,"internalType":"address","name":"previousOwner","type":"address"},{"indexed":true,"internalType":"address","name":"newOwner","type":"address"}],"name":"OwnershipTransferred","type":"event"},{"anonymous":false,"inputs":[{"indexed":true,"internalType":"address","name":"treasury","type":"address"}],"name":"TreasurySet","type":"event"},{"inputs":[],"name":"HOUSE_FEE_BPS","outputs":[{"internalType":"uint256","name":"","type":"uint256"}],"stateMutability":"view","type":"function"},{"inputs":[],"name":"MATCH_EXPIRY","outputs":[{"internalType":"uint256","name":"","type":"uint256"}],"stateMutability":"view","type":"function"},{"inputs":[],"name":"MAX_WAGER","outputs":[{"internalType":"uint256","name":"","type":"uint256"}],"stateMutability":"view","type":"function"},{"inputs":[],"name":"MIN_WAGER","outputs":[{"internalType":"uint256","name":"","type":"uint256"}],"stateMutability":"view","type":"function"},{"inputs":[{"internalType":"uint256","name":"matchId","type":"uint256"}],"name":"acceptMatch","outputs":[],"stateMutability":"nonpayable","type":"function"},{"inputs":[],"name":"agentController","outputs":[{"internalType":"contract IAgentController","name":"","type":"address"}],"stateMutability":"view","type":"function"},{"inputs":[{"internalType":"address","name":"","type":"address"},{"internalType":"uint256","name":"","type":"uint256"}],"name":"agentMatches","outputs":[{"internalType":"uint256","name":"","type":"uint256"}],"stateMutability":"view","type":"function"},{"inputs":[{"internalType":"uint256","name":"matchId","type":"uint256"}],"name":"cancelMatch","outputs":[],"stateMutability":"nonpayable","type":"function"},{"inputs":[{"internalType":"uint256","name":"wagerAmount","type":"uint256"}],"name":"createMatch","outputs":[{"internalType":"uint256","name":"matchId","type":"uint256"}],"stateMutability":"nonpayable","type":"function"},{"inputs":[{"internalType":"uint256","name":"matchId","type":"uint256"}],"name":"executeBattle","outputs":[],"stateMutability":"nonpayable","type":"function"},{"inputs":[],"name":"gameContract","outputs":[{"internalType":"contract IGameContractDuel","name":"","type":"address"}],"stateMutability":"view","type":"function"},{"inputs":[{"internalType":"address","name":"agent","type":"address"}],"name":"getAgentMatchHistory","outputs":[{"internalType":"uint256[]","name":"","type":"uint256[]"}],"stateMutability":"view","type":"function"},{"inputs":[{"internalType":"uint256","name":"matchId","type":"uint256"}],"name":"getMatchDetails","outputs":[{"internalType":"address","name":"agent1","type":"address"},{"internalType":"address","name":"agent2","type":"address"},{"internalType":"uint256","name":"wagerAmount","type":"uint256"},{"internalType":"bool","name":"isAccepted","type":"bool"},{"internalType":"bool","name":"isCompleted","type":"bool"},{"internalType":"address","name":"winner","type":"address"},{"internalType":"uint256","name":"rounds","type":"uint256"}],"stateMutability":"view","type":"function"},{"inputs":[],"name":"getOpenMatches","outputs":[{"internalType":"uint256[]","name":"","type":"uint256[]"}],"stateMutability":"view","type":"function"},{"inputs":[{"internalType":"uint256","name":"count","type":"uint256"}],"name":"getRecentMatches","outputs":[{"internalType":"uint256[]","name":"","type":"uint256[]"}],"stateMutability":"view","type":"function"},{"inputs":[],"name":"matchCounter","outputs":[{"internalType":"uint256","name":"","type":"uint256"}],"stateMutability":"view","type":"function"},{"inputs":[{"internalType":"uint256","name":"","type":"uint256"}],"name":"matches","outputs":[{"internalType":"uint256","name":"matchId","type":"uint256"},{"internalType":"address","name":"agent1","type":"address"},{"internalType":"address","name":"agent2","type":"address"},{"internalType":"uint256","name":"wagerAmount","type":"uint256"},{"internalType":"bool","name":"isAccepted","type":"bool"},{"internalType":"bool","name":"isCompleted","type":"bool"},{"internalType":"bool","name":"isCancelled","type":"bool"},{"internalType":"address","name":"winner","type":"address"},{"internalType":"uint256","name":"timestamp","type":"uint256"},{"internalType":"uint256","name":"rounds","type":"uint256"}],"stateMutability":"view","type":"function"},{"inputs":[],"name":"owner","outputs":[{"internalType":"address","name":"","type":"address"}],"stateMutability":"view","type":"function"},{"inputs":[],"name":"predictionMarket","outputs":[{"internalType":"contract IPredictionMarket","name":"","type":"address"}],"stateMutability":"view","type":"function"},{"inputs":[],"name":"renounceOwnership","outputs":[],"stateMutability":"nonpayable","type":"function"},{"inputs":[],"name":"seasToken","outputs":[{"internalType":"contract IERC20","name":"","type":"address"}],"stateMutability":"view","type":"function"},{"inputs":[{"internalType":"address","name":"_pm","type":"address"}],"name":"setPredictionMarket","outputs":[],"stateMutability":"nonpayable","type":"function"},{"inputs":[{"internalType":"address","name":"_treasury","type":"address"}],"name":"setTreasury","outputs":[],"stateMutability":"nonpayable","type":"function"},{"inputs":[{"internalType":"address","name":"newOwner","type":"address"}],"name":"transferOwnership","outputs":[],"stateMutability":"nonpayable","type":"function"},{"inputs":[],"name":"treasury","outputs":[{"internalType":"address","name":"","type":"address"}],"stateMutability":"view","type":"function"}],"evm":{"bytecode":{"linkReferences":{},"object":"6080346200012057601f62001bc038819003918201601f19168301916001600160401b03831184841017620001255780849260809460405283398101031262000120576200004d816200013b565b6200005b602083016200013b565b9162000078606062000070604084016200013b565b92016200013b565b6001600055331562000107576001549360018060a01b03928380928160018060a01b03199733898b161760015560405199823391167f8be0079c531659141344cd1fd0a4f28419497f9722a3daafe3b4186f6b6457e0600080a316876003541617600355168560045416176004551683600254161760025516906006541617600655611a6f9081620001518239f35b604051631e4fbdf760e01b815260006004820152602490fd5b600080fd5b634e487b7160e01b600052604160045260246000fd5b51906001600160a01b0382168203620001205756fe608060408181526004918236101561001657600080fd5b600092833560e01c91826301fd1951146116ff5750816303b88ba2146116bf5781631504f5cd146111885781631594b2561461116b5781632df5d126146110ec57816343a02ff0146110c35781634768d4ef14611022578163554bfee214610e945781635cc49f2314610e6c57816361d027b314610e43578163715018a614610de55781637f04532714610dc15781638da5cb5b14610d9857816390a3253b14610d7b578163a7030eaa14610d25578163b67a88f91461083d578163be487539146107a7578163bebcd21e14610511578163d02c8cdf1461032f578163d3f3300914610306578163def114b6146102dd578163f0f4426014610272578163f2fde38b146101e657508063fca9db771461015d5763fdb6cf451461013857600080fd5b3461015957816003193601126101595760209051670de0b6b3a76400008152f35b5080fd5b50346101595760209060206003193601126101e2576001600160a01b0361018261171b565b168352600960205280832092815180936020865492838152019583526020832092905b8282106101cb576101c786866101bd828b0383611879565b5191829182611736565b0390f35b8354875295860195600193840193909101906101a5565b8280fd5b9050346101e25760203660031901126101e25761020161171b565b9061020a6119ea565b6001600160a01b0391821692831561025c575050600154826001600160601b0360a01b821617600155167f8be0079c531659141344cd1fd0a4f28419497f9722a3daafe3b4186f6b6457e0600080a380f35b51631e4fbdf760e01b8152908101849052602490fd5b83346102da5760203660031901126102da5761028c61171b565b6102946119ea565b600680546001600160a01b0319166001600160a01b039290921691821790557f3c864541ef71378c6229510ed90f376565ee42d9c5e0904a984a9e863e6db44f8280a280f35b80fd5b50503461015957816003193601126101595760055490516001600160a01b039091168152602090f35b50503461015957816003193601126101595760035490516001600160a01b039091168152602090f35b919050346101e2576020908160031936011261050d57823592610350611a16565b8385526008835281852092600184019260018060a01b039485855416908133036104d557848101805461038660ff8216156119ab565b61039660ff8260081c16156117d7565b60ff8160101c1661049e5762ff0000191662010000179055600254600390910154835163a9059cbb60e01b81526001600160a01b039093168684019081526020810191909152849183919089169082908c90829060400103925af1908115610494578891610467575b5015610436575050505416907f34d66c87f348a9492b2a7fe1463b02de9cab509ca7872ee83878909d9805c3a88380a36001815580f35b5162461bcd60e51b815291820152600d60248201526c1499599d5b990819985a5b1959609a1b604482015260649150fd5b6104879150833d851161048d575b61047f8183611879565b8101906118be565b386103ff565b503d610475565b82513d8a823e3d90fd5b845162461bcd60e51b81528088018790526011602482015270105b1c9958591e4818d85b98d95b1b1959607a1b6044820152606490fd5b50505162461bcd60e51b81529182015260126024820152712737ba103a34329031b430b63632b733b2b960711b604482015260649150fd5b8380fd5b83833461015957602092836003193601126101e257803591610531611a16565b82845260088552808420948286019261056c60ff8554610553828216156119ab565b610562828260081c16156117d7565b60101c1615611817565b60018701805490926001600160a01b039182168015610772573314610738576005890154610e1081018091116107255742116106f35760025460038a015486516323b872dd60e01b8152338682019081523060208201526040810192909252999a98998b99929091849183918290036060019082908d9089165af19081156106e95791610606600292600995948c916106cc575b50611943565b0196336001600160601b0360a01b895416178855600160ff198254161790553388525261063587858820611986565b8060055416928361066f575b8633897f3b8d451bc77cb8362426b579170661ca3515d7fa4c08b9627c660328f03110088380a36001815580f35b8190541694541690823b156106c857858793606493829651978896879563302a627760e01b8752860152602485015260448401525af16106b4575b8080808080610641565b6106bd9061184f565b6101595781836106aa565b8580fd5b6106e39150853d871161048d5761047f8183611879565b8e610600565b87513d8b823e3d90fd5b8260649186519162461bcd60e51b8352820152600d60248201526c13585d18da08195e1c1a5c9959609a1b6044820152fd5b634e487b7160e01b895260118452602489fd5b8260649186519162461bcd60e51b8352820152601560248201527421b0b73737ba103334b3b43a103cb7bab939b2b63360591b6044820152fd5b855162461bcd60e51b8152808501839052600f60248201526e13585d18da081b9bdd08199bdd5b99608a1b6044820152606490fd5b83833461015957602036600319011261015957600a548335808210156108375750805b6107d3826118fd565b936000198201918211815b8481106107f2578551806101c78982611736565b81610824578061080c6108076001938761189b565b611772565b90549060031b1c61081d828a61192f565b52016107de565b634e487b7160e01b835260118852602483fd5b906107ca565b9050346101e2576020918260031936011261050d5781359361085d611a16565b670de0b6b3a76400008510610ce357683635c9adc5dea000008511610ca1578254825163c3c5a54760e01b815233818601526001600160a01b039460249290919086169087818581855afa908115610c9757908492918691610c7a575b50610bd5575b505060025484516323b872dd60e01b815233838201908152306020820152604081018a905290918891839189169082908890829060600103925af1908115610bcb5790610913918591610bae5750611943565b61091e6007546118d6565b9485600755845190610140820182811067ffffffffffffffff821117610b9a578583610a308982958e9998978e8e600698855280835281830133815285840190898252606085019e8f5260808501968a88528a600860a088019682885260c089019683885261012061010060e08c019b868d52019e8f429052019e8f52835252209b518c558560018d01915116906001600160601b0360a01b91828254161790558560028d019251169082541617905560039c5160038b01558a8a01945115159160ff62ff000061ff0088549351151560081b169351151560101b1693169062ffffff1916171717835551168154906301000000600160b81b039060181b16906301000000600160b81b031916179055565b5160058401555191015533845260098752610a4d86868620611986565b600a918254600160401b811015610b865787610a71826001610a8a94018755611772565b90919082549060031b91821b91600019901b1916179055565b6032835411610acf575b5050505080600191868451908152857f2c9089bdab8aeea6a8c5e41b785290b63781dd5c648c9c824bcc0883237cff32883393a45551908152f35b94909591969297845b88546000198101908111610b1c57811015610b2e5760018101808211610b1c5790610b16610b07600193611772565b9054908d1b1c610a7183611772565b01610ad8565b634e487b7160e01b8752601189528787fd5b50939490959297509590958154928315610b75575050918392916001949260001980920191610b5c83611772565b909182549160031b1b1916905555959493923880610a94565b634e487b7160e01b86526031905284fd5b50634e487b7160e01b600090815260418352fd5b84604185634e487b7160e01b600052526000fd5b610bc59150883d8a1161048d5761047f8183611879565b38610600565b85513d86823e3d90fd5b60a0908651928380926316ad2b6760e31b825233878301525afa908115610bcb579088918591610c45575b5010610c0d5781386108c0565b60156064928786519362461bcd60e51b855284015282015274125b9cdd59999a58da595b9d0818985b9adc9bdb1b605a1b6044820152fd5b91505060a0813d60a011610c72575b81610c6160a09383611879565b8101031261050d5787905138610c00565b3d9150610c54565b610c919150893d8b1161048d5761047f8183611879565b386108ba565b86513d87823e3d90fd5b5091606492519162461bcd60e51b8352820152601f60248201527f57616765722061626f7665206d6178696d756d202831303030205345415329006044820152fd5b5091606492519162461bcd60e51b8352820152601c60248201527f57616765722062656c6f77206d696e696d756d202831205345415329000000006044820152fd5b505034610159578060031936011261015957610d3f61171b565b6001600160a01b031682526009602052808220805460243593908410156102da5750602092610d6d916117bf565b91905490519160031b1c8152f35b50503461015957816003193601126101595760209051610e108152f35b50503461015957816003193601126101595760015490516001600160a01b039091168152602090f35b50503461015957816003193601126101595760209051683635c9adc5dea000008152f35b83346102da57806003193601126102da57610dfe6119ea565b600180546001600160a01b031981169091556000906001600160a01b03167f8be0079c531659141344cd1fd0a4f28419497f9722a3daafe3b4186f6b6457e08280a380f35b50503461015957816003193601126101595760065490516001600160a01b039091168152602090f35b9050346101e257826003193601126101e2575490516001600160a01b03909116815260209150f35b905082346102da57806003193601126102da57600754908060015b83811115610f825750610ec1906118fd565b928160015b84811115610edb578651806101c78882611736565b8082526008806020528783208481015460ff90818116159384610f74575b5083610f66575b505081610f36575b5090610f1791610f1c576118d6565b610ec6565b80610f30610f29876118d6565b968961192f565b526118d6565b600591500154610e108101809111610f5357421115610f17610f08565b634e487b7160e01b835260118452602483fd5b60101c161591508980610f00565b81901c82161593508b610ef9565b8083526008806020528684208681015460ff90818116159384611014575b5083611006575b505081610fd8575b50610fc3575b610fbe906118d6565b610eaf565b90610fd0610fbe916118d6565b919050610fb5565b600591500154610e108101809111610ff35742111587610faf565b634e487b7160e01b845260118652602484fd5b60101c161591508880610fa7565b81901c82161593508a610fa0565b9050346101e25760203660031901126101e25781610140938235815260086020522080549260018060a01b039081600184015416938260028501541660038501549185015492600660058701549601549681519889526020890152870152606086015260ff81161515608086015260ff8160081c16151560a086015260ff8160101c16151560c086015260181c1660e0840152610100830152610120820152f35b50503461015957816003193601126101595760025490516001600160a01b039091168152602090f35b919050346101e25760203660031901126101e2578060e0938335815260086020522060018060a01b0390816001820154169382600283015416936006600384015492840154930154948151968752602087015285015260ff81161515606085015260ff8160081c161515608085015260181c1660a083015260c0820152f35b505034610159578160031936011261015957602090516101f48152f35b905082346102da57602080600319360112610159578235906111a8611a16565b8183526008815284832094848601805460ff8116156116895760ff81610562826111d69460081c16156117d7565b60018701805490966001600160a01b0391821691338314801561167a575b801561166d575b15611636578798998160035416908660028201926044858554169783519d8e938492630178545360e41b84528a84015260249a8b8401525af195861561162c578b9a8c976115e5575b50805462ff0100600160b81b0319166301000000600160b81b0360188d901b1617610100179055600681018690556003018054600181901b9c9192919080156002918f049190911417156115d3578c6101f48082029e8f0414811517156115c157858d9e9d6112fc8e9f9c809e9f6112c38e9f6127109004809761189b565b9d8e91858c60025416925180968195829463a9059cbb60e01b9b8c8552840160209093929193604081019460018060a01b031681520152565b03925af19182156115b65791611599575b501561156757818f918c8e918997969515158061155a575b61148e575b505050505082809154169c169b808d14600014611486575054165b82845416908254918d813b156102da578760648f836001958f988c995197889687956332b0e7c960e21b9c8d885287015285015260448401525af1611469575b50845492548d9695949384169291833b15611465576064859389809681958f5197889687958652168b850152828c85015260448401525af1611451575b5050600554169081611405575b505050507fd87807c41517dc00ed5553199a04676c5ef960776ddbf91d8cffec4a769a4582938351928352820152a36001815580f35b813b1561050d57604489918580948d8b519788968795631813610960e31b87528601528401525af1611439575b80806113cf565b6114429061184f565b61144d578688611432565b8680fd5b61145a9061184f565b61050d57838c6113c2565b8780fd5b61147a909d9196959493929d61184f565b9b90919293948d611385565b915050611345565b90919293949596858b9160025416926114cc8c600654169551978896879586948552840160209093929193604081019460018060a01b031681520152565b03925af191821561154f5791611532575b50156114f0579083918d8f8c8c8261132a565b885162461bcd60e51b81528086018b90526018818801527f5472656173757279207472616e73666572206661696c656400000000000000006044820152606490fd5b61154991508b3d8d1161048d5761047f8183611879565b8e6114dd565b8b51903d90823e3d90fd5b5087600654161515611325565b8a5162461bcd60e51b81528088018d9052600d818a01526c14185e5bdd5d0819985a5b1959609a1b6044820152606490fd5b6115b091508d803d1061048d5761047f8183611879565b3861130d565b8d51903d90823e3d90fd5b634e487b7160e01b8d5260118652868dfd5b634e487b7160e01b8c5260118552858cfd5b9a509550868a813d8111611625575b6115fe8183611879565b8101031261162157895199838b168b0361161d57880151956003611244565b8b80fd5b8a80fd5b503d6115f4565b87513d8d823e3d90fd5b845162461bcd60e51b81528083018790526011602482015270139bdd0818481c185c9d1a58da5c185b9d607a1b6044820152606490fd5b50806001541633146111fb565b508060028b01541633146111f4565b825162461bcd60e51b8152808801859052601060248201526f139bdd081858d8d95c1d1959081e595d60821b6044820152606490fd5b83346102da5760203660031901126102da576116d961171b565b6116e16119ea565b60018060a01b03166001600160601b0360a01b600554161760055580f35b8490346101595781600319360112610159576020906007548152f35b600435906001600160a01b038216820361173157565b600080fd5b602090602060408183019282815285518094520193019160005b82811061175e575050505090565b835185529381019392810192600101611750565b600a548110156117a957600a6000527fc65a7bb8d6351c1cf70c95a316cc6a92839c986682d98bc35f958f4883f9d2a80190600090565b634e487b7160e01b600052603260045260246000fd5b80548210156117a95760005260206000200190600090565b156117de57565b60405162461bcd60e51b8152602060048201526011602482015270105b1c9958591e4818dbdb5c1b195d1959607a1b6044820152606490fd5b1561181e57565b60405162461bcd60e51b815260206004820152600960248201526810d85b98d95b1b195960ba1b6044820152606490fd5b67ffffffffffffffff811161186357604052565b634e487b7160e01b600052604160045260246000fd5b90601f8019910116810190811067ffffffffffffffff82111761186357604052565b919082039182116118a857565b634e487b7160e01b600052601160045260246000fd5b90816020910312611731575180151581036117315790565b60001981146118a85760010190565b67ffffffffffffffff81116118635760051b60200190565b90611907826118e5565b6119146040519182611879565b8281528092611925601f19916118e5565b0190602036910137565b80518210156117a95760209160051b010190565b1561194a57565b60405162461bcd60e51b815260206004820152601460248201527314d15054c81d1c985b9cd9995c8819985a5b195960621b6044820152606490fd5b90815491600160401b8310156118635782610a719160016119a9950181556117bf565b565b156119b257565b60405162461bcd60e51b815260206004820152601060248201526f105b1c9958591e481858d8d95c1d195960821b6044820152606490fd5b6001546001600160a01b031633036119fe57565b60405163118cdaa760e01b8152336004820152602490fd5b600260005414611a27576002600055565b604051633ee5aeb560e01b8152600490fdfea2646970667358221220e8a9bf08313347e63f4bc3613c14ac4a40d7bc41a9e028af15e429fef74817d064736f6c63430008180033","opcodes":"PUSH1 0x80 CALLVALUE PUSH3 0x120 JUMPI PUSH1 0x1F PUSH3 0x1BC0 CODESIZE DUP2 SWAP1 SUB SWAP2 DUP3 ADD PUSH1 0x1F NOT AND DUP4 ADD SWAP2 PUSH1 0x1 PUSH1 0x1 PUSH1 0x40 SHL SUB DUP4 GT DUP5 DUP5 LT OR PUSH3 0x125 JUMPI DUP1 DUP5 SWAP3 PUSH1 0x80 SWAP5 PUSH1 0x40 MSTORE DUP4 CODECOPY DUP2 ADD SUB SLT PUSH3 0x120 JUMPI PUSH3 0x4D DUP2 PUSH3 0x13B JUMP JUMPDEST PUSH3 0x5B PUSH1 0x20 DUP4 ADD PUSH3 0x13B JUMP JUMPDEST SWAP2 PUSH3 0x78 PUSH1 0x60 PUSH3 0x70 PUSH1 0x40 DUP5 ADD PUSH3 0x13B JUMP JUMPDEST SWAP3 ADD PUSH3 0x13B JUMP JUMPDEST PUSH1 0x1 PUSH1 0x0 SSTORE CALLER ISZERO PUSH3 0x107 JUMPI PUSH1 0x1 SLOAD SWAP4 PUSH1 0x1 DUP1 PUSH1 0xA0 SHL SUB SWAP3 DUP4 DUP1 SWAP3 DUP2 PUSH1 0x1 DUP1 PUSH1 0xA0 SHL SUB NOT SWAP8 CALLER DUP10 DUP12 AND OR PUSH1 0x1 SSTORE PUSH1 0x40 MLOAD SWAP10 DUP3 CALLER SWAP2 AND PUSH32 0x8BE0079C531659141344CD1FD0A4F28419497F9722A3DAAFE3B4186F6B6457E0 PUSH1 0x0 DUP1 LOG3 AND DUP8 PUSH1 0x3 SLOAD AND OR PUSH1 0x3 SSTORE AND DUP6 PUSH1 0x4 SLOAD AND OR PUSH1 0x4 SSTORE AND DUP4 PUSH1 0x2 SLOAD AND OR PUSH1 0x2 SSTORE AND SWAP1 PUSH1 0x6 SLOAD AND OR PUSH1 0x6 SSTORE PUSH2 0x1A6F SWAP1 DUP2 PUSH3 0x151 DUP3 CODECOPY RETURN JUMPDEST PUSH1 0x40 MLOAD PUSH4 0x1E4FBDF7 PUSH1 0xE0 SHL DUP2 MSTORE PUSH1 0x0 PUSH1 0x4 DUP3 ADD MSTORE PUSH1 0x24 SWAP1 REVERT JUMPDEST PUSH1 0x0 DUP1 REVERT JUMPDEST PUSH4 0x4E487B71 PUSH1 0xE0 SHL PUSH1 0x0 MSTORE PUSH1 0x41 PUSH1 0x4 MSTORE PUSH1 0x24 PUSH1 0x0 REVERT JUMPDEST MLOAD SWAP1 PUSH1 0x1 PUSH1 0x1 PUSH1 0xA0 SHL SUB DUP3 AND DUP3 SUB PUSH3 0x120 JUMPI JUMP INVALID PUSH1 0x80 PUSH1 0x40 DUP2 DUP2 MSTORE PUSH1 0x4 SWAP2 DUP3 CALLDATASIZE LT ISZERO PUSH2 0x16 JUMPI PUSH1 0x0 DUP1 REVERT JUMPDEST PUSH1 0x0 SWAP3 DUP4 CALLDATALOAD PUSH1 0xE0 SHR SWAP2 DUP3 PUSH4 0x1FD1951 EQ PUSH2 0x16FF JUMPI POP DUP2 PUSH4 0x3B88BA2 EQ PUSH2 0x16BF JUMPI DUP2 PUSH4 0x1504F5CD EQ PUSH2 0x1188 JUMPI DUP2 PUSH4 0x1594B256 EQ PUSH2 0x116B JUMPI DUP2 PUSH4 0x2DF5D126 EQ PUSH2 0x10EC JUMPI DUP2 PUSH4 0x43A02FF0 EQ PUSH2 0x10C3 JUMPI DUP2 PUSH4 0x4768D4EF EQ PUSH2 0x1022 JUMPI DUP2 PUSH4 0x554BFEE2 EQ PUSH2 0xE94 JUMPI DUP2 PUSH4 0x5CC49F23 EQ PUSH2 0xE6C JUMPI DUP2 PUSH4 0x61D027B3 EQ PUSH2 0xE43 JUMPI DUP2 PUSH4 0x715018A6 EQ PUSH2 0xDE5 JUMPI DUP2 PUSH4 0x7F045327 EQ PUSH2 0xDC1 JUMPI DUP2 PUSH4 0x8DA5CB5B EQ PUSH2 0xD98 JUMPI DUP2 PUSH4 0x90A3253B EQ PUSH2 0xD7B JUMPI DUP2 PUSH4 0xA7030EAA EQ PUSH2 0xD25 JUMPI DUP2 PUSH4 0xB67A88F9 EQ PUSH2 0x83D JUMPI DUP2 PUSH4 0xBE487539 EQ PUSH2 0x7A7 JUMPI DUP2 PUSH4 0xBEBCD21E EQ PUSH2 0x511 JUMPI DUP2 PUSH4 0xD02C8CDF EQ PUSH2 0x32F JUMPI DUP2 PUSH4 0xD3F33009 EQ PUSH2 0x306 JUMPI DUP2 PUSH4 0xDEF114B6 EQ PUSH2 0x2DD JUMPI DUP2 PUSH4 0xF0F44260 EQ PUSH2 0x272 JUMPI DUP2 PUSH4 0xF2FDE38B EQ PUSH2 0x1E6 JUMPI POP DUP1 PUSH4 0xFCA9DB77 EQ PUSH2 0x15D JUMPI PUSH4 0xFDB6CF45 EQ PUSH2 0x138 JUMPI PUSH1 0x0 DUP1 REVERT JUMPDEST CALLVALUE PUSH2 0x159 JUMPI DUP2 PUSH1 0x3 NOT CALLDATASIZE ADD SLT PUSH2 0x159 JUMPI PUSH1 0x20 SWAP1 MLOAD PUSH8 0xDE0B6B3A7640000 DUP2 MSTORE RETURN JUMPDEST POP DUP1 REVERT JUMPDEST POP CALLVALUE PUSH2 0x159 JUMPI PUSH1 0x20 SWAP1 PUSH1 0x20 PUSH1 0x3 NOT CALLDATASIZE ADD SLT PUSH2 0x1E2 JUMPI PUSH1 0x1 PUSH1 0x1 PUSH1 0xA0 SHL SUB PUSH2 0x182 PUSH2 0x171B JUMP JUMPDEST AND DUP4 MSTORE PUSH1 0x9 PUSH1 0x20 MSTORE DUP1 DUP4 KECCAK256 SWAP3 DUP2 MLOAD DUP1 SWAP4 PUSH1 0x20 DUP7 SLOAD SWAP3 DUP4 DUP2 MSTORE ADD SWAP6 DUP4 MSTORE PUSH1 0x20 DUP4 KECCAK256 SWAP3 SWAP1 JUMPDEST DUP3 DUP3 LT PUSH2 0x1CB JUMPI PUSH2 0x1C7 DUP7 DUP7 PUSH2 0x1BD DUP3 DUP12 SUB DUP4 PUSH2 0x1879 JUMP JUMPDEST MLOAD SWAP2 DUP3 SWAP2 DUP3 PUSH2 0x1736 JUMP JUMPDEST SUB SWAP1 RETURN JUMPDEST DUP4 SLOAD DUP8 MSTORE SWAP6 DUP7 ADD SWAP6 PUSH1 0x1 SWAP4 DUP5 ADD SWAP4 SWAP1 SWAP2 ADD SWAP1 PUSH2 0x1A5 JUMP JUMPDEST DUP3 DUP1 REVERT JUMPDEST SWAP1 POP CALLVALUE PUSH2 0x1E2 JUMPI PUSH1 0x20 CALLDATASIZE PUSH1 0x3 NOT ADD SLT PUSH2 0x1E2 JUMPI PUSH2 0x201 PUSH2 0x171B JUMP JUMPDEST SWAP1 PUSH2 0x20A PUSH2 0x19EA JUMP JUMPDEST PUSH1 0x1 PUSH1 0x1 PUSH1 0xA0 SHL SUB SWAP2 DUP3 AND SWAP3 DUP4 ISZERO PUSH2 0x25C JUMPI POP POP PUSH1 0x1 SLOAD DUP3 PUSH1 0x1 PUSH1 0x1 PUSH1 0x60 SHL SUB PUSH1 0xA0 SHL DUP3 AND OR PUSH1 0x1 SSTORE AND PUSH32 0x8BE0079C531659141344CD1FD0A4F28419497F9722A3DAAFE3B4186F6B6457E0 PUSH1 0x0 DUP1 LOG3 DUP1 RETURN JUMPDEST MLOAD PUSH4 0x1E4FBDF7 PUSH1 0xE0 SHL DUP2 MSTORE SWAP1 DUP2 ADD DUP5 SWAP1 MSTORE PUSH1 0x24 SWAP1 REVERT JUMPDEST DUP4 CALLVALUE PUSH2 0x2DA JUMPI PUSH1 0x20 CALLDATASIZE PUSH1 0x3 NOT ADD SLT PUSH2 0x2DA JUMPI PUSH2 0x28C PUSH2 0x171B JUMP JUMPDEST PUSH2 0x294 PUSH2 0x19EA JUMP JUMPDEST PUSH1 0x6 DUP1 SLOAD PUSH1 0x1 PUSH1 0x1 PUSH1 0xA0 SHL SUB NOT AND PUSH1 0x1 PUSH1 0x1 PUSH1 0xA0 SHL SUB SWAP3 SWAP1 SWAP3 AND SWAP2 DUP3 OR SWAP1 SSTORE PUSH32 0x3C864541EF71378C6229510ED90F376565EE42D9C5E0904A984A9E863E6DB44F DUP3 DUP1 LOG2 DUP1 RETURN JUMPDEST DUP1 REVERT JUMPDEST POP POP CALLVALUE PUSH2 0x159 JUMPI DUP2 PUSH1 0x3 NOT CALLDATASIZE ADD SLT PUSH2 0x159 JUMPI PUSH1 0x5 SLOAD SWAP1 MLOAD PUSH1 0x1 PUSH1 0x1 PUSH1 0xA0 SHL SUB SWAP1 SWAP2 AND DUP2 MSTORE PUSH1 0x20 SWAP1 RETURN JUMPDEST POP POP CALLVALUE PUSH2 0x159 JUMPI DUP2 PUSH1 0x3 NOT CALLDATASIZE ADD SLT PUSH2 0x159 JUMPI PUSH1 0x3 SLOAD SWAP1 MLOAD PUSH1 0x1 PUSH1 0x1 PUSH1 0xA0 SHL SUB SWAP1 SWAP2 AND DUP2 MSTORE PUSH1 0x20 SWAP1 RETURN JUMPDEST SWAP2 SWAP1 POP CALLVALUE PUSH2 0x1E2 JUMPI PUSH1 0x20 SWAP1 DUP2 PUSH1 0x3 NOT CALLDATASIZE ADD SLT PUSH2 0x50D JUMPI DUP3 CALLDATALOAD SWAP3 PUSH2 0x350 PUSH2 0x1A16 JUMP JUMPDEST DUP4 DUP6 MSTORE PUSH1 0x8 DUP4 MSTORE DUP2 DUP6 KECCAK256 SWAP3 PUSH1 0x1 DUP5 ADD SWAP3 PUSH1 0x1 DUP1 PUSH1 0xA0 SHL SUB SWAP5 DUP6 DUP6 SLOAD AND SWAP1 DUP2 CALLER SUB PUSH2 0x4D5 JUMPI DUP5 DUP2 ADD DUP1 SLOAD PUSH2 0x386 PUSH1 0xFF DUP3 AND ISZERO PUSH2 0x19AB JUMP JUMPDEST PUSH2 0x396 PUSH1 0xFF DUP3 PUSH1 0x8 SHR AND ISZERO PUSH2 0x17D7 JUMP JUMPDEST PUSH1 0xFF DUP2 PUSH1 0x10 SHR AND PUSH2 0x49E JUMPI PUSH3 0xFF0000 NOT AND PUSH3 0x10000 OR SWAP1 SSTORE PUSH1 0x2 SLOAD PUSH1 0x3 SWAP1 SWAP2 ADD SLOAD DUP4 MLOAD PUSH4 0xA9059CBB PUSH1 0xE0 SHL DUP2 MSTORE PUSH1 0x1 PUSH1 0x1 PUSH1 0xA0 SHL SUB SWAP1 SWAP4 AND DUP7 DUP5 ADD SWAP1 DUP2 MSTORE PUSH1 0x20 DUP2 ADD SWAP2 SWAP1 SWAP2 MSTORE DUP5 SWAP2 DUP4 SWAP2 SWAP1 DUP10 AND SWAP1 DUP3 SWAP1 DUP13 SWAP1 DUP3 SWAP1 PUSH1 0x40 ADD SUB SWAP3 GAS CALL SWAP1 DUP2 ISZERO PUSH2 0x494 JUMPI DUP9 SWAP2 PUSH2 0x467 JUMPI JUMPDEST POP ISZERO PUSH2 0x436 JUMPI POP POP POP SLOAD AND SWAP1 PUSH32 0x34D66C87F348A9492B2A7FE1463B02DE9CAB509CA7872EE83878909D9805C3A8 DUP4 DUP1 LOG3 PUSH1 0x1 DUP2 SSTORE DUP1 RETURN JUMPDEST MLOAD PUSH3 0x461BCD PUSH1 0xE5 SHL DUP2 MSTORE SWAP2 DUP3 ADD MSTORE PUSH1 0xD PUSH1 0x24 DUP3 ADD MSTORE PUSH13 0x1499599D5B990819985A5B1959 PUSH1 0x9A SHL PUSH1 0x44 DUP3 ADD MSTORE PUSH1 0x64 SWAP2 POP REVERT JUMPDEST PUSH2 0x487 SWAP2 POP DUP4 RETURNDATASIZE DUP6 GT PUSH2 0x48D JUMPI JUMPDEST PUSH2 0x47F DUP2 DUP4 PUSH2 0x1879 JUMP JUMPDEST DUP2 ADD SWAP1 PUSH2 0x18BE JUMP JUMPDEST CODESIZE PUSH2 0x3FF JUMP JUMPDEST POP RETURNDATASIZE PUSH2 0x475 JUMP JUMPDEST DUP3 MLOAD RETURNDATASIZE DUP11 DUP3 RETURNDATACOPY RETURNDATASIZE SWAP1 REVERT JUMPDEST DUP5 MLOAD PUSH3 0x461BCD PUSH1 0xE5 SHL DUP2 MSTORE DUP1 DUP9 ADD DUP8 SWAP1 MSTORE PUSH1 0x11 PUSH1 0x24 DUP3 ADD MSTORE PUSH17 0x105B1C9958591E4818D85B98D95B1B1959 PUSH1 0x7A SHL PUSH1 0x44 DUP3 ADD MSTORE PUSH1 0x64 SWAP1 REVERT JUMPDEST POP POP MLOAD PUSH3 0x461BCD PUSH1 0xE5 SHL DUP2 MSTORE SWAP2 DUP3 ADD MSTORE PUSH1 0x12 PUSH1 0x24 DUP3 ADD MSTORE PUSH18 0x2737BA103A34329031B430B63632B733B2B9 PUSH1 0x71 SHL PUSH1 0x44 DUP3 ADD MSTORE PUSH1 0x64 SWAP2 POP REVERT JUMPDEST DUP4 DUP1 REVERT JUMPDEST DUP4 DUP4 CALLVALUE PUSH2 0x159 JUMPI PUSH1 0x20 SWAP3 DUP4 PUSH1 0x3 NOT CALLDATASIZE ADD SLT PUSH2 0x1E2 JUMPI DUP1 CALLDATALOAD SWAP2 PUSH2 0x531 PUSH2 0x1A16 JUMP JUMPDEST DUP3 DUP5 MSTORE PUSH1 0x8 DUP6 MSTORE DUP1 DUP5 KECCAK256 SWAP5 DUP3 DUP7 ADD SWAP3 PUSH2 0x56C PUSH1 0xFF DUP6 SLOAD PUSH2 0x553 DUP3 DUP3 AND ISZERO PUSH2 0x19AB JUMP JUMPDEST PUSH2 0x562 DUP3 DUP3 PUSH1 0x8 SHR AND ISZERO PUSH2 0x17D7 JUMP JUMPDEST PUSH1 0x10 SHR AND ISZERO PUSH2 0x1817 JUMP JUMPDEST PUSH1 0x1 DUP8 ADD DUP1 SLOAD SWAP1 SWAP3 PUSH1 0x1 PUSH1 0x1 PUSH1 0xA0 SHL SUB SWAP2 DUP3 AND DUP1 ISZERO PUSH2 0x772 JUMPI CALLER EQ PUSH2 0x738 JUMPI PUSH1 0x5 DUP10 ADD SLOAD PUSH2 0xE10 DUP2 ADD DUP1 SWAP2 GT PUSH2 0x725 JUMPI TIMESTAMP GT PUSH2 0x6F3 JUMPI PUSH1 0x2 SLOAD PUSH1 0x3 DUP11 ADD SLOAD DUP7 MLOAD PUSH4 0x23B872DD PUSH1 0xE0 SHL DUP2 MSTORE CALLER DUP7 DUP3 ADD SWAP1 DUP2 MSTORE ADDRESS PUSH1 0x20 DUP3 ADD MSTORE PUSH1 0x40 DUP2 ADD SWAP3 SWAP1 SWAP3 MSTORE SWAP10 SWAP11 SWAP9 SWAP10 DUP12 SWAP10 SWAP3 SWAP1 SWAP2 DUP5 SWAP2 DUP4 SWAP2 DUP3 SWAP1 SUB PUSH1 0x60 ADD SWAP1 DUP3 SWAP1 DUP14 SWAP1 DUP10 AND GAS CALL SWAP1 DUP2 ISZERO PUSH2 0x6E9 JUMPI SWAP2 PUSH2 0x606 PUSH1 0x2 SWAP3 PUSH1 0x9 SWAP6 SWAP5 DUP13 SWAP2 PUSH2 0x6CC JUMPI JUMPDEST POP PUSH2 0x1943 JUMP JUMPDEST ADD SWAP7 CALLER PUSH1 0x1 PUSH1 0x1 PUSH1 0x60 SHL SUB PUSH1 0xA0 SHL DUP10 SLOAD AND OR DUP9 SSTORE PUSH1 0x1 PUSH1 0xFF NOT DUP3 SLOAD AND OR SWAP1 SSTORE CALLER DUP9 MSTORE MSTORE PUSH2 0x635 DUP8 DUP6 DUP9 KECCAK256 PUSH2 0x1986 JUMP JUMPDEST DUP1 PUSH1 0x5 SLOAD AND SWAP3 DUP4 PUSH2 0x66F JUMPI JUMPDEST DUP7 CALLER DUP10 PUSH32 0x3B8D451BC77CB8362426B579170661CA3515D7FA4C08B9627C660328F0311008 DUP4 DUP1 LOG3 PUSH1 0x1 DUP2 SSTORE DUP1 RETURN JUMPDEST DUP2 SWAP1 SLOAD AND SWAP5 SLOAD AND SWAP1 DUP3 EXTCODESIZE ISZERO PUSH2 0x6C8 JUMPI DUP6 DUP8 SWAP4 PUSH1 0x64 SWAP4 DUP3 SWAP7 MLOAD SWAP8 DUP9 SWAP7 DUP8 SWAP6 PUSH4 0x302A6277 PUSH1 0xE0 SHL DUP8 MSTORE DUP7 ADD MSTORE PUSH1 0x24 DUP6 ADD MSTORE PUSH1 0x44 DUP5 ADD MSTORE GAS CALL PUSH2 0x6B4 JUMPI JUMPDEST DUP1 DUP1 DUP1 DUP1 DUP1 PUSH2 0x641 JUMP JUMPDEST PUSH2 0x6BD SWAP1 PUSH2 0x184F JUMP JUMPDEST PUSH2 0x159 JUMPI DUP2 DUP4 PUSH2 0x6AA JUMP JUMPDEST DUP6 DUP1 REVERT JUMPDEST PUSH2 0x6E3 SWAP2 POP DUP6 RETURNDATASIZE DUP8 GT PUSH2 0x48D JUMPI PUSH2 0x47F DUP2 DUP4 PUSH2 0x1879 JUMP JUMPDEST DUP15 PUSH2 0x600 JUMP JUMPDEST DUP8 MLOAD RETURNDATASIZE DUP12 DUP3 RETURNDATACOPY RETURNDATASIZE SWAP1 REVERT JUMPDEST DUP3 PUSH1 0x64 SWAP2 DUP7 MLOAD SWAP2 PUSH3 0x461BCD PUSH1 0xE5 SHL DUP4 MSTORE DUP3 ADD MSTORE PUSH1 0xD PUSH1 0x24 DUP3 ADD MSTORE PUSH13 0x13585D18DA08195E1C1A5C9959 PUSH1 0x9A SHL PUSH1 0x44 DUP3 ADD MSTORE REVERT JUMPDEST PUSH4 0x4E487B71 PUSH1 0xE0 SHL DUP10 MSTORE PUSH1 0x11 DUP5 MSTORE PUSH1 0x24 DUP10 REVERT JUMPDEST DUP3 PUSH1 0x64 SWAP2 DUP7 MLOAD SWAP2 PUSH3 0x461BCD PUSH1 0xE5 SHL DUP4 MSTORE DUP3 ADD MSTORE PUSH1 0x15 PUSH1 0x24 DUP3 ADD MSTORE PUSH21 0x21B0B73737BA103334B3B43A103CB7BAB939B2B633 PUSH1 0x59 SHL PUSH1 0x44 DUP3 ADD MSTORE REVERT JUMPDEST DUP6 MLOAD PUSH3 0x461BCD PUSH1 0xE5 SHL DUP2 MSTORE DUP1 DUP6 ADD DUP4 SWAP1 MSTORE PUSH1 0xF PUSH1 0x24 DUP3 ADD MSTORE PUSH15 0x13585D18DA081B9BDD08199BDD5B99 PUSH1 0x8A SHL PUSH1 0x44 DUP3 ADD MSTORE PUSH1 0x64 SWAP1 REVERT JUMPDEST DUP4 DUP4 CALLVALUE PUSH2 0x159 JUMPI PUSH1 0x20 CALLDATASIZE PUSH1 0x3 NOT ADD SLT PUSH2 0x159 JUMPI PUSH1 0xA SLOAD DUP4 CALLDATALOAD DUP1 DUP3 LT ISZERO PUSH2 0x837 JUMPI POP DUP1 JUMPDEST PUSH2 0x7D3 DUP3 PUSH2 0x18FD JUMP JUMPDEST SWAP4 PUSH1 0x0 NOT DUP3 ADD SWAP2 DUP3 GT DUP2 JUMPDEST DUP5 DUP2 LT PUSH2 0x7F2 JUMPI DUP6 MLOAD DUP1 PUSH2 0x1C7 DUP10 DUP3 PUSH2 0x1736 JUMP JUMPDEST DUP2 PUSH2 0x824 JUMPI DUP1 PUSH2 0x80C PUSH2 0x807 PUSH1 0x1 SWAP4 DUP8 PUSH2 0x189B JUMP JUMPDEST PUSH2 0x1772 JUMP JUMPDEST SWAP1 SLOAD SWAP1 PUSH1 0x3 SHL SHR PUSH2 0x81D DUP3 DUP11 PUSH2 0x192F JUMP JUMPDEST MSTORE ADD PUSH2 0x7DE JUMP JUMPDEST PUSH4 0x4E487B71 PUSH1 0xE0 SHL DUP4 MSTORE PUSH1 0x11 DUP9 MSTORE PUSH1 0x24 DUP4 REVERT JUMPDEST SWAP1 PUSH2 0x7CA JUMP JUMPDEST SWAP1 POP CALLVALUE PUSH2 0x1E2 JUMPI PUSH1 0x20 SWAP2 DUP3 PUSH1 0x3 NOT CALLDATASIZE ADD SLT PUSH2 0x50D JUMPI DUP2 CALLDATALOAD SWAP4 PUSH2 0x85D PUSH2 0x1A16 JUMP JUMPDEST PUSH8 0xDE0B6B3A7640000 DUP6 LT PUSH2 0xCE3 JUMPI PUSH9 0x3635C9ADC5DEA00000 DUP6 GT PUSH2 0xCA1 JUMPI DUP3 SLOAD DUP3 MLOAD PUSH4 0xC3C5A547 PUSH1 0xE0 SHL DUP2 MSTORE CALLER DUP2 DUP7 ADD MSTORE PUSH1 0x1 PUSH1 0x1 PUSH1 0xA0 SHL SUB SWAP5 PUSH1 0x24 SWAP3 SWAP1 SWAP2 SWAP1 DUP7 AND SWAP1 DUP8 DUP2 DUP6 DUP2 DUP6 GAS STATICCALL SWAP1 DUP2 ISZERO PUSH2 0xC97 JUMPI SWAP1 DUP5 SWAP3 SWAP2 DUP7 SWAP2 PUSH2 0xC7A JUMPI JUMPDEST POP PUSH2 0xBD5 JUMPI JUMPDEST POP POP PUSH1 0x2 SLOAD DUP5 MLOAD PUSH4 0x23B872DD PUSH1 0xE0 SHL DUP2 MSTORE CALLER DUP4 DUP3 ADD SWAP1 DUP2 MSTORE ADDRESS PUSH1 0x20 DUP3 ADD MSTORE PUSH1 0x40 DUP2 ADD DUP11 SWAP1 MSTORE SWAP1 SWAP2 DUP9 SWAP2 DUP4 SWAP2 DUP10 AND SWAP1 DUP3 SWAP1 DUP9 SWAP1 DUP3 SWAP1 PUSH1 0x60 ADD SUB SWAP3 GAS CALL SWAP1 DUP2 ISZERO PUSH2 0xBCB JUMPI SWAP1 PUSH2 0x913 SWAP2 DUP6 SWAP2 PUSH2 0xBAE JUMPI POP PUSH2 0x1943 JUMP JUMPDEST PUSH2 0x91E PUSH1 0x7 SLOAD PUSH2 0x18D6 JUMP JUMPDEST SWAP5 DUP6 PUSH1 0x7 SSTORE DUP5 MLOAD SWAP1 PUSH2 0x140 DUP3 ADD DUP3 DUP2 LT PUSH8 0xFFFFFFFFFFFFFFFF DUP3 GT OR PUSH2 0xB9A JUMPI DUP6 DUP4 PUSH2 0xA30 DUP10 DUP3 SWAP6 DUP15 SWAP10 SWAP9 SWAP8 DUP15 DUP15 PUSH1 0x6 SWAP9 DUP6 MSTORE DUP1 DUP4 MSTORE DUP2 DUP4 ADD CALLER DUP2 MSTORE DUP6 DUP5 ADD SWAP1 DUP10 DUP3 MSTORE PUSH1 0x60 DUP6 ADD SWAP15 DUP16 MSTORE PUSH1 0x80 DUP6 ADD SWAP7 DUP11 DUP9 MSTORE DUP11 PUSH1 0x8 PUSH1 0xA0 DUP9 ADD SWAP7 DUP3 DUP9 MSTORE PUSH1 0xC0 DUP10 ADD SWAP7 DUP4 DUP9 MSTORE PUSH2 0x120 PUSH2 0x100 PUSH1 0xE0 DUP13 ADD SWAP12 DUP7 DUP14 MSTORE ADD SWAP15 DUP16 TIMESTAMP SWAP1 MSTORE ADD SWAP15 DUP16 MSTORE DUP4 MSTORE MSTORE KECCAK256 SWAP12 MLOAD DUP13 SSTORE DUP6 PUSH1 0x1 DUP14 ADD SWAP2 MLOAD AND SWAP1 PUSH1 0x1 PUSH1 0x1 PUSH1 0x60 SHL SUB PUSH1 0xA0 SHL SWAP2 DUP3 DUP3 SLOAD AND OR SWAP1 SSTORE DUP6 PUSH1 0x2 DUP14 ADD SWAP3 MLOAD AND SWAP1 DUP3 SLOAD AND OR SWAP1 SSTORE PUSH1 0x3 SWAP13 MLOAD PUSH1 0x3 DUP12 ADD SSTORE DUP11 DUP11 ADD SWAP5 MLOAD ISZERO ISZERO SWAP2 PUSH1 0xFF PUSH3 0xFF0000 PUSH2 0xFF00 DUP9 SLOAD SWAP4 MLOAD ISZERO ISZERO PUSH1 0x8 SHL AND SWAP4 MLOAD ISZERO ISZERO PUSH1 0x10 SHL AND SWAP4 AND SWAP1 PUSH3 0xFFFFFF NOT AND OR OR OR DUP4 SSTORE MLOAD AND DUP2 SLOAD SWAP1 PUSH4 0x1000000 PUSH1 0x1 PUSH1 0xB8 SHL SUB SWAP1 PUSH1 0x18 SHL AND SWAP1 PUSH4 0x1000000 PUSH1 0x1 PUSH1 0xB8 SHL SUB NOT AND OR SWAP1 SSTORE JUMP JUMPDEST MLOAD PUSH1 0x5 DUP5 ADD SSTORE MLOAD SWAP2 ADD SSTORE CALLER DUP5 MSTORE PUSH1 0x9 DUP8 MSTORE PUSH2 0xA4D DUP7 DUP7 DUP7 KECCAK256 PUSH2 0x1986 JUMP JUMPDEST PUSH1 0xA SWAP2 DUP3 SLOAD PUSH1 0x1 PUSH1 0x40 SHL DUP2 LT ISZERO PUSH2 0xB86 JUMPI DUP8 PUSH2 0xA71 DUP3 PUSH1 0x1 PUSH2 0xA8A SWAP5 ADD DUP8 SSTORE PUSH2 0x1772 JUMP JUMPDEST SWAP1 SWAP2 SWAP1 DUP3 SLOAD SWAP1 PUSH1 0x3 SHL SWAP2 DUP3 SHL SWAP2 PUSH1 0x0 NOT SWAP1 SHL NOT AND OR SWAP1 SSTORE JUMP JUMPDEST PUSH1 0x32 DUP4 SLOAD GT PUSH2 0xACF JUMPI JUMPDEST POP POP POP POP DUP1 PUSH1 0x1 SWAP2 DUP7 DUP5 MLOAD SWAP1 DUP2 MSTORE DUP6 PUSH32 0x2C9089BDAB8AEEA6A8C5E41B785290B63781DD5C648C9C824BCC0883237CFF32 DUP9 CALLER SWAP4 LOG4 SSTORE MLOAD SWAP1 DUP2 MSTORE RETURN JUMPDEST SWAP5 SWAP1 SWAP6 SWAP2 SWAP7 SWAP3 SWAP8 DUP5 JUMPDEST DUP9 SLOAD PUSH1 0x0 NOT DUP2 ADD SWAP1 DUP2 GT PUSH2 0xB1C JUMPI DUP2 LT ISZERO PUSH2 0xB2E JUMPI PUSH1 0x1 DUP2 ADD DUP1 DUP3 GT PUSH2 0xB1C JUMPI SWAP1 PUSH2 0xB16 PUSH2 0xB07 PUSH1 0x1 SWAP4 PUSH2 0x1772 JUMP JUMPDEST SWAP1 SLOAD SWAP1 DUP14 SHL SHR PUSH2 0xA71 DUP4 PUSH2 0x1772 JUMP JUMPDEST ADD PUSH2 0xAD8 JUMP JUMPDEST PUSH4 0x4E487B71 PUSH1 0xE0 SHL DUP8 MSTORE PUSH1 0x11 DUP10 MSTORE DUP8 DUP8 REVERT JUMPDEST POP SWAP4 SWAP5 SWAP1 SWAP6 SWAP3 SWAP8 POP SWAP6 SWAP1 SWAP6 DUP2 SLOAD SWAP3 DUP4 ISZERO PUSH2 0xB75 JUMPI POP POP SWAP2 DUP4 SWAP3 SWAP2 PUSH1 0x1 SWAP5 SWAP3 PUSH1 0x0 NOT DUP1 SWAP3 ADD SWAP2 PUSH2 0xB5C DUP4 PUSH2 0x1772 JUMP JUMPDEST SWAP1 SWAP2 DUP3 SLOAD SWAP2 PUSH1 0x3 SHL SHL NOT AND SWAP1 SSTORE SSTORE SWAP6 SWAP5 SWAP4 SWAP3 CODESIZE DUP1 PUSH2 0xA94 JUMP JUMPDEST PUSH4 0x4E487B71 PUSH1 0xE0 SHL DUP7 MSTORE PUSH1 0x31 SWAP1 MSTORE DUP5 REVERT JUMPDEST POP PUSH4 0x4E487B71 PUSH1 0xE0 SHL PUSH1 0x0 SWAP1 DUP2 MSTORE PUSH1 0x41 DUP4 MSTORE REVERT JUMPDEST DUP5 PUSH1 0x41 DUP6 PUSH4 0x4E487B71 PUSH1 0xE0 SHL PUSH1 0x0 MSTORE MSTORE PUSH1 0x0 REVERT JUMPDEST PUSH2 0xBC5 SWAP2 POP DUP9 RETURNDATASIZE DUP11 GT PUSH2 0x48D JUMPI PUSH2 0x47F DUP2 DUP4 PUSH2 0x1879 JUMP JUMPDEST CODESIZE PUSH2 0x600 JUMP JUMPDEST DUP6 MLOAD RETURNDATASIZE DUP7 DUP3 RETURNDATACOPY RETURNDATASIZE SWAP1 REVERT JUMPDEST PUSH1 0xA0 SWAP1 DUP7 MLOAD SWAP3 DUP4 DUP1 SWAP3 PUSH4 0x16AD2B67 PUSH1 0xE3 SHL DUP3 MSTORE CALLER DUP8 DUP4 ADD MSTORE GAS STATICCALL SWAP1 DUP2 ISZERO PUSH2 0xBCB JUMPI SWAP1 DUP9 SWAP2 DUP6 SWAP2 PUSH2 0xC45 JUMPI JUMPDEST POP LT PUSH2 0xC0D JUMPI DUP2 CODESIZE PUSH2 0x8C0 JUMP JUMPDEST PUSH1 0x15 PUSH1 0x64 SWAP3 DUP8 DUP7 MLOAD SWAP4 PUSH3 0x461BCD PUSH1 0xE5 SHL DUP6 MSTORE DUP5 ADD MSTORE DUP3 ADD MSTORE PUSH21 0x125B9CDD59999A58DA595B9D0818985B9ADC9BDB1B PUSH1 0x5A SHL PUSH1 0x44 DUP3 ADD MSTORE REVERT JUMPDEST SWAP2 POP POP PUSH1 0xA0 DUP2 RETURNDATASIZE PUSH1 0xA0 GT PUSH2 0xC72 JUMPI JUMPDEST DUP2 PUSH2 0xC61 PUSH1 0xA0 SWAP4 DUP4 PUSH2 0x1879 JUMP JUMPDEST DUP2 ADD SUB SLT PUSH2 0x50D JUMPI DUP8 SWAP1 MLOAD CODESIZE PUSH2 0xC00 JUMP JUMPDEST RETURNDATASIZE SWAP2 POP PUSH2 0xC54 JUMP JUMPDEST PUSH2 0xC91 SWAP2 POP DUP10 RETURNDATASIZE DUP12 GT PUSH2 0x48D JUMPI PUSH2 0x47F DUP2 DUP4 PUSH2 0x1879 JUMP JUMPDEST CODESIZE PUSH2 0x8BA JUMP JUMPDEST DUP7 MLOAD RETURNDATASIZE DUP8 DUP3 RETURNDATACOPY RETURNDATASIZE SWAP1 REVERT JUMPDEST POP SWAP2 PUSH1 0x64 SWAP3 MLOAD SWAP2 PUSH3 0x461BCD PUSH1 0xE5 SHL DUP4 MSTORE DUP3 ADD MSTORE PUSH1 0x1F PUSH1 0x24 DUP3 ADD MSTORE PUSH32 0x57616765722061626F7665206D6178696D756D20283130303020534541532900 PUSH1 0x44 DUP3 ADD MSTORE REVERT JUMPDEST POP SWAP2 PUSH1 0x64 SWAP3 MLOAD SWAP2 PUSH3 0x461BCD PUSH1 0xE5 SHL DUP4 MSTORE DUP3 ADD MSTORE PUSH1 0x1C PUSH1 0x24 DUP3 ADD MSTORE PUSH32 0x57616765722062656C6F77206D696E696D756D20283120534541532900000000 PUSH1 0x44 DUP3 ADD MSTORE REVERT JUMPDEST POP POP CALLVALUE PUSH2 0x159 JUMPI DUP1 PUSH1 0x3 NOT CALLDATASIZE ADD SLT PUSH2 0x159 JUMPI PUSH2 0xD3F PUSH2 0x171B JUMP JUMPDEST PUSH1 0x1 PUSH1 0x1 PUSH1 0xA0 SHL SUB AND DUP3 MSTORE PUSH1 0x9 PUSH1 0x20 MSTORE DUP1 DUP3 KECCAK256 DUP1 SLOAD PUSH1 0x24 CALLDATALOAD SWAP4 SWAP1 DUP5 LT ISZERO PUSH2 0x2DA JUMPI POP PUSH1 0x20 SWAP3 PUSH2 0xD6D SWAP2 PUSH2 0x17BF JUMP JUMPDEST SWAP2 SWAP1 SLOAD SWAP1 MLOAD SWAP2 PUSH1 0x3 SHL SHR DUP2 MSTORE RETURN JUMPDEST POP POP CALLVALUE PUSH2 0x159 JUMPI DUP2 PUSH1 0x3 NOT CALLDATASIZE ADD SLT PUSH2 0x159 JUMPI PUSH1 0x20 SWAP1 MLOAD PUSH2 0xE10 DUP2 MSTORE RETURN JUMPDEST POP POP CALLVALUE PUSH2 0x159 JUMPI DUP2 PUSH1 0x3 NOT CALLDATASIZE ADD SLT PUSH2 0x159 JUMPI PUSH1 0x1 SLOAD SWAP1 MLOAD PUSH1 0x1 PUSH1 0x1 PUSH1 0xA0 SHL SUB SWAP1 SWAP2 AND DUP2 MSTORE PUSH1 0x20 SWAP1 RETURN JUMPDEST POP POP CALLVALUE PUSH2 0x159 JUMPI DUP2 PUSH1 0x3 NOT CALLDATASIZE ADD SLT PUSH2 0x159 JUMPI PUSH1 0x20 SWAP1 MLOAD PUSH9 0x3635C9ADC5DEA00000 DUP2 MSTORE RETURN JUMPDEST DUP4 CALLVALUE PUSH2 0x2DA JUMPI DUP1 PUSH1 0x3 NOT CALLDATASIZE ADD SLT PUSH2 0x2DA JUMPI PUSH2 0xDFE PUSH2 0x19EA JUMP JUMPDEST PUSH1 0x1 DUP1 SLOAD PUSH1 0x1 PUSH1 0x1 PUSH1 0xA0 SHL SUB NOT DUP2 AND SWAP1 SWAP2 SSTORE PUSH1 0x0 SWAP1 PUSH1 0x1 PUSH1 0x1 PUSH1 0xA0 SHL SUB AND PUSH32 0x8BE0079C531659141344CD1FD0A4F28419497F9722A3DAAFE3B4186F6B6457E0 DUP3 DUP1 LOG3 DUP1 RETURN JUMPDEST POP POP CALLVALUE PUSH2 0x159 JUMPI DUP2 PUSH1 0x3 NOT CALLDATASIZE ADD SLT PUSH2 0x159 JUMPI PUSH1 0x6 SLOAD SWAP1 MLOAD PUSH1 0x1 PUSH1 0x1 PUSH1 0xA0 SHL SUB SWAP1 SWAP2 AND DUP2 MSTORE PUSH1 0x20 SWAP1 RETURN JUMPDEST SWAP1 POP CALLVALUE PUSH2 0x1E2 JUMPI DUP3 PUSH1 0x3 NOT CALLDATASIZE ADD SLT PUSH2 0x1E2 JUMPI SLOAD SWAP1 MLOAD PUSH1 0x1 PUSH1 0x1 PUSH1 0xA0 SHL SUB SWAP1 SWAP2 AND DUP2 MSTORE PUSH1 0x20 SWAP2 POP RETURN JUMPDEST SWAP1 POP DUP3 CALLVALUE PUSH2 0x2DA JUMPI DUP1 PUSH1 0x3 NOT CALLDATASIZE ADD SLT PUSH2 0x2DA JUMPI PUSH1 0x7 SLOAD SWAP1 DUP1 PUSH1 0x1 JUMPDEST DUP4 DUP2 GT ISZERO PUSH2 0xF82 JUMPI POP PUSH2 0xEC1 SWAP1 PUSH2 0x18FD JUMP JUMPDEST SWAP3 DUP2 PUSH1 0x1 JUMPDEST DUP5 DUP2 GT ISZERO PUSH2 0xEDB JUMPI DUP7 MLOAD DUP1 PUSH2 0x1C7 DUP9 DUP3 PUSH2 0x1736 JUMP JUMPDEST DUP1 DUP3 MSTORE PUSH1 0x8 DUP1 PUSH1 0x20 MSTORE DUP8 DUP4 KECCAK256 DUP5 DUP2 ADD SLOAD PUSH1 0xFF SWAP1 DUP2 DUP2 AND ISZERO SWAP4 DUP5 PUSH2 0xF74 JUMPI JUMPDEST POP DUP4 PUSH2 0xF66 JUMPI JUMPDEST POP POP DUP2 PUSH2 0xF36 JUMPI JUMPDEST POP SWAP1 PUSH2 0xF17 SWAP2 PUSH2 0xF1C JUMPI PUSH2 0x18D6 JUMP JUMPDEST PUSH2 0xEC6 JUMP JUMPDEST DUP1 PUSH2 0xF30 PUSH2 0xF29 DUP8 PUSH2 0x18D6 JUMP JUMPDEST SWAP7 DUP10 PUSH2 0x192F JUMP JUMPDEST MSTORE PUSH2 0x18D6 JUMP JUMPDEST PUSH1 0x5 SWAP2 POP ADD SLOAD PUSH2 0xE10 DUP2 ADD DUP1 SWAP2 GT PUSH2 0xF53 JUMPI TIMESTAMP GT ISZERO PUSH2 0xF17 PUSH2 0xF08 JUMP JUMPDEST PUSH4 0x4E487B71 PUSH1 0xE0 SHL DUP4 MSTORE PUSH1 0x11 DUP5 MSTORE PUSH1 0x24 DUP4 REVERT JUMPDEST PUSH1 0x10 SHR AND ISZERO SWAP2 POP DUP10 DUP1 PUSH2 0xF00 JUMP JUMPDEST DUP2 SWAP1 SHR DUP3 AND ISZERO SWAP4 POP DUP12 PUSH2 0xEF9 JUMP JUMPDEST DUP1 DUP4 MSTORE PUSH1 0x8 DUP1 PUSH1 0x20 MSTORE DUP7 DUP5 KECCAK256 DUP7 DUP2 ADD SLOAD PUSH1 0xFF SWAP1 DUP2 DUP2 AND ISZERO SWAP4 DUP5 PUSH2 0x1014 JUMPI JUMPDEST POP DUP4 PUSH2 0x1006 JUMPI JUMPDEST POP POP DUP2 PUSH2 0xFD8 JUMPI JUMPDEST POP PUSH2 0xFC3 JUMPI JUMPDEST PUSH2 0xFBE SWAP1 PUSH2 0x18D6 JUMP JUMPDEST PUSH2 0xEAF JUMP JUMPDEST SWAP1 PUSH2 0xFD0 PUSH2 0xFBE SWAP2 PUSH2 0x18D6 JUMP JUMPDEST SWAP2 SWAP1 POP PUSH2 0xFB5 JUMP JUMPDEST PUSH1 0x5 SWAP2 POP ADD SLOAD PUSH2 0xE10 DUP2 ADD DUP1 SWAP2 GT PUSH2 0xFF3 JUMPI TIMESTAMP GT ISZERO DUP8 PUSH2 0xFAF JUMP JUMPDEST PUSH4 0x4E487B71 PUSH1 0xE0 SHL DUP5 MSTORE PUSH1 0x11 DUP7 MSTORE PUSH1 0x24 DUP5 REVERT JUMPDEST PUSH1 0x10 SHR AND ISZERO SWAP2 POP DUP9 DUP1 PUSH2 0xFA7 JUMP JUMPDEST DUP2 SWAP1 SHR DUP3 AND ISZERO SWAP4 POP DUP11 PUSH2 0xFA0 JUMP JUMPDEST SWAP1 POP CALLVALUE PUSH2 0x1E2 JUMPI PUSH1 0x20 CALLDATASIZE PUSH1 0x3 NOT ADD SLT PUSH2 0x1E2 JUMPI DUP2 PUSH2 0x140 SWAP4 DUP3 CALLDATALOAD DUP2 MSTORE PUSH1 0x8 PUSH1 0x20 MSTORE KECCAK256 DUP1 SLOAD SWAP3 PUSH1 0x1 DUP1 PUSH1 0xA0 SHL SUB SWAP1 DUP2 PUSH1 0x1 DUP5 ADD SLOAD AND SWAP4 DUP3 PUSH1 0x2 DUP6 ADD SLOAD AND PUSH1 0x3 DUP6 ADD SLOAD SWAP2 DUP6 ADD SLOAD SWAP3 PUSH1 0x6 PUSH1 0x5 DUP8 ADD SLOAD SWAP7 ADD SLOAD SWAP7 DUP2 MLOAD SWAP9 DUP10 MSTORE PUSH1 0x20 DUP10 ADD MSTORE DUP8 ADD MSTORE PUSH1 0x60 DUP7 ADD MSTORE PUSH1 0xFF DUP2 AND ISZERO ISZERO PUSH1 0x80 DUP7 ADD MSTORE PUSH1 0xFF DUP2 PUSH1 0x8 SHR AND ISZERO ISZERO PUSH1 0xA0 DUP7 ADD MSTORE PUSH1 0xFF DUP2 PUSH1 0x10 SHR AND ISZERO ISZERO PUSH1 0xC0 DUP7 ADD MSTORE PUSH1 0x18 SHR AND PUSH1 0xE0 DUP5 ADD MSTORE PUSH2 0x100 DUP4 ADD MSTORE PUSH2 0x120 DUP3 ADD MSTORE RETURN JUMPDEST POP POP CALLVALUE PUSH2 0x159 JUMPI DUP2 PUSH1 0x3 NOT CALLDATASIZE ADD SLT PUSH2 0x159 JUMPI PUSH1 0x2 SLOAD SWAP1 MLOAD PUSH1 0x1 PUSH1 0x1 PUSH1 0xA0 SHL SUB SWAP1 SWAP2 AND DUP2 MSTORE PUSH1 0x20 SWAP1 RETURN JUMPDEST SWAP2 SWAP1 POP CALLVALUE PUSH2 0x1E2 JUMPI PUSH1 0x20 CALLDATASIZE PUSH1 0x3 NOT ADD SLT PUSH2 0x1E2 JUMPI DUP1 PUSH1 0xE0 SWAP4 DUP4 CALLDATALOAD DUP2 MSTORE PUSH1 0x8 PUSH1 0x20 MSTORE KECCAK256 PUSH1 0x1 DUP1 PUSH1 0xA0 SHL SUB SWAP1 DUP2 PUSH1 0x1 DUP3 ADD SLOAD AND SWAP4 DUP3 PUSH1 0x2 DUP4 ADD SLOAD AND SWAP4 PUSH1 0x6 PUSH1 0x3 DUP5 ADD SLOAD SWAP3 DUP5 ADD SLOAD SWAP4 ADD SLOAD SWAP5 DUP2 MLOAD SWAP7 DUP8 MSTORE PUSH1 0x20 DUP8 ADD MSTORE DUP6 ADD MSTORE PUSH1 0xFF DUP2 AND ISZERO ISZERO PUSH1 0x60 DUP6 ADD MSTORE PUSH1 0xFF DUP2 PUSH1 0x8 SHR AND ISZERO ISZERO PUSH1 0x80 DUP6 ADD MSTORE PUSH1 0x18 SHR AND PUSH1 0xA0 DUP4 ADD MSTORE PUSH1 0xC0 DUP3 ADD MSTORE RETURN JUMPDEST POP POP CALLVALUE PUSH2 0x159 JUMPI DUP2 PUSH1 0x3 NOT CALLDATASIZE ADD SLT PUSH2 0x159 JUMPI PUSH1 0x20 SWAP1 MLOAD PUSH2 0x1F4 DUP2 MSTORE RETURN JUMPDEST SWAP1 POP DUP3 CALLVALUE PUSH2 0x2DA JUMPI PUSH1 0x20 DUP1 PUSH1 0x3 NOT CALLDATASIZE ADD SLT PUSH2 0x159 JUMPI DUP3 CALLDATALOAD SWAP1 PUSH2 0x11A8 PUSH2 0x1A16 JUMP JUMPDEST DUP2 DUP4 MSTORE PUSH1 0x8 DUP2 MSTORE DUP5 DUP4 KECCAK256 SWAP5 DUP5 DUP7 ADD DUP1 SLOAD PUSH1 0xFF DUP2 AND ISZERO PUSH2 0x1689 JUMPI PUSH1 0xFF DUP2 PUSH2 0x562 DUP3 PUSH2 0x11D6 SWAP5 PUSH1 0x8 SHR AND ISZERO PUSH2 0x17D7 JUMP JUMPDEST PUSH1 0x1 DUP8 ADD DUP1 SLOAD SWAP1 SWAP7 PUSH1 0x1 PUSH1 0x1 PUSH1 0xA0 SHL SUB SWAP2 DUP3 AND SWAP2 CALLER DUP4 EQ DUP1 ISZERO PUSH2 0x167A JUMPI JUMPDEST DUP1 ISZERO PUSH2 0x166D JUMPI JUMPDEST ISZERO PUSH2 0x1636 JUMPI DUP8 SWAP9 SWAP10 DUP2 PUSH1 0x3 SLOAD AND SWAP1 DUP7 PUSH1 0x2 DUP3 ADD SWAP3 PUSH1 0x44 DUP6 DUP6 SLOAD AND SWAP8 DUP4 MLOAD SWAP14 DUP15 SWAP4 DUP5 SWAP3 PUSH4 0x1785453 PUSH1 0xE4 SHL DUP5 MSTORE DUP11 DUP5 ADD MSTORE PUSH1 0x24 SWAP11 DUP12 DUP5 ADD MSTORE GAS CALL SWAP6 DUP7 ISZERO PUSH2 0x162C JUMPI DUP12 SWAP11 DUP13 SWAP8 PUSH2 0x15E5 JUMPI JUMPDEST POP DUP1 SLOAD PUSH3 0xFF0100 PUSH1 0x1 PUSH1 0xB8 SHL SUB NOT AND PUSH4 0x1000000 PUSH1 0x1 PUSH1 0xB8 SHL SUB PUSH1 0x18 DUP14 SWAP1 SHL AND OR PUSH2 0x100 OR SWAP1 SSTORE PUSH1 0x6 DUP2 ADD DUP7 SWAP1 SSTORE PUSH1 0x3 ADD DUP1 SLOAD PUSH1 0x1 DUP2 SWAP1 SHL SWAP13 SWAP2 SWAP3 SWAP2 SWAP1 DUP1 ISZERO PUSH1 0x2 SWAP2 DUP16 DIV SWAP2 SWAP1 SWAP2 EQ OR ISZERO PUSH2 0x15D3 JUMPI DUP13 PUSH2 0x1F4 DUP1 DUP3 MUL SWAP15 DUP16 DIV EQ DUP2 ISZERO OR ISZERO PUSH2 0x15C1 JUMPI DUP6 DUP14 SWAP15 SWAP14 PUSH2 0x12FC DUP15 SWAP16 SWAP13 DUP1 SWAP15 SWAP16 PUSH2 0x12C3 DUP15 SWAP16 PUSH2 0x2710 SWAP1 DIV DUP1 SWAP8 PUSH2 0x189B JUMP JUMPDEST SWAP14 DUP15 SWAP2 DUP6 DUP13 PUSH1 0x2 SLOAD AND SWAP3 MLOAD DUP1 SWAP7 DUP2 SWAP6 DUP3 SWAP5 PUSH4 0xA9059CBB PUSH1 0xE0 SHL SWAP12 DUP13 DUP6 MSTORE DUP5 ADD PUSH1 0x20 SWAP1 SWAP4 SWAP3 SWAP2 SWAP4 PUSH1 0x40 DUP2 ADD SWAP5 PUSH1 0x1 DUP1 PUSH1 0xA0 SHL SUB AND DUP2 MSTORE ADD MSTORE JUMP JUMPDEST SUB SWAP3 GAS CALL SWAP2 DUP3 ISZERO PUSH2 0x15B6 JUMPI SWAP2 PUSH2 0x1599 JUMPI JUMPDEST POP ISZERO PUSH2 0x1567 JUMPI DUP2 DUP16 SWAP2 DUP13 DUP15 SWAP2 DUP10 SWAP8 SWAP7 SWAP6 ISZERO ISZERO DUP1 PUSH2 0x155A JUMPI JUMPDEST PUSH2 0x148E JUMPI JUMPDEST POP POP POP POP POP DUP3 DUP1 SWAP2 SLOAD AND SWAP13 AND SWAP12 DUP1 DUP14 EQ PUSH1 0x0 EQ PUSH2 0x1486 JUMPI POP SLOAD AND JUMPDEST DUP3 DUP5 SLOAD AND SWAP1 DUP3 SLOAD SWAP2 DUP14 DUP2 EXTCODESIZE ISZERO PUSH2 0x2DA JUMPI DUP8 PUSH1 0x64 DUP16 DUP4 PUSH1 0x1 SWAP6 DUP16 SWAP9 DUP13 SWAP10 MLOAD SWAP8 DUP9 SWAP7 DUP8 SWAP6 PUSH4 0x32B0E7C9 PUSH1 0xE2 SHL SWAP13 DUP14 DUP9 MSTORE DUP8 ADD MSTORE DUP6 ADD MSTORE PUSH1 0x44 DUP5 ADD MSTORE GAS CALL PUSH2 0x1469 JUMPI JUMPDEST POP DUP5 SLOAD SWAP3 SLOAD DUP14 SWAP7 SWAP6 SWAP5 SWAP4 DUP5 AND SWAP3 SWAP2 DUP4 EXTCODESIZE ISZERO PUSH2 0x1465 JUMPI PUSH1 0x64 DUP6 SWAP4 DUP10 DUP1 SWAP7 DUP2 SWAP6 DUP16 MLOAD SWAP8 DUP9 SWAP7 DUP8 SWAP6 DUP7 MSTORE AND DUP12 DUP6 ADD MSTORE DUP3 DUP13 DUP6 ADD MSTORE PUSH1 0x44 DUP5 ADD MSTORE GAS CALL PUSH2 0x1451 JUMPI JUMPDEST POP POP PUSH1 0x5 SLOAD AND SWAP1 DUP2 PUSH2 0x1405 JUMPI JUMPDEST POP POP POP POP PUSH32 0xD87807C41517DC00ED5553199A04676C5EF960776DDBF91D8CFFEC4A769A4582 SWAP4 DUP4 MLOAD SWAP3 DUP4 MSTORE DUP3 ADD MSTORE LOG3 PUSH1 0x1 DUP2 SSTORE DUP1 RETURN JUMPDEST DUP2 EXTCODESIZE ISZERO PUSH2 0x50D JUMPI PUSH1 0x44 DUP10 SWAP2 DUP6 DUP1 SWAP5 DUP14 DUP12 MLOAD SWAP8 DUP9 SWAP7 DUP8 SWAP6 PUSH4 0x18136109 PUSH1 0xE3 SHL DUP8 MSTORE DUP7 ADD MSTORE DUP5 ADD MSTORE GAS CALL PUSH2 0x1439 JUMPI JUMPDEST DUP1 DUP1 PUSH2 0x13CF JUMP JUMPDEST PUSH2 0x1442 SWAP1 PUSH2 0x184F JUMP JUMPDEST PUSH2 0x144D JUMPI DUP7 DUP9 PUSH2 0x1432 JUMP JUMPDEST DUP7 DUP1 REVERT JUMPDEST PUSH2 0x145A SWAP1 PUSH2 0x184F JUMP JUMPDEST PUSH2 0x50D JUMPI DUP4 DUP13 PUSH2 0x13C2 JUMP JUMPDEST DUP8 DUP1 REVERT JUMPDEST PUSH2 0x147A SWAP1 SWAP14 SWAP2 SWAP7 SWAP6 SWAP5 SWAP4 SWAP3 SWAP14 PUSH2 0x184F JUMP JUMPDEST SWAP12 SWAP1 SWAP2 SWAP3 SWAP4 SWAP5 DUP14 PUSH2 0x1385 JUMP JUMPDEST SWAP2 POP POP PUSH2 0x1345 JUMP JUMPDEST SWAP1 SWAP2 SWAP3 SWAP4 SWAP5 SWAP6 SWAP7 DUP6 DUP12 SWAP2 PUSH1 0x2 SLOAD AND SWAP3 PUSH2 0x14CC DUP13 PUSH1 0x6 SLOAD AND SWAP6 MLOAD SWAP8 DUP9 SWAP7 DUP8 SWAP6 DUP7 SWAP5 DUP6 MSTORE DUP5 ADD PUSH1 0x20 SWAP1 SWAP4 SWAP3 SWAP2 SWAP4 PUSH1 0x40 DUP2 ADD SWAP5 PUSH1 0x1 DUP1 PUSH1 0xA0 SHL SUB AND DUP2 MSTORE ADD MSTORE JUMP JUMPDEST SUB SWAP3 GAS CALL SWAP2 DUP3 ISZERO PUSH2 0x154F JUMPI SWAP2 PUSH2 0x1532 JUMPI JUMPDEST POP ISZERO PUSH2 0x14F0 JUMPI SWAP1 DUP4 SWAP2 DUP14 DUP16 DUP13 DUP13 DUP3 PUSH2 0x132A JUMP JUMPDEST DUP9 MLOAD PUSH3 0x461BCD PUSH1 0xE5 SHL DUP2 MSTORE DUP1 DUP7 ADD DUP12 SWAP1 MSTORE PUSH1 0x18 DUP2 DUP9 ADD MSTORE PUSH32 0x5472656173757279207472616E73666572206661696C65640000000000000000 PUSH1 0x44 DUP3 ADD MSTORE PUSH1 0x64 SWAP1 REVERT JUMPDEST PUSH2 0x1549 SWAP2 POP DUP12 RETURNDATASIZE DUP14 GT PUSH2 0x48D JUMPI PUSH2 0x47F DUP2 DUP4 PUSH2 0x1879 JUMP JUMPDEST DUP15 PUSH2 0x14DD JUMP JUMPDEST DUP12 MLOAD SWAP1 RETURNDATASIZE SWAP1 DUP3 RETURNDATACOPY RETURNDATASIZE SWAP1 REVERT JUMPDEST POP DUP8 PUSH1 0x6 SLOAD AND ISZERO ISZERO PUSH2 0x1325 JUMP JUMPDEST DUP11 MLOAD PUSH3 0x461BCD PUSH1 0xE5 SHL DUP2 MSTORE DUP1 DUP9 ADD DUP14 SWAP1 MSTORE PUSH1 0xD DUP2 DUP11 ADD MSTORE PUSH13 0x14185E5BDD5D0819985A5B1959 PUSH1 0x9A SHL PUSH1 0x44 DUP3 ADD MSTORE PUSH1 0x64 SWAP1 REVERT JUMPDEST PUSH2 0x15B0 SWAP2 POP DUP14 DUP1 RETURNDATASIZE LT PUSH2 0x48D JUMPI PUSH2 0x47F DUP2 DUP4 PUSH2 0x1879 JUMP JUMPDEST CODESIZE PUSH2 0x130D JUMP JUMPDEST DUP14 MLOAD SWAP1 RETURNDATASIZE SWAP1 DUP3 RETURNDATACOPY RETURNDATASIZE SWAP1 REVERT JUMPDEST PUSH4 0x4E487B71 PUSH1 0xE0 SHL DUP14 MSTORE PUSH1 0x11 DUP7 MSTORE DUP7 DUP14 REVERT JUMPDEST PUSH4 0x4E487B71 PUSH1 0xE0 SHL DUP13 MSTORE PUSH1 0x11 DUP6 MSTORE DUP6 DUP13 REVERT JUMPDEST SWAP11 POP SWAP6 POP DUP7 DUP11 DUP2 RETURNDATASIZE DUP2 GT PUSH2 0x1625 JUMPI JUMPDEST PUSH2 0x15FE DUP2 DUP4 PUSH2 0x1879 JUMP JUMPDEST DUP2 ADD SUB SLT PUSH2 0x1621 JUMPI DUP10 MLOAD SWAP10 DUP4 DUP12 AND DUP12 SUB PUSH2 0x161D JUMPI DUP9 ADD MLOAD SWAP6 PUSH1 0x3 PUSH2 0x1244 JUMP JUMPDEST DUP12 DUP1 REVERT JUMPDEST DUP11 DUP1 REVERT JUMPDEST POP RETURNDATASIZE PUSH2 0x15F4 JUMP JUMPDEST DUP8 MLOAD RETURNDATASIZE DUP14 DUP3 RETURNDATACOPY RETURNDATASIZE SWAP1 REVERT JUMPDEST DUP5 MLOAD PUSH3 0x461BCD PUSH1 0xE5 SHL DUP2 MSTORE DUP1 DUP4 ADD DUP8 SWAP1 MSTORE PUSH1 0x11 PUSH1 0x24 DUP3 ADD MSTORE PUSH17 0x139BDD0818481C185C9D1A58DA5C185B9D PUSH1 0x7A SHL PUSH1 0x44 DUP3 ADD MSTORE PUSH1 0x64 SWAP1 REVERT JUMPDEST POP DUP1 PUSH1 0x1 SLOAD AND CALLER EQ PUSH2 0x11FB JUMP JUMPDEST POP DUP1 PUSH1 0x2 DUP12 ADD SLOAD AND CALLER EQ PUSH2 0x11F4 JUMP JUMPDEST DUP3 MLOAD PUSH3 0x461BCD PUSH1 0xE5 SHL DUP2 MSTORE DUP1 DUP9 ADD DUP6 SWAP1 MSTORE PUSH1 0x10 PUSH1 0x24 DUP3 ADD MSTORE PUSH16 0x139BDD081858D8D95C1D1959081E595D PUSH1 0x82 SHL PUSH1 0x44 DUP3 ADD MSTORE PUSH1 0x64 SWAP1 REVERT JUMPDEST DUP4 CALLVALUE PUSH2 0x2DA JUMPI PUSH1 0x20 CALLDATASIZE PUSH1 0x3 NOT ADD SLT PUSH2 0x2DA JUMPI PUSH2 0x16D9 PUSH2 0x171B JUMP JUMPDEST PUSH2 0x16E1 PUSH2 0x19EA JUMP JUMPDEST PUSH1 0x1 DUP1 PUSH1 0xA0 SHL SUB AND PUSH1 0x1 PUSH1 0x1 PUSH1 0x60 SHL SUB PUSH1 0xA0 SHL PUSH1 0x5 SLOAD AND OR PUSH1 0x5 SSTORE DUP1 RETURN JUMPDEST DUP5 SWAP1 CALLVALUE PUSH2 0x159 JUMPI DUP2 PUSH1 0x3 NOT CALLDATASIZE ADD SLT PUSH2 0x159 JUMPI PUSH1 0x20 SWAP1 PUSH1 0x7 SLOAD DUP2 MSTORE RETURN JUMPDEST PUSH1 0x4 CALLDATALOAD SWAP1 PUSH1 0x1 PUSH1 0x1 PUSH1 0xA0 SHL SUB DUP3 AND DUP3 SUB PUSH2 0x1731 JUMPI JUMP JUMPDEST PUSH1 0x0 DUP1 REVERT JUMPDEST PUSH1 0x20 SWAP1 PUSH1 0x20 PUSH1 0x40 DUP2 DUP4 ADD SWAP3 DUP3 DUP2 MSTORE DUP6 MLOAD DUP1 SWAP5 MSTORE ADD SWAP4 ADD SWAP2 PUSH1 0x0 JUMPDEST DUP3 DUP2 LT PUSH2 0x175E JUMPI POP POP POP POP SWAP1 JUMP JUMPDEST DUP4 MLOAD DUP6 MSTORE SWAP4 DUP2 ADD SWAP4 SWAP3 DUP2 ADD SWAP3 PUSH1 0x1 ADD PUSH2 0x1750 JUMP JUMPDEST PUSH1 0xA SLOAD DUP2 LT ISZERO PUSH2 0x17A9 JUMPI PUSH1 0xA PUSH1 0x0 MSTORE PUSH32 0xC65A7BB8D6351C1CF70C95A316CC6A92839C986682D98BC35F958F4883F9D2A8 ADD SWAP1 PUSH1 0x0 SWAP1 JUMP JUMPDEST PUSH4 0x4E487B71 PUSH1 0xE0 SHL PUSH1 0x0 MSTORE PUSH1 0x32 PUSH1 0x4 MSTORE PUSH1 0x24 PUSH1 0x0 REVERT JUMPDEST DUP1 SLOAD DUP3 LT ISZERO PUSH2 0x17A9 JUMPI PUSH1 0x0 MSTORE PUSH1 0x20 PUSH1 0x0 KECCAK256 ADD SWAP1 PUSH1 0x0 SWAP1 JUMP JUMPDEST ISZERO PUSH2 0x17DE JUMPI JUMP JUMPDEST PUSH1 0x40 MLOAD PUSH3 0x461BCD PUSH1 0xE5 SHL DUP2 MSTORE PUSH1 0x20 PUSH1 0x4 DUP3 ADD MSTORE PUSH1 0x11 PUSH1 0x24 DUP3 ADD MSTORE PUSH17 0x105B1C9958591E4818DBDB5C1B195D1959 PUSH1 0x7A SHL PUSH1 0x44 DUP3 ADD MSTORE PUSH1 0x64 SWAP1 REVERT JUMPDEST ISZERO PUSH2 0x181E JUMPI JUMP JUMPDEST PUSH1 0x40 MLOAD PUSH3 0x461BCD PUSH1 0xE5 SHL DUP2 MSTORE PUSH1 0x20 PUSH1 0x4 DUP3 ADD MSTORE PUSH1 0x9 PUSH1 0x24 DUP3 ADD MSTORE PUSH9 0x10D85B98D95B1B1959 PUSH1 0xBA SHL PUSH1 0x44 DUP3 ADD MSTORE PUSH1 0x64 SWAP1 REVERT JUMPDEST PUSH8 0xFFFFFFFFFFFFFFFF DUP2 GT PUSH2 0x1863 JUMPI PUSH1 0x40 MSTORE JUMP JUMPDEST PUSH4 0x4E487B71 PUSH1 0xE0 SHL PUSH1 0x0 MSTORE PUSH1 0x41 PUSH1 0x4 MSTORE PUSH1 0x24 PUSH1 0x0 REVERT JUMPDEST SWAP1 PUSH1 0x1F DUP1 NOT SWAP2 ADD AND DUP2 ADD SWAP1 DUP2 LT PUSH8 0xFFFFFFFFFFFFFFFF DUP3 GT OR PUSH2 0x1863 JUMPI PUSH1 0x40 MSTORE JUMP JUMPDEST SWAP2 SWAP1 DUP3 SUB SWAP2 DUP3 GT PUSH2 0x18A8 JUMPI JUMP JUMPDEST PUSH4 0x4E487B71 PUSH1 0xE0 SHL PUSH1 0x0 MSTORE PUSH1 0x11 PUSH1 0x4 MSTORE PUSH1 0x24 PUSH1 0x0 REVERT JUMPDEST SWAP1 DUP2 PUSH1 0x20 SWAP2 SUB SLT PUSH2 0x1731 JUMPI MLOAD DUP1 ISZERO ISZERO DUP2 SUB PUSH2 0x1731 JUMPI SWAP1 JUMP JUMPDEST PUSH1 0x0 NOT DUP2 EQ PUSH2 0x18A8 JUMPI PUSH1 0x1 ADD SWAP1 JUMP JUMPDEST PUSH8 0xFFFFFFFFFFFFFFFF DUP2 GT PUSH2 0x1863 JUMPI PUSH1 0x5 SHL PUSH1 0x20 ADD SWAP1 JUMP JUMPDEST SWAP1 PUSH2 0x1907 DUP3 PUSH2 0x18E5 JUMP JUMPDEST PUSH2 0x1914 PUSH1 0x40 MLOAD SWAP2 DUP3 PUSH2 0x1879 JUMP JUMPDEST DUP3 DUP2 MSTORE DUP1 SWAP3 PUSH2 0x1925 PUSH1 0x1F NOT SWAP2 PUSH2 0x18E5 JUMP JUMPDEST ADD SWAP1 PUSH1 0x20 CALLDATASIZE SWAP2 ADD CALLDATACOPY JUMP JUMPDEST DUP1 MLOAD DUP3 LT ISZERO PUSH2 0x17A9 JUMPI PUSH1 0x20 SWAP2 PUSH1 0x5 SHL ADD ADD SWAP1 JUMP JUMPDEST ISZERO PUSH2 0x194A JUMPI JUMP JUMPDEST PUSH1 0x40 MLOAD PUSH3 0x461BCD PUSH1 0xE5 SHL DUP2 MSTORE PUSH1 0x20 PUSH1 0x4 DUP3 ADD MSTORE PUSH1 0x14 PUSH1 0x24 DUP3 ADD MSTORE PUSH20 0x14D15054C81D1C985B9CD9995C8819985A5B1959 PUSH1 0x62 SHL PUSH1 0x44 DUP3 ADD MSTORE PUSH1 0x64 SWAP1 REVERT JUMPDEST SWAP1 DUP2 SLOAD SWAP2 PUSH1 0x1 PUSH1 0x40 SHL DUP4 LT ISZERO PUSH2 0x1863 JUMPI DUP3 PUSH2 0xA71 SWAP2 PUSH1 0x1 PUSH2 0x19A9 SWAP6 ADD DUP2 SSTORE PUSH2 0x17BF JUMP JUMPDEST JUMP JUMPDEST ISZERO PUSH2 0x19B2 JUMPI JUMP JUMPDEST PUSH1 0x40 MLOAD PUSH3 0x461BCD PUSH1 0xE5 SHL DUP2 MSTORE PUSH1 0x20 PUSH1 0x4 DUP3 ADD MSTORE PUSH1 0x10 PUSH1 0x24 DUP3 ADD MSTORE PUSH16 0x105B1C9958591E481858D8D95C1D1959 PUSH1 0x82 SHL PUSH1 0x44 DUP3 ADD MSTORE PUSH1 0x64 SWAP1 REVERT JUMPDEST PUSH1 0x1 SLOAD PUSH1 0x1 PUSH1 0x1 PUSH1 0xA0 SHL SUB AND CALLER SUB PUSH2 0x19FE JUMPI JUMP JUMPDEST PUSH1 0x40 MLOAD PUSH4 0x118CDAA7 PUSH1 0xE0 SHL DUP2 MSTORE CALLER PUSH1 0x4 DUP3 ADD MSTORE PUSH1 0x24 SWAP1 REVERT JUMPDEST PUSH1 0x2 PUSH1 0x0 SLOAD EQ PUSH2 0x1A27 JUMPI PUSH1 0x2 PUSH1 0x0 SSTORE JUMP JUMPDEST PUSH1 0x40 MLOAD PUSH4 0x3EE5AEB5 PUSH1 0xE0 SHL DUP2 MSTORE PUSH1 0x4 SWAP1 REVERT INVALID LOG2 PUSH5 0x6970667358 0x22 SLT KECCAK256 0xE8 0xA9 0xBF ADDMOD BALANCE CALLER SELFBALANCE 0xE6 EXTCODEHASH 0x4B 0xC3 PUSH2 0x3C14 0xAC BLOBBASEFEE BLOCKHASH 0xD7 0xBC COINBASE 0xA9 0xE0 0x28 0xAF ISZERO 0xE4 0x29 INVALID 0xF7 BASEFEE OR 0xD0 PUSH5 0x736F6C6343 STOP ADDMOD XOR STOP CALLER "},"methodIdentifiers":{"HOUSE_FEE_BPS()":"1594b256","MATCH_EXPIRY()":"90a3253b","MAX_WAGER()":"7f045327","MIN_WAGER()":"fdb6cf45","acceptMatch(uint256)":"bebcd21e","agentController()":"5cc49f23","agentMatches(address,uint256)":"a7030eaa","cancelMatch(uint256)":"d02c8cdf","createMatch(uint256)":"b67a88f9","executeBattle(uint256)":"1504f5cd","gameContract()":"d3f33009","getAgentMatchHistory(address)":"fca9db77","getMatchDetails(uint256)":"2df5d126","getOpenMatches()":"554bfee2","getRecentMatches(uint256)":"be487539","matchCounter()":"01fd1951","matches(uint256)":"4768d4ef","owner()":"8da5cb5b","predictionMarket()":"def114b6","renounceOwnership()":"715018a6","seasToken()":"43a02ff0","setPredictionMarket(address)":"03b88ba2","setTreasury(address)":"f0f44260","transferOwnership(address)":"f2fde38b","treasury()":"61d027b3"}}}}}