{"contracts/WagerArena.sol":{"WagerArena":{"abi":[{"inputs":[{"internalType":"address","name":"_gameContract","type":"address"},{"internalType":"address","name":"_agentController","type":"address"},{"internalType":"address","name":"_seasToken","type":"address"},{"internalType":"address","name":"_treasury","type":"address"}],"stateMutability":"nonpayable","type":"constructor"},{"inputs":[{"internalType":"address","name":"owner","type":"address"}],"name":"OwnableInvalidOwner","type":"error"},{"inputs":[{"internalType":"address","name":"account","type":"address"}],"name":"OwnableUnauthorizedAccount","type":"error"},{"inputs":[],"name":"ReentrancyGuardReentrantCall","type":"error"},{"anonymous":false,"inputs":[{"indexed":true,"internalType":"uint256","name":"matchId","type":"uint256"},{"indexed":true,"internalType":"address","name":"opponent","type":"address"}],"name":"MatchAccepted","type":"event"},{"anonymous":false,"inputs":[{"indexed":true,"internalType":"uint256","name":"matchId","type":"uint256"},{"indexed":true,"internalType":"address","name":"challenger","type":"address"}],"name":"MatchCancelled","type":"event"},{"anonymous":false,"inputs":[{"indexed":true,"internalType":"uint256","name":"matchId","type":"uint256"},{"indexed":true,"internalType":"address","name":"winner","type":"address"},{"indexed":false,"internalType":"uint256","name":"payout","type":"uint256"},{"indexed":false,"internalType":"uint256","name":"rounds","type":"uint256"}],"name":"MatchCompleted","type":"event"},{"anonymous":false,"inputs":[{"indexed":true,"internalType":"uint256","name":"matchId","type":"uint256"},{"indexed":true,"internalType":"address","name":"challenger","type":"address"},{"indexed":true,"internalType":"address","name":"opponent","type":"address"},{"indexed":false,"internalType":"uint256","name":"wagerAmount","type":"uint256"}],"name":"MatchCreated","type":"event"},{"anonymous":false,"inputs":[{"indexed":true,"internalType":"address","name":"previousOwner","type":"address"},{"indexed":true,"internalType":"address","name":"newOwner","type":"address"}],"name":"OwnershipTransferred","type":"event"},{"anonymous":false,"inputs":[{"indexed":true,"internalType":"address","name":"treasury","type":"address"}],"name":"TreasurySet","type":"event"},{"inputs":[],"name":"HOUSE_FEE_BPS","outputs":[{"internalType":"uint256","name":"","type":"uint256"}],"stateMutability":"view","type":"function"},{"inputs":[],"name":"MATCH_EXPIRY","outputs":[{"internalType":"uint256","name":"","type":"uint256"}],"stateMutability":"view","type":"function"},{"inputs":[],"name":"MAX_WAGER","outputs":[{"internalType":"uint256","name":"","type":"uint256"}],"stateMutability":"view","type":"function"},{"inputs":[],"name":"MIN_WAGER","outputs":[{"internalType":"uint256","name":"","type":"uint256"}],"stateMutability":"view","type":"function"},{"inputs":[{"internalType":"uint256","name":"matchId","type":"uint256"}],"name":"acceptMatch","outputs":[],"stateMutability":"nonpayable","type":"function"},{"inputs":[],"name":"agentController","outputs":[{"internalType":"contract IAgentController","name":"","type":"address"}],"stateMutability":"view","type":"function"},{"inputs":[{"internalType":"address","name":"","type":"address"},{"internalType":"uint256","name":"","type":"uint256"}],"name":"agentMatches","outputs":[{"internalType":"uint256","name":"","type":"uint256"}],"stateMutability":"view","type":"function"},{"inputs":[{"internalType":"uint256","name":"matchId","type":"uint256"}],"name":"cancelMatch","outputs":[],"stateMutability":"nonpayable","type":"function"},{"inputs":[{"internalType":"uint256","name":"wagerAmount","type":"uint256"}],"name":"createMatch","outputs":[{"internalType":"uint256","name":"matchId","type":"uint256"}],"stateMutability":"nonpayable","type":"function"},{"inputs":[{"internalType":"uint256","name":"matchId","type":"uint256"}],"name":"executeBattle","outputs":[],"stateMutability":"nonpayable","type":"function"},{"inputs":[],"name":"gameContract","outputs":[{"internalType":"contract IGameContractDuel","name":"","type":"address"}],"stateMutability":"view","type":"function"},{"inputs":[{"internalType":"address","name":"agent","type":"address"}],"name":"getAgentMatchHistory","outputs":[{"internalType":"uint256[]","name":"","type":"uint256[]"}],"stateMutability":"view","type":"function"},{"inputs":[{"internalType":"uint256","name":"matchId","type":"uint256"}],"name":"getMatchDetails","outputs":[{"internalType":"address","name":"agent1","type":"address"},{"internalType":"address","name":"agent2","type":"address"},{"internalType":"uint256","name":"wagerAmount","type":"uint256"},{"internalType":"bool","name":"isAccepted","type":"bool"},{"internalType":"bool","name":"isCompleted","type":"bool"},{"internalType":"address","name":"winner","type":"address"},{"internalType":"uint256","name":"rounds","type":"uint256"}],"stateMutability":"view","type":"function"},{"inputs":[],"name":"getOpenMatches","outputs":[{"internalType":"uint256[]","name":"","type":"uint256[]"}],"stateMutability":"view","type":"function"},{"inputs":[{"internalType":"uint256","name":"count","type":"uint256"}],"name":"getRecentMatches","outputs":[{"internalType":"uint256[]","name":"","type":"uint256[]"}],"stateMutability":"view","type":"function"},{"inputs":[],"name":"matchCounter","outputs":[{"internalType":"uint256","name":"","type":"uint256"}],"stateMutability":"view","type":"function"},{"inputs":[{"internalType":"uint256","name":"","type":"uint256"}],"name":"matches","outputs":[{"internalType":"uint256","name":"matchId","type":"uint256"},{"internalType":"address","name":"agent1","type":"address"},{"internalType":"address","name":"agent2","type":"address"},{"internalType":"uint256","name":"wagerAmount","type":"uint256"},{"internalType":"bool","name":"isAccepted","type":"bool"},{"internalType":"bool","name":"isCompleted","type":"bool"},{"internalType":"bool","name":"isCancelled","type":"bool"},{"internalType":"address","name":"winner","type":"address"},{"internalType":"uint256","name":"timestamp","type":"uint256"},{"internalType":"uint256","name":"rounds","type":"uint256"}],"stateMutability":"view","type":"function"},{"inputs":[],"name":"owner","outputs":[{"internalType":"address","name":"","type":"address"}],"stateMutability":"view","type":"function"},{"inputs":[],"name":"predictionMarket","outputs":[{"internalType":"contract IPredictionMarket","name":"","type":"address"}],"stateMutability":"view","type":"function"},{"inputs":[],"name":"renounceOwnership","outputs":[],"stateMutability":"nonpayable","type":"function"},{"inputs":[],"name":"seasToken","outputs":[{"internalType":"contract IERC20","name":"","type":"address"}],"stateMutability":"view","type":"function"},{"inputs":[{"internalType":"address","name":"_pm","type":"address"}],"name":"setPredictionMarket","outputs":[],"stateMutability":"nonpayable","type":"function"},{"inputs":[{"internalType":"address","name":"_treasury","type":"address"}],"name":"setTreasury","outputs":[],"stateMutability":"nonpayable","type":"function"},{"inputs":[{"internalType":"address","name":"newOwner","type":"address"}],"name":"transferOwnership","outputs":[],"stateMutability":"nonpayable","type":"function"},{"inputs":[],"name":"treasury","outputs":[{"internalType":"address","name":"","type":"address"}],"stateMutability":"view","type":"function"}],"evm":{"bytecode":{"linkReferences":{},"object":"6080346200012057601f62001d1538819003918201601f19168301916001600160401b03831184841017620001255780849260809460405283398101031262000120576200004d816200013b565b6200005b602083016200013b565b9162000078606062000070604084016200013b565b92016200013b565b6001600055331562000107576001549360018060a01b03928380928160018060a01b03199733898b161760015560405199823391167f8be0079c531659141344cd1fd0a4f28419497f9722a3daafe3b4186f6b6457e0600080a316876003541617600355168560045416176004551683600254161760025516906006541617600655611bc49081620001518239f35b604051631e4fbdf760e01b815260006004820152602490fd5b600080fd5b634e487b7160e01b600052604160045260246000fd5b51906001600160a01b0382168203620001205756fe608060408181526004918236101561001657600080fd5b600092833560e01c91826301fd1951146117a45750816303b88ba2146117645781631504f5cd146112065781631594b256146111e95781632df5d1261461116a57816343a02ff0146111415781634768d4ef146110a0578163554bfee214610f125781635cc49f2314610eea57816361d027b314610ec1578163715018a614610e635781637f04532714610e3f5781638da5cb5b14610e1657816390a3253b14610df9578163a7030eaa14610da3578163b67a88f91461090a578163be48753914610874578163bebcd21e14610511578163d02c8cdf1461032f578163d3f3300914610306578163def114b6146102dd578163f0f4426014610272578163f2fde38b146101e657508063fca9db771461015d5763fdb6cf451461013857600080fd5b3461015957816003193601126101595760209051670de0b6b3a76400008152f35b5080fd5b50346101595760209060206003193601126101e2576001600160a01b036101826117c0565b168352600960205280832092815180936020865492838152019583526020832092905b8282106101cb576101c786866101bd828b038361191e565b51918291826117db565b0390f35b8354875295860195600193840193909101906101a5565b8280fd5b9050346101e25760203660031901126101e2576102016117c0565b9061020a611b3f565b6001600160a01b0391821692831561025c575050600154826001600160601b0360a01b821617600155167f8be0079c531659141344cd1fd0a4f28419497f9722a3daafe3b4186f6b6457e0600080a380f35b51631e4fbdf760e01b8152908101849052602490fd5b83346102da5760203660031901126102da5761028c6117c0565b610294611b3f565b600680546001600160a01b0319166001600160a01b039290921691821790557f3c864541ef71378c6229510ed90f376565ee42d9c5e0904a984a9e863e6db44f8280a280f35b80fd5b50503461015957816003193601126101595760055490516001600160a01b039091168152602090f35b50503461015957816003193601126101595760035490516001600160a01b039091168152602090f35b919050346101e2576020908160031936011261050d57823592610350611b6b565b8385526008835281852092600184019260018060a01b039485855416908133036104d557848101805461038660ff821615611b00565b61039660ff8260081c161561187c565b60ff8160101c1661049e5762ff0000191662010000179055600254600390910154835163a9059cbb60e01b81526001600160a01b039093168684019081526020810191909152849183919089169082908c90829060400103925af1908115610494578891610467575b5015610436575050505416907f34d66c87f348a9492b2a7fe1463b02de9cab509ca7872ee83878909d9805c3a88380a36001815580f35b5162461bcd60e51b815291820152600d60248201526c1499599d5b990819985a5b1959609a1b604482015260649150fd5b6104879150833d851161048d575b61047f818361191e565b810190611963565b386103ff565b503d610475565b82513d8a823e3d90fd5b845162461bcd60e51b81528088018790526011602482015270105b1c9958591e4818d85b98d95b1b1959607a1b6044820152606490fd5b50505162461bcd60e51b81529182015260126024820152712737ba103a34329031b430b63632b733b2b960711b604482015260649150fd5b8380fd5b83833461015957602092836003193601126101e257803591610531611b6b565b82845260088552808420948286019261056c60ff855461055382821615611b00565b610562828260081c161561187c565b60101c16156118bc565b60018701805490926001600160a01b03918216801561083f573314610805576005890154610e1081018091116107f25742116107c057879882849998995416865163c3c5a54760e01b815233868201528381602481855afa9081156107b657916105e260a0926024948d91610799575b506119e8565b88516316ad2b6760e31b8152338882015292839182905afa90811561075c576106568a9285928491610766575b50610621600386015480921015611a54565b6002548a516323b872dd60e01b8152338a82019081523060208201526040810193909352948593918916928492839160600190565b03925af190811561075c5791610679600292600995948c9161073f575b50611a98565b0196336001600160601b0360a01b895416178855600160ff19825416179055338852526106a887858820611adb565b806005541692836106e2575b8633897f3b8d451bc77cb8362426b579170661ca3515d7fa4c08b9627c660328f03110088380a36001815580f35b8190541694541690823b1561073b57858793606493829651978896879563302a627760e01b8752860152602485015260448401525af1610727575b80808080806106b4565b610730906118f4565b61015957818361071d565b8580fd5b6107569150853d871161048d5761047f818361191e565b8e610673565b87513d8b823e3d90fd5b610788915060a03d60a011610792575b610780818361191e565b810190611a2d565b505050508e61060f565b503d610776565b6107b09150873d891161048d5761047f818361191e565b8f6105dc565b88513d8c823e3d90fd5b8260649186519162461bcd60e51b8352820152600d60248201526c13585d18da08195e1c1a5c9959609a1b6044820152fd5b634e487b7160e01b895260118452602489fd5b8260649186519162461bcd60e51b8352820152601560248201527421b0b73737ba103334b3b43a103cb7bab939b2b63360591b6044820152fd5b855162461bcd60e51b8152808501839052600f60248201526e13585d18da081b9bdd08199bdd5b99608a1b6044820152606490fd5b83833461015957602036600319011261015957600a548335808210156109045750805b6108a0826119a2565b936000198201918211815b8481106108bf578551806101c789826117db565b816108f157806108d96108d460019387611940565b611817565b90549060031b1c6108ea828a6119d4565b52016108ab565b634e487b7160e01b835260118852602483fd5b90610897565b9050346101e2576020918260031936011261050d5781359361092a611b6b565b8254825163c3c5a54760e01b815233818601526001600160a01b039460249290919086169087818581855afa908115610d99579061096e918691610d7c57506119e8565b670de0b6b3a76400008810610d3b57683635c9adc5dea000008811610cfa5760a083918651928380926316ad2b6760e31b825233878301525afa908115610ccd576109c49189918691610cd7575b501015611a54565b60025484516323b872dd60e01b815233838201908152306020820152604081018a905290918891839189169082908890829060600103925af1908115610ccd5790610a15918591610cb05750611a98565b610a2060075461197b565b9485600755845190610140820182811067ffffffffffffffff821117610c9c578583610b328982958e9998978e8e600698855280835281830133815285840190898252606085019e8f5260808501968a88528a600860a088019682885260c089019683885261012061010060e08c019b868d52019e8f429052019e8f52835252209b518c558560018d01915116906001600160601b0360a01b91828254161790558560028d019251169082541617905560039c5160038b01558a8a01945115159160ff62ff000061ff0088549351151560081b169351151560101b1693169062ffffff1916171717835551168154906301000000600160b81b039060181b16906301000000600160b81b031916179055565b5160058401555191015533845260098752610b4f86868620611adb565b600a918254600160401b811015610c885787610b73826001610b8c94018755611817565b90919082549060031b91821b91600019901b1916179055565b6032835411610bd1575b5050505080600191868451908152857f2c9089bdab8aeea6a8c5e41b785290b63781dd5c648c9c824bcc0883237cff32883393a45551908152f35b94909591969297845b88546000198101908111610c1e57811015610c305760018101808211610c1e5790610c18610c09600193611817565b9054908d1b1c610b7383611817565b01610bda565b634e487b7160e01b8752601189528787fd5b50939490959297509590958154928315610c77575050918392916001949260001980920191610c5e83611817565b909182549160031b1b1916905555959493923880610b96565b634e487b7160e01b86526031905284fd5b50634e487b7160e01b600090815260418352fd5b84604185634e487b7160e01b600052526000fd5b610cc79150883d8a1161048d5761047f818361191e565b38610673565b85513d86823e3d90fd5b610cf0915060a03d60a01161079257610780818361191e565b50505050386109bc565b50601f6064928786519362461bcd60e51b85528401528201527f57616765722061626f7665206d6178696d756d202831303030205345415329006044820152fd5b50601c6064928786519362461bcd60e51b85528401528201527f57616765722062656c6f77206d696e696d756d202831205345415329000000006044820152fd5b610d939150893d8b1161048d5761047f818361191e565b386105dc565b86513d87823e3d90fd5b505034610159578060031936011261015957610dbd6117c0565b6001600160a01b031682526009602052808220805460243593908410156102da5750602092610deb91611864565b91905490519160031b1c8152f35b50503461015957816003193601126101595760209051610e108152f35b50503461015957816003193601126101595760015490516001600160a01b039091168152602090f35b50503461015957816003193601126101595760209051683635c9adc5dea000008152f35b83346102da57806003193601126102da57610e7c611b3f565b600180546001600160a01b031981169091556000906001600160a01b03167f8be0079c531659141344cd1fd0a4f28419497f9722a3daafe3b4186f6b6457e08280a380f35b50503461015957816003193601126101595760065490516001600160a01b039091168152602090f35b9050346101e257826003193601126101e2575490516001600160a01b03909116815260209150f35b905082346102da57806003193601126102da57600754908060015b838111156110005750610f3f906119a2565b928160015b84811115610f59578651806101c788826117db565b8082526008806020528783208481015460ff90818116159384610ff2575b5083610fe4575b505081610fb4575b5090610f9591610f9a5761197b565b610f44565b80610fae610fa78761197b565b96896119d4565b5261197b565b600591500154610e108101809111610fd157421115610f95610f86565b634e487b7160e01b835260118452602483fd5b60101c161591508980610f7e565b81901c82161593508b610f77565b8083526008806020528684208681015460ff90818116159384611092575b5083611084575b505081611056575b50611041575b61103c9061197b565b610f2d565b9061104e61103c9161197b565b919050611033565b600591500154610e108101809111611071574211158761102d565b634e487b7160e01b845260118652602484fd5b60101c161591508880611025565b81901c82161593508a61101e565b9050346101e25760203660031901126101e25781610140938235815260086020522080549260018060a01b039081600184015416938260028501541660038501549185015492600660058701549601549681519889526020890152870152606086015260ff81161515608086015260ff8160081c16151560a086015260ff8160101c16151560c086015260181c1660e0840152610100830152610120820152f35b50503461015957816003193601126101595760025490516001600160a01b039091168152602090f35b919050346101e25760203660031901126101e2578060e0938335815260086020522060018060a01b0390816001820154169382600283015416936006600384015492840154930154948151968752602087015285015260ff81161515606085015260ff8160081c161515608085015260181c1660a083015260c0820152f35b505034610159578160031936011261015957602090516101f48152f35b905082346102da5760208060031936011261015957823590611226611b6b565b8183526008815284832094848601805460ff81161561172e5760ff81610562826112549460081c161561187c565b60018701805490966001600160a01b0391821691338314801561171f575b8015611712575b156116db578798998160035416908660028201926044858554169783519d8e938492630178545360e41b84528a84015260249a8b8401525af19586156116d1578b9a8c9761168a575b50805462ff0100600160b81b0319166301000000600160b81b0360188d901b1617610100179055600681018690556003018054600181901b9c9192919080156002918f04919091141715611678578c6101f48082029e8f04148115171561166657858d9e9d61137a8e9f9c809e9f6113418e9f61271090048097611940565b9d8e91858c60025416925180968195829463a9059cbb60e01b9b8c8552840160209093929193604081019460018060a01b031681520152565b03925af191821561165b579161163e575b501561160c57818f918c8e91899796951515806115ff575b611533575b505050505082809154169c169b808d1460001461152a57505416905b82845416918154928d813b156102da578760648f836001958f998c9a5197889687956332b0e7c960e21b9d8e885287015285015260448401525af1801561151e57611501575b509083929185948e97965416915491803b156114fd5784938860649281958e5197889687958652168a850152828b85015260448401525af180156114f3579085916114df575b5050600554169081611493575b505050507fd87807c41517dc00ed5553199a04676c5ef960776ddbf91d8cffec4a769a4582938351928352820152a36001815580f35b813b1561050d57604489918580948d8b519788968795631813610960e31b87528601528401525af16114c7575b808061145d565b6114d0906118f4565b6114db5786886114c0565b8680fd5b6114e8906118f4565b61050d57838c611450565b88513d87823e3d90fd5b8780fd5b611512909d9196959493929d6118f4565b9b90919293948d61140a565b8e8b51903d90823e3d90fd5b915050906113c4565b90919293949596858b9160025416926115718c600654169551978896879586948552840160209093929193604081019460018060a01b031681520152565b03925af19182156115f457916115d7575b5015611595579083918d8f8c8c826113a8565b885162461bcd60e51b81528086018b90526018818801527f5472656173757279207472616e73666572206661696c656400000000000000006044820152606490fd5b6115ee91508b3d8d1161048d5761047f818361191e565b8e611582565b8b51903d90823e3d90fd5b50876006541615156113a3565b8a5162461bcd60e51b81528088018d9052600d818a01526c14185e5bdd5d0819985a5b1959609a1b6044820152606490fd5b61165591508d803d1061048d5761047f818361191e565b3861138b565b8d51903d90823e3d90fd5b634e487b7160e01b8d5260118652868dfd5b634e487b7160e01b8c5260118552858cfd5b9a509550868a813d81116116ca575b6116a3818361191e565b810103126116c657895199838b168b036116c2578801519560036112c2565b8b80fd5b8a80fd5b503d611699565b87513d8d823e3d90fd5b845162461bcd60e51b81528083018790526011602482015270139bdd0818481c185c9d1a58da5c185b9d607a1b6044820152606490fd5b5080600154163314611279565b508060028b0154163314611272565b825162461bcd60e51b8152808801859052601060248201526f139bdd081858d8d95c1d1959081e595d60821b6044820152606490fd5b83346102da5760203660031901126102da5761177e6117c0565b611786611b3f565b60018060a01b03166001600160601b0360a01b600554161760055580f35b8490346101595781600319360112610159576020906007548152f35b600435906001600160a01b03821682036117d657565b600080fd5b602090602060408183019282815285518094520193019160005b828110611803575050505090565b8351855293810193928101926001016117f5565b600a5481101561184e57600a6000527fc65a7bb8d6351c1cf70c95a316cc6a92839c986682d98bc35f958f4883f9d2a80190600090565b634e487b7160e01b600052603260045260246000fd5b805482101561184e5760005260206000200190600090565b1561188357565b60405162461bcd60e51b8152602060048201526011602482015270105b1c9958591e4818dbdb5c1b195d1959607a1b6044820152606490fd5b156118c357565b60405162461bcd60e51b815260206004820152600960248201526810d85b98d95b1b195960ba1b6044820152606490fd5b67ffffffffffffffff811161190857604052565b634e487b7160e01b600052604160045260246000fd5b90601f8019910116810190811067ffffffffffffffff82111761190857604052565b9190820391821161194d57565b634e487b7160e01b600052601160045260246000fd5b908160209103126117d6575180151581036117d65790565b600019811461194d5760010190565b67ffffffffffffffff81116119085760051b60200190565b906119ac8261198a565b6119b9604051918261191e565b82815280926119ca601f199161198a565b0190602036910137565b805182101561184e5760209160051b010190565b156119ef57565b60405162461bcd60e51b8152602060048201526016602482015275139bdd0818481c9959da5cdd195c9959081859d95b9d60521b6044820152606490fd5b908160a09103126117d6578051916020820151916040810151916080606083015192015190565b15611a5b57565b60405162461bcd60e51b8152602060048201526015602482015274125b9cdd59999a58da595b9d0818985b9adc9bdb1b605a1b6044820152606490fd5b15611a9f57565b60405162461bcd60e51b815260206004820152601460248201527314d15054c81d1c985b9cd9995c8819985a5b195960621b6044820152606490fd5b90815491600160401b8310156119085782610b73916001611afe95018155611864565b565b15611b0757565b60405162461bcd60e51b815260206004820152601060248201526f105b1c9958591e481858d8d95c1d195960821b6044820152606490fd5b6001546001600160a01b03163303611b5357565b60405163118cdaa760e01b8152336004820152602490fd5b600260005414611b7c576002600055565b604051633ee5aeb560e01b8152600490fdfea26469706673582212201d6c2d921954385dd9d44f68c809eba56101141d4795c0919dbbb51bdb69ec7164736f6c63430008180033","opcodes":"PUSH1 0x80 CALLVALUE PUSH3 0x120 JUMPI PUSH1 0x1F PUSH3 0x1D15 CODESIZE DUP2 SWAP1 SUB SWAP2 DUP3 ADD PUSH1 0x1F NOT AND DUP4 ADD SWAP2 PUSH1 0x1 PUSH1 0x1 PUSH1 0x40 SHL SUB DUP4 GT DUP5 DUP5 LT OR PUSH3 0x125 JUMPI DUP1 DUP5 SWAP3 PUSH1 0x80 SWAP5 PUSH1 0x40 MSTORE DUP4 CODECOPY DUP2 ADD SUB SLT PUSH3 0x120 JUMPI PUSH3 0x4D DUP2 PUSH3 0x13B JUMP JUMPDEST PUSH3 0x5B PUSH1 0x20 DUP4 ADD PUSH3 0x13B JUMP JUMPDEST SWAP2 PUSH3 0x78 PUSH1 0x60 PUSH3 0x70 PUSH1 0x40 DUP5 ADD PUSH3 0x13B JUMP JUMPDEST SWAP3 ADD PUSH3 0x13B JUMP JUMPDEST PUSH1 0x1 PUSH1 0x0 SSTORE CALLER ISZERO PUSH3 0x107 JUMPI PUSH1 0x1 SLOAD SWAP4 PUSH1 0x1 DUP1 PUSH1 0xA0 SHL SUB SWAP3 DUP4 DUP1 SWAP3 DUP2 PUSH1 0x1 DUP1 PUSH1 0xA0 SHL SUB NOT SWAP8 CALLER DUP10 DUP12 AND OR PUSH1 0x1 SSTORE PUSH1 0x40 MLOAD SWAP10 DUP3 CALLER SWAP2 AND PUSH32 0x8BE0079C531659141344CD1FD0A4F28419497F9722A3DAAFE3B4186F6B6457E0 PUSH1 0x0 DUP1 LOG3 AND DUP8 PUSH1 0x3 SLOAD AND OR PUSH1 0x3 SSTORE AND DUP6 PUSH1 0x4 SLOAD AND OR PUSH1 0x4 SSTORE AND DUP4 PUSH1 0x2 SLOAD AND OR PUSH1 0x2 SSTORE AND SWAP1 PUSH1 0x6 SLOAD AND OR PUSH1 0x6 SSTORE PUSH2 0x1BC4 SWAP1 DUP2 PUSH3 0x151 DUP3 CODECOPY RETURN JUMPDEST PUSH1 0x40 MLOAD PUSH4 0x1E4FBDF7 PUSH1 0xE0 SHL DUP2 MSTORE PUSH1 0x0 PUSH1 0x4 DUP3 ADD MSTORE PUSH1 0x24 SWAP1 REVERT JUMPDEST PUSH1 0x0 DUP1 REVERT JUMPDEST PUSH4 0x4E487B71 PUSH1 0xE0 SHL PUSH1 0x0 MSTORE PUSH1 0x41 PUSH1 0x4 MSTORE PUSH1 0x24 PUSH1 0x0 REVERT JUMPDEST MLOAD SWAP1 PUSH1 0x1 PUSH1 0x1 PUSH1 0xA0 SHL SUB DUP3 AND DUP3 SUB PUSH3 0x120 JUMPI JUMP INVALID PUSH1 0x80 PUSH1 0x40 DUP2 DUP2 MSTORE PUSH1 0x4 SWAP2 DUP3 CALLDATASIZE LT ISZERO PUSH2 0x16 JUMPI PUSH1 0x0 DUP1 REVERT JUMPDEST PUSH1 0x0 SWAP3 DUP4 CALLDATALOAD PUSH1 0xE0 SHR SWAP2 DUP3 PUSH4 0x1FD1951 EQ PUSH2 0x17A4 JUMPI POP DUP2 PUSH4 0x3B88BA2 EQ PUSH2 0x1764 JUMPI DUP2 PUSH4 0x1504F5CD EQ PUSH2 0x1206 JUMPI DUP2 PUSH4 0x1594B256 EQ PUSH2 0x11E9 JUMPI DUP2 PUSH4 0x2DF5D126 EQ PUSH2 0x116A JUMPI DUP2 PUSH4 0x43A02FF0 EQ PUSH2 0x1141 JUMPI DUP2 PUSH4 0x4768D4EF EQ PUSH2 0x10A0 JUMPI DUP2 PUSH4 0x554BFEE2 EQ PUSH2 0xF12 JUMPI DUP2 PUSH4 0x5CC49F23 EQ PUSH2 0xEEA JUMPI DUP2 PUSH4 0x61D027B3 EQ PUSH2 0xEC1 JUMPI DUP2 PUSH4 0x715018A6 EQ PUSH2 0xE63 JUMPI DUP2 PUSH4 0x7F045327 EQ PUSH2 0xE3F JUMPI DUP2 PUSH4 0x8DA5CB5B EQ PUSH2 0xE16 JUMPI DUP2 PUSH4 0x90A3253B EQ PUSH2 0xDF9 JUMPI DUP2 PUSH4 0xA7030EAA EQ PUSH2 0xDA3 JUMPI DUP2 PUSH4 0xB67A88F9 EQ PUSH2 0x90A JUMPI DUP2 PUSH4 0xBE487539 EQ PUSH2 0x874 JUMPI DUP2 PUSH4 0xBEBCD21E EQ PUSH2 0x511 JUMPI DUP2 PUSH4 0xD02C8CDF EQ PUSH2 0x32F JUMPI DUP2 PUSH4 0xD3F33009 EQ PUSH2 0x306 JUMPI DUP2 PUSH4 0xDEF114B6 EQ PUSH2 0x2DD JUMPI DUP2 PUSH4 0xF0F44260 EQ PUSH2 0x272 JUMPI DUP2 PUSH4 0xF2FDE38B EQ PUSH2 0x1E6 JUMPI POP DUP1 PUSH4 0xFCA9DB77 EQ PUSH2 0x15D JUMPI PUSH4 0xFDB6CF45 EQ PUSH2 0x138 JUMPI PUSH1 0x0 DUP1 REVERT JUMPDEST CALLVALUE PUSH2 0x159 JUMPI DUP2 PUSH1 0x3 NOT CALLDATASIZE ADD SLT PUSH2 0x159 JUMPI PUSH1 0x20 SWAP1 MLOAD PUSH8 0xDE0B6B3A7640000 DUP2 MSTORE RETURN JUMPDEST POP DUP1 REVERT JUMPDEST POP CALLVALUE PUSH2 0x159 JUMPI PUSH1 0x20 SWAP1 PUSH1 0x20 PUSH1 0x3 NOT CALLDATASIZE ADD SLT PUSH2 0x1E2 JUMPI PUSH1 0x1 PUSH1 0x1 PUSH1 0xA0 SHL SUB PUSH2 0x182 PUSH2 0x17C0 JUMP JUMPDEST AND DUP4 MSTORE PUSH1 0x9 PUSH1 0x20 MSTORE DUP1 DUP4 KECCAK256 SWAP3 DUP2 MLOAD DUP1 SWAP4 PUSH1 0x20 DUP7 SLOAD SWAP3 DUP4 DUP2 MSTORE ADD SWAP6 DUP4 MSTORE PUSH1 0x20 DUP4 KECCAK256 SWAP3 SWAP1 JUMPDEST DUP3 DUP3 LT PUSH2 0x1CB JUMPI PUSH2 0x1C7 DUP7 DUP7 PUSH2 0x1BD DUP3 DUP12 SUB DUP4 PUSH2 0x191E JUMP JUMPDEST MLOAD SWAP2 DUP3 SWAP2 DUP3 PUSH2 0x17DB JUMP JUMPDEST SUB SWAP1 RETURN JUMPDEST DUP4 SLOAD DUP8 MSTORE SWAP6 DUP7 ADD SWAP6 PUSH1 0x1 SWAP4 DUP5 ADD SWAP4 SWAP1 SWAP2 ADD SWAP1 PUSH2 0x1A5 JUMP JUMPDEST DUP3 DUP1 REVERT JUMPDEST SWAP1 POP CALLVALUE PUSH2 0x1E2 JUMPI PUSH1 0x20 CALLDATASIZE PUSH1 0x3 NOT ADD SLT PUSH2 0x1E2 JUMPI PUSH2 0x201 PUSH2 0x17C0 JUMP JUMPDEST SWAP1 PUSH2 0x20A PUSH2 0x1B3F JUMP JUMPDEST PUSH1 0x1 PUSH1 0x1 PUSH1 0xA0 SHL SUB SWAP2 DUP3 AND SWAP3 DUP4 ISZERO PUSH2 0x25C JUMPI POP POP PUSH1 0x1 SLOAD DUP3 PUSH1 0x1 PUSH1 0x1 PUSH1 0x60 SHL SUB PUSH1 0xA0 SHL DUP3 AND OR PUSH1 0x1 SSTORE AND PUSH32 0x8BE0079C531659141344CD1FD0A4F28419497F9722A3DAAFE3B4186F6B6457E0 PUSH1 0x0 DUP1 LOG3 DUP1 RETURN JUMPDEST MLOAD PUSH4 0x1E4FBDF7 PUSH1 0xE0 SHL DUP2 MSTORE SWAP1 DUP2 ADD DUP5 SWAP1 MSTORE PUSH1 0x24 SWAP1 REVERT JUMPDEST DUP4 CALLVALUE PUSH2 0x2DA JUMPI PUSH1 0x20 CALLDATASIZE PUSH1 0x3 NOT ADD SLT PUSH2 0x2DA JUMPI PUSH2 0x28C PUSH2 0x17C0 JUMP JUMPDEST PUSH2 0x294 PUSH2 0x1B3F JUMP JUMPDEST PUSH1 0x6 DUP1 SLOAD PUSH1 0x1 PUSH1 0x1 PUSH1 0xA0 SHL SUB NOT AND PUSH1 0x1 PUSH1 0x1 PUSH1 0xA0 SHL SUB SWAP3 SWAP1 SWAP3 AND SWAP2 DUP3 OR SWAP1 SSTORE PUSH32 0x3C864541EF71378C6229510ED90F376565EE42D9C5E0904A984A9E863E6DB44F DUP3 DUP1 LOG2 DUP1 RETURN JUMPDEST DUP1 REVERT JUMPDEST POP POP CALLVALUE PUSH2 0x159 JUMPI DUP2 PUSH1 0x3 NOT CALLDATASIZE ADD SLT PUSH2 0x159 JUMPI PUSH1 0x5 SLOAD SWAP1 MLOAD PUSH1 0x1 PUSH1 0x1 PUSH1 0xA0 SHL SUB SWAP1 SWAP2 AND DUP2 MSTORE PUSH1 0x20 SWAP1 RETURN JUMPDEST POP POP CALLVALUE PUSH2 0x159 JUMPI DUP2 PUSH1 0x3 NOT CALLDATASIZE ADD SLT PUSH2 0x159 JUMPI PUSH1 0x3 SLOAD SWAP1 MLOAD PUSH1 0x1 PUSH1 0x1 PUSH1 0xA0 SHL SUB SWAP1 SWAP2 AND DUP2 MSTORE PUSH1 0x20 SWAP1 RETURN JUMPDEST SWAP2 SWAP1 POP CALLVALUE PUSH2 0x1E2 JUMPI PUSH1 0x20 SWAP1 DUP2 PUSH1 0x3 NOT CALLDATASIZE ADD SLT PUSH2 0x50D JUMPI DUP3 CALLDATALOAD SWAP3 PUSH2 0x350 PUSH2 0x1B6B JUMP JUMPDEST DUP4 DUP6 MSTORE PUSH1 0x8 DUP4 MSTORE DUP2 DUP6 KECCAK256 SWAP3 PUSH1 0x1 DUP5 ADD SWAP3 PUSH1 0x1 DUP1 PUSH1 0xA0 SHL SUB SWAP5 DUP6 DUP6 SLOAD AND SWAP1 DUP2 CALLER SUB PUSH2 0x4D5 JUMPI DUP5 DUP2 ADD DUP1 SLOAD PUSH2 0x386 PUSH1 0xFF DUP3 AND ISZERO PUSH2 0x1B00 JUMP JUMPDEST PUSH2 0x396 PUSH1 0xFF DUP3 PUSH1 0x8 SHR AND ISZERO PUSH2 0x187C JUMP JUMPDEST PUSH1 0xFF DUP2 PUSH1 0x10 SHR AND PUSH2 0x49E JUMPI PUSH3 0xFF0000 NOT AND PUSH3 0x10000 OR SWAP1 SSTORE PUSH1 0x2 SLOAD PUSH1 0x3 SWAP1 SWAP2 ADD SLOAD DUP4 MLOAD PUSH4 0xA9059CBB PUSH1 0xE0 SHL DUP2 MSTORE PUSH1 0x1 PUSH1 0x1 PUSH1 0xA0 SHL SUB SWAP1 SWAP4 AND DUP7 DUP5 ADD SWAP1 DUP2 MSTORE PUSH1 0x20 DUP2 ADD SWAP2 SWAP1 SWAP2 MSTORE DUP5 SWAP2 DUP4 SWAP2 SWAP1 DUP10 AND SWAP1 DUP3 SWAP1 DUP13 SWAP1 DUP3 SWAP1 PUSH1 0x40 ADD SUB SWAP3 GAS CALL SWAP1 DUP2 ISZERO PUSH2 0x494 JUMPI DUP9 SWAP2 PUSH2 0x467 JUMPI JUMPDEST POP ISZERO PUSH2 0x436 JUMPI POP POP POP SLOAD AND SWAP1 PUSH32 0x34D66C87F348A9492B2A7FE1463B02DE9CAB509CA7872EE83878909D9805C3A8 DUP4 DUP1 LOG3 PUSH1 0x1 DUP2 SSTORE DUP1 RETURN JUMPDEST MLOAD PUSH3 0x461BCD PUSH1 0xE5 SHL DUP2 MSTORE SWAP2 DUP3 ADD MSTORE PUSH1 0xD PUSH1 0x24 DUP3 ADD MSTORE PUSH13 0x1499599D5B990819985A5B1959 PUSH1 0x9A SHL PUSH1 0x44 DUP3 ADD MSTORE PUSH1 0x64 SWAP2 POP REVERT JUMPDEST PUSH2 0x487 SWAP2 POP DUP4 RETURNDATASIZE DUP6 GT PUSH2 0x48D JUMPI JUMPDEST PUSH2 0x47F DUP2 DUP4 PUSH2 0x191E JUMP JUMPDEST DUP2 ADD SWAP1 PUSH2 0x1963 JUMP JUMPDEST CODESIZE PUSH2 0x3FF JUMP JUMPDEST POP RETURNDATASIZE PUSH2 0x475 JUMP JUMPDEST DUP3 MLOAD RETURNDATASIZE DUP11 DUP3 RETURNDATACOPY RETURNDATASIZE SWAP1 REVERT JUMPDEST DUP5 MLOAD PUSH3 0x461BCD PUSH1 0xE5 SHL DUP2 MSTORE DUP1 DUP9 ADD DUP8 SWAP1 MSTORE PUSH1 0x11 PUSH1 0x24 DUP3 ADD MSTORE PUSH17 0x105B1C9958591E4818D85B98D95B1B1959 PUSH1 0x7A SHL PUSH1 0x44 DUP3 ADD MSTORE PUSH1 0x64 SWAP1 REVERT JUMPDEST POP POP MLOAD PUSH3 0x461BCD PUSH1 0xE5 SHL DUP2 MSTORE SWAP2 DUP3 ADD MSTORE PUSH1 0x12 PUSH1 0x24 DUP3 ADD MSTORE PUSH18 0x2737BA103A34329031B430B63632B733B2B9 PUSH1 0x71 SHL PUSH1 0x44 DUP3 ADD MSTORE PUSH1 0x64 SWAP2 POP REVERT JUMPDEST DUP4 DUP1 REVERT JUMPDEST DUP4 DUP4 CALLVALUE PUSH2 0x159 JUMPI PUSH1 0x20 SWAP3 DUP4 PUSH1 0x3 NOT CALLDATASIZE ADD SLT PUSH2 0x1E2 JUMPI DUP1 CALLDATALOAD SWAP2 PUSH2 0x531 PUSH2 0x1B6B JUMP JUMPDEST DUP3 DUP5 MSTORE PUSH1 0x8 DUP6 MSTORE DUP1 DUP5 KECCAK256 SWAP5 DUP3 DUP7 ADD SWAP3 PUSH2 0x56C PUSH1 0xFF DUP6 SLOAD PUSH2 0x553 DUP3 DUP3 AND ISZERO PUSH2 0x1B00 JUMP JUMPDEST PUSH2 0x562 DUP3 DUP3 PUSH1 0x8 SHR AND ISZERO PUSH2 0x187C JUMP JUMPDEST PUSH1 0x10 SHR AND ISZERO PUSH2 0x18BC JUMP JUMPDEST PUSH1 0x1 DUP8 ADD DUP1 SLOAD SWAP1 SWAP3 PUSH1 0x1 PUSH1 0x1 PUSH1 0xA0 SHL SUB SWAP2 DUP3 AND DUP1 ISZERO PUSH2 0x83F JUMPI CALLER EQ PUSH2 0x805 JUMPI PUSH1 0x5 DUP10 ADD SLOAD PUSH2 0xE10 DUP2 ADD DUP1 SWAP2 GT PUSH2 0x7F2 JUMPI TIMESTAMP GT PUSH2 0x7C0 JUMPI DUP8 SWAP9 DUP3 DUP5 SWAP10 SWAP9 SWAP10 SLOAD AND DUP7 MLOAD PUSH4 0xC3C5A547 PUSH1 0xE0 SHL DUP2 MSTORE CALLER DUP7 DUP3 ADD MSTORE DUP4 DUP2 PUSH1 0x24 DUP2 DUP6 GAS STATICCALL SWAP1 DUP2 ISZERO PUSH2 0x7B6 JUMPI SWAP2 PUSH2 0x5E2 PUSH1 0xA0 SWAP3 PUSH1 0x24 SWAP5 DUP14 SWAP2 PUSH2 0x799 JUMPI JUMPDEST POP PUSH2 0x19E8 JUMP JUMPDEST DUP9 MLOAD PUSH4 0x16AD2B67 PUSH1 0xE3 SHL DUP2 MSTORE CALLER DUP9 DUP3 ADD MSTORE SWAP3 DUP4 SWAP2 DUP3 SWAP1 GAS STATICCALL SWAP1 DUP2 ISZERO PUSH2 0x75C JUMPI PUSH2 0x656 DUP11 SWAP3 DUP6 SWAP3 DUP5 SWAP2 PUSH2 0x766 JUMPI JUMPDEST POP PUSH2 0x621 PUSH1 0x3 DUP7 ADD SLOAD DUP1 SWAP3 LT ISZERO PUSH2 0x1A54 JUMP JUMPDEST PUSH1 0x2 SLOAD DUP11 MLOAD PUSH4 0x23B872DD PUSH1 0xE0 SHL DUP2 MSTORE CALLER DUP11 DUP3 ADD SWAP1 DUP2 MSTORE ADDRESS PUSH1 0x20 DUP3 ADD MSTORE PUSH1 0x40 DUP2 ADD SWAP4 SWAP1 SWAP4 MSTORE SWAP5 DUP6 SWAP4 SWAP2 DUP10 AND SWAP3 DUP5 SWAP3 DUP4 SWAP2 PUSH1 0x60 ADD SWAP1 JUMP JUMPDEST SUB SWAP3 GAS CALL SWAP1 DUP2 ISZERO PUSH2 0x75C JUMPI SWAP2 PUSH2 0x679 PUSH1 0x2 SWAP3 PUSH1 0x9 SWAP6 SWAP5 DUP13 SWAP2 PUSH2 0x73F JUMPI JUMPDEST POP PUSH2 0x1A98 JUMP JUMPDEST ADD SWAP7 CALLER PUSH1 0x1 PUSH1 0x1 PUSH1 0x60 SHL SUB PUSH1 0xA0 SHL DUP10 SLOAD AND OR DUP9 SSTORE PUSH1 0x1 PUSH1 0xFF NOT DUP3 SLOAD AND OR SWAP1 SSTORE CALLER DUP9 MSTORE MSTORE PUSH2 0x6A8 DUP8 DUP6 DUP9 KECCAK256 PUSH2 0x1ADB JUMP JUMPDEST DUP1 PUSH1 0x5 SLOAD AND SWAP3 DUP4 PUSH2 0x6E2 JUMPI JUMPDEST DUP7 CALLER DUP10 PUSH32 0x3B8D451BC77CB8362426B579170661CA3515D7FA4C08B9627C660328F0311008 DUP4 DUP1 LOG3 PUSH1 0x1 DUP2 SSTORE DUP1 RETURN JUMPDEST DUP2 SWAP1 SLOAD AND SWAP5 SLOAD AND SWAP1 DUP3 EXTCODESIZE ISZERO PUSH2 0x73B JUMPI DUP6 DUP8 SWAP4 PUSH1 0x64 SWAP4 DUP3 SWAP7 MLOAD SWAP8 DUP9 SWAP7 DUP8 SWAP6 PUSH4 0x302A6277 PUSH1 0xE0 SHL DUP8 MSTORE DUP7 ADD MSTORE PUSH1 0x24 DUP6 ADD MSTORE PUSH1 0x44 DUP5 ADD MSTORE GAS CALL PUSH2 0x727 JUMPI JUMPDEST DUP1 DUP1 DUP1 DUP1 DUP1 PUSH2 0x6B4 JUMP JUMPDEST PUSH2 0x730 SWAP1 PUSH2 0x18F4 JUMP JUMPDEST PUSH2 0x159 JUMPI DUP2 DUP4 PUSH2 0x71D JUMP JUMPDEST DUP6 DUP1 REVERT JUMPDEST PUSH2 0x756 SWAP2 POP DUP6 RETURNDATASIZE DUP8 GT PUSH2 0x48D JUMPI PUSH2 0x47F DUP2 DUP4 PUSH2 0x191E JUMP JUMPDEST DUP15 PUSH2 0x673 JUMP JUMPDEST DUP8 MLOAD RETURNDATASIZE DUP12 DUP3 RETURNDATACOPY RETURNDATASIZE SWAP1 REVERT JUMPDEST PUSH2 0x788 SWAP2 POP PUSH1 0xA0 RETURNDATASIZE PUSH1 0xA0 GT PUSH2 0x792 JUMPI JUMPDEST PUSH2 0x780 DUP2 DUP4 PUSH2 0x191E JUMP JUMPDEST DUP2 ADD SWAP1 PUSH2 0x1A2D JUMP JUMPDEST POP POP POP POP DUP15 PUSH2 0x60F JUMP JUMPDEST POP RETURNDATASIZE PUSH2 0x776 JUMP JUMPDEST PUSH2 0x7B0 SWAP2 POP DUP8 RETURNDATASIZE DUP10 GT PUSH2 0x48D JUMPI PUSH2 0x47F DUP2 DUP4 PUSH2 0x191E JUMP JUMPDEST DUP16 PUSH2 0x5DC JUMP JUMPDEST DUP9 MLOAD RETURNDATASIZE DUP13 DUP3 RETURNDATACOPY RETURNDATASIZE SWAP1 REVERT JUMPDEST DUP3 PUSH1 0x64 SWAP2 DUP7 MLOAD SWAP2 PUSH3 0x461BCD PUSH1 0xE5 SHL DUP4 MSTORE DUP3 ADD MSTORE PUSH1 0xD PUSH1 0x24 DUP3 ADD MSTORE PUSH13 0x13585D18DA08195E1C1A5C9959 PUSH1 0x9A SHL PUSH1 0x44 DUP3 ADD MSTORE REVERT JUMPDEST PUSH4 0x4E487B71 PUSH1 0xE0 SHL DUP10 MSTORE PUSH1 0x11 DUP5 MSTORE PUSH1 0x24 DUP10 REVERT JUMPDEST DUP3 PUSH1 0x64 SWAP2 DUP7 MLOAD SWAP2 PUSH3 0x461BCD PUSH1 0xE5 SHL DUP4 MSTORE DUP3 ADD MSTORE PUSH1 0x15 PUSH1 0x24 DUP3 ADD MSTORE PUSH21 0x21B0B73737BA103334B3B43A103CB7BAB939B2B633 PUSH1 0x59 SHL PUSH1 0x44 DUP3 ADD MSTORE REVERT JUMPDEST DUP6 MLOAD PUSH3 0x461BCD PUSH1 0xE5 SHL DUP2 MSTORE DUP1 DUP6 ADD DUP4 SWAP1 MSTORE PUSH1 0xF PUSH1 0x24 DUP3 ADD MSTORE PUSH15 0x13585D18DA081B9BDD08199BDD5B99 PUSH1 0x8A SHL PUSH1 0x44 DUP3 ADD MSTORE PUSH1 0x64 SWAP1 REVERT JUMPDEST DUP4 DUP4 CALLVALUE PUSH2 0x159 JUMPI PUSH1 0x20 CALLDATASIZE PUSH1 0x3 NOT ADD SLT PUSH2 0x159 JUMPI PUSH1 0xA SLOAD DUP4 CALLDATALOAD DUP1 DUP3 LT ISZERO PUSH2 0x904 JUMPI POP DUP1 JUMPDEST PUSH2 0x8A0 DUP3 PUSH2 0x19A2 JUMP JUMPDEST SWAP4 PUSH1 0x0 NOT DUP3 ADD SWAP2 DUP3 GT DUP2 JUMPDEST DUP5 DUP2 LT PUSH2 0x8BF JUMPI DUP6 MLOAD DUP1 PUSH2 0x1C7 DUP10 DUP3 PUSH2 0x17DB JUMP JUMPDEST DUP2 PUSH2 0x8F1 JUMPI DUP1 PUSH2 0x8D9 PUSH2 0x8D4 PUSH1 0x1 SWAP4 DUP8 PUSH2 0x1940 JUMP JUMPDEST PUSH2 0x1817 JUMP JUMPDEST SWAP1 SLOAD SWAP1 PUSH1 0x3 SHL SHR PUSH2 0x8EA DUP3 DUP11 PUSH2 0x19D4 JUMP JUMPDEST MSTORE ADD PUSH2 0x8AB JUMP JUMPDEST PUSH4 0x4E487B71 PUSH1 0xE0 SHL DUP4 MSTORE PUSH1 0x11 DUP9 MSTORE PUSH1 0x24 DUP4 REVERT JUMPDEST SWAP1 PUSH2 0x897 JUMP JUMPDEST SWAP1 POP CALLVALUE PUSH2 0x1E2 JUMPI PUSH1 0x20 SWAP2 DUP3 PUSH1 0x3 NOT CALLDATASIZE ADD SLT PUSH2 0x50D JUMPI DUP2 CALLDATALOAD SWAP4 PUSH2 0x92A PUSH2 0x1B6B JUMP JUMPDEST DUP3 SLOAD DUP3 MLOAD PUSH4 0xC3C5A547 PUSH1 0xE0 SHL DUP2 MSTORE CALLER DUP2 DUP7 ADD MSTORE PUSH1 0x1 PUSH1 0x1 PUSH1 0xA0 SHL SUB SWAP5 PUSH1 0x24 SWAP3 SWAP1 SWAP2 SWAP1 DUP7 AND SWAP1 DUP8 DUP2 DUP6 DUP2 DUP6 GAS STATICCALL SWAP1 DUP2 ISZERO PUSH2 0xD99 JUMPI SWAP1 PUSH2 0x96E SWAP2 DUP7 SWAP2 PUSH2 0xD7C JUMPI POP PUSH2 0x19E8 JUMP JUMPDEST PUSH8 0xDE0B6B3A7640000 DUP9 LT PUSH2 0xD3B JUMPI PUSH9 0x3635C9ADC5DEA00000 DUP9 GT PUSH2 0xCFA JUMPI PUSH1 0xA0 DUP4 SWAP2 DUP7 MLOAD SWAP3 DUP4 DUP1 SWAP3 PUSH4 0x16AD2B67 PUSH1 0xE3 SHL DUP3 MSTORE CALLER DUP8 DUP4 ADD MSTORE GAS STATICCALL SWAP1 DUP2 ISZERO PUSH2 0xCCD JUMPI PUSH2 0x9C4 SWAP2 DUP10 SWAP2 DUP7 SWAP2 PUSH2 0xCD7 JUMPI JUMPDEST POP LT ISZERO PUSH2 0x1A54 JUMP JUMPDEST PUSH1 0x2 SLOAD DUP5 MLOAD PUSH4 0x23B872DD PUSH1 0xE0 SHL DUP2 MSTORE CALLER DUP4 DUP3 ADD SWAP1 DUP2 MSTORE ADDRESS PUSH1 0x20 DUP3 ADD MSTORE PUSH1 0x40 DUP2 ADD DUP11 SWAP1 MSTORE SWAP1 SWAP2 DUP9 SWAP2 DUP4 SWAP2 DUP10 AND SWAP1 DUP3 SWAP1 DUP9 SWAP1 DUP3 SWAP1 PUSH1 0x60 ADD SUB SWAP3 GAS CALL SWAP1 DUP2 ISZERO PUSH2 0xCCD JUMPI SWAP1 PUSH2 0xA15 SWAP2 DUP6 SWAP2 PUSH2 0xCB0 JUMPI POP PUSH2 0x1A98 JUMP JUMPDEST PUSH2 0xA20 PUSH1 0x7 SLOAD PUSH2 0x197B JUMP JUMPDEST SWAP5 DUP6 PUSH1 0x7 SSTORE DUP5 MLOAD SWAP1 PUSH2 0x140 DUP3 ADD DUP3 DUP2 LT PUSH8 0xFFFFFFFFFFFFFFFF DUP3 GT OR PUSH2 0xC9C JUMPI DUP6 DUP4 PUSH2 0xB32 DUP10 DUP3 SWAP6 DUP15 SWAP10 SWAP9 SWAP8 DUP15 DUP15 PUSH1 0x6 SWAP9 DUP6 MSTORE DUP1 DUP4 MSTORE DUP2 DUP4 ADD CALLER DUP2 MSTORE DUP6 DUP5 ADD SWAP1 DUP10 DUP3 MSTORE PUSH1 0x60 DUP6 ADD SWAP15 DUP16 MSTORE PUSH1 0x80 DUP6 ADD SWAP7 DUP11 DUP9 MSTORE DUP11 PUSH1 0x8 PUSH1 0xA0 DUP9 ADD SWAP7 DUP3 DUP9 MSTORE PUSH1 0xC0 DUP10 ADD SWAP7 DUP4 DUP9 MSTORE PUSH2 0x120 PUSH2 0x100 PUSH1 0xE0 DUP13 ADD SWAP12 DUP7 DUP14 MSTORE ADD SWAP15 DUP16 TIMESTAMP SWAP1 MSTORE ADD SWAP15 DUP16 MSTORE DUP4 MSTORE MSTORE KECCAK256 SWAP12 MLOAD DUP13 SSTORE DUP6 PUSH1 0x1 DUP14 ADD SWAP2 MLOAD AND SWAP1 PUSH1 0x1 PUSH1 0x1 PUSH1 0x60 SHL SUB PUSH1 0xA0 SHL SWAP2 DUP3 DUP3 SLOAD AND OR SWAP1 SSTORE DUP6 PUSH1 0x2 DUP14 ADD SWAP3 MLOAD AND SWAP1 DUP3 SLOAD AND OR SWAP1 SSTORE PUSH1 0x3 SWAP13 MLOAD PUSH1 0x3 DUP12 ADD SSTORE DUP11 DUP11 ADD SWAP5 MLOAD ISZERO ISZERO SWAP2 PUSH1 0xFF PUSH3 0xFF0000 PUSH2 0xFF00 DUP9 SLOAD SWAP4 MLOAD ISZERO ISZERO PUSH1 0x8 SHL AND SWAP4 MLOAD ISZERO ISZERO PUSH1 0x10 SHL AND SWAP4 AND SWAP1 PUSH3 0xFFFFFF NOT AND OR OR OR DUP4 SSTORE MLOAD AND DUP2 SLOAD SWAP1 PUSH4 0x1000000 PUSH1 0x1 PUSH1 0xB8 SHL SUB SWAP1 PUSH1 0x18 SHL AND SWAP1 PUSH4 0x1000000 PUSH1 0x1 PUSH1 0xB8 SHL SUB NOT AND OR SWAP1 SSTORE JUMP JUMPDEST MLOAD PUSH1 0x5 DUP5 ADD SSTORE MLOAD SWAP2 ADD SSTORE CALLER DUP5 MSTORE PUSH1 0x9 DUP8 MSTORE PUSH2 0xB4F DUP7 DUP7 DUP7 KECCAK256 PUSH2 0x1ADB JUMP JUMPDEST PUSH1 0xA SWAP2 DUP3 SLOAD PUSH1 0x1 PUSH1 0x40 SHL DUP2 LT ISZERO PUSH2 0xC88 JUMPI DUP8 PUSH2 0xB73 DUP3 PUSH1 0x1 PUSH2 0xB8C SWAP5 ADD DUP8 SSTORE PUSH2 0x1817 JUMP JUMPDEST SWAP1 SWAP2 SWAP1 DUP3 SLOAD SWAP1 PUSH1 0x3 SHL SWAP2 DUP3 SHL SWAP2 PUSH1 0x0 NOT SWAP1 SHL NOT AND OR SWAP1 SSTORE JUMP JUMPDEST PUSH1 0x32 DUP4 SLOAD GT PUSH2 0xBD1 JUMPI JUMPDEST POP POP POP POP DUP1 PUSH1 0x1 SWAP2 DUP7 DUP5 MLOAD SWAP1 DUP2 MSTORE DUP6 PUSH32 0x2C9089BDAB8AEEA6A8C5E41B785290B63781DD5C648C9C824BCC0883237CFF32 DUP9 CALLER SWAP4 LOG4 SSTORE MLOAD SWAP1 DUP2 MSTORE RETURN JUMPDEST SWAP5 SWAP1 SWAP6 SWAP2 SWAP7 SWAP3 SWAP8 DUP5 JUMPDEST DUP9 SLOAD PUSH1 0x0 NOT DUP2 ADD SWAP1 DUP2 GT PUSH2 0xC1E JUMPI DUP2 LT ISZERO PUSH2 0xC30 JUMPI PUSH1 0x1 DUP2 ADD DUP1 DUP3 GT PUSH2 0xC1E JUMPI SWAP1 PUSH2 0xC18 PUSH2 0xC09 PUSH1 0x1 SWAP4 PUSH2 0x1817 JUMP JUMPDEST SWAP1 SLOAD SWAP1 DUP14 SHL SHR PUSH2 0xB73 DUP4 PUSH2 0x1817 JUMP JUMPDEST ADD PUSH2 0xBDA JUMP JUMPDEST PUSH4 0x4E487B71 PUSH1 0xE0 SHL DUP8 MSTORE PUSH1 0x11 DUP10 MSTORE DUP8 DUP8 REVERT JUMPDEST POP SWAP4 SWAP5 SWAP1 SWAP6 SWAP3 SWAP8 POP SWAP6 SWAP1 SWAP6 DUP2 SLOAD SWAP3 DUP4 ISZERO PUSH2 0xC77 JUMPI POP POP SWAP2 DUP4 SWAP3 SWAP2 PUSH1 0x1 SWAP5 SWAP3 PUSH1 0x0 NOT DUP1 SWAP3 ADD SWAP2 PUSH2 0xC5E DUP4 PUSH2 0x1817 JUMP JUMPDEST SWAP1 SWAP2 DUP3 SLOAD SWAP2 PUSH1 0x3 SHL SHL NOT AND SWAP1 SSTORE SSTORE SWAP6 SWAP5 SWAP4 SWAP3 CODESIZE DUP1 PUSH2 0xB96 JUMP JUMPDEST PUSH4 0x4E487B71 PUSH1 0xE0 SHL DUP7 MSTORE PUSH1 0x31 SWAP1 MSTORE DUP5 REVERT JUMPDEST POP PUSH4 0x4E487B71 PUSH1 0xE0 SHL PUSH1 0x0 SWAP1 DUP2 MSTORE PUSH1 0x41 DUP4 MSTORE REVERT JUMPDEST DUP5 PUSH1 0x41 DUP6 PUSH4 0x4E487B71 PUSH1 0xE0 SHL PUSH1 0x0 MSTORE MSTORE PUSH1 0x0 REVERT JUMPDEST PUSH2 0xCC7 SWAP2 POP DUP9 RETURNDATASIZE DUP11 GT PUSH2 0x48D JUMPI PUSH2 0x47F DUP2 DUP4 PUSH2 0x191E JUMP JUMPDEST CODESIZE PUSH2 0x673 JUMP JUMPDEST DUP6 MLOAD RETURNDATASIZE DUP7 DUP3 RETURNDATACOPY RETURNDATASIZE SWAP1 REVERT JUMPDEST PUSH2 0xCF0 SWAP2 POP PUSH1 0xA0 RETURNDATASIZE PUSH1 0xA0 GT PUSH2 0x792 JUMPI PUSH2 0x780 DUP2 DUP4 PUSH2 0x191E JUMP JUMPDEST POP POP POP POP CODESIZE PUSH2 0x9BC JUMP JUMPDEST POP PUSH1 0x1F PUSH1 0x64 SWAP3 DUP8 DUP7 MLOAD SWAP4 PUSH3 0x461BCD PUSH1 0xE5 SHL DUP6 MSTORE DUP5 ADD MSTORE DUP3 ADD MSTORE PUSH32 0x57616765722061626F7665206D6178696D756D20283130303020534541532900 PUSH1 0x44 DUP3 ADD MSTORE REVERT JUMPDEST POP PUSH1 0x1C PUSH1 0x64 SWAP3 DUP8 DUP7 MLOAD SWAP4 PUSH3 0x461BCD PUSH1 0xE5 SHL DUP6 MSTORE DUP5 ADD MSTORE DUP3 ADD MSTORE PUSH32 0x57616765722062656C6F77206D696E696D756D20283120534541532900000000 PUSH1 0x44 DUP3 ADD MSTORE REVERT JUMPDEST PUSH2 0xD93 SWAP2 POP DUP10 RETURNDATASIZE DUP12 GT PUSH2 0x48D JUMPI PUSH2 0x47F DUP2 DUP4 PUSH2 0x191E JUMP JUMPDEST CODESIZE PUSH2 0x5DC JUMP JUMPDEST DUP7 MLOAD RETURNDATASIZE DUP8 DUP3 RETURNDATACOPY RETURNDATASIZE SWAP1 REVERT JUMPDEST POP POP CALLVALUE PUSH2 0x159 JUMPI DUP1 PUSH1 0x3 NOT CALLDATASIZE ADD SLT PUSH2 0x159 JUMPI PUSH2 0xDBD PUSH2 0x17C0 JUMP JUMPDEST PUSH1 0x1 PUSH1 0x1 PUSH1 0xA0 SHL SUB AND DUP3 MSTORE PUSH1 0x9 PUSH1 0x20 MSTORE DUP1 DUP3 KECCAK256 DUP1 SLOAD PUSH1 0x24 CALLDATALOAD SWAP4 SWAP1 DUP5 LT ISZERO PUSH2 0x2DA JUMPI POP PUSH1 0x20 SWAP3 PUSH2 0xDEB SWAP2 PUSH2 0x1864 JUMP JUMPDEST SWAP2 SWAP1 SLOAD SWAP1 MLOAD SWAP2 PUSH1 0x3 SHL SHR DUP2 MSTORE RETURN JUMPDEST POP POP CALLVALUE PUSH2 0x159 JUMPI DUP2 PUSH1 0x3 NOT CALLDATASIZE ADD SLT PUSH2 0x159 JUMPI PUSH1 0x20 SWAP1 MLOAD PUSH2 0xE10 DUP2 MSTORE RETURN JUMPDEST POP POP CALLVALUE PUSH2 0x159 JUMPI DUP2 PUSH1 0x3 NOT CALLDATASIZE ADD SLT PUSH2 0x159 JUMPI PUSH1 0x1 SLOAD SWAP1 MLOAD PUSH1 0x1 PUSH1 0x1 PUSH1 0xA0 SHL SUB SWAP1 SWAP2 AND DUP2 MSTORE PUSH1 0x20 SWAP1 RETURN JUMPDEST POP POP CALLVALUE PUSH2 0x159 JUMPI DUP2 PUSH1 0x3 NOT CALLDATASIZE ADD SLT PUSH2 0x159 JUMPI PUSH1 0x20 SWAP1 MLOAD PUSH9 0x3635C9ADC5DEA00000 DUP2 MSTORE RETURN JUMPDEST DUP4 CALLVALUE PUSH2 0x2DA JUMPI DUP1 PUSH1 0x3 NOT CALLDATASIZE ADD SLT PUSH2 0x2DA JUMPI PUSH2 0xE7C PUSH2 0x1B3F JUMP JUMPDEST PUSH1 0x1 DUP1 SLOAD PUSH1 0x1 PUSH1 0x1 PUSH1 0xA0 SHL SUB NOT DUP2 AND SWAP1 SWAP2 SSTORE PUSH1 0x0 SWAP1 PUSH1 0x1 PUSH1 0x1 PUSH1 0xA0 SHL SUB AND PUSH32 0x8BE0079C531659141344CD1FD0A4F28419497F9722A3DAAFE3B4186F6B6457E0 DUP3 DUP1 LOG3 DUP1 RETURN JUMPDEST POP POP CALLVALUE PUSH2 0x159 JUMPI DUP2 PUSH1 0x3 NOT CALLDATASIZE ADD SLT PUSH2 0x159 JUMPI PUSH1 0x6 SLOAD SWAP1 MLOAD PUSH1 0x1 PUSH1 0x1 PUSH1 0xA0 SHL SUB SWAP1 SWAP2 AND DUP2 MSTORE PUSH1 0x20 SWAP1 RETURN JUMPDEST SWAP1 POP CALLVALUE PUSH2 0x1E2 JUMPI DUP3 PUSH1 0x3 NOT CALLDATASIZE ADD SLT PUSH2 0x1E2 JUMPI SLOAD SWAP1 MLOAD PUSH1 0x1 PUSH1 0x1 PUSH1 0xA0 SHL SUB SWAP1 SWAP2 AND DUP2 MSTORE PUSH1 0x20 SWAP2 POP RETURN JUMPDEST SWAP1 POP DUP3 CALLVALUE PUSH2 0x2DA JUMPI DUP1 PUSH1 0x3 NOT CALLDATASIZE ADD SLT PUSH2 0x2DA JUMPI PUSH1 0x7 SLOAD SWAP1 DUP1 PUSH1 0x1 JUMPDEST DUP4 DUP2 GT ISZERO PUSH2 0x1000 JUMPI POP PUSH2 0xF3F SWAP1 PUSH2 0x19A2 JUMP JUMPDEST SWAP3 DUP2 PUSH1 0x1 JUMPDEST DUP5 DUP2 GT ISZERO PUSH2 0xF59 JUMPI DUP7 MLOAD DUP1 PUSH2 0x1C7 DUP9 DUP3 PUSH2 0x17DB JUMP JUMPDEST DUP1 DUP3 MSTORE PUSH1 0x8 DUP1 PUSH1 0x20 MSTORE DUP8 DUP4 KECCAK256 DUP5 DUP2 ADD SLOAD PUSH1 0xFF SWAP1 DUP2 DUP2 AND ISZERO SWAP4 DUP5 PUSH2 0xFF2 JUMPI JUMPDEST POP DUP4 PUSH2 0xFE4 JUMPI JUMPDEST POP POP DUP2 PUSH2 0xFB4 JUMPI JUMPDEST POP SWAP1 PUSH2 0xF95 SWAP2 PUSH2 0xF9A JUMPI PUSH2 0x197B JUMP JUMPDEST PUSH2 0xF44 JUMP JUMPDEST DUP1 PUSH2 0xFAE PUSH2 0xFA7 DUP8 PUSH2 0x197B JUMP JUMPDEST SWAP7 DUP10 PUSH2 0x19D4 JUMP JUMPDEST MSTORE PUSH2 0x197B JUMP JUMPDEST PUSH1 0x5 SWAP2 POP ADD SLOAD PUSH2 0xE10 DUP2 ADD DUP1 SWAP2 GT PUSH2 0xFD1 JUMPI TIMESTAMP GT ISZERO PUSH2 0xF95 PUSH2 0xF86 JUMP JUMPDEST PUSH4 0x4E487B71 PUSH1 0xE0 SHL DUP4 MSTORE PUSH1 0x11 DUP5 MSTORE PUSH1 0x24 DUP4 REVERT JUMPDEST PUSH1 0x10 SHR AND ISZERO SWAP2 POP DUP10 DUP1 PUSH2 0xF7E JUMP JUMPDEST DUP2 SWAP1 SHR DUP3 AND ISZERO SWAP4 POP DUP12 PUSH2 0xF77 JUMP JUMPDEST DUP1 DUP4 MSTORE PUSH1 0x8 DUP1 PUSH1 0x20 MSTORE DUP7 DUP5 KECCAK256 DUP7 DUP2 ADD SLOAD PUSH1 0xFF SWAP1 DUP2 DUP2 AND ISZERO SWAP4 DUP5 PUSH2 0x1092 JUMPI JUMPDEST POP DUP4 PUSH2 0x1084 JUMPI JUMPDEST POP POP DUP2 PUSH2 0x1056 JUMPI JUMPDEST POP PUSH2 0x1041 JUMPI JUMPDEST PUSH2 0x103C SWAP1 PUSH2 0x197B JUMP JUMPDEST PUSH2 0xF2D JUMP JUMPDEST SWAP1 PUSH2 0x104E PUSH2 0x103C SWAP2 PUSH2 0x197B JUMP JUMPDEST SWAP2 SWAP1 POP PUSH2 0x1033 JUMP JUMPDEST PUSH1 0x5 SWAP2 POP ADD SLOAD PUSH2 0xE10 DUP2 ADD DUP1 SWAP2 GT PUSH2 0x1071 JUMPI TIMESTAMP GT ISZERO DUP8 PUSH2 0x102D JUMP JUMPDEST PUSH4 0x4E487B71 PUSH1 0xE0 SHL DUP5 MSTORE PUSH1 0x11 DUP7 MSTORE PUSH1 0x24 DUP5 REVERT JUMPDEST PUSH1 0x10 SHR AND ISZERO SWAP2 POP DUP9 DUP1 PUSH2 0x1025 JUMP JUMPDEST DUP2 SWAP1 SHR DUP3 AND ISZERO SWAP4 POP DUP11 PUSH2 0x101E JUMP JUMPDEST SWAP1 POP CALLVALUE PUSH2 0x1E2 JUMPI PUSH1 0x20 CALLDATASIZE PUSH1 0x3 NOT ADD SLT PUSH2 0x1E2 JUMPI DUP2 PUSH2 0x140 SWAP4 DUP3 CALLDATALOAD DUP2 MSTORE PUSH1 0x8 PUSH1 0x20 MSTORE KECCAK256 DUP1 SLOAD SWAP3 PUSH1 0x1 DUP1 PUSH1 0xA0 SHL SUB SWAP1 DUP2 PUSH1 0x1 DUP5 ADD SLOAD AND SWAP4 DUP3 PUSH1 0x2 DUP6 ADD SLOAD AND PUSH1 0x3 DUP6 ADD SLOAD SWAP2 DUP6 ADD SLOAD SWAP3 PUSH1 0x6 PUSH1 0x5 DUP8 ADD SLOAD SWAP7 ADD SLOAD SWAP7 DUP2 MLOAD SWAP9 DUP10 MSTORE PUSH1 0x20 DUP10 ADD MSTORE DUP8 ADD MSTORE PUSH1 0x60 DUP7 ADD MSTORE PUSH1 0xFF DUP2 AND ISZERO ISZERO PUSH1 0x80 DUP7 ADD MSTORE PUSH1 0xFF DUP2 PUSH1 0x8 SHR AND ISZERO ISZERO PUSH1 0xA0 DUP7 ADD MSTORE PUSH1 0xFF DUP2 PUSH1 0x10 SHR AND ISZERO ISZERO PUSH1 0xC0 DUP7 ADD MSTORE PUSH1 0x18 SHR AND PUSH1 0xE0 DUP5 ADD MSTORE PUSH2 0x100 DUP4 ADD MSTORE PUSH2 0x120 DUP3 ADD MSTORE RETURN JUMPDEST POP POP CALLVALUE PUSH2 0x159 JUMPI DUP2 PUSH1 0x3 NOT CALLDATASIZE ADD SLT PUSH2 0x159 JUMPI PUSH1 0x2 SLOAD SWAP1 MLOAD PUSH1 0x1 PUSH1 0x1 PUSH1 0xA0 SHL SUB SWAP1 SWAP2 AND DUP2 MSTORE PUSH1 0x20 SWAP1 RETURN JUMPDEST SWAP2 SWAP1 POP CALLVALUE PUSH2 0x1E2 JUMPI PUSH1 0x20 CALLDATASIZE PUSH1 0x3 NOT ADD SLT PUSH2 0x1E2 JUMPI DUP1 PUSH1 0xE0 SWAP4 DUP4 CALLDATALOAD DUP2 MSTORE PUSH1 0x8 PUSH1 0x20 MSTORE KECCAK256 PUSH1 0x1 DUP1 PUSH1 0xA0 SHL SUB SWAP1 DUP2 PUSH1 0x1 DUP3 ADD SLOAD AND SWAP4 DUP3 PUSH1 0x2 DUP4 ADD SLOAD AND SWAP4 PUSH1 0x6 PUSH1 0x3 DUP5 ADD SLOAD SWAP3 DUP5 ADD SLOAD SWAP4 ADD SLOAD SWAP5 DUP2 MLOAD SWAP7 DUP8 MSTORE PUSH1 0x20 DUP8 ADD MSTORE DUP6 ADD MSTORE PUSH1 0xFF DUP2 AND ISZERO ISZERO PUSH1 0x60 DUP6 ADD MSTORE PUSH1 0xFF DUP2 PUSH1 0x8 SHR AND ISZERO ISZERO PUSH1 0x80 DUP6 ADD MSTORE PUSH1 0x18 SHR AND PUSH1 0xA0 DUP4 ADD MSTORE PUSH1 0xC0 DUP3 ADD MSTORE RETURN JUMPDEST POP POP CALLVALUE PUSH2 0x159 JUMPI DUP2 PUSH1 0x3 NOT CALLDATASIZE ADD SLT PUSH2 0x159 JUMPI PUSH1 0x20 SWAP1 MLOAD PUSH2 0x1F4 DUP2 MSTORE RETURN JUMPDEST SWAP1 POP DUP3 CALLVALUE PUSH2 0x2DA JUMPI PUSH1 0x20 DUP1 PUSH1 0x3 NOT CALLDATASIZE ADD SLT PUSH2 0x159 JUMPI DUP3 CALLDATALOAD SWAP1 PUSH2 0x1226 PUSH2 0x1B6B JUMP JUMPDEST DUP2 DUP4 MSTORE PUSH1 0x8 DUP2 MSTORE DUP5 DUP4 KECCAK256 SWAP5 DUP5 DUP7 ADD DUP1 SLOAD PUSH1 0xFF DUP2 AND ISZERO PUSH2 0x172E JUMPI PUSH1 0xFF DUP2 PUSH2 0x562 DUP3 PUSH2 0x1254 SWAP5 PUSH1 0x8 SHR AND ISZERO PUSH2 0x187C JUMP JUMPDEST PUSH1 0x1 DUP8 ADD DUP1 SLOAD SWAP1 SWAP7 PUSH1 0x1 PUSH1 0x1 PUSH1 0xA0 SHL SUB SWAP2 DUP3 AND SWAP2 CALLER DUP4 EQ DUP1 ISZERO PUSH2 0x171F JUMPI JUMPDEST DUP1 ISZERO PUSH2 0x1712 JUMPI JUMPDEST ISZERO PUSH2 0x16DB JUMPI DUP8 SWAP9 SWAP10 DUP2 PUSH1 0x3 SLOAD AND SWAP1 DUP7 PUSH1 0x2 DUP3 ADD SWAP3 PUSH1 0x44 DUP6 DUP6 SLOAD AND SWAP8 DUP4 MLOAD SWAP14 DUP15 SWAP4 DUP5 SWAP3 PUSH4 0x1785453 PUSH1 0xE4 SHL DUP5 MSTORE DUP11 DUP5 ADD MSTORE PUSH1 0x24 SWAP11 DUP12 DUP5 ADD MSTORE GAS CALL SWAP6 DUP7 ISZERO PUSH2 0x16D1 JUMPI DUP12 SWAP11 DUP13 SWAP8 PUSH2 0x168A JUMPI JUMPDEST POP DUP1 SLOAD PUSH3 0xFF0100 PUSH1 0x1 PUSH1 0xB8 SHL SUB NOT AND PUSH4 0x1000000 PUSH1 0x1 PUSH1 0xB8 SHL SUB PUSH1 0x18 DUP14 SWAP1 SHL AND OR PUSH2 0x100 OR SWAP1 SSTORE PUSH1 0x6 DUP2 ADD DUP7 SWAP1 SSTORE PUSH1 0x3 ADD DUP1 SLOAD PUSH1 0x1 DUP2 SWAP1 SHL SWAP13 SWAP2 SWAP3 SWAP2 SWAP1 DUP1 ISZERO PUSH1 0x2 SWAP2 DUP16 DIV SWAP2 SWAP1 SWAP2 EQ OR ISZERO PUSH2 0x1678 JUMPI DUP13 PUSH2 0x1F4 DUP1 DUP3 MUL SWAP15 DUP16 DIV EQ DUP2 ISZERO OR ISZERO PUSH2 0x1666 JUMPI DUP6 DUP14 SWAP15 SWAP14 PUSH2 0x137A DUP15 SWAP16 SWAP13 DUP1 SWAP15 SWAP16 PUSH2 0x1341 DUP15 SWAP16 PUSH2 0x2710 SWAP1 DIV DUP1 SWAP8 PUSH2 0x1940 JUMP JUMPDEST SWAP14 DUP15 SWAP2 DUP6 DUP13 PUSH1 0x2 SLOAD AND SWAP3 MLOAD DUP1 SWAP7 DUP2 SWAP6 DUP3 SWAP5 PUSH4 0xA9059CBB PUSH1 0xE0 SHL SWAP12 DUP13 DUP6 MSTORE DUP5 ADD PUSH1 0x20 SWAP1 SWAP4 SWAP3 SWAP2 SWAP4 PUSH1 0x40 DUP2 ADD SWAP5 PUSH1 0x1 DUP1 PUSH1 0xA0 SHL SUB AND DUP2 MSTORE ADD MSTORE JUMP JUMPDEST SUB SWAP3 GAS CALL SWAP2 DUP3 ISZERO PUSH2 0x165B JUMPI SWAP2 PUSH2 0x163E JUMPI JUMPDEST POP ISZERO PUSH2 0x160C JUMPI DUP2 DUP16 SWAP2 DUP13 DUP15 SWAP2 DUP10 SWAP8 SWAP7 SWAP6 ISZERO ISZERO DUP1 PUSH2 0x15FF JUMPI JUMPDEST PUSH2 0x1533 JUMPI JUMPDEST POP POP POP POP POP DUP3 DUP1 SWAP2 SLOAD AND SWAP13 AND SWAP12 DUP1 DUP14 EQ PUSH1 0x0 EQ PUSH2 0x152A JUMPI POP SLOAD AND SWAP1 JUMPDEST DUP3 DUP5 SLOAD AND SWAP2 DUP2 SLOAD SWAP3 DUP14 DUP2 EXTCODESIZE ISZERO PUSH2 0x2DA JUMPI DUP8 PUSH1 0x64 DUP16 DUP4 PUSH1 0x1 SWAP6 DUP16 SWAP10 DUP13 SWAP11 MLOAD SWAP8 DUP9 SWAP7 DUP8 SWAP6 PUSH4 0x32B0E7C9 PUSH1 0xE2 SHL SWAP14 DUP15 DUP9 MSTORE DUP8 ADD MSTORE DUP6 ADD MSTORE PUSH1 0x44 DUP5 ADD MSTORE GAS CALL DUP1 ISZERO PUSH2 0x151E JUMPI PUSH2 0x1501 JUMPI JUMPDEST POP SWAP1 DUP4 SWAP3 SWAP2 DUP6 SWAP5 DUP15 SWAP8 SWAP7 SLOAD AND SWAP2 SLOAD SWAP2 DUP1 EXTCODESIZE ISZERO PUSH2 0x14FD JUMPI DUP5 SWAP4 DUP9 PUSH1 0x64 SWAP3 DUP2 SWAP6 DUP15 MLOAD SWAP8 DUP9 SWAP7 DUP8 SWAP6 DUP7 MSTORE AND DUP11 DUP6 ADD MSTORE DUP3 DUP12 DUP6 ADD MSTORE PUSH1 0x44 DUP5 ADD MSTORE GAS CALL DUP1 ISZERO PUSH2 0x14F3 JUMPI SWAP1 DUP6 SWAP2 PUSH2 0x14DF JUMPI JUMPDEST POP POP PUSH1 0x5 SLOAD AND SWAP1 DUP2 PUSH2 0x1493 JUMPI JUMPDEST POP POP POP POP PUSH32 0xD87807C41517DC00ED5553199A04676C5EF960776DDBF91D8CFFEC4A769A4582 SWAP4 DUP4 MLOAD SWAP3 DUP4 MSTORE DUP3 ADD MSTORE LOG3 PUSH1 0x1 DUP2 SSTORE DUP1 RETURN JUMPDEST DUP2 EXTCODESIZE ISZERO PUSH2 0x50D JUMPI PUSH1 0x44 DUP10 SWAP2 DUP6 DUP1 SWAP5 DUP14 DUP12 MLOAD SWAP8 DUP9 SWAP7 DUP8 SWAP6 PUSH4 0x18136109 PUSH1 0xE3 SHL DUP8 MSTORE DUP7 ADD MSTORE DUP5 ADD MSTORE GAS CALL PUSH2 0x14C7 JUMPI JUMPDEST DUP1 DUP1 PUSH2 0x145D JUMP JUMPDEST PUSH2 0x14D0 SWAP1 PUSH2 0x18F4 JUMP JUMPDEST PUSH2 0x14DB JUMPI DUP7 DUP9 PUSH2 0x14C0 JUMP JUMPDEST DUP7 DUP1 REVERT JUMPDEST PUSH2 0x14E8 SWAP1 PUSH2 0x18F4 JUMP JUMPDEST PUSH2 0x50D JUMPI DUP4 DUP13 PUSH2 0x1450 JUMP JUMPDEST DUP9 MLOAD RETURNDATASIZE DUP8 DUP3 RETURNDATACOPY RETURNDATASIZE SWAP1 REVERT JUMPDEST DUP8 DUP1 REVERT JUMPDEST PUSH2 0x1512 SWAP1 SWAP14 SWAP2 SWAP7 SWAP6 SWAP5 SWAP4 SWAP3 SWAP14 PUSH2 0x18F4 JUMP JUMPDEST SWAP12 SWAP1 SWAP2 SWAP3 SWAP4 SWAP5 DUP14 PUSH2 0x140A JUMP JUMPDEST DUP15 DUP12 MLOAD SWAP1 RETURNDATASIZE SWAP1 DUP3 RETURNDATACOPY RETURNDATASIZE SWAP1 REVERT JUMPDEST SWAP2 POP POP SWAP1 PUSH2 0x13C4 JUMP JUMPDEST SWAP1 SWAP2 SWAP3 SWAP4 SWAP5 SWAP6 SWAP7 DUP6 DUP12 SWAP2 PUSH1 0x2 SLOAD AND SWAP3 PUSH2 0x1571 DUP13 PUSH1 0x6 SLOAD AND SWAP6 MLOAD SWAP8 DUP9 SWAP7 DUP8 SWAP6 DUP7 SWAP5 DUP6 MSTORE DUP5 ADD PUSH1 0x20 SWAP1 SWAP4 SWAP3 SWAP2 SWAP4 PUSH1 0x40 DUP2 ADD SWAP5 PUSH1 0x1 DUP1 PUSH1 0xA0 SHL SUB AND DUP2 MSTORE ADD MSTORE JUMP JUMPDEST SUB SWAP3 GAS CALL SWAP2 DUP3 ISZERO PUSH2 0x15F4 JUMPI SWAP2 PUSH2 0x15D7 JUMPI JUMPDEST POP ISZERO PUSH2 0x1595 JUMPI SWAP1 DUP4 SWAP2 DUP14 DUP16 DUP13 DUP13 DUP3 PUSH2 0x13A8 JUMP JUMPDEST DUP9 MLOAD PUSH3 0x461BCD PUSH1 0xE5 SHL DUP2 MSTORE DUP1 DUP7 ADD DUP12 SWAP1 MSTORE PUSH1 0x18 DUP2 DUP9 ADD MSTORE PUSH32 0x5472656173757279207472616E73666572206661696C65640000000000000000 PUSH1 0x44 DUP3 ADD MSTORE PUSH1 0x64 SWAP1 REVERT JUMPDEST PUSH2 0x15EE SWAP2 POP DUP12 RETURNDATASIZE DUP14 GT PUSH2 0x48D JUMPI PUSH2 0x47F DUP2 DUP4 PUSH2 0x191E JUMP JUMPDEST DUP15 PUSH2 0x1582 JUMP JUMPDEST DUP12 MLOAD SWAP1 RETURNDATASIZE SWAP1 DUP3 RETURNDATACOPY RETURNDATASIZE SWAP1 REVERT JUMPDEST POP DUP8 PUSH1 0x6 SLOAD AND ISZERO ISZERO PUSH2 0x13A3 JUMP JUMPDEST DUP11 MLOAD PUSH3 0x461BCD PUSH1 0xE5 SHL DUP2 MSTORE DUP1 DUP9 ADD DUP14 SWAP1 MSTORE PUSH1 0xD DUP2 DUP11 ADD MSTORE PUSH13 0x14185E5BDD5D0819985A5B1959 PUSH1 0x9A SHL PUSH1 0x44 DUP3 ADD MSTORE PUSH1 0x64 SWAP1 REVERT JUMPDEST PUSH2 0x1655 SWAP2 POP DUP14 DUP1 RETURNDATASIZE LT PUSH2 0x48D JUMPI PUSH2 0x47F DUP2 DUP4 PUSH2 0x191E JUMP JUMPDEST CODESIZE PUSH2 0x138B JUMP JUMPDEST DUP14 MLOAD SWAP1 RETURNDATASIZE SWAP1 DUP3 RETURNDATACOPY RETURNDATASIZE SWAP1 REVERT JUMPDEST PUSH4 0x4E487B71 PUSH1 0xE0 SHL DUP14 MSTORE PUSH1 0x11 DUP7 MSTORE DUP7 DUP14 REVERT JUMPDEST PUSH4 0x4E487B71 PUSH1 0xE0 SHL DUP13 MSTORE PUSH1 0x11 DUP6 MSTORE DUP6 DUP13 REVERT JUMPDEST SWAP11 POP SWAP6 POP DUP7 DUP11 DUP2 RETURNDATASIZE DUP2 GT PUSH2 0x16CA JUMPI JUMPDEST PUSH2 0x16A3 DUP2 DUP4 PUSH2 0x191E JUMP JUMPDEST DUP2 ADD SUB SLT PUSH2 0x16C6 JUMPI DUP10 MLOAD SWAP10 DUP4 DUP12 AND DUP12 SUB PUSH2 0x16C2 JUMPI DUP9 ADD MLOAD SWAP6 PUSH1 0x3 PUSH2 0x12C2 JUMP JUMPDEST DUP12 DUP1 REVERT JUMPDEST DUP11 DUP1 REVERT JUMPDEST POP RETURNDATASIZE PUSH2 0x1699 JUMP JUMPDEST DUP8 MLOAD RETURNDATASIZE DUP14 DUP3 RETURNDATACOPY RETURNDATASIZE SWAP1 REVERT JUMPDEST DUP5 MLOAD PUSH3 0x461BCD PUSH1 0xE5 SHL DUP2 MSTORE DUP1 DUP4 ADD DUP8 SWAP1 MSTORE PUSH1 0x11 PUSH1 0x24 DUP3 ADD MSTORE PUSH17 0x139BDD0818481C185C9D1A58DA5C185B9D PUSH1 0x7A SHL PUSH1 0x44 DUP3 ADD MSTORE PUSH1 0x64 SWAP1 REVERT JUMPDEST POP DUP1 PUSH1 0x1 SLOAD AND CALLER EQ PUSH2 0x1279 JUMP JUMPDEST POP DUP1 PUSH1 0x2 DUP12 ADD SLOAD AND CALLER EQ PUSH2 0x1272 JUMP JUMPDEST DUP3 MLOAD PUSH3 0x461BCD PUSH1 0xE5 SHL DUP2 MSTORE DUP1 DUP9 ADD DUP6 SWAP1 MSTORE PUSH1 0x10 PUSH1 0x24 DUP3 ADD MSTORE PUSH16 0x139BDD081858D8D95C1D1959081E595D PUSH1 0x82 SHL PUSH1 0x44 DUP3 ADD MSTORE PUSH1 0x64 SWAP1 REVERT JUMPDEST DUP4 CALLVALUE PUSH2 0x2DA JUMPI PUSH1 0x20 CALLDATASIZE PUSH1 0x3 NOT ADD SLT PUSH2 0x2DA JUMPI PUSH2 0x177E PUSH2 0x17C0 JUMP JUMPDEST PUSH2 0x1786 PUSH2 0x1B3F JUMP JUMPDEST PUSH1 0x1 DUP1 PUSH1 0xA0 SHL SUB AND PUSH1 0x1 PUSH1 0x1 PUSH1 0x60 SHL SUB PUSH1 0xA0 SHL PUSH1 0x5 SLOAD AND OR PUSH1 0x5 SSTORE DUP1 RETURN JUMPDEST DUP5 SWAP1 CALLVALUE PUSH2 0x159 JUMPI DUP2 PUSH1 0x3 NOT CALLDATASIZE ADD SLT PUSH2 0x159 JUMPI PUSH1 0x20 SWAP1 PUSH1 0x7 SLOAD DUP2 MSTORE RETURN JUMPDEST PUSH1 0x4 CALLDATALOAD SWAP1 PUSH1 0x1 PUSH1 0x1 PUSH1 0xA0 SHL SUB DUP3 AND DUP3 SUB PUSH2 0x17D6 JUMPI JUMP JUMPDEST PUSH1 0x0 DUP1 REVERT JUMPDEST PUSH1 0x20 SWAP1 PUSH1 0x20 PUSH1 0x40 DUP2 DUP4 ADD SWAP3 DUP3 DUP2 MSTORE DUP6 MLOAD DUP1 SWAP5 MSTORE ADD SWAP4 ADD SWAP2 PUSH1 0x0 JUMPDEST DUP3 DUP2 LT PUSH2 0x1803 JUMPI POP POP POP POP SWAP1 JUMP JUMPDEST DUP4 MLOAD DUP6 MSTORE SWAP4 DUP2 ADD SWAP4 SWAP3 DUP2 ADD SWAP3 PUSH1 0x1 ADD PUSH2 0x17F5 JUMP JUMPDEST PUSH1 0xA SLOAD DUP2 LT ISZERO PUSH2 0x184E JUMPI PUSH1 0xA PUSH1 0x0 MSTORE PUSH32 0xC65A7BB8D6351C1CF70C95A316CC6A92839C986682D98BC35F958F4883F9D2A8 ADD SWAP1 PUSH1 0x0 SWAP1 JUMP JUMPDEST PUSH4 0x4E487B71 PUSH1 0xE0 SHL PUSH1 0x0 MSTORE PUSH1 0x32 PUSH1 0x4 MSTORE PUSH1 0x24 PUSH1 0x0 REVERT JUMPDEST DUP1 SLOAD DUP3 LT ISZERO PUSH2 0x184E JUMPI PUSH1 0x0 MSTORE PUSH1 0x20 PUSH1 0x0 KECCAK256 ADD SWAP1 PUSH1 0x0 SWAP1 JUMP JUMPDEST ISZERO PUSH2 0x1883 JUMPI JUMP JUMPDEST PUSH1 0x40 MLOAD PUSH3 0x461BCD PUSH1 0xE5 SHL DUP2 MSTORE PUSH1 0x20 PUSH1 0x4 DUP3 ADD MSTORE PUSH1 0x11 PUSH1 0x24 DUP3 ADD MSTORE PUSH17 0x105B1C9958591E4818DBDB5C1B195D1959 PUSH1 0x7A SHL PUSH1 0x44 DUP3 ADD MSTORE PUSH1 0x64 SWAP1 REVERT JUMPDEST ISZERO PUSH2 0x18C3 JUMPI JUMP JUMPDEST PUSH1 0x40 MLOAD PUSH3 0x461BCD PUSH1 0xE5 SHL DUP2 MSTORE PUSH1 0x20 PUSH1 0x4 DUP3 ADD MSTORE PUSH1 0x9 PUSH1 0x24 DUP3 ADD MSTORE PUSH9 0x10D85B98D95B1B1959 PUSH1 0xBA SHL PUSH1 0x44 DUP3 ADD MSTORE PUSH1 0x64 SWAP1 REVERT JUMPDEST PUSH8 0xFFFFFFFFFFFFFFFF DUP2 GT PUSH2 0x1908 JUMPI PUSH1 0x40 MSTORE JUMP JUMPDEST PUSH4 0x4E487B71 PUSH1 0xE0 SHL PUSH1 0x0 MSTORE PUSH1 0x41 PUSH1 0x4 MSTORE PUSH1 0x24 PUSH1 0x0 REVERT JUMPDEST SWAP1 PUSH1 0x1F DUP1 NOT SWAP2 ADD AND DUP2 ADD SWAP1 DUP2 LT PUSH8 0xFFFFFFFFFFFFFFFF DUP3 GT OR PUSH2 0x1908 JUMPI PUSH1 0x40 MSTORE JUMP JUMPDEST SWAP2 SWAP1 DUP3 SUB SWAP2 DUP3 GT PUSH2 0x194D JUMPI JUMP JUMPDEST PUSH4 0x4E487B71 PUSH1 0xE0 SHL PUSH1 0x0 MSTORE PUSH1 0x11 PUSH1 0x4 MSTORE PUSH1 0x24 PUSH1 0x0 REVERT JUMPDEST SWAP1 DUP2 PUSH1 0x20 SWAP2 SUB SLT PUSH2 0x17D6 JUMPI MLOAD DUP1 ISZERO ISZERO DUP2 SUB PUSH2 0x17D6 JUMPI SWAP1 JUMP JUMPDEST PUSH1 0x0 NOT DUP2 EQ PUSH2 0x194D JUMPI PUSH1 0x1 ADD SWAP1 JUMP JUMPDEST PUSH8 0xFFFFFFFFFFFFFFFF DUP2 GT PUSH2 0x1908 JUMPI PUSH1 0x5 SHL PUSH1 0x20 ADD SWAP1 JUMP JUMPDEST SWAP1 PUSH2 0x19AC DUP3 PUSH2 0x198A JUMP JUMPDEST PUSH2 0x19B9 PUSH1 0x40 MLOAD SWAP2 DUP3 PUSH2 0x191E JUMP JUMPDEST DUP3 DUP2 MSTORE DUP1 SWAP3 PUSH2 0x19CA PUSH1 0x1F NOT SWAP2 PUSH2 0x198A JUMP JUMPDEST ADD SWAP1 PUSH1 0x20 CALLDATASIZE SWAP2 ADD CALLDATACOPY JUMP JUMPDEST DUP1 MLOAD DUP3 LT ISZERO PUSH2 0x184E JUMPI PUSH1 0x20 SWAP2 PUSH1 0x5 SHL ADD ADD SWAP1 JUMP JUMPDEST ISZERO PUSH2 0x19EF JUMPI JUMP JUMPDEST PUSH1 0x40 MLOAD PUSH3 0x461BCD PUSH1 0xE5 SHL DUP2 MSTORE PUSH1 0x20 PUSH1 0x4 DUP3 ADD MSTORE PUSH1 0x16 PUSH1 0x24 DUP3 ADD MSTORE PUSH22 0x139BDD0818481C9959DA5CDD195C9959081859D95B9D PUSH1 0x52 SHL PUSH1 0x44 DUP3 ADD MSTORE PUSH1 0x64 SWAP1 REVERT JUMPDEST SWAP1 DUP2 PUSH1 0xA0 SWAP2 SUB SLT PUSH2 0x17D6 JUMPI DUP1 MLOAD SWAP2 PUSH1 0x20 DUP3 ADD MLOAD SWAP2 PUSH1 0x40 DUP2 ADD MLOAD SWAP2 PUSH1 0x80 PUSH1 0x60 DUP4 ADD MLOAD SWAP3 ADD MLOAD SWAP1 JUMP JUMPDEST ISZERO PUSH2 0x1A5B JUMPI JUMP JUMPDEST PUSH1 0x40 MLOAD PUSH3 0x461BCD PUSH1 0xE5 SHL DUP2 MSTORE PUSH1 0x20 PUSH1 0x4 DUP3 ADD MSTORE PUSH1 0x15 PUSH1 0x24 DUP3 ADD MSTORE PUSH21 0x125B9CDD59999A58DA595B9D0818985B9ADC9BDB1B PUSH1 0x5A SHL PUSH1 0x44 DUP3 ADD MSTORE PUSH1 0x64 SWAP1 REVERT JUMPDEST ISZERO PUSH2 0x1A9F JUMPI JUMP JUMPDEST PUSH1 0x40 MLOAD PUSH3 0x461BCD PUSH1 0xE5 SHL DUP2 MSTORE PUSH1 0x20 PUSH1 0x4 DUP3 ADD MSTORE PUSH1 0x14 PUSH1 0x24 DUP3 ADD MSTORE PUSH20 0x14D15054C81D1C985B9CD9995C8819985A5B1959 PUSH1 0x62 SHL PUSH1 0x44 DUP3 ADD MSTORE PUSH1 0x64 SWAP1 REVERT JUMPDEST SWAP1 DUP2 SLOAD SWAP2 PUSH1 0x1 PUSH1 0x40 SHL DUP4 LT ISZERO PUSH2 0x1908 JUMPI DUP3 PUSH2 0xB73 SWAP2 PUSH1 0x1 PUSH2 0x1AFE SWAP6 ADD DUP2 SSTORE PUSH2 0x1864 JUMP JUMPDEST JUMP JUMPDEST ISZERO PUSH2 0x1B07 JUMPI JUMP JUMPDEST PUSH1 0x40 MLOAD PUSH3 0x461BCD PUSH1 0xE5 SHL DUP2 MSTORE PUSH1 0x20 PUSH1 0x4 DUP3 ADD MSTORE PUSH1 0x10 PUSH1 0x24 DUP3 ADD MSTORE PUSH16 0x105B1C9958591E481858D8D95C1D1959 PUSH1 0x82 SHL PUSH1 0x44 DUP3 ADD MSTORE PUSH1 0x64 SWAP1 REVERT JUMPDEST PUSH1 0x1 SLOAD PUSH1 0x1 PUSH1 0x1 PUSH1 0xA0 SHL SUB AND CALLER SUB PUSH2 0x1B53 JUMPI JUMP JUMPDEST PUSH1 0x40 MLOAD PUSH4 0x118CDAA7 PUSH1 0xE0 SHL DUP2 MSTORE CALLER PUSH1 0x4 DUP3 ADD MSTORE PUSH1 0x24 SWAP1 REVERT JUMPDEST PUSH1 0x2 PUSH1 0x0 SLOAD EQ PUSH2 0x1B7C JUMPI PUSH1 0x2 PUSH1 0x0 SSTORE JUMP JUMPDEST PUSH1 0x40 MLOAD PUSH4 0x3EE5AEB5 PUSH1 0xE0 SHL DUP2 MSTORE PUSH1 0x4 SWAP1 REVERT INVALID LOG2 PUSH5 0x6970667358 0x22 SLT KECCAK256 SAR PUSH13 0x2D921954385DD9D44F68C809EB 0xA5 PUSH2 0x114 SAR SELFBALANCE SWAP6 0xC0 SWAP2 SWAP14 0xBB 0xB5 SHL 0xDB PUSH10 0xEC7164736F6C63430008 XOR STOP CALLER "},"methodIdentifiers":{"HOUSE_FEE_BPS()":"1594b256","MATCH_EXPIRY()":"90a3253b","MAX_WAGER()":"7f045327","MIN_WAGER()":"fdb6cf45","acceptMatch(uint256)":"bebcd21e","agentController()":"5cc49f23","agentMatches(address,uint256)":"a7030eaa","cancelMatch(uint256)":"d02c8cdf","createMatch(uint256)":"b67a88f9","executeBattle(uint256)":"1504f5cd","gameContract()":"d3f33009","getAgentMatchHistory(address)":"fca9db77","getMatchDetails(uint256)":"2df5d126","getOpenMatches()":"554bfee2","getRecentMatches(uint256)":"be487539","matchCounter()":"01fd1951","matches(uint256)":"4768d4ef","owner()":"8da5cb5b","predictionMarket()":"def114b6","renounceOwnership()":"715018a6","seasToken()":"43a02ff0","setPredictionMarket(address)":"03b88ba2","setTreasury(address)":"f0f44260","transferOwnership(address)":"f2fde38b","treasury()":"61d027b3"}}}}}