{"contracts/AgentController.sol":{"AgentController":{"abi":[{"inputs":[{"internalType":"address","name":"_gameContract","type":"address"},{"internalType":"address","name":"_seasToken","type":"address"}],"stateMutability":"nonpayable","type":"constructor"},{"inputs":[{"internalType":"address","name":"owner","type":"address"}],"name":"OwnableInvalidOwner","type":"error"},{"inputs":[{"internalType":"address","name":"account","type":"address"}],"name":"OwnableUnauthorizedAccount","type":"error"},{"inputs":[],"name":"ReentrancyGuardReentrantCall","type":"error"},{"anonymous":false,"inputs":[{"indexed":true,"internalType":"address","name":"agent","type":"address"},{"indexed":false,"internalType":"string","name":"action","type":"string"},{"indexed":false,"internalType":"uint256","name":"value","type":"uint256"}],"name":"AgentDecision","type":"event"},{"anonymous":false,"inputs":[{"indexed":true,"internalType":"address","name":"agentAddress","type":"address"},{"indexed":false,"internalType":"enum AgentController.AgentType","name":"agentType","type":"uint8"},{"indexed":false,"internalType":"string","name":"agentAlias","type":"string"}],"name":"AgentRegistered","type":"event"},{"anonymous":false,"inputs":[{"indexed":true,"internalType":"address","name":"agent","type":"address"},{"indexed":false,"internalType":"uint256","name":"amount","type":"uint256"}],"name":"BankrollDeposited","type":"event"},{"anonymous":false,"inputs":[{"indexed":true,"internalType":"address","name":"agent","type":"address"},{"indexed":false,"internalType":"bool","name":"won","type":"bool"},{"indexed":false,"internalType":"uint256","name":"eloAfter","type":"uint256"}],"name":"MatchResultRecorded","type":"event"},{"anonymous":false,"inputs":[{"indexed":true,"internalType":"address","name":"previousOwner","type":"address"},{"indexed":true,"internalType":"address","name":"newOwner","type":"address"}],"name":"OwnershipTransferred","type":"event"},{"anonymous":false,"inputs":[{"indexed":true,"internalType":"address","name":"agent","type":"address"},{"indexed":false,"internalType":"uint256","name":"amount","type":"uint256"}],"name":"ProfitsWithdrawn","type":"event"},{"inputs":[{"internalType":"uint256","name":"","type":"uint256"}],"name":"agentList","outputs":[{"internalType":"address","name":"","type":"address"}],"stateMutability":"view","type":"function"},{"inputs":[{"internalType":"address","name":"","type":"address"}],"name":"agents","outputs":[{"internalType":"address","name":"owner","type":"address"},{"internalType":"enum AgentController.AgentType","name":"agentType","type":"uint8"},{"internalType":"uint256","name":"eloRating","type":"uint256"},{"internalType":"uint256","name":"wins","type":"uint256"},{"internalType":"uint256","name":"losses","type":"uint256"},{"internalType":"uint256","name":"bankroll","type":"uint256"},{"internalType":"uint256","name":"totalWagers","type":"uint256"},{"internalType":"bool","name":"isActive","type":"bool"},{"internalType":"string","name":"agentAlias","type":"string"}],"stateMutability":"view","type":"function"},{"inputs":[{"internalType":"uint256","name":"amount","type":"uint256"}],"name":"depositBankroll","outputs":[],"stateMutability":"nonpayable","type":"function"},{"inputs":[],"name":"gameContract","outputs":[{"internalType":"contract IGameContract","name":"","type":"address"}],"stateMutability":"view","type":"function"},{"inputs":[],"name":"getAgentCount","outputs":[{"internalType":"uint256","name":"","type":"uint256"}],"stateMutability":"view","type":"function"},{"inputs":[{"internalType":"address","name":"agentAddress","type":"address"}],"name":"getAgentDecision","outputs":[{"internalType":"string","name":"action","type":"string"},{"internalType":"uint256","name":"value","type":"uint256"}],"stateMutability":"view","type":"function"},{"inputs":[{"internalType":"address","name":"agentAddress","type":"address"}],"name":"getAgentStats","outputs":[{"internalType":"uint256","name":"bankroll","type":"uint256"},{"internalType":"uint256","name":"wins","type":"uint256"},{"internalType":"uint256","name":"losses","type":"uint256"},{"internalType":"uint256","name":"eloRating","type":"uint256"},{"internalType":"uint256","name":"totalWagers","type":"uint256"}],"stateMutability":"view","type":"function"},{"inputs":[{"internalType":"uint256","name":"count","type":"uint256"}],"name":"getLeaderboard","outputs":[{"internalType":"address[]","name":"addrs","type":"address[]"},{"internalType":"uint256[]","name":"elos","type":"uint256[]"}],"stateMutability":"view","type":"function"},{"inputs":[{"internalType":"address","name":"agentAddress","type":"address"}],"name":"isRegistered","outputs":[{"internalType":"bool","name":"","type":"bool"}],"stateMutability":"view","type":"function"},{"inputs":[],"name":"owner","outputs":[{"internalType":"address","name":"","type":"address"}],"stateMutability":"view","type":"function"},{"inputs":[{"internalType":"enum AgentController.AgentType","name":"agentType","type":"uint8"},{"internalType":"uint256","name":"initialBankroll","type":"uint256"},{"internalType":"string","name":"agentAlias","type":"string"}],"name":"registerAgent","outputs":[],"stateMutability":"nonpayable","type":"function"},{"inputs":[],"name":"renounceOwnership","outputs":[],"stateMutability":"nonpayable","type":"function"},{"inputs":[],"name":"seasToken","outputs":[{"internalType":"contract IERC20","name":"","type":"address"}],"stateMutability":"view","type":"function"},{"inputs":[{"internalType":"address","name":"_wagerArena","type":"address"}],"name":"setWagerArena","outputs":[],"stateMutability":"nonpayable","type":"function"},{"inputs":[{"internalType":"address","name":"newOwner","type":"address"}],"name":"transferOwnership","outputs":[],"stateMutability":"nonpayable","type":"function"},{"inputs":[{"internalType":"address","name":"agentAddress","type":"address"},{"internalType":"bool","name":"won","type":"bool"},{"internalType":"uint256","name":"wagerAmount","type":"uint256"}],"name":"updateAfterMatch","outputs":[],"stateMutability":"nonpayable","type":"function"},{"inputs":[],"name":"wagerArena","outputs":[{"internalType":"address","name":"","type":"address"}],"stateMutability":"view","type":"function"},{"inputs":[{"internalType":"uint256","name":"amount","type":"uint256"}],"name":"withdrawProfits","outputs":[],"stateMutability":"nonpayable","type":"function"}],"evm":{"bytecode":{"linkReferences":{},"object":"608034620000eb57601f62001bd338819003918201601f19168301916001600160401b03831184841017620000f0578084926040948552833981010312620000eb576200005a6020620000528362000106565b920162000106565b903315620000d2576000549160018060a01b03908160018060a01b031993338587161760005560405195823391167f8be0079c531659141344cd1fd0a4f28419497f9722a3daafe3b4186f6b6457e0600080a3600180551683600254161760025516906003541617600355611ab790816200011c8239f35b604051631e4fbdf760e01b815260006004820152602490fd5b600080fd5b634e487b7160e01b600052604160045260246000fd5b51906001600160a01b0382168203620000eb5756fe6080604052600436101561001257600080fd5b60003560e01c80630331053d14610cf95780632f80c54f14610cb757806343a02ff014610c8e5780636751d28314610c4b578063715018a614610bf2578063771dec1e14610a7d5780637c6c060c14610a3b5780638da5cb5b14610a1257806391cab63e146109f4578063a34b46fe146107d0578063b5695b3814610767578063c3c5a54714610725578063cac39f24146104e2578063d3f33009146104b9578063df04517f14610490578063f2fde38b14610402578063fd66091e1461028e5763ff8c94a8146100e257600080fd5b3461021b5760208060031936011261021b5760043590610100611626565b33600052600581526004604060002061011f60ff6006830154166113ae565b01805468056bc75e2d63100000848101809111610278578110610233579061014a8460009493611619565b905560035460405163a9059cbb60e01b81523360048201526024810185905292829184916044918391906001600160a01b03165af1918215610227576000926101c8575b506101b97f124fd12bda4dcb813885ca782fb4ea9350d4f752b1a881cadf8742d8f128bb8e926113eb565b6040519283523392a260018055005b91508082813d8311610220575b6101df8183611372565b8101031261021b576101b96102147f124fd12bda4dcb813885ca782fb4ea9350d4f752b1a881cadf8742d8f128bb8e936113a1565b925061018e565b600080fd5b503d6101d5565b6040513d6000823e3d90fd5b60405162461bcd60e51b815260048101849052601e60248201527f4d757374206d61696e7461696e203130302053454153206d696e696d756d00006044820152606490fd5b634e487b7160e01b600052601160045260246000fd5b3461021b57602036600319011261021b576001600160a01b03806102b06112c6565b166000526005602052604060002090815490600192600181015460028201546003830154600484015491600585015493600760ff6006880154169601604051809a60009280546102ff8161131c565b8094526001811690816000146103c35750600114610385575b506103528b6103818e8d8d8d8d8d8d8d610334888f0389611372565b6040519a8b9a6101209881168c5260ff60208d019160a01c16611394565b60408a01526060890152608088015260a087015260c0860152151560e0850152806101008501528301906112dc565b0390f35b6000908152602081209093505b8284106103ab575050508901602001816103348b610318565b805460208e8601810191909152909301928101610392565b8e9b9997955061033493506103529e925060209150936103819c9a98969460ff191682840152151560051b820101939597999c50829496989a50610318565b3461021b57602036600319011261021b5761041b6112c6565b610423611649565b6001600160a01b0390811690811561047757600054826bffffffffffffffffffffffff60a01b821617600055167f8be0079c531659141344cd1fd0a4f28419497f9722a3daafe3b4186f6b6457e0600080a3005b604051631e4fbdf760e01b815260006004820152602490fd5b3461021b57600036600319011261021b576004546040516001600160a01b039091168152602090f35b3461021b57600036600319011261021b576002546040516001600160a01b039091168152602090f35b3461021b57606036600319011261021b576104fb6112c6565b6024908135908115159182810361021b57600454604435926001600160a01b0391821633148015610718575b156106e3571693846000526005602052604060002092600684019261054f60ff855416611436565b6005850161055e838254611429565b90551561062457600284018054906001820180921161060f575561058760048501918254611429565b905560018301805491601483018093116105fb5750927f9eade9d23c35419aa769604f16279c5b3f9f9442421f3be74ba64b2dc1a6afca9492600192604095555b68056bc75e2d631000006004830154106105ed575b50015482519182526020820152a2005b805460ff19169055866105dd565b634e487b7160e01b60009081526011600452fd5b83634e487b7160e01b60005260116004526000fd5b600384018054906001820180921161060f5755600484019080825410156000146106d957610653908254611619565b90555b6001830160738154116000146106a6578054600e198101929083116105fb5750927f9eade9d23c35419aa769604f16279c5b3f9f9442421f3be74ba64b2dc1a6afca9492600192604095556105c8565b60019150927f9eade9d23c35419aa769604f16279c5b3f9f9442421f3be74ba64b2dc1a6afca94926064604095556105c8565b5060009055610656565b60405162461bcd60e51b815260206004820152600e818801526d139bdd08185d5d1a1bdc9a5e995960921b6044820152606490fd5b5081600054163314610527565b3461021b57602036600319011261021b576001600160a01b036107466112c6565b166000526005602052602060ff600660406000200154166040519015158152f35b3461021b57602036600319011261021b576001600160a01b036107886112c6565b16600052600560205260a06040600020600481015490600281015490600381015460056001830154920154926040519485526020850152604084015260608301526080820152f35b3461021b57602036600319011261021b57600654600435808210156109ef5750805b6107fb816115ed565b916108096040519384611372565b818352610815826115ed565b601f199290830136602086013761082b816115ed565b926108396040519485611372565b818452610845826115ed565b0136602085013760005b8281106108e25783856040519182916040830160408452815180915260206060850192019060005b8181106108c05750505082810360208401526020808351928381520192019060005b8181106108a7575050500390f35b8251845285945060209384019390920191600101610899565b82516001600160a01b0316845286955060209384019390920191600101610877565b6108eb81611279565b60018060a01b0391549060031b1c1680600052600560205260406000209060ff600683015416156109e5576001809201549060005b858110610936575b505050506001905b0161084f565b6109408189611605565b51831161094e578301610920565b919250846000198101116102785760001985015b82811161098e5750816109849161097d60019695948b611605565b5287611605565b5290868080610928565b80600019810111610278576001600160a01b036109af60001983018b611605565b51166109bb828b611605565b526109ca600019820189611605565b516109d5828a611605565b5280156102785760001901610962565b5050600190610930565b6107f2565b3461021b57600036600319011261021b576020600654604051908152f35b3461021b57600036600319011261021b576000546040516001600160a01b039091168152602090f35b3461021b57602036600319011261021b57610a73610a5f610a5a6112c6565b611475565b6040519283926040845260408401906112dc565b9060208301520390f35b3461021b5760208060031936011261021b5760043590610a9b611626565b3360005260058152610ab760ff600660406000200154166113ae565b8115610bb9576003546040516323b872dd60e01b81523360048201523060248201526044810184905291908190839060649082906000906001600160a01b03165af191821561022757600092610b5f575b50610b337f66250ab67bdde5237a4f3f6ae11b39da8cd2e3c2e2073dcacb568f309cd68fc6926113eb565b33600052600581526004604060002001610b4e848254611429565b90556040519283523392a260018055005b91508082813d8311610bb2575b610b768183611372565b8101031261021b57610b33610bab7f66250ab67bdde5237a4f3f6ae11b39da8cd2e3c2e2073dcacb568f309cd68fc6936113a1565b9250610b08565b503d610b6c565b6064906040519062461bcd60e51b8252600482015260126024820152710416d6f756e74206d757374206265203e20360741b6044820152fd5b3461021b57600036600319011261021b57610c0b611649565b600080546001600160a01b0319811682556001600160a01b03167f8be0079c531659141344cd1fd0a4f28419497f9722a3daafe3b4186f6b6457e08280a3005b3461021b57602036600319011261021b57610c646112c6565b610c6c611649565b600480546001600160a01b0319166001600160a01b0392909216919091179055005b3461021b57600036600319011261021b576003546040516001600160a01b039091168152602090f35b3461021b57602036600319011261021b5760043560065481101561021b57610ce0602091611279565b905460405160039290921b1c6001600160a01b03168152f35b3461021b57606036600319011261021b57600435600581101561021b576044359067ffffffffffffffff821161021b573660238301121561021b5767ffffffffffffffff82600401351161021b5736602483600401358401011161021b57610d5f611626565b33600052600560205260ff6006604060002001541661123f5768056bc75e2d63100000602435106112025781600401351515806111f3575b156111bb576003546040516323b872dd60e01b81523360048201523060248083019190915235604482015290602090829060649082906000906001600160a01b03165af190811561022757600091611181575b501561114557604051610120810181811067ffffffffffffffff821117611057576040523381528160208201526103e86040820152600060608201526000608082015260243560a0820152600060c0820152600160e0820152604051610e5e6020601f19601f876004013501160182611372565b60048401358082526024850160208301376000602085600401358301015261010082015233600052600560205260406000209060018060a01b03815116908254602082015192600584101561112f576101009360ff60a01b9060a01b16916affffffffffffffffffffff60a81b161717835560408101516001840155606081015160028401556080810151600384015560a0810151600484015560c081015160058401556006830160e0820151151560ff80198354169116179055015180519067ffffffffffffffff821161105757610f3a600784015461131c565b601f81116110e8575b50602090601f831160011461107857600792916000918361106d575b50508160011b916000199060031b1c1916179101555b600654906801000000000000000082101561105757610fbb8260017f7721366ee4ce7a2cf0a8b69c0f4036d07298126f885e3cb106f39811d01bf5e59401600655611279565b81549060031b9033821b9160018060a01b03901b1916179055610fe16040518092611394565b60406020820152826004013560408201528260040135602484016060830137600060608460040135830101526060813394601f8019916004013501168101030190a260405160243581527f66250ab67bdde5237a4f3f6ae11b39da8cd2e3c2e2073dcacb568f309cd68fc660203392a260018055005b634e487b7160e01b600052604160045260246000fd5b015190508680610f5f565b906007840160005260206000209160005b601f19851681106110d05750918391600193600795601f198116106110b7575b505050811b01910155610f75565b015160001960f88460031b161c191690558680806110a9565b91926020600181928685015181550194019201611089565b600784016000526020600020601f840160051c810160208510611128575b601f830160051c8201811061111c575050610f43565b60008155600101611106565b5080611106565b634e487b7160e01b600052602160045260246000fd5b60405162461bcd60e51b815260206004820152601460248201527314d15054c81d1c985b9cd9995c8819985a5b195960621b6044820152606490fd5b90506020813d6020116111b3575b8161119c60209383611372565b8101031261021b576111ad906113a1565b83610dea565b3d915061118f565b60405162461bcd60e51b815260206004820152601060248201526f416c69617320312d323020636861727360801b6044820152606490fd5b50601482600401351115610d97565b60405162461bcd60e51b8152602060048201526015602482015274135a5b880c4c0c0814d15054c81c995c5d5a5c9959605a1b6044820152606490fd5b60405162461bcd60e51b8152602060048201526012602482015271105b1c9958591e481c9959da5cdd195c995960721b6044820152606490fd5b6006548110156112b05760066000527ff652222313e28459528d920b65115c16c04f3efc82aaedc97be59f3f377c0d3f0190600090565b634e487b7160e01b600052603260045260246000fd5b600435906001600160a01b038216820361021b57565b919082519283825260005b848110611308575050826000602080949584010152601f8019910116010190565b6020818301810151848301820152016112e7565b90600182811c9216801561134c575b602083101461133657565b634e487b7160e01b600052602260045260246000fd5b91607f169161132b565b6040810190811067ffffffffffffffff82111761105757604052565b90601f8019910116810190811067ffffffffffffffff82111761105757604052565b90600582101561112f5752565b5190811515820361021b57565b156113b557565b60405162461bcd60e51b815260206004820152600e60248201526d139bdd081c9959da5cdd195c995960921b6044820152606490fd5b156113f257565b60405162461bcd60e51b815260206004820152600f60248201526e151c985b9cd9995c8819985a5b1959608a1b6044820152606490fd5b9190820180921161027857565b1561143d57565b60405162461bcd60e51b815260206004820152601060248201526f4167656e74206e6f742061637469766560801b6044820152606490fd5b6001600160a01b03908116600081815260056020526040812060068101549093906114a29060ff16611436565b60025416916040519283916345e03b7360e11b835260048301528160246101009586935afa9081156115e257829083928480928197829361157b575b505060ff885460a01c169060058210156115675750806115085750505061150494611a03565b9091565b91949392916001810361152257505050506115049361195c565b939592945090926002810361153d575050506115049361184d565b6003909593919492951460001461155a57505050611504926117ae565b9091925061150494611713565b634e487b7160e01b81526021600452602490fd5b95509650945050505082813d83116115db575b6115988183611372565b810103126115d857815160208301516040840151916060850151936080860151916115ca60e060a089015198016113a1565b5092939491959038806114de565b80fd5b503d61158e565b6040513d84823e3d90fd5b67ffffffffffffffff81116110575760051b60200190565b80518210156112b05760209160051b010190565b9190820391821161027857565b600260015414611637576002600155565b604051633ee5aeb560e01b8152600490fd5b6000546001600160a01b0316330361165d57565b60405163118cdaa760e01b8152336004820152602490fd5b6040519061168282611356565b600b82526a07265706169725f736869760ac1b6020830152565b604051906116a982611356565b6009825268636c61696d5f67706d60b81b6020830152565b604051906116ce82611356565b600e82526d757067726164655f61747461636b60901b6020830152565b604051906116f882611356565b600c82526b77616765725f626174746c6560a01b6020830152565b939091926046116117a25761012c1161179757106117885760040154600f810290808204600f1490151715610278576064900490678ac7230489e80000808310611780575b50683635c9adc5dea00000808311611778575b506117746116eb565b9190565b91503861176b565b915038611758565b506117916116c1565b90600090565b50505061179161169c565b50505050611791611675565b906032116118235760040154600f810290808204600f1490151715610278576064900490678ac7230489e8000080831061181b575b50683635c9adc5dea00000808311611811575b5061012c10611808575061179161169c565b906117746116eb565b915061012c6117f6565b9150386117e3565b505060405161183181611356565b6009815268686972655f6372657760b81b602082015290600090565b909192603c1161195157600281015461186a600383015482611429565b9081158061194657612710918281029281840414901517156102785761193057045b6117708111156119115750600460ff60145b16910154818102918183041490151715610278576064900491678ac7230489e80000808410611909575b50683635c9adc5dea00000808411611901575b5060788102908082046078149015171561027857606490041061180857506117916116c1565b9250386118db565b9250386118c8565b610fa0101561192557600460ff600f61189e565b600460ff600a61189e565b634e487b7160e01b600052601260045260246000fd5b50505061138861188c565b505050611791611675565b9291801591821592836119d3575b5050506119c9576103e810611982575061179161169c565b60040154600581029080820460051490151715610278576064900490678ac7230489e800008083106117805750683635c9adc5dea0000080831161177857506117746116eb565b5050611791611675565b9091925060648202918083046064149015171561027857604683029283046046141715610278571038808061196a565b926032116117a257101580611a76575b611a2f575060c811611a27576117916116c1565b61179161169c565b60040154601980820292508115918304141715610278576064900490678ac7230489e800008083106117805750683635c9adc5dea0000080831161177857506117746116eb565b506101f48211611a1356fea2646970667358221220e56a913ea8ce11b472e39f8a59faaa9f13337dd982037ae7e4f978a1fa8baff664736f6c63430008180033","opcodes":"PUSH1 0x80 CALLVALUE PUSH3 0xEB JUMPI PUSH1 0x1F PUSH3 0x1BD3 CODESIZE DUP2 SWAP1 SUB SWAP2 DUP3 ADD PUSH1 0x1F NOT AND DUP4 ADD SWAP2 PUSH1 0x1 PUSH1 0x1 PUSH1 0x40 SHL SUB DUP4 GT DUP5 DUP5 LT OR PUSH3 0xF0 JUMPI DUP1 DUP5 SWAP3 PUSH1 0x40 SWAP5 DUP6 MSTORE DUP4 CODECOPY DUP2 ADD SUB SLT PUSH3 0xEB JUMPI PUSH3 0x5A PUSH1 0x20 PUSH3 0x52 DUP4 PUSH3 0x106 JUMP JUMPDEST SWAP3 ADD PUSH3 0x106 JUMP JUMPDEST SWAP1 CALLER ISZERO PUSH3 0xD2 JUMPI PUSH1 0x0 SLOAD SWAP2 PUSH1 0x1 DUP1 PUSH1 0xA0 SHL SUB SWAP1 DUP2 PUSH1 0x1 DUP1 PUSH1 0xA0 SHL SUB NOT SWAP4 CALLER DUP6 DUP8 AND OR PUSH1 0x0 SSTORE PUSH1 0x40 MLOAD SWAP6 DUP3 CALLER SWAP2 AND PUSH32 0x8BE0079C531659141344CD1FD0A4F28419497F9722A3DAAFE3B4186F6B6457E0 PUSH1 0x0 DUP1 LOG3 PUSH1 0x1 DUP1 SSTORE AND DUP4 PUSH1 0x2 SLOAD AND OR PUSH1 0x2 SSTORE AND SWAP1 PUSH1 0x3 SLOAD AND OR PUSH1 0x3 SSTORE PUSH2 0x1AB7 SWAP1 DUP2 PUSH3 0x11C DUP3 CODECOPY RETURN JUMPDEST PUSH1 0x40 MLOAD PUSH4 0x1E4FBDF7 PUSH1 0xE0 SHL DUP2 MSTORE PUSH1 0x0 PUSH1 0x4 DUP3 ADD MSTORE PUSH1 0x24 SWAP1 REVERT JUMPDEST PUSH1 0x0 DUP1 REVERT JUMPDEST PUSH4 0x4E487B71 PUSH1 0xE0 SHL PUSH1 0x0 MSTORE PUSH1 0x41 PUSH1 0x4 MSTORE PUSH1 0x24 PUSH1 0x0 REVERT JUMPDEST MLOAD SWAP1 PUSH1 0x1 PUSH1 0x1 PUSH1 0xA0 SHL SUB DUP3 AND DUP3 SUB PUSH3 0xEB JUMPI JUMP INVALID PUSH1 0x80 PUSH1 0x40 MSTORE PUSH1 0x4 CALLDATASIZE LT ISZERO PUSH2 0x12 JUMPI PUSH1 0x0 DUP1 REVERT JUMPDEST PUSH1 0x0 CALLDATALOAD PUSH1 0xE0 SHR DUP1 PUSH4 0x331053D EQ PUSH2 0xCF9 JUMPI DUP1 PUSH4 0x2F80C54F EQ PUSH2 0xCB7 JUMPI DUP1 PUSH4 0x43A02FF0 EQ PUSH2 0xC8E JUMPI DUP1 PUSH4 0x6751D283 EQ PUSH2 0xC4B JUMPI DUP1 PUSH4 0x715018A6 EQ PUSH2 0xBF2 JUMPI DUP1 PUSH4 0x771DEC1E EQ PUSH2 0xA7D JUMPI DUP1 PUSH4 0x7C6C060C EQ PUSH2 0xA3B JUMPI DUP1 PUSH4 0x8DA5CB5B EQ PUSH2 0xA12 JUMPI DUP1 PUSH4 0x91CAB63E EQ PUSH2 0x9F4 JUMPI DUP1 PUSH4 0xA34B46FE EQ PUSH2 0x7D0 JUMPI DUP1 PUSH4 0xB5695B38 EQ PUSH2 0x767 JUMPI DUP1 PUSH4 0xC3C5A547 EQ PUSH2 0x725 JUMPI DUP1 PUSH4 0xCAC39F24 EQ PUSH2 0x4E2 JUMPI DUP1 PUSH4 0xD3F33009 EQ PUSH2 0x4B9 JUMPI DUP1 PUSH4 0xDF04517F EQ PUSH2 0x490 JUMPI DUP1 PUSH4 0xF2FDE38B EQ PUSH2 0x402 JUMPI DUP1 PUSH4 0xFD66091E EQ PUSH2 0x28E JUMPI PUSH4 0xFF8C94A8 EQ PUSH2 0xE2 JUMPI PUSH1 0x0 DUP1 REVERT JUMPDEST CALLVALUE PUSH2 0x21B JUMPI PUSH1 0x20 DUP1 PUSH1 0x3 NOT CALLDATASIZE ADD SLT PUSH2 0x21B JUMPI PUSH1 0x4 CALLDATALOAD SWAP1 PUSH2 0x100 PUSH2 0x1626 JUMP JUMPDEST CALLER PUSH1 0x0 MSTORE PUSH1 0x5 DUP2 MSTORE PUSH1 0x4 PUSH1 0x40 PUSH1 0x0 KECCAK256 PUSH2 0x11F PUSH1 0xFF PUSH1 0x6 DUP4 ADD SLOAD AND PUSH2 0x13AE JUMP JUMPDEST ADD DUP1 SLOAD PUSH9 0x56BC75E2D63100000 DUP5 DUP2 ADD DUP1 SWAP2 GT PUSH2 0x278 JUMPI DUP2 LT PUSH2 0x233 JUMPI SWAP1 PUSH2 0x14A DUP5 PUSH1 0x0 SWAP5 SWAP4 PUSH2 0x1619 JUMP JUMPDEST SWAP1 SSTORE PUSH1 0x3 SLOAD PUSH1 0x40 MLOAD PUSH4 0xA9059CBB PUSH1 0xE0 SHL DUP2 MSTORE CALLER PUSH1 0x4 DUP3 ADD MSTORE PUSH1 0x24 DUP2 ADD DUP6 SWAP1 MSTORE SWAP3 DUP3 SWAP2 DUP5 SWAP2 PUSH1 0x44 SWAP2 DUP4 SWAP2 SWAP1 PUSH1 0x1 PUSH1 0x1 PUSH1 0xA0 SHL SUB AND GAS CALL SWAP2 DUP3 ISZERO PUSH2 0x227 JUMPI PUSH1 0x0 SWAP3 PUSH2 0x1C8 JUMPI JUMPDEST POP PUSH2 0x1B9 PUSH32 0x124FD12BDA4DCB813885CA782FB4EA9350D4F752B1A881CADF8742D8F128BB8E SWAP3 PUSH2 0x13EB JUMP JUMPDEST PUSH1 0x40 MLOAD SWAP3 DUP4 MSTORE CALLER SWAP3 LOG2 PUSH1 0x1 DUP1 SSTORE STOP JUMPDEST SWAP2 POP DUP1 DUP3 DUP2 RETURNDATASIZE DUP4 GT PUSH2 0x220 JUMPI JUMPDEST PUSH2 0x1DF DUP2 DUP4 PUSH2 0x1372 JUMP JUMPDEST DUP2 ADD SUB SLT PUSH2 0x21B JUMPI PUSH2 0x1B9 PUSH2 0x214 PUSH32 0x124FD12BDA4DCB813885CA782FB4EA9350D4F752B1A881CADF8742D8F128BB8E SWAP4 PUSH2 0x13A1 JUMP JUMPDEST SWAP3 POP PUSH2 0x18E JUMP JUMPDEST PUSH1 0x0 DUP1 REVERT JUMPDEST POP RETURNDATASIZE PUSH2 0x1D5 JUMP JUMPDEST PUSH1 0x40 MLOAD RETURNDATASIZE PUSH1 0x0 DUP3 RETURNDATACOPY RETURNDATASIZE SWAP1 REVERT JUMPDEST PUSH1 0x40 MLOAD PUSH3 0x461BCD PUSH1 0xE5 SHL DUP2 MSTORE PUSH1 0x4 DUP2 ADD DUP5 SWAP1 MSTORE PUSH1 0x1E PUSH1 0x24 DUP3 ADD MSTORE PUSH32 0x4D757374206D61696E7461696E203130302053454153206D696E696D756D0000 PUSH1 0x44 DUP3 ADD MSTORE PUSH1 0x64 SWAP1 REVERT JUMPDEST PUSH4 0x4E487B71 PUSH1 0xE0 SHL PUSH1 0x0 MSTORE PUSH1 0x11 PUSH1 0x4 MSTORE PUSH1 0x24 PUSH1 0x0 REVERT JUMPDEST CALLVALUE PUSH2 0x21B JUMPI PUSH1 0x20 CALLDATASIZE PUSH1 0x3 NOT ADD SLT PUSH2 0x21B JUMPI PUSH1 0x1 PUSH1 0x1 PUSH1 0xA0 SHL SUB DUP1 PUSH2 0x2B0 PUSH2 0x12C6 JUMP JUMPDEST AND PUSH1 0x0 MSTORE PUSH1 0x5 PUSH1 0x20 MSTORE PUSH1 0x40 PUSH1 0x0 KECCAK256 SWAP1 DUP2 SLOAD SWAP1 PUSH1 0x1 SWAP3 PUSH1 0x1 DUP2 ADD SLOAD PUSH1 0x2 DUP3 ADD SLOAD PUSH1 0x3 DUP4 ADD SLOAD PUSH1 0x4 DUP5 ADD SLOAD SWAP2 PUSH1 0x5 DUP6 ADD SLOAD SWAP4 PUSH1 0x7 PUSH1 0xFF PUSH1 0x6 DUP9 ADD SLOAD AND SWAP7 ADD PUSH1 0x40 MLOAD DUP1 SWAP11 PUSH1 0x0 SWAP3 DUP1 SLOAD PUSH2 0x2FF DUP2 PUSH2 0x131C JUMP JUMPDEST DUP1 SWAP5 MSTORE PUSH1 0x1 DUP2 AND SWAP1 DUP2 PUSH1 0x0 EQ PUSH2 0x3C3 JUMPI POP PUSH1 0x1 EQ PUSH2 0x385 JUMPI JUMPDEST POP PUSH2 0x352 DUP12 PUSH2 0x381 DUP15 DUP14 DUP14 DUP14 DUP14 DUP14 DUP14 DUP14 PUSH2 0x334 DUP9 DUP16 SUB DUP10 PUSH2 0x1372 JUMP JUMPDEST PUSH1 0x40 MLOAD SWAP11 DUP12 SWAP11 PUSH2 0x120 SWAP9 DUP2 AND DUP13 MSTORE PUSH1 0xFF PUSH1 0x20 DUP14 ADD SWAP2 PUSH1 0xA0 SHR AND PUSH2 0x1394 JUMP JUMPDEST PUSH1 0x40 DUP11 ADD MSTORE PUSH1 0x60 DUP10 ADD MSTORE PUSH1 0x80 DUP9 ADD MSTORE PUSH1 0xA0 DUP8 ADD MSTORE PUSH1 0xC0 DUP7 ADD MSTORE ISZERO ISZERO PUSH1 0xE0 DUP6 ADD MSTORE DUP1 PUSH2 0x100 DUP6 ADD MSTORE DUP4 ADD SWAP1 PUSH2 0x12DC JUMP JUMPDEST SUB SWAP1 RETURN JUMPDEST PUSH1 0x0 SWAP1 DUP2 MSTORE PUSH1 0x20 DUP2 KECCAK256 SWAP1 SWAP4 POP JUMPDEST DUP3 DUP5 LT PUSH2 0x3AB JUMPI POP POP POP DUP10 ADD PUSH1 0x20 ADD DUP2 PUSH2 0x334 DUP12 PUSH2 0x318 JUMP JUMPDEST DUP1 SLOAD PUSH1 0x20 DUP15 DUP7 ADD DUP2 ADD SWAP2 SWAP1 SWAP2 MSTORE SWAP1 SWAP4 ADD SWAP3 DUP2 ADD PUSH2 0x392 JUMP JUMPDEST DUP15 SWAP12 SWAP10 SWAP8 SWAP6 POP PUSH2 0x334 SWAP4 POP PUSH2 0x352 SWAP15 SWAP3 POP PUSH1 0x20 SWAP2 POP SWAP4 PUSH2 0x381 SWAP13 SWAP11 SWAP9 SWAP7 SWAP5 PUSH1 0xFF NOT AND DUP3 DUP5 ADD MSTORE ISZERO ISZERO PUSH1 0x5 SHL DUP3 ADD ADD SWAP4 SWAP6 SWAP8 SWAP10 SWAP13 POP DUP3 SWAP5 SWAP7 SWAP9 SWAP11 POP PUSH2 0x318 JUMP JUMPDEST CALLVALUE PUSH2 0x21B JUMPI PUSH1 0x20 CALLDATASIZE PUSH1 0x3 NOT ADD SLT PUSH2 0x21B JUMPI PUSH2 0x41B PUSH2 0x12C6 JUMP JUMPDEST PUSH2 0x423 PUSH2 0x1649 JUMP JUMPDEST PUSH1 0x1 PUSH1 0x1 PUSH1 0xA0 SHL SUB SWAP1 DUP2 AND SWAP1 DUP2 ISZERO PUSH2 0x477 JUMPI PUSH1 0x0 SLOAD DUP3 PUSH12 0xFFFFFFFFFFFFFFFFFFFFFFFF PUSH1 0xA0 SHL DUP3 AND OR PUSH1 0x0 SSTORE AND PUSH32 0x8BE0079C531659141344CD1FD0A4F28419497F9722A3DAAFE3B4186F6B6457E0 PUSH1 0x0 DUP1 LOG3 STOP JUMPDEST PUSH1 0x40 MLOAD PUSH4 0x1E4FBDF7 PUSH1 0xE0 SHL DUP2 MSTORE PUSH1 0x0 PUSH1 0x4 DUP3 ADD MSTORE PUSH1 0x24 SWAP1 REVERT JUMPDEST CALLVALUE PUSH2 0x21B JUMPI PUSH1 0x0 CALLDATASIZE PUSH1 0x3 NOT ADD SLT PUSH2 0x21B JUMPI PUSH1 0x4 SLOAD PUSH1 0x40 MLOAD PUSH1 0x1 PUSH1 0x1 PUSH1 0xA0 SHL SUB SWAP1 SWAP2 AND DUP2 MSTORE PUSH1 0x20 SWAP1 RETURN JUMPDEST CALLVALUE PUSH2 0x21B JUMPI PUSH1 0x0 CALLDATASIZE PUSH1 0x3 NOT ADD SLT PUSH2 0x21B JUMPI PUSH1 0x2 SLOAD PUSH1 0x40 MLOAD PUSH1 0x1 PUSH1 0x1 PUSH1 0xA0 SHL SUB SWAP1 SWAP2 AND DUP2 MSTORE PUSH1 0x20 SWAP1 RETURN JUMPDEST CALLVALUE PUSH2 0x21B JUMPI PUSH1 0x60 CALLDATASIZE PUSH1 0x3 NOT ADD SLT PUSH2 0x21B JUMPI PUSH2 0x4FB PUSH2 0x12C6 JUMP JUMPDEST PUSH1 0x24 SWAP1 DUP2 CALLDATALOAD SWAP1 DUP2 ISZERO ISZERO SWAP2 DUP3 DUP2 SUB PUSH2 0x21B JUMPI PUSH1 0x4 SLOAD PUSH1 0x44 CALLDATALOAD SWAP3 PUSH1 0x1 PUSH1 0x1 PUSH1 0xA0 SHL SUB SWAP2 DUP3 AND CALLER EQ DUP1 ISZERO PUSH2 0x718 JUMPI JUMPDEST ISZERO PUSH2 0x6E3 JUMPI AND SWAP4 DUP5 PUSH1 0x0 MSTORE PUSH1 0x5 PUSH1 0x20 MSTORE PUSH1 0x40 PUSH1 0x0 KECCAK256 SWAP3 PUSH1 0x6 DUP5 ADD SWAP3 PUSH2 0x54F PUSH1 0xFF DUP6 SLOAD AND PUSH2 0x1436 JUMP JUMPDEST PUSH1 0x5 DUP6 ADD PUSH2 0x55E DUP4 DUP3 SLOAD PUSH2 0x1429 JUMP JUMPDEST SWAP1 SSTORE ISZERO PUSH2 0x624 JUMPI PUSH1 0x2 DUP5 ADD DUP1 SLOAD SWAP1 PUSH1 0x1 DUP3 ADD DUP1 SWAP3 GT PUSH2 0x60F JUMPI SSTORE PUSH2 0x587 PUSH1 0x4 DUP6 ADD SWAP2 DUP3 SLOAD PUSH2 0x1429 JUMP JUMPDEST SWAP1 SSTORE PUSH1 0x1 DUP4 ADD DUP1 SLOAD SWAP2 PUSH1 0x14 DUP4 ADD DUP1 SWAP4 GT PUSH2 0x5FB JUMPI POP SWAP3 PUSH32 0x9EADE9D23C35419AA769604F16279C5B3F9F9442421F3BE74BA64B2DC1A6AFCA SWAP5 SWAP3 PUSH1 0x1 SWAP3 PUSH1 0x40 SWAP6 SSTORE JUMPDEST PUSH9 0x56BC75E2D63100000 PUSH1 0x4 DUP4 ADD SLOAD LT PUSH2 0x5ED JUMPI JUMPDEST POP ADD SLOAD DUP3 MLOAD SWAP2 DUP3 MSTORE PUSH1 0x20 DUP3 ADD MSTORE LOG2 STOP JUMPDEST DUP1 SLOAD PUSH1 0xFF NOT AND SWAP1 SSTORE DUP7 PUSH2 0x5DD JUMP JUMPDEST PUSH4 0x4E487B71 PUSH1 0xE0 SHL PUSH1 0x0 SWAP1 DUP2 MSTORE PUSH1 0x11 PUSH1 0x4 MSTORE REVERT JUMPDEST DUP4 PUSH4 0x4E487B71 PUSH1 0xE0 SHL PUSH1 0x0 MSTORE PUSH1 0x11 PUSH1 0x4 MSTORE PUSH1 0x0 REVERT JUMPDEST PUSH1 0x3 DUP5 ADD DUP1 SLOAD SWAP1 PUSH1 0x1 DUP3 ADD DUP1 SWAP3 GT PUSH2 0x60F JUMPI SSTORE PUSH1 0x4 DUP5 ADD SWAP1 DUP1 DUP3 SLOAD LT ISZERO PUSH1 0x0 EQ PUSH2 0x6D9 JUMPI PUSH2 0x653 SWAP1 DUP3 SLOAD PUSH2 0x1619 JUMP JUMPDEST SWAP1 SSTORE JUMPDEST PUSH1 0x1 DUP4 ADD PUSH1 0x73 DUP2 SLOAD GT PUSH1 0x0 EQ PUSH2 0x6A6 JUMPI DUP1 SLOAD PUSH1 0xE NOT DUP2 ADD SWAP3 SWAP1 DUP4 GT PUSH2 0x5FB JUMPI POP SWAP3 PUSH32 0x9EADE9D23C35419AA769604F16279C5B3F9F9442421F3BE74BA64B2DC1A6AFCA SWAP5 SWAP3 PUSH1 0x1 SWAP3 PUSH1 0x40 SWAP6 SSTORE PUSH2 0x5C8 JUMP JUMPDEST PUSH1 0x1 SWAP2 POP SWAP3 PUSH32 0x9EADE9D23C35419AA769604F16279C5B3F9F9442421F3BE74BA64B2DC1A6AFCA SWAP5 SWAP3 PUSH1 0x64 PUSH1 0x40 SWAP6 SSTORE PUSH2 0x5C8 JUMP JUMPDEST POP PUSH1 0x0 SWAP1 SSTORE PUSH2 0x656 JUMP JUMPDEST PUSH1 0x40 MLOAD PUSH3 0x461BCD PUSH1 0xE5 SHL DUP2 MSTORE PUSH1 0x20 PUSH1 0x4 DUP3 ADD MSTORE PUSH1 0xE DUP2 DUP9 ADD MSTORE PUSH14 0x139BDD08185D5D1A1BDC9A5E9959 PUSH1 0x92 SHL PUSH1 0x44 DUP3 ADD MSTORE PUSH1 0x64 SWAP1 REVERT JUMPDEST POP DUP2 PUSH1 0x0 SLOAD AND CALLER EQ PUSH2 0x527 JUMP JUMPDEST CALLVALUE PUSH2 0x21B JUMPI PUSH1 0x20 CALLDATASIZE PUSH1 0x3 NOT ADD SLT PUSH2 0x21B JUMPI PUSH1 0x1 PUSH1 0x1 PUSH1 0xA0 SHL SUB PUSH2 0x746 PUSH2 0x12C6 JUMP JUMPDEST AND PUSH1 0x0 MSTORE PUSH1 0x5 PUSH1 0x20 MSTORE PUSH1 0x20 PUSH1 0xFF PUSH1 0x6 PUSH1 0x40 PUSH1 0x0 KECCAK256 ADD SLOAD AND PUSH1 0x40 MLOAD SWAP1 ISZERO ISZERO DUP2 MSTORE RETURN JUMPDEST CALLVALUE PUSH2 0x21B JUMPI PUSH1 0x20 CALLDATASIZE PUSH1 0x3 NOT ADD SLT PUSH2 0x21B JUMPI PUSH1 0x1 PUSH1 0x1 PUSH1 0xA0 SHL SUB PUSH2 0x788 PUSH2 0x12C6 JUMP JUMPDEST AND PUSH1 0x0 MSTORE PUSH1 0x5 PUSH1 0x20 MSTORE PUSH1 0xA0 PUSH1 0x40 PUSH1 0x0 KECCAK256 PUSH1 0x4 DUP2 ADD SLOAD SWAP1 PUSH1 0x2 DUP2 ADD SLOAD SWAP1 PUSH1 0x3 DUP2 ADD SLOAD PUSH1 0x5 PUSH1 0x1 DUP4 ADD SLOAD SWAP3 ADD SLOAD SWAP3 PUSH1 0x40 MLOAD SWAP5 DUP6 MSTORE PUSH1 0x20 DUP6 ADD MSTORE PUSH1 0x40 DUP5 ADD MSTORE PUSH1 0x60 DUP4 ADD MSTORE PUSH1 0x80 DUP3 ADD MSTORE RETURN JUMPDEST CALLVALUE PUSH2 0x21B JUMPI PUSH1 0x20 CALLDATASIZE PUSH1 0x3 NOT ADD SLT PUSH2 0x21B JUMPI PUSH1 0x6 SLOAD PUSH1 0x4 CALLDATALOAD DUP1 DUP3 LT ISZERO PUSH2 0x9EF JUMPI POP DUP1 JUMPDEST PUSH2 0x7FB DUP2 PUSH2 0x15ED JUMP JUMPDEST SWAP2 PUSH2 0x809 PUSH1 0x40 MLOAD SWAP4 DUP5 PUSH2 0x1372 JUMP JUMPDEST DUP2 DUP4 MSTORE PUSH2 0x815 DUP3 PUSH2 0x15ED JUMP JUMPDEST PUSH1 0x1F NOT SWAP3 SWAP1 DUP4 ADD CALLDATASIZE PUSH1 0x20 DUP7 ADD CALLDATACOPY PUSH2 0x82B DUP2 PUSH2 0x15ED JUMP JUMPDEST SWAP3 PUSH2 0x839 PUSH1 0x40 MLOAD SWAP5 DUP6 PUSH2 0x1372 JUMP JUMPDEST DUP2 DUP5 MSTORE PUSH2 0x845 DUP3 PUSH2 0x15ED JUMP JUMPDEST ADD CALLDATASIZE PUSH1 0x20 DUP6 ADD CALLDATACOPY PUSH1 0x0 JUMPDEST DUP3 DUP2 LT PUSH2 0x8E2 JUMPI DUP4 DUP6 PUSH1 0x40 MLOAD SWAP2 DUP3 SWAP2 PUSH1 0x40 DUP4 ADD PUSH1 0x40 DUP5 MSTORE DUP2 MLOAD DUP1 SWAP2 MSTORE PUSH1 0x20 PUSH1 0x60 DUP6 ADD SWAP3 ADD SWAP1 PUSH1 0x0 JUMPDEST DUP2 DUP2 LT PUSH2 0x8C0 JUMPI POP POP POP DUP3 DUP2 SUB PUSH1 0x20 DUP5 ADD MSTORE PUSH1 0x20 DUP1 DUP4 MLOAD SWAP3 DUP4 DUP2 MSTORE ADD SWAP3 ADD SWAP1 PUSH1 0x0 JUMPDEST DUP2 DUP2 LT PUSH2 0x8A7 JUMPI POP POP POP SUB SWAP1 RETURN JUMPDEST DUP3 MLOAD DUP5 MSTORE DUP6 SWAP5 POP PUSH1 0x20 SWAP4 DUP5 ADD SWAP4 SWAP1 SWAP3 ADD SWAP2 PUSH1 0x1 ADD PUSH2 0x899 JUMP JUMPDEST DUP3 MLOAD PUSH1 0x1 PUSH1 0x1 PUSH1 0xA0 SHL SUB AND DUP5 MSTORE DUP7 SWAP6 POP PUSH1 0x20 SWAP4 DUP5 ADD SWAP4 SWAP1 SWAP3 ADD SWAP2 PUSH1 0x1 ADD PUSH2 0x877 JUMP JUMPDEST PUSH2 0x8EB DUP2 PUSH2 0x1279 JUMP JUMPDEST PUSH1 0x1 DUP1 PUSH1 0xA0 SHL SUB SWAP2 SLOAD SWAP1 PUSH1 0x3 SHL SHR AND DUP1 PUSH1 0x0 MSTORE PUSH1 0x5 PUSH1 0x20 MSTORE PUSH1 0x40 PUSH1 0x0 KECCAK256 SWAP1 PUSH1 0xFF PUSH1 0x6 DUP4 ADD SLOAD AND ISZERO PUSH2 0x9E5 JUMPI PUSH1 0x1 DUP1 SWAP3 ADD SLOAD SWAP1 PUSH1 0x0 JUMPDEST DUP6 DUP2 LT PUSH2 0x936 JUMPI JUMPDEST POP POP POP POP PUSH1 0x1 SWAP1 JUMPDEST ADD PUSH2 0x84F JUMP JUMPDEST PUSH2 0x940 DUP2 DUP10 PUSH2 0x1605 JUMP JUMPDEST MLOAD DUP4 GT PUSH2 0x94E JUMPI DUP4 ADD PUSH2 0x920 JUMP JUMPDEST SWAP2 SWAP3 POP DUP5 PUSH1 0x0 NOT DUP2 ADD GT PUSH2 0x278 JUMPI PUSH1 0x0 NOT DUP6 ADD JUMPDEST DUP3 DUP2 GT PUSH2 0x98E JUMPI POP DUP2 PUSH2 0x984 SWAP2 PUSH2 0x97D PUSH1 0x1 SWAP7 SWAP6 SWAP5 DUP12 PUSH2 0x1605 JUMP JUMPDEST MSTORE DUP8 PUSH2 0x1605 JUMP JUMPDEST MSTORE SWAP1 DUP7 DUP1 DUP1 PUSH2 0x928 JUMP JUMPDEST DUP1 PUSH1 0x0 NOT DUP2 ADD GT PUSH2 0x278 JUMPI PUSH1 0x1 PUSH1 0x1 PUSH1 0xA0 SHL SUB PUSH2 0x9AF PUSH1 0x0 NOT DUP4 ADD DUP12 PUSH2 0x1605 JUMP JUMPDEST MLOAD AND PUSH2 0x9BB DUP3 DUP12 PUSH2 0x1605 JUMP JUMPDEST MSTORE PUSH2 0x9CA PUSH1 0x0 NOT DUP3 ADD DUP10 PUSH2 0x1605 JUMP JUMPDEST MLOAD PUSH2 0x9D5 DUP3 DUP11 PUSH2 0x1605 JUMP JUMPDEST MSTORE DUP1 ISZERO PUSH2 0x278 JUMPI PUSH1 0x0 NOT ADD PUSH2 0x962 JUMP JUMPDEST POP POP PUSH1 0x1 SWAP1 PUSH2 0x930 JUMP JUMPDEST PUSH2 0x7F2 JUMP JUMPDEST CALLVALUE PUSH2 0x21B JUMPI PUSH1 0x0 CALLDATASIZE PUSH1 0x3 NOT ADD SLT PUSH2 0x21B JUMPI PUSH1 0x20 PUSH1 0x6 SLOAD PUSH1 0x40 MLOAD SWAP1 DUP2 MSTORE RETURN JUMPDEST CALLVALUE PUSH2 0x21B JUMPI PUSH1 0x0 CALLDATASIZE PUSH1 0x3 NOT ADD SLT PUSH2 0x21B JUMPI PUSH1 0x0 SLOAD PUSH1 0x40 MLOAD PUSH1 0x1 PUSH1 0x1 PUSH1 0xA0 SHL SUB SWAP1 SWAP2 AND DUP2 MSTORE PUSH1 0x20 SWAP1 RETURN JUMPDEST CALLVALUE PUSH2 0x21B JUMPI PUSH1 0x20 CALLDATASIZE PUSH1 0x3 NOT ADD SLT PUSH2 0x21B JUMPI PUSH2 0xA73 PUSH2 0xA5F PUSH2 0xA5A PUSH2 0x12C6 JUMP JUMPDEST PUSH2 0x1475 JUMP JUMPDEST PUSH1 0x40 MLOAD SWAP3 DUP4 SWAP3 PUSH1 0x40 DUP5 MSTORE PUSH1 0x40 DUP5 ADD SWAP1 PUSH2 0x12DC JUMP JUMPDEST SWAP1 PUSH1 0x20 DUP4 ADD MSTORE SUB SWAP1 RETURN JUMPDEST CALLVALUE PUSH2 0x21B JUMPI PUSH1 0x20 DUP1 PUSH1 0x3 NOT CALLDATASIZE ADD SLT PUSH2 0x21B JUMPI PUSH1 0x4 CALLDATALOAD SWAP1 PUSH2 0xA9B PUSH2 0x1626 JUMP JUMPDEST CALLER PUSH1 0x0 MSTORE PUSH1 0x5 DUP2 MSTORE PUSH2 0xAB7 PUSH1 0xFF PUSH1 0x6 PUSH1 0x40 PUSH1 0x0 KECCAK256 ADD SLOAD AND PUSH2 0x13AE JUMP JUMPDEST DUP2 ISZERO PUSH2 0xBB9 JUMPI PUSH1 0x3 SLOAD PUSH1 0x40 MLOAD PUSH4 0x23B872DD PUSH1 0xE0 SHL DUP2 MSTORE CALLER PUSH1 0x4 DUP3 ADD MSTORE ADDRESS PUSH1 0x24 DUP3 ADD MSTORE PUSH1 0x44 DUP2 ADD DUP5 SWAP1 MSTORE SWAP2 SWAP1 DUP2 SWAP1 DUP4 SWAP1 PUSH1 0x64 SWAP1 DUP3 SWAP1 PUSH1 0x0 SWAP1 PUSH1 0x1 PUSH1 0x1 PUSH1 0xA0 SHL SUB AND GAS CALL SWAP2 DUP3 ISZERO PUSH2 0x227 JUMPI PUSH1 0x0 SWAP3 PUSH2 0xB5F JUMPI JUMPDEST POP PUSH2 0xB33 PUSH32 0x66250AB67BDDE5237A4F3F6AE11B39DA8CD2E3C2E2073DCACB568F309CD68FC6 SWAP3 PUSH2 0x13EB JUMP JUMPDEST CALLER PUSH1 0x0 MSTORE PUSH1 0x5 DUP2 MSTORE PUSH1 0x4 PUSH1 0x40 PUSH1 0x0 KECCAK256 ADD PUSH2 0xB4E DUP5 DUP3 SLOAD PUSH2 0x1429 JUMP JUMPDEST SWAP1 SSTORE PUSH1 0x40 MLOAD SWAP3 DUP4 MSTORE CALLER SWAP3 LOG2 PUSH1 0x1 DUP1 SSTORE STOP JUMPDEST SWAP2 POP DUP1 DUP3 DUP2 RETURNDATASIZE DUP4 GT PUSH2 0xBB2 JUMPI JUMPDEST PUSH2 0xB76 DUP2 DUP4 PUSH2 0x1372 JUMP JUMPDEST DUP2 ADD SUB SLT PUSH2 0x21B JUMPI PUSH2 0xB33 PUSH2 0xBAB PUSH32 0x66250AB67BDDE5237A4F3F6AE11B39DA8CD2E3C2E2073DCACB568F309CD68FC6 SWAP4 PUSH2 0x13A1 JUMP JUMPDEST SWAP3 POP PUSH2 0xB08 JUMP JUMPDEST POP RETURNDATASIZE PUSH2 0xB6C JUMP JUMPDEST PUSH1 0x64 SWAP1 PUSH1 0x40 MLOAD SWAP1 PUSH3 0x461BCD PUSH1 0xE5 SHL DUP3 MSTORE PUSH1 0x4 DUP3 ADD MSTORE PUSH1 0x12 PUSH1 0x24 DUP3 ADD MSTORE PUSH18 0x416D6F756E74206D757374206265203E203 PUSH1 0x74 SHL PUSH1 0x44 DUP3 ADD MSTORE REVERT JUMPDEST CALLVALUE PUSH2 0x21B JUMPI PUSH1 0x0 CALLDATASIZE PUSH1 0x3 NOT ADD SLT PUSH2 0x21B JUMPI PUSH2 0xC0B PUSH2 0x1649 JUMP JUMPDEST PUSH1 0x0 DUP1 SLOAD PUSH1 0x1 PUSH1 0x1 PUSH1 0xA0 SHL SUB NOT DUP2 AND DUP3 SSTORE PUSH1 0x1 PUSH1 0x1 PUSH1 0xA0 SHL SUB AND PUSH32 0x8BE0079C531659141344CD1FD0A4F28419497F9722A3DAAFE3B4186F6B6457E0 DUP3 DUP1 LOG3 STOP JUMPDEST CALLVALUE PUSH2 0x21B JUMPI PUSH1 0x20 CALLDATASIZE PUSH1 0x3 NOT ADD SLT PUSH2 0x21B JUMPI PUSH2 0xC64 PUSH2 0x12C6 JUMP JUMPDEST PUSH2 0xC6C PUSH2 0x1649 JUMP JUMPDEST PUSH1 0x4 DUP1 SLOAD PUSH1 0x1 PUSH1 0x1 PUSH1 0xA0 SHL SUB NOT AND PUSH1 0x1 PUSH1 0x1 PUSH1 0xA0 SHL SUB SWAP3 SWAP1 SWAP3 AND SWAP2 SWAP1 SWAP2 OR SWAP1 SSTORE STOP JUMPDEST CALLVALUE PUSH2 0x21B JUMPI PUSH1 0x0 CALLDATASIZE PUSH1 0x3 NOT ADD SLT PUSH2 0x21B JUMPI PUSH1 0x3 SLOAD PUSH1 0x40 MLOAD PUSH1 0x1 PUSH1 0x1 PUSH1 0xA0 SHL SUB SWAP1 SWAP2 AND DUP2 MSTORE PUSH1 0x20 SWAP1 RETURN JUMPDEST CALLVALUE PUSH2 0x21B JUMPI PUSH1 0x20 CALLDATASIZE PUSH1 0x3 NOT ADD SLT PUSH2 0x21B JUMPI PUSH1 0x4 CALLDATALOAD PUSH1 0x6 SLOAD DUP2 LT ISZERO PUSH2 0x21B JUMPI PUSH2 0xCE0 PUSH1 0x20 SWAP2 PUSH2 0x1279 JUMP JUMPDEST SWAP1 SLOAD PUSH1 0x40 MLOAD PUSH1 0x3 SWAP3 SWAP1 SWAP3 SHL SHR PUSH1 0x1 PUSH1 0x1 PUSH1 0xA0 SHL SUB AND DUP2 MSTORE RETURN JUMPDEST CALLVALUE PUSH2 0x21B JUMPI PUSH1 0x60 CALLDATASIZE PUSH1 0x3 NOT ADD SLT PUSH2 0x21B JUMPI PUSH1 0x4 CALLDATALOAD PUSH1 0x5 DUP2 LT ISZERO PUSH2 0x21B JUMPI PUSH1 0x44 CALLDATALOAD SWAP1 PUSH8 0xFFFFFFFFFFFFFFFF DUP3 GT PUSH2 0x21B JUMPI CALLDATASIZE PUSH1 0x23 DUP4 ADD SLT ISZERO PUSH2 0x21B JUMPI PUSH8 0xFFFFFFFFFFFFFFFF DUP3 PUSH1 0x4 ADD CALLDATALOAD GT PUSH2 0x21B JUMPI CALLDATASIZE PUSH1 0x24 DUP4 PUSH1 0x4 ADD CALLDATALOAD DUP5 ADD ADD GT PUSH2 0x21B JUMPI PUSH2 0xD5F PUSH2 0x1626 JUMP JUMPDEST CALLER PUSH1 0x0 MSTORE PUSH1 0x5 PUSH1 0x20 MSTORE PUSH1 0xFF PUSH1 0x6 PUSH1 0x40 PUSH1 0x0 KECCAK256 ADD SLOAD AND PUSH2 0x123F JUMPI PUSH9 0x56BC75E2D63100000 PUSH1 0x24 CALLDATALOAD LT PUSH2 0x1202 JUMPI DUP2 PUSH1 0x4 ADD CALLDATALOAD ISZERO ISZERO DUP1 PUSH2 0x11F3 JUMPI JUMPDEST ISZERO PUSH2 0x11BB JUMPI PUSH1 0x3 SLOAD PUSH1 0x40 MLOAD PUSH4 0x23B872DD PUSH1 0xE0 SHL DUP2 MSTORE CALLER PUSH1 0x4 DUP3 ADD MSTORE ADDRESS PUSH1 0x24 DUP1 DUP4 ADD SWAP2 SWAP1 SWAP2 MSTORE CALLDATALOAD PUSH1 0x44 DUP3 ADD MSTORE SWAP1 PUSH1 0x20 SWAP1 DUP3 SWAP1 PUSH1 0x64 SWAP1 DUP3 SWAP1 PUSH1 0x0 SWAP1 PUSH1 0x1 PUSH1 0x1 PUSH1 0xA0 SHL SUB AND GAS CALL SWAP1 DUP2 ISZERO PUSH2 0x227 JUMPI PUSH1 0x0 SWAP2 PUSH2 0x1181 JUMPI JUMPDEST POP ISZERO PUSH2 0x1145 JUMPI PUSH1 0x40 MLOAD PUSH2 0x120 DUP2 ADD DUP2 DUP2 LT PUSH8 0xFFFFFFFFFFFFFFFF DUP3 GT OR PUSH2 0x1057 JUMPI PUSH1 0x40 MSTORE CALLER DUP2 MSTORE DUP2 PUSH1 0x20 DUP3 ADD MSTORE PUSH2 0x3E8 PUSH1 0x40 DUP3 ADD MSTORE PUSH1 0x0 PUSH1 0x60 DUP3 ADD MSTORE PUSH1 0x0 PUSH1 0x80 DUP3 ADD MSTORE PUSH1 0x24 CALLDATALOAD PUSH1 0xA0 DUP3 ADD MSTORE PUSH1 0x0 PUSH1 0xC0 DUP3 ADD MSTORE PUSH1 0x1 PUSH1 0xE0 DUP3 ADD MSTORE PUSH1 0x40 MLOAD PUSH2 0xE5E PUSH1 0x20 PUSH1 0x1F NOT PUSH1 0x1F DUP8 PUSH1 0x4 ADD CALLDATALOAD ADD AND ADD DUP3 PUSH2 0x1372 JUMP JUMPDEST PUSH1 0x4 DUP5 ADD CALLDATALOAD DUP1 DUP3 MSTORE PUSH1 0x24 DUP6 ADD PUSH1 0x20 DUP4 ADD CALLDATACOPY PUSH1 0x0 PUSH1 0x20 DUP6 PUSH1 0x4 ADD CALLDATALOAD DUP4 ADD ADD MSTORE PUSH2 0x100 DUP3 ADD MSTORE CALLER PUSH1 0x0 MSTORE PUSH1 0x5 PUSH1 0x20 MSTORE PUSH1 0x40 PUSH1 0x0 KECCAK256 SWAP1 PUSH1 0x1 DUP1 PUSH1 0xA0 SHL SUB DUP2 MLOAD AND SWAP1 DUP3 SLOAD PUSH1 0x20 DUP3 ADD MLOAD SWAP3 PUSH1 0x5 DUP5 LT ISZERO PUSH2 0x112F JUMPI PUSH2 0x100 SWAP4 PUSH1 0xFF PUSH1 0xA0 SHL SWAP1 PUSH1 0xA0 SHL AND SWAP2 PUSH11 0xFFFFFFFFFFFFFFFFFFFFFF PUSH1 0xA8 SHL AND OR OR DUP4 SSTORE PUSH1 0x40 DUP2 ADD MLOAD PUSH1 0x1 DUP5 ADD SSTORE PUSH1 0x60 DUP2 ADD MLOAD PUSH1 0x2 DUP5 ADD SSTORE PUSH1 0x80 DUP2 ADD MLOAD PUSH1 0x3 DUP5 ADD SSTORE PUSH1 0xA0 DUP2 ADD MLOAD PUSH1 0x4 DUP5 ADD SSTORE PUSH1 0xC0 DUP2 ADD MLOAD PUSH1 0x5 DUP5 ADD SSTORE PUSH1 0x6 DUP4 ADD PUSH1 0xE0 DUP3 ADD MLOAD ISZERO ISZERO PUSH1 0xFF DUP1 NOT DUP4 SLOAD AND SWAP2 AND OR SWAP1 SSTORE ADD MLOAD DUP1 MLOAD SWAP1 PUSH8 0xFFFFFFFFFFFFFFFF DUP3 GT PUSH2 0x1057 JUMPI PUSH2 0xF3A PUSH1 0x7 DUP5 ADD SLOAD PUSH2 0x131C JUMP JUMPDEST PUSH1 0x1F DUP2 GT PUSH2 0x10E8 JUMPI JUMPDEST POP PUSH1 0x20 SWAP1 PUSH1 0x1F DUP4 GT PUSH1 0x1 EQ PUSH2 0x1078 JUMPI PUSH1 0x7 SWAP3 SWAP2 PUSH1 0x0 SWAP2 DUP4 PUSH2 0x106D JUMPI JUMPDEST POP POP DUP2 PUSH1 0x1 SHL SWAP2 PUSH1 0x0 NOT SWAP1 PUSH1 0x3 SHL SHR NOT AND OR SWAP2 ADD SSTORE JUMPDEST PUSH1 0x6 SLOAD SWAP1 PUSH9 0x10000000000000000 DUP3 LT ISZERO PUSH2 0x1057 JUMPI PUSH2 0xFBB DUP3 PUSH1 0x1 PUSH32 0x7721366EE4CE7A2CF0A8B69C0F4036D07298126F885E3CB106F39811D01BF5E5 SWAP5 ADD PUSH1 0x6 SSTORE PUSH2 0x1279 JUMP JUMPDEST DUP2 SLOAD SWAP1 PUSH1 0x3 SHL SWAP1 CALLER DUP3 SHL SWAP2 PUSH1 0x1 DUP1 PUSH1 0xA0 SHL SUB SWAP1 SHL NOT AND OR SWAP1 SSTORE PUSH2 0xFE1 PUSH1 0x40 MLOAD DUP1 SWAP3 PUSH2 0x1394 JUMP JUMPDEST PUSH1 0x40 PUSH1 0x20 DUP3 ADD MSTORE DUP3 PUSH1 0x4 ADD CALLDATALOAD PUSH1 0x40 DUP3 ADD MSTORE DUP3 PUSH1 0x4 ADD CALLDATALOAD PUSH1 0x24 DUP5 ADD PUSH1 0x60 DUP4 ADD CALLDATACOPY PUSH1 0x0 PUSH1 0x60 DUP5 PUSH1 0x4 ADD CALLDATALOAD DUP4 ADD ADD MSTORE PUSH1 0x60 DUP2 CALLER SWAP5 PUSH1 0x1F DUP1 NOT SWAP2 PUSH1 0x4 ADD CALLDATALOAD ADD AND DUP2 ADD SUB ADD SWAP1 LOG2 PUSH1 0x40 MLOAD PUSH1 0x24 CALLDATALOAD DUP2 MSTORE PUSH32 0x66250AB67BDDE5237A4F3F6AE11B39DA8CD2E3C2E2073DCACB568F309CD68FC6 PUSH1 0x20 CALLER SWAP3 LOG2 PUSH1 0x1 DUP1 SSTORE STOP JUMPDEST PUSH4 0x4E487B71 PUSH1 0xE0 SHL PUSH1 0x0 MSTORE PUSH1 0x41 PUSH1 0x4 MSTORE PUSH1 0x24 PUSH1 0x0 REVERT JUMPDEST ADD MLOAD SWAP1 POP DUP7 DUP1 PUSH2 0xF5F JUMP JUMPDEST SWAP1 PUSH1 0x7 DUP5 ADD PUSH1 0x0 MSTORE PUSH1 0x20 PUSH1 0x0 KECCAK256 SWAP2 PUSH1 0x0 JUMPDEST PUSH1 0x1F NOT DUP6 AND DUP2 LT PUSH2 0x10D0 JUMPI POP SWAP2 DUP4 SWAP2 PUSH1 0x1 SWAP4 PUSH1 0x7 SWAP6 PUSH1 0x1F NOT DUP2 AND LT PUSH2 0x10B7 JUMPI JUMPDEST POP POP POP DUP2 SHL ADD SWAP2 ADD SSTORE PUSH2 0xF75 JUMP JUMPDEST ADD MLOAD PUSH1 0x0 NOT PUSH1 0xF8 DUP5 PUSH1 0x3 SHL AND SHR NOT AND SWAP1 SSTORE DUP7 DUP1 DUP1 PUSH2 0x10A9 JUMP JUMPDEST SWAP2 SWAP3 PUSH1 0x20 PUSH1 0x1 DUP2 SWAP3 DUP7 DUP6 ADD MLOAD DUP2 SSTORE ADD SWAP5 ADD SWAP3 ADD PUSH2 0x1089 JUMP JUMPDEST PUSH1 0x7 DUP5 ADD PUSH1 0x0 MSTORE PUSH1 0x20 PUSH1 0x0 KECCAK256 PUSH1 0x1F DUP5 ADD PUSH1 0x5 SHR DUP2 ADD PUSH1 0x20 DUP6 LT PUSH2 0x1128 JUMPI JUMPDEST PUSH1 0x1F DUP4 ADD PUSH1 0x5 SHR DUP3 ADD DUP2 LT PUSH2 0x111C JUMPI POP POP PUSH2 0xF43 JUMP JUMPDEST PUSH1 0x0 DUP2 SSTORE PUSH1 0x1 ADD PUSH2 0x1106 JUMP JUMPDEST POP DUP1 PUSH2 0x1106 JUMP JUMPDEST PUSH4 0x4E487B71 PUSH1 0xE0 SHL PUSH1 0x0 MSTORE PUSH1 0x21 PUSH1 0x4 MSTORE PUSH1 0x24 PUSH1 0x0 REVERT JUMPDEST PUSH1 0x40 MLOAD PUSH3 0x461BCD PUSH1 0xE5 SHL DUP2 MSTORE PUSH1 0x20 PUSH1 0x4 DUP3 ADD MSTORE PUSH1 0x14 PUSH1 0x24 DUP3 ADD MSTORE PUSH20 0x14D15054C81D1C985B9CD9995C8819985A5B1959 PUSH1 0x62 SHL PUSH1 0x44 DUP3 ADD MSTORE PUSH1 0x64 SWAP1 REVERT JUMPDEST SWAP1 POP PUSH1 0x20 DUP2 RETURNDATASIZE PUSH1 0x20 GT PUSH2 0x11B3 JUMPI JUMPDEST DUP2 PUSH2 0x119C PUSH1 0x20 SWAP4 DUP4 PUSH2 0x1372 JUMP JUMPDEST DUP2 ADD SUB SLT PUSH2 0x21B JUMPI PUSH2 0x11AD SWAP1 PUSH2 0x13A1 JUMP JUMPDEST DUP4 PUSH2 0xDEA JUMP JUMPDEST RETURNDATASIZE SWAP2 POP PUSH2 0x118F JUMP JUMPDEST PUSH1 0x40 MLOAD PUSH3 0x461BCD PUSH1 0xE5 SHL DUP2 MSTORE PUSH1 0x20 PUSH1 0x4 DUP3 ADD MSTORE PUSH1 0x10 PUSH1 0x24 DUP3 ADD MSTORE PUSH16 0x416C69617320312D3230206368617273 PUSH1 0x80 SHL PUSH1 0x44 DUP3 ADD MSTORE PUSH1 0x64 SWAP1 REVERT JUMPDEST POP PUSH1 0x14 DUP3 PUSH1 0x4 ADD CALLDATALOAD GT ISZERO PUSH2 0xD97 JUMP JUMPDEST PUSH1 0x40 MLOAD PUSH3 0x461BCD PUSH1 0xE5 SHL DUP2 MSTORE PUSH1 0x20 PUSH1 0x4 DUP3 ADD MSTORE PUSH1 0x15 PUSH1 0x24 DUP3 ADD MSTORE PUSH21 0x135A5B880C4C0C0814D15054C81C995C5D5A5C9959 PUSH1 0x5A SHL PUSH1 0x44 DUP3 ADD MSTORE PUSH1 0x64 SWAP1 REVERT JUMPDEST PUSH1 0x40 MLOAD PUSH3 0x461BCD PUSH1 0xE5 SHL DUP2 MSTORE PUSH1 0x20 PUSH1 0x4 DUP3 ADD MSTORE PUSH1 0x12 PUSH1 0x24 DUP3 ADD MSTORE PUSH18 0x105B1C9958591E481C9959DA5CDD195C9959 PUSH1 0x72 SHL PUSH1 0x44 DUP3 ADD MSTORE PUSH1 0x64 SWAP1 REVERT JUMPDEST PUSH1 0x6 SLOAD DUP2 LT ISZERO PUSH2 0x12B0 JUMPI PUSH1 0x6 PUSH1 0x0 MSTORE PUSH32 0xF652222313E28459528D920B65115C16C04F3EFC82AAEDC97BE59F3F377C0D3F ADD SWAP1 PUSH1 0x0 SWAP1 JUMP JUMPDEST PUSH4 0x4E487B71 PUSH1 0xE0 SHL PUSH1 0x0 MSTORE PUSH1 0x32 PUSH1 0x4 MSTORE PUSH1 0x24 PUSH1 0x0 REVERT JUMPDEST PUSH1 0x4 CALLDATALOAD SWAP1 PUSH1 0x1 PUSH1 0x1 PUSH1 0xA0 SHL SUB DUP3 AND DUP3 SUB PUSH2 0x21B JUMPI JUMP JUMPDEST SWAP2 SWAP1 DUP3 MLOAD SWAP3 DUP4 DUP3 MSTORE PUSH1 0x0 JUMPDEST DUP5 DUP2 LT PUSH2 0x1308 JUMPI POP POP DUP3 PUSH1 0x0 PUSH1 0x20 DUP1 SWAP5 SWAP6 DUP5 ADD ADD MSTORE PUSH1 0x1F DUP1 NOT SWAP2 ADD AND ADD ADD SWAP1 JUMP JUMPDEST PUSH1 0x20 DUP2 DUP4 ADD DUP2 ADD MLOAD DUP5 DUP4 ADD DUP3 ADD MSTORE ADD PUSH2 0x12E7 JUMP JUMPDEST SWAP1 PUSH1 0x1 DUP3 DUP2 SHR SWAP3 AND DUP1 ISZERO PUSH2 0x134C JUMPI JUMPDEST PUSH1 0x20 DUP4 LT EQ PUSH2 0x1336 JUMPI JUMP JUMPDEST PUSH4 0x4E487B71 PUSH1 0xE0 SHL PUSH1 0x0 MSTORE PUSH1 0x22 PUSH1 0x4 MSTORE PUSH1 0x24 PUSH1 0x0 REVERT JUMPDEST SWAP2 PUSH1 0x7F AND SWAP2 PUSH2 0x132B JUMP JUMPDEST PUSH1 0x40 DUP2 ADD SWAP1 DUP2 LT PUSH8 0xFFFFFFFFFFFFFFFF DUP3 GT OR PUSH2 0x1057 JUMPI PUSH1 0x40 MSTORE JUMP JUMPDEST SWAP1 PUSH1 0x1F DUP1 NOT SWAP2 ADD AND DUP2 ADD SWAP1 DUP2 LT PUSH8 0xFFFFFFFFFFFFFFFF DUP3 GT OR PUSH2 0x1057 JUMPI PUSH1 0x40 MSTORE JUMP JUMPDEST SWAP1 PUSH1 0x5 DUP3 LT ISZERO PUSH2 0x112F JUMPI MSTORE JUMP JUMPDEST MLOAD SWAP1 DUP2 ISZERO ISZERO DUP3 SUB PUSH2 0x21B JUMPI JUMP JUMPDEST ISZERO PUSH2 0x13B5 JUMPI JUMP JUMPDEST PUSH1 0x40 MLOAD PUSH3 0x461BCD PUSH1 0xE5 SHL DUP2 MSTORE PUSH1 0x20 PUSH1 0x4 DUP3 ADD MSTORE PUSH1 0xE PUSH1 0x24 DUP3 ADD MSTORE PUSH14 0x139BDD081C9959DA5CDD195C9959 PUSH1 0x92 SHL PUSH1 0x44 DUP3 ADD MSTORE PUSH1 0x64 SWAP1 REVERT JUMPDEST ISZERO PUSH2 0x13F2 JUMPI JUMP JUMPDEST PUSH1 0x40 MLOAD PUSH3 0x461BCD PUSH1 0xE5 SHL DUP2 MSTORE PUSH1 0x20 PUSH1 0x4 DUP3 ADD MSTORE PUSH1 0xF PUSH1 0x24 DUP3 ADD MSTORE PUSH15 0x151C985B9CD9995C8819985A5B1959 PUSH1 0x8A SHL PUSH1 0x44 DUP3 ADD MSTORE PUSH1 0x64 SWAP1 REVERT JUMPDEST SWAP2 SWAP1 DUP3 ADD DUP1 SWAP3 GT PUSH2 0x278 JUMPI JUMP JUMPDEST ISZERO PUSH2 0x143D JUMPI JUMP JUMPDEST PUSH1 0x40 MLOAD PUSH3 0x461BCD PUSH1 0xE5 SHL DUP2 MSTORE PUSH1 0x20 PUSH1 0x4 DUP3 ADD MSTORE PUSH1 0x10 PUSH1 0x24 DUP3 ADD MSTORE PUSH16 0x4167656E74206E6F7420616374697665 PUSH1 0x80 SHL PUSH1 0x44 DUP3 ADD MSTORE PUSH1 0x64 SWAP1 REVERT JUMPDEST PUSH1 0x1 PUSH1 0x1 PUSH1 0xA0 SHL SUB SWAP1 DUP2 AND PUSH1 0x0 DUP2 DUP2 MSTORE PUSH1 0x5 PUSH1 0x20 MSTORE PUSH1 0x40 DUP2 KECCAK256 PUSH1 0x6 DUP2 ADD SLOAD SWAP1 SWAP4 SWAP1 PUSH2 0x14A2 SWAP1 PUSH1 0xFF AND PUSH2 0x1436 JUMP JUMPDEST PUSH1 0x2 SLOAD AND SWAP2 PUSH1 0x40 MLOAD SWAP3 DUP4 SWAP2 PUSH4 0x45E03B73 PUSH1 0xE1 SHL DUP4 MSTORE PUSH1 0x4 DUP4 ADD MSTORE DUP2 PUSH1 0x24 PUSH2 0x100 SWAP6 DUP7 SWAP4 GAS STATICCALL SWAP1 DUP2 ISZERO PUSH2 0x15E2 JUMPI DUP3 SWAP1 DUP4 SWAP3 DUP5 DUP1 SWAP3 DUP2 SWAP8 DUP3 SWAP4 PUSH2 0x157B JUMPI JUMPDEST POP POP PUSH1 0xFF DUP9 SLOAD PUSH1 0xA0 SHR AND SWAP1 PUSH1 0x5 DUP3 LT ISZERO PUSH2 0x1567 JUMPI POP DUP1 PUSH2 0x1508 JUMPI POP POP POP PUSH2 0x1504 SWAP5 PUSH2 0x1A03 JUMP JUMPDEST SWAP1 SWAP2 JUMP JUMPDEST SWAP2 SWAP5 SWAP4 SWAP3 SWAP2 PUSH1 0x1 DUP2 SUB PUSH2 0x1522 JUMPI POP POP POP POP PUSH2 0x1504 SWAP4 PUSH2 0x195C JUMP JUMPDEST SWAP4 SWAP6 SWAP3 SWAP5 POP SWAP1 SWAP3 PUSH1 0x2 DUP2 SUB PUSH2 0x153D JUMPI POP POP POP PUSH2 0x1504 SWAP4 PUSH2 0x184D JUMP JUMPDEST PUSH1 0x3 SWAP1 SWAP6 SWAP4 SWAP2 SWAP5 SWAP3 SWAP6 EQ PUSH1 0x0 EQ PUSH2 0x155A JUMPI POP POP POP PUSH2 0x1504 SWAP3 PUSH2 0x17AE JUMP JUMPDEST SWAP1 SWAP2 SWAP3 POP PUSH2 0x1504 SWAP5 PUSH2 0x1713 JUMP JUMPDEST PUSH4 0x4E487B71 PUSH1 0xE0 SHL DUP2 MSTORE PUSH1 0x21 PUSH1 0x4 MSTORE PUSH1 0x24 SWAP1 REVERT JUMPDEST SWAP6 POP SWAP7 POP SWAP5 POP POP POP POP DUP3 DUP2 RETURNDATASIZE DUP4 GT PUSH2 0x15DB JUMPI JUMPDEST PUSH2 0x1598 DUP2 DUP4 PUSH2 0x1372 JUMP JUMPDEST DUP2 ADD SUB SLT PUSH2 0x15D8 JUMPI DUP2 MLOAD PUSH1 0x20 DUP4 ADD MLOAD PUSH1 0x40 DUP5 ADD MLOAD SWAP2 PUSH1 0x60 DUP6 ADD MLOAD SWAP4 PUSH1 0x80 DUP7 ADD MLOAD SWAP2 PUSH2 0x15CA PUSH1 0xE0 PUSH1 0xA0 DUP10 ADD MLOAD SWAP9 ADD PUSH2 0x13A1 JUMP JUMPDEST POP SWAP3 SWAP4 SWAP5 SWAP2 SWAP6 SWAP1 CODESIZE DUP1 PUSH2 0x14DE JUMP JUMPDEST DUP1 REVERT JUMPDEST POP RETURNDATASIZE PUSH2 0x158E JUMP JUMPDEST PUSH1 0x40 MLOAD RETURNDATASIZE DUP5 DUP3 RETURNDATACOPY RETURNDATASIZE SWAP1 REVERT JUMPDEST PUSH8 0xFFFFFFFFFFFFFFFF DUP2 GT PUSH2 0x1057 JUMPI PUSH1 0x5 SHL PUSH1 0x20 ADD SWAP1 JUMP JUMPDEST DUP1 MLOAD DUP3 LT ISZERO PUSH2 0x12B0 JUMPI PUSH1 0x20 SWAP2 PUSH1 0x5 SHL ADD ADD SWAP1 JUMP JUMPDEST SWAP2 SWAP1 DUP3 SUB SWAP2 DUP3 GT PUSH2 0x278 JUMPI JUMP JUMPDEST PUSH1 0x2 PUSH1 0x1 SLOAD EQ PUSH2 0x1637 JUMPI PUSH1 0x2 PUSH1 0x1 SSTORE JUMP JUMPDEST PUSH1 0x40 MLOAD PUSH4 0x3EE5AEB5 PUSH1 0xE0 SHL DUP2 MSTORE PUSH1 0x4 SWAP1 REVERT JUMPDEST PUSH1 0x0 SLOAD PUSH1 0x1 PUSH1 0x1 PUSH1 0xA0 SHL SUB AND CALLER SUB PUSH2 0x165D JUMPI JUMP JUMPDEST PUSH1 0x40 MLOAD PUSH4 0x118CDAA7 PUSH1 0xE0 SHL DUP2 MSTORE CALLER PUSH1 0x4 DUP3 ADD MSTORE PUSH1 0x24 SWAP1 REVERT JUMPDEST PUSH1 0x40 MLOAD SWAP1 PUSH2 0x1682 DUP3 PUSH2 0x1356 JUMP JUMPDEST PUSH1 0xB DUP3 MSTORE PUSH11 0x7265706169725F7368697 PUSH1 0xAC SHL PUSH1 0x20 DUP4 ADD MSTORE JUMP JUMPDEST PUSH1 0x40 MLOAD SWAP1 PUSH2 0x16A9 DUP3 PUSH2 0x1356 JUMP JUMPDEST PUSH1 0x9 DUP3 MSTORE PUSH9 0x636C61696D5F67706D PUSH1 0xB8 SHL PUSH1 0x20 DUP4 ADD MSTORE JUMP JUMPDEST PUSH1 0x40 MLOAD SWAP1 PUSH2 0x16CE DUP3 PUSH2 0x1356 JUMP JUMPDEST PUSH1 0xE DUP3 MSTORE PUSH14 0x757067726164655F61747461636B PUSH1 0x90 SHL PUSH1 0x20 DUP4 ADD MSTORE JUMP JUMPDEST PUSH1 0x40 MLOAD SWAP1 PUSH2 0x16F8 DUP3 PUSH2 0x1356 JUMP JUMPDEST PUSH1 0xC DUP3 MSTORE PUSH12 0x77616765725F626174746C65 PUSH1 0xA0 SHL PUSH1 0x20 DUP4 ADD MSTORE JUMP JUMPDEST SWAP4 SWAP1 SWAP2 SWAP3 PUSH1 0x46 GT PUSH2 0x17A2 JUMPI PUSH2 0x12C GT PUSH2 0x1797 JUMPI LT PUSH2 0x1788 JUMPI PUSH1 0x4 ADD SLOAD PUSH1 0xF DUP2 MUL SWAP1 DUP1 DUP3 DIV PUSH1 0xF EQ SWAP1 ISZERO OR ISZERO PUSH2 0x278 JUMPI PUSH1 0x64 SWAP1 DIV SWAP1 PUSH8 0x8AC7230489E80000 DUP1 DUP4 LT PUSH2 0x1780 JUMPI JUMPDEST POP PUSH9 0x3635C9ADC5DEA00000 DUP1 DUP4 GT PUSH2 0x1778 JUMPI JUMPDEST POP PUSH2 0x1774 PUSH2 0x16EB JUMP JUMPDEST SWAP2 SWAP1 JUMP JUMPDEST SWAP2 POP CODESIZE PUSH2 0x176B JUMP JUMPDEST SWAP2 POP CODESIZE PUSH2 0x1758 JUMP JUMPDEST POP PUSH2 0x1791 PUSH2 0x16C1 JUMP JUMPDEST SWAP1 PUSH1 0x0 SWAP1 JUMP JUMPDEST POP POP POP PUSH2 0x1791 PUSH2 0x169C JUMP JUMPDEST POP POP POP POP PUSH2 0x1791 PUSH2 0x1675 JUMP JUMPDEST SWAP1 PUSH1 0x32 GT PUSH2 0x1823 JUMPI PUSH1 0x4 ADD SLOAD PUSH1 0xF DUP2 MUL SWAP1 DUP1 DUP3 DIV PUSH1 0xF EQ SWAP1 ISZERO OR ISZERO PUSH2 0x278 JUMPI PUSH1 0x64 SWAP1 DIV SWAP1 PUSH8 0x8AC7230489E80000 DUP1 DUP4 LT PUSH2 0x181B JUMPI JUMPDEST POP PUSH9 0x3635C9ADC5DEA00000 DUP1 DUP4 GT PUSH2 0x1811 JUMPI JUMPDEST POP PUSH2 0x12C LT PUSH2 0x1808 JUMPI POP PUSH2 0x1791 PUSH2 0x169C JUMP JUMPDEST SWAP1 PUSH2 0x1774 PUSH2 0x16EB JUMP JUMPDEST SWAP2 POP PUSH2 0x12C PUSH2 0x17F6 JUMP JUMPDEST SWAP2 POP CODESIZE PUSH2 0x17E3 JUMP JUMPDEST POP POP PUSH1 0x40 MLOAD PUSH2 0x1831 DUP2 PUSH2 0x1356 JUMP JUMPDEST PUSH1 0x9 DUP2 MSTORE PUSH9 0x686972655F63726577 PUSH1 0xB8 SHL PUSH1 0x20 DUP3 ADD MSTORE SWAP1 PUSH1 0x0 SWAP1 JUMP JUMPDEST SWAP1 SWAP2 SWAP3 PUSH1 0x3C GT PUSH2 0x1951 JUMPI PUSH1 0x2 DUP2 ADD SLOAD PUSH2 0x186A PUSH1 0x3 DUP4 ADD SLOAD DUP3 PUSH2 0x1429 JUMP JUMPDEST SWAP1 DUP2 ISZERO DUP1 PUSH2 0x1946 JUMPI PUSH2 0x2710 SWAP2 DUP3 DUP2 MUL SWAP3 DUP2 DUP5 DIV EQ SWAP1 ISZERO OR ISZERO PUSH2 0x278 JUMPI PUSH2 0x1930 JUMPI DIV JUMPDEST PUSH2 0x1770 DUP2 GT ISZERO PUSH2 0x1911 JUMPI POP PUSH1 0x4 PUSH1 0xFF PUSH1 0x14 JUMPDEST AND SWAP2 ADD SLOAD DUP2 DUP2 MUL SWAP2 DUP2 DUP4 DIV EQ SWAP1 ISZERO OR ISZERO PUSH2 0x278 JUMPI PUSH1 0x64 SWAP1 DIV SWAP2 PUSH8 0x8AC7230489E80000 DUP1 DUP5 LT PUSH2 0x1909 JUMPI JUMPDEST POP PUSH9 0x3635C9ADC5DEA00000 DUP1 DUP5 GT PUSH2 0x1901 JUMPI JUMPDEST POP PUSH1 0x78 DUP2 MUL SWAP1 DUP1 DUP3 DIV PUSH1 0x78 EQ SWAP1 ISZERO OR ISZERO PUSH2 0x278 JUMPI PUSH1 0x64 SWAP1 DIV LT PUSH2 0x1808 JUMPI POP PUSH2 0x1791 PUSH2 0x16C1 JUMP JUMPDEST SWAP3 POP CODESIZE PUSH2 0x18DB JUMP JUMPDEST SWAP3 POP CODESIZE PUSH2 0x18C8 JUMP JUMPDEST PUSH2 0xFA0 LT ISZERO PUSH2 0x1925 JUMPI PUSH1 0x4 PUSH1 0xFF PUSH1 0xF PUSH2 0x189E JUMP JUMPDEST PUSH1 0x4 PUSH1 0xFF PUSH1 0xA PUSH2 0x189E JUMP JUMPDEST PUSH4 0x4E487B71 PUSH1 0xE0 SHL PUSH1 0x0 MSTORE PUSH1 0x12 PUSH1 0x4 MSTORE PUSH1 0x24 PUSH1 0x0 REVERT JUMPDEST POP POP POP PUSH2 0x1388 PUSH2 0x188C JUMP JUMPDEST POP POP POP PUSH2 0x1791 PUSH2 0x1675 JUMP JUMPDEST SWAP3 SWAP2 DUP1 ISZERO SWAP2 DUP3 ISZERO SWAP3 DUP4 PUSH2 0x19D3 JUMPI JUMPDEST POP POP POP PUSH2 0x19C9 JUMPI PUSH2 0x3E8 LT PUSH2 0x1982 JUMPI POP PUSH2 0x1791 PUSH2 0x169C JUMP JUMPDEST PUSH1 0x4 ADD SLOAD PUSH1 0x5 DUP2 MUL SWAP1 DUP1 DUP3 DIV PUSH1 0x5 EQ SWAP1 ISZERO OR ISZERO PUSH2 0x278 JUMPI PUSH1 0x64 SWAP1 DIV SWAP1 PUSH8 0x8AC7230489E80000 DUP1 DUP4 LT PUSH2 0x1780 JUMPI POP PUSH9 0x3635C9ADC5DEA00000 DUP1 DUP4 GT PUSH2 0x1778 JUMPI POP PUSH2 0x1774 PUSH2 0x16EB JUMP JUMPDEST POP POP PUSH2 0x1791 PUSH2 0x1675 JUMP JUMPDEST SWAP1 SWAP2 SWAP3 POP PUSH1 0x64 DUP3 MUL SWAP2 DUP1 DUP4 DIV PUSH1 0x64 EQ SWAP1 ISZERO OR ISZERO PUSH2 0x278 JUMPI PUSH1 0x46 DUP4 MUL SWAP3 DUP4 DIV PUSH1 0x46 EQ OR ISZERO PUSH2 0x278 JUMPI LT CODESIZE DUP1 DUP1 PUSH2 0x196A JUMP JUMPDEST SWAP3 PUSH1 0x32 GT PUSH2 0x17A2 JUMPI LT ISZERO DUP1 PUSH2 0x1A76 JUMPI JUMPDEST PUSH2 0x1A2F JUMPI POP PUSH1 0xC8 GT PUSH2 0x1A27 JUMPI PUSH2 0x1791 PUSH2 0x16C1 JUMP JUMPDEST PUSH2 0x1791 PUSH2 0x169C JUMP JUMPDEST PUSH1 0x4 ADD SLOAD PUSH1 0x19 DUP1 DUP3 MUL SWAP3 POP DUP2 ISZERO SWAP2 DUP4 DIV EQ OR ISZERO PUSH2 0x278 JUMPI PUSH1 0x64 SWAP1 DIV SWAP1 PUSH8 0x8AC7230489E80000 DUP1 DUP4 LT PUSH2 0x1780 JUMPI POP PUSH9 0x3635C9ADC5DEA00000 DUP1 DUP4 GT PUSH2 0x1778 JUMPI POP PUSH2 0x1774 PUSH2 0x16EB JUMP JUMPDEST POP PUSH2 0x1F4 DUP3 GT PUSH2 0x1A13 JUMP INVALID LOG2 PUSH5 0x6970667358 0x22 SLT KECCAK256 0xE5 PUSH11 0x913EA8CE11B472E39F8A59 STATICCALL 0xAA SWAP16 SGT CALLER PUSH30 0xD982037AE7E4F978A1FA8BAFF664736F6C63430008180033000000000000 "},"methodIdentifiers":{"agentList(uint256)":"2f80c54f","agents(address)":"fd66091e","depositBankroll(uint256)":"771dec1e","gameContract()":"d3f33009","getAgentCount()":"91cab63e","getAgentDecision(address)":"7c6c060c","getAgentStats(address)":"b5695b38","getLeaderboard(uint256)":"a34b46fe","isRegistered(address)":"c3c5a547","owner()":"8da5cb5b","registerAgent(uint8,uint256,string)":"0331053d","renounceOwnership()":"715018a6","seasToken()":"43a02ff0","setWagerArena(address)":"6751d283","transferOwnership(address)":"f2fde38b","updateAfterMatch(address,bool,uint256)":"cac39f24","wagerArena()":"df04517f","withdrawProfits(uint256)":"ff8c94a8"}}}}}