{"contracts/MantleArmada.sol":{"MantleArmada":{"abi":[{"inputs":[],"stateMutability":"nonpayable","type":"constructor"},{"inputs":[{"internalType":"address","name":"owner","type":"address"}],"name":"OwnableInvalidOwner","type":"error"},{"inputs":[{"internalType":"address","name":"account","type":"address"}],"name":"OwnableUnauthorizedAccount","type":"error"},{"inputs":[],"name":"ReentrancyGuardReentrantCall","type":"error"},{"anonymous":false,"inputs":[{"indexed":true,"internalType":"address","name":"user","type":"address"},{"indexed":false,"internalType":"string","name":"boatName","type":"string"},{"indexed":false,"internalType":"bool","name":"isPirate","type":"bool"}],"name":"AccountCreated","type":"event"},{"anonymous":false,"inputs":[{"indexed":true,"internalType":"address","name":"arena","type":"address"}],"name":"ArenaContractSet","type":"event"},{"anonymous":false,"inputs":[{"indexed":true,"internalType":"address","name":"user","type":"address"},{"indexed":false,"internalType":"uint256","name":"amount","type":"uint256"},{"indexed":false,"internalType":"string","name":"reason","type":"string"}],"name":"ArmadaTokenMinted","type":"event"},{"anonymous":false,"inputs":[{"indexed":true,"internalType":"address","name":"user","type":"address"},{"indexed":false,"internalType":"uint256","name":"xp","type":"uint256"},{"indexed":false,"internalType":"string","name":"action","type":"string"}],"name":"BattlePassXPGained","type":"event"},{"anonymous":false,"inputs":[{"indexed":true,"internalType":"address","name":"user","type":"address"},{"indexed":false,"internalType":"uint256","name":"streak","type":"uint256"},{"indexed":false,"internalType":"uint256","name":"reward","type":"uint256"}],"name":"CheckIn","type":"event"},{"anonymous":false,"inputs":[{"indexed":true,"internalType":"address","name":"user","type":"address"},{"indexed":false,"internalType":"uint256","name":"crewHired","type":"uint256"},{"indexed":false,"internalType":"uint256","name":"cost","type":"uint256"}],"name":"CrewHired","type":"event"},{"anonymous":false,"inputs":[{"indexed":true,"internalType":"address","name":"agent1","type":"address"},{"indexed":true,"internalType":"address","name":"agent2","type":"address"},{"indexed":true,"internalType":"address","name":"winner","type":"address"},{"indexed":false,"internalType":"uint256","name":"rounds","type":"uint256"}],"name":"DuelExecuted","type":"event"},{"anonymous":false,"inputs":[{"indexed":true,"internalType":"address","name":"user","type":"address"},{"indexed":false,"internalType":"uint256","name":"amount","type":"uint256"},{"indexed":false,"internalType":"uint256","name":"timeElapsed","type":"uint256"}],"name":"GPMClaimed","type":"event"},{"anonymous":false,"inputs":[{"indexed":true,"internalType":"address","name":"member","type":"address"},{"indexed":false,"internalType":"uint256","name":"amount","type":"uint256"}],"name":"GuildTreasuryUpdated","type":"event"},{"anonymous":false,"inputs":[{"indexed":true,"internalType":"address","name":"previousOwner","type":"address"},{"indexed":true,"internalType":"address","name":"newOwner","type":"address"}],"name":"OwnershipTransferred","type":"event"},{"anonymous":false,"inputs":[{"indexed":true,"internalType":"address","name":"player","type":"address"},{"indexed":false,"internalType":"string","name":"referralCode","type":"string"}],"name":"ReferralCodeGenerated","type":"event"},{"anonymous":false,"inputs":[{"indexed":true,"internalType":"address","name":"referrer","type":"address"},{"indexed":true,"internalType":"address","name":"referee","type":"address"},{"indexed":false,"internalType":"string","name":"referralCode","type":"string"}],"name":"ReferralUsed","type":"event"},{"anonymous":false,"inputs":[{"indexed":true,"internalType":"address","name":"attacker","type":"address"},{"indexed":true,"internalType":"address","name":"defender","type":"address"},{"indexed":false,"internalType":"bool","name":"destroyed","type":"bool"}],"name":"ShipAttacked","type":"event"},{"anonymous":false,"inputs":[{"indexed":true,"internalType":"address","name":"user","type":"address"},{"indexed":false,"internalType":"uint256","name":"repairType","type":"uint256"},{"indexed":false,"internalType":"uint256","name":"cost","type":"uint256"},{"indexed":false,"internalType":"uint256","name":"waitTime","type":"uint256"}],"name":"ShipRepaired","type":"event"},{"anonymous":false,"inputs":[{"indexed":true,"internalType":"address","name":"user","type":"address"},{"indexed":false,"internalType":"uint256","name":"toLocation","type":"uint256"},{"indexed":false,"internalType":"uint256","name":"arriveAt","type":"uint256"},{"indexed":false,"internalType":"bool","name":"fast","type":"bool"}],"name":"TravelStarted","type":"event"},{"anonymous":false,"inputs":[{"indexed":true,"internalType":"uint256","name":"id","type":"uint256"},{"indexed":false,"internalType":"string","name":"name","type":"string"}],"name":"UpgradeAdded","type":"event"},{"anonymous":false,"inputs":[{"indexed":true,"internalType":"address","name":"user","type":"address"},{"indexed":true,"internalType":"uint256","name":"id","type":"uint256"}],"name":"UpgradePurchased","type":"event"},{"inputs":[{"internalType":"address","name":"","type":"address"}],"name":"accounts","outputs":[{"internalType":"string","name":"boatName","type":"string"},{"internalType":"bool","name":"isPirate","type":"bool"},{"internalType":"uint256","name":"gold","type":"uint256"},{"internalType":"uint256","name":"diamonds","type":"uint256"},{"internalType":"uint256","name":"hp","type":"uint256"},{"internalType":"uint256","name":"maxHp","type":"uint256"},{"internalType":"uint256","name":"speed","type":"uint256"},{"internalType":"uint256","name":"attack","type":"uint256"},{"internalType":"uint256","name":"defense","type":"uint256"},{"internalType":"uint256","name":"crew","type":"uint256"},{"internalType":"uint256","name":"maxCrew","type":"uint256"},{"internalType":"uint256","name":"location","type":"uint256"},{"internalType":"uint256","name":"gpm","type":"uint256"},{"internalType":"uint256","name":"lastCheckIn","type":"uint256"},{"internalType":"uint256","name":"checkInStreak","type":"uint256"},{"internalType":"uint256","name":"lastWrecked","type":"uint256"},{"internalType":"uint256","name":"travelEnd","type":"uint256"},{"internalType":"uint256","name":"lastGPMClaim","type":"uint256"},{"internalType":"uint256","name":"repairEnd","type":"uint256"}],"stateMutability":"view","type":"function"},{"inputs":[{"internalType":"string","name":"name","type":"string"},{"internalType":"uint256","name":"cost","type":"uint256"},{"internalType":"uint256","name":"gpmBonus","type":"uint256"},{"internalType":"uint256","name":"maxHpBonus","type":"uint256"},{"internalType":"uint256","name":"speedBonus","type":"uint256"},{"internalType":"uint256","name":"attackBonus","type":"uint256"},{"internalType":"uint256","name":"defenseBonus","type":"uint256"},{"internalType":"uint256","name":"maxCrewBonus","type":"uint256"}],"name":"addUpgrade","outputs":[],"stateMutability":"nonpayable","type":"function"},{"inputs":[{"internalType":"address","name":"player","type":"address"},{"internalType":"uint256","name":"amount","type":"uint256"}],"name":"adminAddDiamonds","outputs":[],"stateMutability":"nonpayable","type":"function"},{"inputs":[{"internalType":"address","name":"player","type":"address"},{"internalType":"uint256","name":"amount","type":"uint256"}],"name":"adminAddGold","outputs":[],"stateMutability":"nonpayable","type":"function"},{"inputs":[],"name":"arenaContract","outputs":[{"internalType":"address","name":"","type":"address"}],"stateMutability":"view","type":"function"},{"inputs":[],"name":"armadaToken","outputs":[{"internalType":"contract IArmadaToken","name":"","type":"address"}],"stateMutability":"view","type":"function"},{"inputs":[{"internalType":"address","name":"defender","type":"address"}],"name":"attack","outputs":[],"stateMutability":"nonpayable","type":"function"},{"inputs":[{"internalType":"address[]","name":"defenders","type":"address[]"}],"name":"batchAttack","outputs":[],"stateMutability":"nonpayable","type":"function"},{"inputs":[],"name":"battlePassContract","outputs":[{"internalType":"contract IBattlePass","name":"","type":"address"}],"stateMutability":"view","type":"function"},{"inputs":[{"internalType":"uint256","name":"id","type":"uint256"}],"name":"buyUpgrade","outputs":[],"stateMutability":"nonpayable","type":"function"},{"inputs":[],"name":"checkIn","outputs":[],"stateMutability":"nonpayable","type":"function"},{"inputs":[],"name":"claimGPM","outputs":[],"stateMutability":"nonpayable","type":"function"},{"inputs":[],"name":"completeRepair","outputs":[],"stateMutability":"nonpayable","type":"function"},{"inputs":[{"internalType":"string","name":"_boatName","type":"string"},{"internalType":"bool","name":"_isPirate","type":"bool"},{"internalType":"uint256","name":"_startLocation","type":"uint256"}],"name":"createAccount","outputs":[],"stateMutability":"nonpayable","type":"function"},{"inputs":[{"internalType":"string","name":"_boatName","type":"string"},{"internalType":"bool","name":"_isPirate","type":"bool"},{"internalType":"uint256","name":"_startLocation","type":"uint256"},{"internalType":"string","name":"_referralCode","type":"string"}],"name":"createAccountWithReferral","outputs":[],"stateMutability":"nonpayable","type":"function"},{"inputs":[{"internalType":"address","name":"agent1","type":"address"},{"internalType":"address","name":"agent2","type":"address"}],"name":"executeDuel","outputs":[{"internalType":"address","name":"winner","type":"address"},{"internalType":"uint256","name":"rounds","type":"uint256"}],"stateMutability":"nonpayable","type":"function"},{"inputs":[{"internalType":"address","name":"player","type":"address"}],"name":"getClaimableGold","outputs":[{"internalType":"uint256","name":"","type":"uint256"}],"stateMutability":"view","type":"function"},{"inputs":[{"internalType":"address","name":"player","type":"address"}],"name":"getHireCrewCost","outputs":[{"internalType":"uint256","name":"","type":"uint256"}],"stateMutability":"view","type":"function"},{"inputs":[{"internalType":"address","name":"player","type":"address"}],"name":"getPlayerBattlePower","outputs":[{"internalType":"uint256","name":"","type":"uint256"}],"stateMutability":"view","type":"function"},{"inputs":[{"internalType":"address","name":"player","type":"address"}],"name":"getPlayerReferralCode","outputs":[{"internalType":"string","name":"","type":"string"}],"stateMutability":"view","type":"function"},{"inputs":[{"internalType":"uint256","name":"n","type":"uint256"}],"name":"getRanking","outputs":[{"internalType":"address[]","name":"","type":"address[]"},{"internalType":"uint256[]","name":"","type":"uint256[]"}],"stateMutability":"view","type":"function"},{"inputs":[{"internalType":"address","name":"player","type":"address"}],"name":"getReferralStats","outputs":[{"internalType":"string","name":"referralCode","type":"string"},{"internalType":"address","name":"referrer","type":"address"},{"internalType":"uint256","name":"totalReferrals","type":"uint256"},{"internalType":"uint256","name":"referralRewards","type":"uint256"}],"stateMutability":"view","type":"function"},{"inputs":[{"internalType":"address","name":"player","type":"address"}],"name":"getRepairOptions","outputs":[{"internalType":"uint256[3]","name":"costs","type":"uint256[3]"},{"internalType":"uint256[3]","name":"waitTimes","type":"uint256[3]"}],"stateMutability":"view","type":"function"},{"inputs":[{"internalType":"address","name":"player","type":"address"}],"name":"getShipStats","outputs":[{"internalType":"uint256","name":"atkStat","type":"uint256"},{"internalType":"uint256","name":"defStat","type":"uint256"},{"internalType":"uint256","name":"hp","type":"uint256"},{"internalType":"uint256","name":"maxHp","type":"uint256"},{"internalType":"uint256","name":"gold","type":"uint256"},{"internalType":"uint256","name":"crew","type":"uint256"},{"internalType":"uint256","name":"location","type":"uint256"},{"internalType":"bool","name":"isPirate","type":"bool"}],"stateMutability":"view","type":"function"},{"inputs":[{"internalType":"uint256","name":"loc","type":"uint256"}],"name":"getShipsAt","outputs":[{"internalType":"address[]","name":"","type":"address[]"},{"internalType":"string[]","name":"","type":"string[]"},{"internalType":"uint256[]","name":"","type":"uint256[]"}],"stateMutability":"view","type":"function"},{"inputs":[{"internalType":"address","name":"player","type":"address"}],"name":"getTimeUntilNextGPM","outputs":[{"internalType":"uint256","name":"","type":"uint256"}],"stateMutability":"view","type":"function"},{"inputs":[{"internalType":"uint256","name":"id","type":"uint256"},{"internalType":"address","name":"player","type":"address"}],"name":"getUpgradeCost","outputs":[{"internalType":"uint256","name":"","type":"uint256"}],"stateMutability":"view","type":"function"},{"inputs":[],"name":"guildContract","outputs":[{"internalType":"contract IArmadaGuild","name":"","type":"address"}],"stateMutability":"view","type":"function"},{"inputs":[],"name":"hireCrew","outputs":[],"stateMutability":"nonpayable","type":"function"},{"inputs":[{"internalType":"uint256","name":"location","type":"uint256"}],"name":"isPort","outputs":[{"internalType":"bool","name":"","type":"bool"}],"stateMutability":"pure","type":"function"},{"inputs":[{"internalType":"address","name":"player","type":"address"}],"name":"isRepairReady","outputs":[{"internalType":"bool","name":"","type":"bool"}],"stateMutability":"view","type":"function"},{"inputs":[{"internalType":"string","name":"code","type":"string"}],"name":"isValidReferralCode","outputs":[{"internalType":"bool","name":"","type":"bool"}],"stateMutability":"view","type":"function"},{"inputs":[],"name":"nextUpgradeId","outputs":[{"internalType":"uint256","name":"","type":"uint256"}],"stateMutability":"view","type":"function"},{"inputs":[],"name":"owner","outputs":[{"internalType":"address","name":"","type":"address"}],"stateMutability":"view","type":"function"},{"inputs":[{"internalType":"address","name":"","type":"address"}],"name":"playerReferralCode","outputs":[{"internalType":"string","name":"","type":"string"}],"stateMutability":"view","type":"function"},{"inputs":[{"internalType":"uint256","name":"","type":"uint256"}],"name":"players","outputs":[{"internalType":"address","name":"","type":"address"}],"stateMutability":"view","type":"function"},{"inputs":[{"internalType":"address","name":"","type":"address"},{"internalType":"uint256","name":"","type":"uint256"}],"name":"purchaseCounts","outputs":[{"internalType":"uint256","name":"","type":"uint256"}],"stateMutability":"view","type":"function"},{"inputs":[{"internalType":"string","name":"","type":"string"}],"name":"referralCodes","outputs":[{"internalType":"address","name":"","type":"address"}],"stateMutability":"view","type":"function"},{"inputs":[{"internalType":"address","name":"","type":"address"}],"name":"referralData","outputs":[{"internalType":"address","name":"referrer","type":"address"},{"internalType":"uint256","name":"totalReferrals","type":"uint256"},{"internalType":"uint256","name":"referralRewards","type":"uint256"}],"stateMutability":"view","type":"function"},{"inputs":[],"name":"renounceOwnership","outputs":[],"stateMutability":"nonpayable","type":"function"},{"inputs":[{"internalType":"enum MantleArmada.RepairType","name":"repairType","type":"uint8"}],"name":"repairShip","outputs":[],"stateMutability":"nonpayable","type":"function"},{"inputs":[],"name":"rescueMNT","outputs":[],"stateMutability":"nonpayable","type":"function"},{"inputs":[{"internalType":"address","name":"_arena","type":"address"}],"name":"setArenaContract","outputs":[],"stateMutability":"nonpayable","type":"function"},{"inputs":[{"internalType":"address","name":"_armadaToken","type":"address"},{"internalType":"address","name":"_guildContract","type":"address"},{"internalType":"address","name":"_battlePassContract","type":"address"},{"internalType":"address","name":"_shipNFTContract","type":"address"}],"name":"setEcosystemContracts","outputs":[],"stateMutability":"nonpayable","type":"function"},{"inputs":[],"name":"shipNFTContract","outputs":[{"internalType":"contract IShipNFT","name":"","type":"address"}],"stateMutability":"view","type":"function"},{"inputs":[{"internalType":"address","name":"newOwner","type":"address"}],"name":"transferOwnership","outputs":[],"stateMutability":"nonpayable","type":"function"},{"inputs":[{"internalType":"uint256","name":"toLocation","type":"uint256"},{"internalType":"bool","name":"fast","type":"bool"}],"name":"travel","outputs":[],"stateMutability":"payable","type":"function"},{"inputs":[{"internalType":"uint256","name":"","type":"uint256"}],"name":"upgrades","outputs":[{"internalType":"string","name":"name","type":"string"},{"internalType":"uint256","name":"cost","type":"uint256"},{"internalType":"uint256","name":"gpmBonus","type":"uint256"},{"internalType":"uint256","name":"maxHpBonus","type":"uint256"},{"internalType":"uint256","name":"speedBonus","type":"uint256"},{"internalType":"uint256","name":"attackBonus","type":"uint256"},{"internalType":"uint256","name":"defenseBonus","type":"uint256"},{"internalType":"uint256","name":"maxCrewBonus","type":"uint256"}],"stateMutability":"view","type":"function"},{"stateMutability":"payable","type":"receive"}],"evm":{"bytecode":{"linkReferences":{},"object":"6080806040523461007f5733156100695760008054336001600160a01b03198216811783556040519290916001600160a01b0316907f8be0079c531659141344cd1fd0a4f28419497f9722a3daafe3b4186f6b6457e09080a3600180556150319081620000858239f35b631e4fbdf760e01b815260006004820152602490fd5b600080fdfe610140806040526004361015610142575b50361561001c57600080fd5b6100246138cc565b34678ac7230489e80000036100cf5760015b33600052600660205261005260036040600020019182546133ad565b905561005c614afd565b610064614cb6565b9061006d614e0f565b916000808080673782dace9d90000060018060a01b0380971682f1156100c35760008080671bc16d674ec800008582951682f1156100c35760008080670de0b6b3a76400008194861682f1156100c35760018055005b6040513d6000823e3d90fd5b34680270801d946c940000036100e6576005610036565b346804e1003b28d9280000036100fd57600a610036565b60405162461bcd60e51b815260206004820152601760248201527f496e76616c6964206469616d6f6e64207061636b6167650000000000000000006044820152606490fd5b600090813560e01c908163082a8c4e14613063575080630afbcea5146130205780631771ec6314612dfd5780631785453014612a5d578063183ff085146127bd57806321bade131461274057806324aa225b146127175780632655e8401461269e578063328ef0511461252a57806335d93897146124e7578063368e0ed81461244057806337fb67bd14611e295780633babd14b146124175780633f5d3b9b146123d15780634c8df037146123ad578063541c155a146121555780635722bb51146120f55780635e5c06e214611f8657806362f91fbd14611f1b57806367989d0314611e9c5780636878012514611e785780636895ec9714611e295780636a2d286414611d31578063715018a614611cd75780637386bbc514611c4757806374aa3a98146119b85780637a4f62581461195a5780638bc076e6146118cb5780638da5cb5b146118a4578063a5a2cb191461164a578063ab2611ee146115e7578063b7df5b5d146112dc578063be4becd314611172578063bea2dc1414610fa2578063c9c6b55614610f4d578063c9d9548214610f24578063d018db3e146109a3578063d2fabb1814610985578063d3a238c11461095c578063d60f7239146108ea578063d85bf0b1146108c6578063ece2e4ba14610652578063f2fde38b146105c2578063f603bfa014610568578063f71d96cb14610524578063f9fe7b19146104fb578063fa470f85146104905763fbb84efb03610010573461048d57602080600319360112610489576001600160401b036004358181116104855736602382011215610485578060040135918211610485576024810190602436918460051b010111610485576103b26138cc565b8115158061047a575b1561044057835b8281106103d2575b846001805580f35b33855260069081855260046040872001541561043a576001916001600160a01b036104066104018488886138a8565b6138b8565b16875285526004604087200154156104355761042f6104296104018387876138a8565b3361476b565b016103c2565b61042f565b506103ca565b60405162461bcd60e51b8152602060048201526012602482015271312d3520646566656e64657273206f6e6c7960701b6044820152606490fd5b5060058211156103bb565b8380fd5b5080fd5b80fd5b503461048d57602036600319011261048d576020906040906001600160a01b036104b8613088565b168152600683522060048101541590816104ed575b816104de575b506040519015158152f35b601291500154421015386104d3565b6012810154151591506104cd565b503461048d578060031936011261048d576004546040516001600160a01b039091168152602090f35b503461048d57602036600319011261048d5760043590600a5482101561048d57602061054f83613360565b905460405160039290921b1c6001600160a01b03168152f35b503461048d57602036600319011261048d576020906105ba906040906001600160a01b03610594613088565b168152600684522060066105b160078301546008840154906133ad565b910154906133ad565b604051908152f35b503461048d57602036600319011261048d576105dc613088565b6105e46138ef565b6001600160a01b0390811690811561063957600054826bffffffffffffffffffffffff60a01b821617600055167f8be0079c531659141344cd1fd0a4f28419497f9722a3daafe3b4186f6b6457e0600080a380f35b604051631e4fbdf760e01b815260048101849052602490fd5b503461048d57610100908160031936011261048d576001600160401b03916004358381116108c2576106889036906004016132c2565b90916106926138ef565b604051908101818110868211176108ac576040526106b136838561318e565b8152602435602082015260443560408201526064356060820152608435608082015260a43560a082015260c43560c082015260e43560e082015260095484526007602052604084209080519586519081116108985761071083546131d4565b601f8111610857575b506020601f82116001146107e857918160e092600794899a6107d79a926107dd575b50508160011b916000199060031b1c19161784555b6020810151600185015560408101516002850155606081015160038501556080810151600485015560a0810151600585015560c0810151600685015501519101557fbce75db7677467da57e0a1c1497e4a7c42d79d4071dbb0578df54307e986fe076009549283926107cf604051928392602084526020840191613887565b0390a2613527565b60095580f35b01519050388061073b565b8387526020872097875b601f198416811061083f5750826107d798996007959360019360e096601f19811610610826575b505050811b018455610750565b015160001960f88460031b161c19169055388080610819565b828201518a55600190990198602092830192016107f2565b83875260208720601f830160051c810160208410610891575b601f830160051c82018110610886575050610719565b888155600101610870565b5080610870565b634e487b7160e01b86526041600452602486fd5b634e487b7160e01b600052604160045260246000fd5b8280fd5b503461048d57602036600319011261048d5760206105ba6108e5613088565b61383f565b503461048d57608036600319011261048d576001600160401b036004358181116108c25761091c9036906004016132c2565b906109256132b3565b6064359384116109585761094a6109436109559536906004016132c2565b369161318e565b926044359233613a4c565b80f35b8480fd5b503461048d578060031936011261048d576005546040516001600160a01b039091168152602090f35b503461048d578060031936011261048d576020600954604051908152f35b503461048d57602080600319360112610489576109be613088565b906109c76138cc565b33835260068152604083209160018060a01b03809116918285526040852090600485018054151580610f17575b15610edc5760019560ff87820154168015610ecf575b15610e8a57600b810191825494600b81019586548103610e4d57601084015442101580610e3f575b15610e0e57610a4090613556565b610dbe576007830154600882015480821115610db557610a5f9161351a565b955b6007820154600885015480821115610dad57610a7c9161351a565b6004830180549098818110610d9d5750508b88555b835490818110610d8d5750508a83555b8a965415610b08575b50507f1d099e3da7a64d91bf9ed0e41aceaf6a8e2c1fc0d072ef2779f2ea6988d279889495505415610ae9575b505060405192151583523392a3805580f35b866009820155600f42910155610aff81546146ad565b90553880610ad7565b90955088600987015542600f870155610b2181546146ad565b90556009820154603281029080820460321490151715610d79576002819601908154809111610d71575b86610b559161351a565b905560028201610b668682546133ad565b90558795806002541680610cce575b5089816004541680610c40575b5050600354169485610b96575b8695610aaa565b853b15610c3c57604051630a4d60af60e21b815233600482015260248101829052958a9081908890604490829084905af19687610c28575b50507f1d099e3da7a64d91bf9ed0e41aceaf6a8e2c1fc0d072ef2779f2ea6988d279889515610b8f576040519081527f14ec6b65e2dc0e143e0acfdef3dd4e0b07d54172c8e3d85bd7622e044424e344853392a238610b8f565b610c3190613124565b610c3c578938610bce565b8980fd5b803b1561048957816040518092630347027560e41b8252336004830152600a602483015260606044830152818381610c7a60648201613822565b03925af1610cba575b5050604051600a8152604086820152600080516020614fbc833981519152339180610cb060408201613822565b0390a28938610b82565b610cc390613124565b610c3c578938610c83565b803b15610d6d5760405162fe211960e51b81523360048201528b8082670de0b6b3a76400009485602483015260606044830152818381610d1060648201613822565b03925af19182610d55575b505015610b7557604051908152604086820152600080516020614fdc833981519152339180610d4c60408201613822565b0390a238610b75565b610d5e90613124565b610d69578b38610d1b565b8b80fd5b8a80fd5b955085610b4b565b634e487b7160e01b8a52601160045260248afd5b610d969161351a565b8355610aa1565b610da69161351a565b8855610a91565b50508a610a7c565b50508995610a61565b60405162461bcd60e51b815260048101869052602260248201527f43616e6e6f742061747461636b20617420706f727473202d2073616665206172604482015261656160f01b6064820152608490fd5b60405162461bcd60e51b8152600481018790526009602482015268125b881d1c985d995b60ba1b6044820152606490fd5b506010820154421015610a32565b60405162461bcd60e51b815260048101879052601560248201527426bab9ba1031329039b0b6b2903637b1b0ba34b7b760591b6044820152606490fd5b60405162461bcd60e51b815260048101849052601760248201527f4e6176792063616e6e6f742061747461636b204e6176790000000000000000006044820152606490fd5b5060ff8785015416610a0a565b60405162461bcd60e51b815260048101839052601360248201527213db99481cda1a5c081a5cc81ddc9958dad959606a1b6044820152606490fd5b50600483015415156109f4565b503461048d578060031936011261048d576003546040516001600160a01b039091168152602090f35b503461048d57602036600319011261048d576060906001600160a01b039060409082610f77613088565b168152600b602052209081541690600260018201549101549060405192835260208301526040820152f35b503461048d57602090602060031936011261048d5750600a546004358082101561116d5750805b610fd2816137dc565b91610fdc826137dc565b9360005b8281106110155761100385611011886040519384936040855260408501906132ef565b90838203602085015261332c565b0390f35b61101e81613360565b9060018060a01b03809154600393841b1c16600052611092600680865261106c81604060002001548461105088613360565b905490881b1c16600052828852600760406000200154906133ad565b908361107787613360565b905490871b1c166000528652600860406000200154906133ad565b9160005b8781106110aa575b50505050600101610fe0565b6110b4818b61380e565b5184116110c357600101611096565b9190600019888101898111611157575b84811161111057505091611106918594936110ef600197613360565b9054911b1c166110ff828b61380e565b528961380e565b529038808061109e565b81810181811161115757611149826111428f938f61113b848b611133858561380e565b51169261380e565b528461380e565b519261380e565b5280156111575781016110d3565b634e487b7160e01b600052601160045260246000fd5b610fc9565b503461048d578060031936011261048d5761118b6138cc565b3381526006602052604081206111a6600482015415156134df565b6111b3600b820154613556565b156112a35760098101908154600a8201908154111561125e576111d53361391b565b546111e183548261351a565b92600a840292848404600a148515171561124a5760020161120f84825461120a828210156136af565b61351a565b90555560405191825260208201527f868567670ec4defb3adfce8655df1b0aafa7f429cdb1f700ffe925b1aa98356060403392a26001805580f35b634e487b7160e01b86526011600452602486fd5b60405162461bcd60e51b815260206004820152601760248201527f4372657720616c7265616479206174206d6178696d756d0000000000000000006044820152606490fd5b60405162461bcd60e51b8152602060048201526011602482015270135d5cdd08189948185d0818481c1bdc9d607a1b6044820152606490fd5b503461048d5760208060031936011261048957600a54829190600435835b828110611554575061130b856137dc565b92611315866137c5565b92611323604051948561316d565b86845261132f876137c5565b601f1997908801875b81811061154557505061134a906137dc565b9286805b8382106113de575050505094611372956040519687956060875260608701906132ef565b858103828701528451928382528282019083808660051b850101970198925b8584106113ac5788806110118a8a838203604085015261332c565b919380809799506113ca898486600196989a9c030188528c516130ff565b9a0194019401918997959398969491611391565b876113ef839b989a9697999b613360565b919060018060a01b03809154600394851b1c16885287898d60069485835289600b604086200154148061151e575b61143a575b5050505050505090600101909896949397959861134e565b88600760408996898c9a976114a68c60019f996115129f996114746115029f9c8d6114e09d6114688e613360565b9054911b1c169261380e565b528a8d6114808b613360565b9054911b1c16865284845261149687872061320e565b6114a0838361380e565b5261380e565b50876114b187613360565b9054908c1b1c168352818152876114cd83868620015497613360565b9054908c1b1c16835252200154906133ad565b926114ea89613360565b9054911b1c168a528a52600860408a200154906133ad565b61150c828c61380e565b52613527565b90388087898d8f611422565b50846115298a613360565b905490891b1c168452858352601060408520015442101561141d565b60608782018601528401611338565b6115648196939596949294613360565b9054600391821b1c6001600160a01b039081168852600680855260408920600b0154871492909190836115bd575b5050506115a9575b600101949391949290926112fa565b916115b5600191613527565b92905061159a565b909192506115ca84613360565b9054911b1c16875282526010604087200154421015388080611592565b503461048d57606036600319011261048d576001600160401b036004358181116108c2576116199036906004016132c2565b906116226132b3565b604051926020840194848610908611176108ac57610955946040528584526044359233613a4c565b503461048d5760208060031936011261048957816004356116696138cc565b8082526007835260408220338352600684526009600760408520926116bc60018201611697815415156136ed565b6116a03361391b565b33885260088952604088208789528952604088205490546139d8565b6116d26002860191825461120a828210156136af565b905533865260088752604086208587528752604086206116f28154613527565b90556002810154611708600c86019182546133ad565b905560038101805461171f600587019182546133ad565b905554611731600486019182546133ad565b90556004810154611747600686019182546133ad565b9055600581015461175c8386019182546133ad565b90556006810154611772600886019182546133ad565b9055015491611786600a82019384546133ad565b809355018181541161189c575b505060405190337fcf52c8aa8ed6b7d560b4e75db6ab973723de269d5580985c8880844d4ed6d7c08480a36004546001600160a01b0316806117d8575b826001805580f35b803b156108c257630347027560e41b8252336004830152600360248301526060604483015260116064830152701d5c19dc98591957dc1d5c98da185cd959607a1b60848301528290829060a490829084905af1611888575b5050604080519160038352820152600080516020614fbc83398151915233918061187c6040820160409060118152701d5c19dc98591957dc1d5c98da185cd959607a1b60208201520190565b0390a2388181806117d0565b61189190613124565b610489578138611830565b553880611793565b503461048d578060031936011261048d57546040516001600160a01b039091168152602090f35b503461048d57602036600319011261048d57610100906040906001600160a01b036118f4613088565b1681526006602052206007810154906008810154906004810154600582015460028301549060098401549260ff6001600b8701549601541695604051978852602088015260408701526060860152608085015260a084015260c0830152151560e0820152f35b503461048d57602036600319011261048d57600435906001600160401b03821161048d57602061198d36600485016132c2565b80604051928337600c90820190815281900382019020546040516001600160a01b0390911615158152f35b50604036600319011261048d576004356119d06132b3565b6119d86138cc565b33835260206006815260408420906119f5600483015415156134df565b601082019182544210611c0e5760648511611bd657600b8101908154808714611ba1578681811115611b935790611a2b9161351a565b610e109081810290808204831481151715610d7957600684015461012c90818102918183041490151715611b7f5790611a63916133ba565b818110611b71575050875b8615611b285704908115611b1f575b34611ae8576003018054879392611a9a9161120a8282101561366d565b9055611aa7875b426133ad565b80945555604051938452830152151560408201527f9782a86993c9e75e77fdbba3381a28a46e4f356e9516e67313bd4bd859c88a3f60603392a26001805580f35b60405162461bcd60e51b815260048101859052600f60248201526e14185e481d9a5848191a585b5bdb99608a1b6044820152606490fd5b60019150611a7d565b91505034611b3b5790611aa78692611aa1565b60405162461bcd60e51b815260048101849052600e60248201526d111bdb89dd081cd95b990813539560921b6044820152606490fd5b611b7a9161351a565b611a6e565b634e487b7160e01b8b52601160045260248bfd5b611b9c9161351a565b611a2b565b60405162461bcd60e51b815260048101859052600d60248201526c29b0b6b2903637b1b0ba34b7b760991b6044820152606490fd5b60405162461bcd60e51b815260048101839052601060248201526f131bd8d85d1a5bdb881a5b9d985b1a5960821b6044820152606490fd5b60405162461bcd60e51b8152600481018390526011602482015270416c72656164792074726176656c696e6760781b6044820152606490fd5b503461048d57602036600319011261048d576040611caf916004358152600760205220611c738161320e565b90600181015490600281015490600381015460048201546005830154916007600685015494015494604051988998610100808b528a01906130ff565b96602089015260408801526060870152608086015260a085015260c084015260e08301520390f35b503461048d578060031936011261048d57611cf06138ef565b600080546001600160a01b0319811682556001600160a01b03167f8be0079c531659141344cd1fd0a4f28419497f9722a3daafe3b4186f6b6457e08280a380f35b503461048d57608036600319011261048d57611d4b613088565b611d5361309e565b6044356001600160a01b0381811691829003611e245760643593818516809503611e24578190611d816138ef565b16928315611de7576bffffffffffffffffffffffff60a01b938460025416176002551680611dd8575b5080611dc9575b5081611dbb578280f35b600554161760055538808280f35b81600454161760045538611db1565b82600354161760035538611daa565b60405162461bcd60e51b8152602060048201526015602482015274496e76616c696420746f6b656e206164647265737360581b6044820152606490fd5b600080fd5b503461048d57602036600319011261048d5761101190611e64906040906001600160a01b03611e56613088565b168152600d6020522061320e565b6040519182916020835260208301906130ff565b503461048d57602036600319011261048d5760206105ba611e97613088565b613772565b503461048d57604036600319011261048d57611eb6613088565b611ebe6138ef565b6001600160a01b03168082526006602052604082206004810154611eed91901580159190611f0d575b5061372d565b8152600660205260036040822001611f0860243582546133ad565b905580f35b600591500154151538611ee7565b503461048d57604036600319011261048d57611f35613088565b611f3d6138ef565b6001600160a01b03168082526006602052604082206004810154611f6b91901580159190611f0d575061372d565b8152600660205260026040822001611f0860243582546133ad565b503461048d57602036600319011261048d576001600160a01b03611fa8613088565b168152600660205260409020611fbd8161320e565b90600181015460ff1660e05260028101546101005260038101546101205260048101549160058201546006830154600784015460088501546009860154600a87015490600b88015492600c89015494600d8a015496600e8b015498600f8c01549a60108d01549c60118101546080526012015460a05260405160c0526102608060c0515260c0510161204e916130ff565b9c60e051151560c051602001526101005160c051604001526101205160c0516060015260c0516080015260c05160a0015260c05160c0015260c05160e0015260c051610100015260c051610120015260c051610140015260c051610160015260c051610180015260c0516101a0015260c0516101c0015260c0516101e0015260c051610200015260805160c051610220015260a05160c051610240015260c051900360c051f35b503461048d57604036600319011261048d576105ba60209160406004359161211b61309e565b928082526007865260018383200154936121368515156136ed565b6001600160a01b031682526008865282822090825285522054906139d8565b503461048d57602080600319360112610489576004359060038210156108c25761217d6138cc565b338352600681526040832061219660048201541561357f565b601281019182544210612374576121b0600b830154613556565b1561233e57604051630afbcea560e01b8152336004820152859283919060c082602481305afa91821561233357889089936122e6575b50600093886122545750505051936121fe85426133ad565b90555b6122405760405193845283015260408201527fceaf11028a962cac404996bd00df91db254d60670b1d4c940eb519227e998b3760603392a26001805580f35b634e487b7160e01b85526021600452602485fd5b9091969295600189146000146122a0575050838060029201519501519561227a3361391b565b0161228d85825461120a828210156136af565b905561229985426133ad565b9055612201565b95509591909250600092600288146122bb575b505050612201565b6003919295506040015194016122d985825461120a8282101561366d565b90554290553880806122b3565b92505060c03d60c01161232c575b6122fe818461316d565b820160c0838203126123285780606061231a6123219386613628565b9401613628565b91386121e6565b8880fd5b503d6122f4565b6040513d8a823e3d90fd5b6064906040519062461bcd60e51b82526004820152600f60248201526e135d5cdd08189948185d081c1bdc9d608a1b6044820152fd5b6064906040519062461bcd60e51b82526004820152601260248201527152657061697220696e2070726f677265737360701b6044820152fd5b503461048d57602036600319011261048d5760206105ba6123cc613088565b6135be565b503461048d578060031936011261048d576123ea6138ef565b808080804781811561240e575b3390f1156124025780f35b604051903d90823e3d90fd5b506108fc6123f7565b503461048d578060031936011261048d576002546040516001600160a01b039091168152602090f35b503461048d57602036600319011261048d5761245a613088565b6124626138ef565b6001600160a01b031680156124aa57600e80546001600160a01b031916821790557fda05b298405d30faa06fd33fd0f66be4c5b369d0617617baf90412c4bb25fcea8280a280f35b60405162461bcd60e51b8152602060048201526015602482015274496e76616c6964206172656e61206164647265737360581b6044820152606490fd5b503461048d57604036600319011261048d576020906040906001600160a01b0361250f613088565b16815260088352818120602435825283522054604051908152f35b503461048d578060031936011261048d576125436138cc565b338152600660205260408120906004820161255f81541561357f565b601283019081549081421061266657811561262957600585015480915583600f860155601881018091116126155760199004906107089182810292818404149015171561261557603b198201918211612615571061260457600a83015492600184018094116125f057600160098495821c920191808355106125e6575b505b556001805580f35b60019055386125dc565b634e487b7160e01b83526011600452602483fd5b826009600a849501549101556125de565b634e487b7160e01b84526011600452602484fd5b60405162461bcd60e51b81526020600482015260156024820152744e6f2072657061697220696e2070726f677265737360581b6044820152606490fd5b60405162461bcd60e51b815260206004820152601060248201526f526570616972206e6f7420726561647960801b6044820152606490fd5b503461048d57602036600319011261048d57600435906001600160401b03821161048d573660238301121561048d5760206126e13660048501356024860161318e565b816126f560405192838151938492016130dc565b600c90820190815281900382019020546040516001600160a01b039091168152f35b503461048d57602036600319011261048d576020612736600435613556565b6040519015158152f35b503461048d57602036600319011261048d576127a9906001600160a01b039081612768613088565b168152600d602052604080822091600b602052209182541690612794600260018501549401549161320e565b926040519485946080865260808601906130ff565b926020850152604084015260608301520390f35b503461048d578060031936011261048d573381526006602052604081206127e9600482015415156134df565b62015180804204600d83019182540481811015612a185760001982019182116129f85703612a0c57600e8201805490600182018092116129f857555b4290556009810154906019820291808304601914901517156125f057600e8101549182600502906005820484036129f857600291612862916133ad565b910161286f8282546133ad565b905560405191825260208201527fb9cfea4717f167774a6e8643c33472935d3ef918453525eefca6936078b7cfdd60403392a260025481906001600160a01b0390811680612953575b5060045416806128c55750f35b803b1561295057816040518092630347027560e41b825233600483015260056024830152606060448301528183816128ff60648201613536565b03925af161293c575b50506040516005815260406020820152600080516020614fbc83398151915233918061293660408201613536565b0390a280f35b61294590613124565b61048d578038612908565b50fd5b803b156129f45760405162fe211960e51b8152336004820152838082670de0b6b3a7640000948560248301526060604483015281838161299560648201613536565b03925af191826129db575b5050156128b85760405190815260406020820152600080516020614fdc8339815191523391806129d260408201613536565b0390a2386128b8565b6129e490613124565b6129ef5783386129a0565b505050fd5b5050fd5b634e487b7160e01b85526011600452602485fd5b6001600e830155612825565b60405162461bcd60e51b815260206004820152601860248201527f416c726561647920636865636b656420696e20746f64617900000000000000006044820152606490fd5b503461048d57604036600319011261048d57612a77613088565b90612a8061309e565b600e546001600160a01b03939192919084163303612dc2578381168083526006602052604083208585169586855260408520966005830154938415612d85576005890154948515612d485760048501805460048c019182549398978d60086007830154910154808211600014612d3a57612afe60079160089361351a565b9f5b015491015480821115612d2d57612b169161351a565b999897985b8b995b89151580612d24575b80612d1a575b15612b7d578b908f818110612b6e5750508c995b808210612b5b575050612b548c9a613527565b9998612b1e565b612b5491612b689161351a565b9a613527565b612b779161351a565b99612b41565b8d908d9a8015801580612d12575b15612cdc5750505050975b876002541680612c65575b50876004541680612bfb575b505055557f7131c2e3e81f8c0cbcd8d31b4768770c3a09894928686ca9844fbad1ac42abc8602060405194878652861694a4604080516001600160a01b039290921682526020820192909252f35b803b1561048957604051630347027560e41b8152898b166004820152600a602482015260606044820152600960648201526830b932b730afbbb4b760b91b6084820152908290829060a490829084905af115612bad57612c5b8291613124565b61048d5780612bad565b803b156104895760405162fe211960e51b8152898b166004820152670de0b6b3a7640000602482015260606044820152600960648201526830b932b730afbbb4b760b91b608482015282918290829060a490829084905af1612cc8575b50612ba1565b612cd190613124565b61048d57808b612cc2565b8215159081612d0a575b5015612cf6575050905097612b96565b10612d0357505b97612b96565b9050612cfd565b90508e612ce6565b508215612b8b565b5060c88b10612b2d565b50801515612b27565b5050600199989798612b1b565b50506008600760019f612b00565b60405162461bcd60e51b81526020600482015260156024820152741059d95b9d0c881a185cc81b9bc81858d8dbdd5b9d605a1b6044820152606490fd5b60405162461bcd60e51b81526020600482015260156024820152741059d95b9d0c481a185cc81b9bc81858d8dbdd5b9d605a1b6044820152606490fd5b60405162461bcd60e51b815260206004820152601360248201527213db9b1e48185c995b984818dbdb9d1c9858dd606a1b6044820152606490fd5b503461048d578060031936011261048d57612e166138cc565b3381526020906006825260408120612e33600482015415156134df565b600c8101548015612fe9576011820191612e4e83544261351a565b918215612fb25782612e5f916133ba565b928315612f7a579060029142905501612e798382546133ad565b9055604051918252838201527f6ed0c81f2eb08ca19cf12aab8dfa5d3566d3140926b3e0035b8423029996c18560403392a26004546001600160a01b031680612ec5575b506001805580f35b803b1561048957604051630347027560e41b81523360048201526001602482015260606044820152600b60648201526a19dc1b57d8db185a5b595960aa1b6084820152908290829060a490829084905af1612f6b575b5090604080519160018352820152600080516020614fbc833981519152339180612f6160408201604090600b81526a19dc1b57d8db185a5b595960aa1b60208201520190565b0390a28038612ebd565b612f7490613124565b38612f1b565b60405162461bcd60e51b815260048101879052601060248201526f4e6f20676f6c6420746f20636c61696d60801b6044820152606490fd5b60405162461bcd60e51b815260048101879052600f60248201526e139bc81d1a5b5948195b185c1cd959608a1b6044820152606490fd5b60405162461bcd60e51b815260048101859052600f60248201526e4e6f2047504d20746f20636c61696d60881b6044820152606490fd5b503461048d57602036600319011261048d5760c0613061613047613042613088565b6133cd565b61305760409392935180946130b4565b60608301906130b4565bf35b905034610489578160031936011261048957600e546001600160a01b03168152602090f35b600435906001600160a01b0382168203611e2457565b602435906001600160a01b0382168203611e2457565b6000915b600383106130c557505050565b6001908251815260208091019201920191906130b8565b60005b8381106130ef5750506000910152565b81810151838201526020016130df565b90602091613118815180928185528580860191016130dc565b601f01601f1916010190565b6001600160401b0381116108ac57604052565b606081019081106001600160401b038211176108ac57604052565b604081019081106001600160401b038211176108ac57604052565b90601f801991011681019081106001600160401b038211176108ac57604052565b9291926001600160401b0382116108ac57604051916131b7601f8201601f19166020018461316d565b829481845281830111611e24578281602093846000960137010152565b90600182811c92168015613204575b60208310146131ee57565b634e487b7160e01b600052602260045260246000fd5b91607f16916131e3565b90604051918260008254613221816131d4565b908184526020946001916001811690816000146132915750600114613252575b5050506132509250038361316d565b565b600090815285812095935091905b8183106132795750506132509350820101388080613241565b85548884018501529485019487945091830191613260565b9250505061325094925060ff191682840152151560051b820101388080613241565b602435908115158203611e2457565b9181601f84011215611e24578235916001600160401b038311611e245760208381860195010111611e2457565b90815180825260208080930193019160005b82811061330f575050505090565b83516001600160a01b031685529381019392810192600101613301565b90815180825260208080930193019160005b82811061334c575050505090565b83518552938101939281019260010161333e565b600a5481101561339757600a6000527fc65a7bb8d6351c1cf70c95a316cc6a92839c986682d98bc35f958f4883f9d2a80190600090565b634e487b7160e01b600052603260045260246000fd5b9190820180921161115757565b8181029291811591840414171561115757565b90604080516133db81613137565b60603682379080516133ec81613137565b60603682376001600160a01b039094166000908152600660205281812060048101546134a45760050154906018820180831161349057601990046107088082028215918382041482171561261557885261012c808302928304141715613490576020870152808387015280845260148202918083046014149015171561347c575060208301526001908201529190565b634e487b7160e01b81526011600452602490fd5b634e487b7160e01b82526011600452602482fd5b50915080935051906134b582613137565b80825280602083015280848301528351936134cf85613137565b8185528160208601528401529190565b156134e657565b60405162461bcd60e51b815260206004820152600c60248201526b14da1a5c081ddc9958dad95960a21b6044820152606490fd5b9190820391821161115757565b60001981146111575760010190565b600d81526c3230b4b63cafb1b432b1b5b4b760991b602082015260400190565b60198114908115613574575b811561356c575090565b605991501490565b603781149150613562565b1561358657565b60405162461bcd60e51b815260206004820152601060248201526f14da1a5c081b9bdd081ddc9958dad95960821b6044820152606490fd5b6001600160a01b031660009081526006602052604090206004810154158015613616575b61361057806009600a6135fa9301549101549061351a565b600a810290808204600a14901517156111575790565b50600090565b506009810154600a82015411156135e2565b9080601f83011215611e24576040519161364183613137565b829060608101928311611e2457905b82821061365d5750505090565b8151815260209182019101613650565b1561367457565b60405162461bcd60e51b81526020600482015260136024820152724e6f7420656e6f756768206469616d6f6e647360681b6044820152606490fd5b156136b657565b60405162461bcd60e51b815260206004820152600f60248201526e139bdd08195b9bdd59da0819dbdb19608a1b6044820152606490fd5b156136f457565b60405162461bcd60e51b8152602060048201526011602482015270155c19dc985919481b9bdd08195e1a5cdd607a1b6044820152606490fd5b1561373457565b60405162461bcd60e51b81526020600482015260166024820152751058d8dbdd5b9d08191bd95cc81b9bdd08195e1a5cdd60521b6044820152606490fd5b6001600160a01b0316600090815260066020526040902060048101541580156137b9575b6136105780600c6137ae60116137b69401544261351a565b9101546133ba565b90565b50600c81015415613796565b6001600160401b0381116108ac5760051b60200190565b906137e6826137c5565b6137f3604051918261316d565b8281528092613804601f19916137c5565b0190602036910137565b80518210156133975760209160051b010190565b600a8152693130ba3a3632afbbb4b760b11b602082015260400190565b6001600160a01b03166000908152600660205260409020600481015415801561387b575b6136105760116138759101544261351a565b50600190565b50600c81015415613863565b908060209392818452848401376000828201840152601f01601f1916010190565b91908110156133975760051b0190565b356001600160a01b0381168103611e245790565b6002600154146138dd576002600155565b604051633ee5aeb560e01b8152600490fd5b6000546001600160a01b0316330361390357565b60405163118cdaa760e01b8152336004820152602490fd5b6001600160a01b0316600081815260066020526040902060048101541580156139cc575b6139c857601181019061395382544261351a565b80156139c25761396781600c8401546133ba565b9081613975575b5050505050565b60026040937f6ed0c81f2eb08ca19cf12aab8dfa5d3566d3140926b3e0035b8423029996c18595429055016139ab8382546133ad565b905582519182526020820152a2388080808061396e565b50505050565b5050565b50600c8101541561393f565b8115613a47576001916001926000915b808310613a125750505081156139fc570490565b634e487b7160e01b600052601260045260246000fd5b90919392600f908181029181830414901517156111575792600a908181029181830414901517156111575793820191906139e8565b905090565b949193929093600094811515806146a2575b1561465d576064851161461f576001600160a01b03871686526006602052604086206004810154159081614612575b50156145d7578594845180614467575b50606490876001600160a01b03881661445a575b60405192836102608101106001600160401b0361026086011117614446576102608401604052613ae236878761318e565b845286151560208501526040840152606083015260646080830152606460a0830152600160c0830152600160e083015260016101008301526001610120830152600a61014083015261016082015286610180820152866101a0820152866101c0820152866101e082015286610200820152426102208201528661024082015260018060a01b03881687526006602052604087209080518051906001600160401b03821161444657613b9384546131d4565b601f8111614404575b50602090601f831160011461439757918060129492610240948d9261438c575b50508160011b916000199060031b1c19161784555b600184016020820151151560ff8019835416911617905560408101516002850155606081015160038501556080810151600485015560a0810151600585015560c0810151600685015560e0810151600785015561010081015160088501556101208101516009850155610140810151600a850155610160810151600b850155610180810151600c8501556101a0810151600d8501556101c0810151600e8501556101e0810151600f850155610200810151601085015561022081015160118501550151910155600a546801000000000000000081101561437857806001613cbb9201600a55613360565b81546001600160a01b038a811660039390931b92831b921b19161790556040516bffffffffffffffffffffffff19606089901b16602082015260148152613d0181613152565b60405190613d0e82613152565b600a82526020368184013781511561436457605260208301538151600110156143645760456021830153815160021015614364576046602283015381516003101561436457605f602383015360405190613d6782613152565b601082526f181899199a1a9b1b9c1ca0a121a222a360811b6020830152885b6006811061431d575050506040516020818351613da681838588016130dc565b600c9082019081520301902080546001600160a01b0319166001600160a01b038a169081179091558752600d6020526040872081516001600160401b03811161430957613df382546131d4565b601f81116142c8575b506020601f821160011461423c579181613ea594927f47456e7ec68e981a8f02d9c9528370adea595c1b26225be6797e6d441c47fc029796948c91614231575b508160011b916000199060031b1c19161790555b7f86d606287c9d4f3a350b0e6ea78a04d97425fff091713f4a433942578dc6f1616040516020815280613e908d60018060a01b03169460208301906130ff565b0390a260405192604084526040840191613887565b92151560208201526001600160a01b0387169281900390a26001600160a01b038216613fb4575b50506004546001600160a01b031680613ee457505050565b803b1561048957604051630347027560e41b81526001600160a01b03841660048201526005602482015260606044820152600f60648201526e1858d8dbdd5b9d17d8dc99585d1959608a1b6084820152908290829060a490829084905af1613fa0575b5050600080516020614fbc83398151915260405191600583526040602084015260018060a01b03169180613f9b60408201604090600f81526e1858d8dbdd5b9d17d8dc99585d1959608a1b60208201520190565b0390a2565b613faa8291613124565b61048d5780613f47565b6002546001600160a01b031680614159575b506001600160a01b0382168352600660205260408320600301805460018101919082106129f857556001600160a01b0382168352600b6020526040832060020180546802b5e3af16b18800009182820191821061124a57556002546001600160a01b031680614083575b505060405160208082526001600160a01b038681169416927f48ce27021a67a752436d8d11b0c2480ada1b231fd0ab64d4453954ede457db9392918291614079918301906130ff565b0390a33880613ecc565b803b156109585760405162fe211960e51b81526001600160a01b03851660048201526024810183905260606044820152600e60648201526d726566657272616c5f626f6e757360901b60848201529085908190839060a490829084905af19182614145575b50506140f5575b80614030565b6040805191825260208201819052600e908201526d726566657272616c5f626f6e757360901b60608201526001600160a01b03831690600080516020614fdc83398151915290608090a2386140ef565b61414e90613124565b6109585784386140e8565b803b156104855760405162fe211960e51b81526001600160a01b038616600482015268056bc75e2d631000006024820181905260606044830152600f60648301526e0726566657272616c5f7369676e757608c1b6084830152918590829060a490829084905af1908161421e575b5015613fc6576040805191825260208201819052600f908201526e0726566657272616c5f7369676e757608c1b60608201526001600160a01b03851690600080516020614fdc83398151915290608090a238613fc6565b61422a90959195613124565b93386141c7565b905083015138613e3c565b828a5260208a20908a5b601f19841681106142b05750827f47456e7ec68e981a8f02d9c9528370adea595c1b26225be6797e6d441c47fc0297969492600192613ea59795601f19811610614297575b5050811b019055613e50565b85015160001960f88460031b161c19169055388061428b565b90916020600181928589015181550193019101614246565b828a5260208a20601f830160051c810160208410614302575b601f830160051c820181106142f7575050613dfc565b8b81556001016142e1565b50806142e1565b634e487b7160e01b89526041600452602489fd5b6001600160f81b031961433d6143338385614faa565b5160fc1c85614faa565b511681600401600411611b7f57906001918b1a61435d8260040187614faa565b5301613d86565b634e487b7160e01b88526032600452602488fd5b634e487b7160e01b87526041600452602487fd5b015190503880613bbc565b90848b5260208b20918b5b601f19851681106143ec575092601294926001926102409583601f198116106143d3575b505050811b018455613bd1565b015160001960f88460031b161c191690553880806143c6565b919260206001819286850151815501940192016143a2565b848b5260208b20601f840160051c81016020851061443f575b8c601f840160051c8301821061443557505050613b9c565b815560010161441d565b508061441d565b634e487b7160e01b8a52604160045260248afd5b5061012c91506001613ab1565b60405191965061447b8183602089016130dc565b600c9082019081528190036020019020546001600160a01b031694851561459a576001600160a01b038816861461455d578587526006602052600460408820015415614518576001600160a01b0388168752600b602052604080882080546001600160a01b03191688179055868852872060019081018054918201918210614504575538613a9d565b634e487b7160e01b89526011600452602489fd5b60405162461bcd60e51b815260206004820152601a60248201527f5265666572726572206d7573742068617665206163636f756e740000000000006044820152606490fd5b60405162461bcd60e51b815260206004820152601560248201527421b0b73737ba103932b332b9103cb7bab939b2b63360591b6044820152606490fd5b60405162461bcd60e51b8152602060048201526015602482015274496e76616c696420726566657272616c20636f646560581b6044820152606490fd5b60405162461bcd60e51b8152602060048201526013602482015272105b1c9958591e481a185cc81858d8dbdd5b9d606a1b6044820152606490fd5b6009915001541538613a8d565b60405162461bcd60e51b815260206004820152601660248201527504c6f636174696f6e206d75737420626520302d3130360541b6044820152606490fd5b60405162461bcd60e51b815260206004820152601860248201527f426f6174206e616d6520696e76616c6964206c656e67746800000000000000006044820152606490fd5b50600c821115613a5e565b600060198211156147575750601819810181811161115757905b600060378211156147435750603619810181811161115757905b6000605982111561472f5750605819810190811161115757915b82828211159182614724575b505015614715575050601990565b1161471f57603790565b605990565b111590508238614707565b90605903906059821161347c5750916146fb565b81603703906037821161347c5750906146e1565b81601903906019821161347c5750906146c7565b60009060018060a01b03928382169283815260066020526040918583832091169586835283832090600493848401928354158015614af2575b614ad75760ff6001860154161580614ae3575b614ad757600b850195865498600b8301998a548103614abb57601088015442108015614aca575b614abb576147eb90613556565b614aad576007870154600884015480821115614aa45761480a9161351a565b995b6007840154600889015480821115614a9c576148279161351a565b8484018054909c818110614a8c575050858c555b875490818110614a7c5750508487555b849a54156148b4575b50505050505091602093917f1d099e3da7a64d91bf9ed0e41aceaf6a8e2c1fc0d072ef2779f2ea6988d2798895935415614894575b5050519015158152a3565b60016009820155600f429101556148ab81546146ad565b90553880614889565b909192939499506001600985015542600f8501556148d281546146ad565b90556009860154603281029080820460321490151715614a69576002819401908154809111614a61575b846149069161351a565b9055600286016149178482546133ad565b9055600198806002541680614a06575b5080835416806149a3575b50600354169182614944575b80614854565b823b15610958578851630a4d60af60e21b81526001600160a01b039092169082019081526020810193909352918391839182908490829060400103925af161498f575b80808061493e565b6149998291613124565b61048d5780614987565b803b15614a02578951630347027560e41b81528481018d9052600a6024820152606060448201528691829082908183816149df60648201613822565b03925af16149ee575b50614932565b6149f790613124565b6109585784386149e8565b8580fd5b803b15614a0257858c8b5192839162fe211960e51b835287830152670de0b6b3a7640000602483015260606044830152818381614a4560648201613822565b03925af11561492757614a5a90959195613124565b9338614927565b9350836148fc565b634e487b7160e01b855260118352602485fd5b614a859161351a565b875561484b565b614a959161351a565b8c5561483b565b505084614827565b5050839961480c565b505050505050505050505050565b50505050505050505050505050565b50601084015442106147de565b50505050505050505050565b5060ff600182015416156147b7565b5085810154156147a4565b600a54600180821015614caf57815b614b15816137dc565b92614b1f826137dc565b60005b828110614b5c5750505050508051158015614b485750506000546001600160a01b031690565b61339757602001516001600160a01b031690565b80614b678692613360565b9060018060a01b03809154600393841b1c16600052614bdc60066008602091808352604090614bbb8183600020015487614ba08b613360565b9054908b1b1c166000528286526007846000200154906133ad565b9386614bc68a613360565b9054908a1b1c16600052526000200154906133ad565b9160005b888110614bf2575b5050505001614b22565b614c02818897939495969761380e565b518511614c155701908894939291614be0565b9291905060001988810189811161115757908a9695949392915b848111614c6857505090614c5e9291614c4786613360565b9054911b1c16614c57828c61380e565b528561380e565b5238808080614be8565b908092939495969750810181811161115757808d6110ff8488611133614c8e968561380e565b51614c99828a61380e565b528015611157578101908a969594939291614c2f565b6001614b0c565b600a546002811015614e0857805b614ccd816137dc565b91614cd7826137dc565b60005b828110614d185750505050805160018111614d005750506000546001600160a01b031690565b6001101561339757604001516001600160a01b031690565b614d2181613360565b9060018060a01b03809154600393841b1c16600052614d5a60066008602091808352604090614bbb8183600020015487614ba08b613360565b9160005b878110614d72575b50505050600101614cda565b614d7c818761380e565b518411614d8b57600101614d5e565b9190600019888101898111611157575b848111614dd157505091614dc791859493614db7600197613360565b9054911b1c16614c57828b61380e565b5290388080614d66565b81810181811161115757808c6110ff8488611133614def968561380e565b51614dfa828a61380e565b528015611157578101614d9b565b6002614cc4565b600a5460039081811015614fa357805b614e28826137dc565b92614e32836137dc565b60005b838110614e74575050505050805160028111614e5c5750506000546001600160a01b031690565b6002101561339757606001516001600160a01b031690565b614e7d81613360565b9060018060a01b039182915490861b1c16600052614ef160066008602091808352604090614ed08183600020015487614eb58a613360565b9054908d1b1c166000528286526007846000200154906133ad565b9386614edb89613360565b9054908c1b1c16600052526000200154906133ad565b9060005b878110614f08575b505050600101614e35565b614f12818661380e565b518311614f2157600101614ef5565b90600019888101898111611157575b838111614f65575050839291614f5c91614f4b600196613360565b905490891b1c16614c57828c61380e565b52903880614efd565b81810181811161115757808c614f838487611133614f8a968561380e565b528861380e565b51614f95828961380e565b528015611157578101614f30565b8190614e1f565b90815181101561339757016020019056feddd4b8893c79f22e6354587ae21d27d5a9540822f87dfb9ece9c2e1e9a0e5557ce2a322acd8fec95facf80b5da3da04d565ad21cd944701e16bad26f62c807dca264697066735822122010d52d4473c83e0848ab6486ce2324ba6f01c5000ae6ac91dd4c69f74a2327e764736f6c63430008180033","opcodes":"PUSH1 0x80 DUP1 PUSH1 0x40 MSTORE CALLVALUE PUSH2 0x7F JUMPI CALLER ISZERO PUSH2 0x69 JUMPI PUSH1 0x0 DUP1 SLOAD CALLER PUSH1 0x1 PUSH1 0x1 PUSH1 0xA0 SHL SUB NOT DUP3 AND DUP2 OR DUP4 SSTORE PUSH1 0x40 MLOAD SWAP3 SWAP1 SWAP2 PUSH1 0x1 PUSH1 0x1 PUSH1 0xA0 SHL SUB AND SWAP1 PUSH32 0x8BE0079C531659141344CD1FD0A4F28419497F9722A3DAAFE3B4186F6B6457E0 SWAP1 DUP1 LOG3 PUSH1 0x1 DUP1 SSTORE PUSH2 0x5031 SWAP1 DUP2 PUSH3 0x85 DUP3 CODECOPY RETURN JUMPDEST PUSH4 0x1E4FBDF7 PUSH1 0xE0 SHL DUP2 MSTORE PUSH1 0x0 PUSH1 0x4 DUP3 ADD MSTORE PUSH1 0x24 SWAP1 REVERT JUMPDEST PUSH1 0x0 DUP1 REVERT INVALID PUSH2 0x140 DUP1 PUSH1 0x40 MSTORE PUSH1 0x4 CALLDATASIZE LT ISZERO PUSH2 0x142 JUMPI JUMPDEST POP CALLDATASIZE ISZERO PUSH2 0x1C JUMPI PUSH1 0x0 DUP1 REVERT JUMPDEST PUSH2 0x24 PUSH2 0x38CC JUMP JUMPDEST CALLVALUE PUSH8 0x8AC7230489E80000 SUB PUSH2 0xCF JUMPI PUSH1 0x1 JUMPDEST CALLER PUSH1 0x0 MSTORE PUSH1 0x6 PUSH1 0x20 MSTORE PUSH2 0x52 PUSH1 0x3 PUSH1 0x40 PUSH1 0x0 KECCAK256 ADD SWAP2 DUP3 SLOAD PUSH2 0x33AD JUMP JUMPDEST SWAP1 SSTORE PUSH2 0x5C PUSH2 0x4AFD JUMP JUMPDEST PUSH2 0x64 PUSH2 0x4CB6 JUMP JUMPDEST SWAP1 PUSH2 0x6D PUSH2 0x4E0F JUMP JUMPDEST SWAP2 PUSH1 0x0 DUP1 DUP1 DUP1 PUSH8 0x3782DACE9D900000 PUSH1 0x1 DUP1 PUSH1 0xA0 SHL SUB DUP1 SWAP8 AND DUP3 CALL ISZERO PUSH2 0xC3 JUMPI PUSH1 0x0 DUP1 DUP1 PUSH8 0x1BC16D674EC80000 DUP6 DUP3 SWAP6 AND DUP3 CALL ISZERO PUSH2 0xC3 JUMPI PUSH1 0x0 DUP1 DUP1 PUSH8 0xDE0B6B3A7640000 DUP2 SWAP5 DUP7 AND DUP3 CALL ISZERO PUSH2 0xC3 JUMPI PUSH1 0x1 DUP1 SSTORE STOP JUMPDEST PUSH1 0x40 MLOAD RETURNDATASIZE PUSH1 0x0 DUP3 RETURNDATACOPY RETURNDATASIZE SWAP1 REVERT JUMPDEST CALLVALUE PUSH9 0x270801D946C940000 SUB PUSH2 0xE6 JUMPI PUSH1 0x5 PUSH2 0x36 JUMP JUMPDEST CALLVALUE PUSH9 0x4E1003B28D9280000 SUB PUSH2 0xFD JUMPI PUSH1 0xA PUSH2 0x36 JUMP JUMPDEST PUSH1 0x40 MLOAD PUSH3 0x461BCD PUSH1 0xE5 SHL DUP2 MSTORE PUSH1 0x20 PUSH1 0x4 DUP3 ADD MSTORE PUSH1 0x17 PUSH1 0x24 DUP3 ADD MSTORE PUSH32 0x496E76616C6964206469616D6F6E64207061636B616765000000000000000000 PUSH1 0x44 DUP3 ADD MSTORE PUSH1 0x64 SWAP1 REVERT JUMPDEST PUSH1 0x0 SWAP1 DUP2 CALLDATALOAD PUSH1 0xE0 SHR SWAP1 DUP2 PUSH4 0x82A8C4E EQ PUSH2 0x3063 JUMPI POP DUP1 PUSH4 0xAFBCEA5 EQ PUSH2 0x3020 JUMPI DUP1 PUSH4 0x1771EC63 EQ PUSH2 0x2DFD JUMPI DUP1 PUSH4 0x17854530 EQ PUSH2 0x2A5D JUMPI DUP1 PUSH4 0x183FF085 EQ PUSH2 0x27BD JUMPI DUP1 PUSH4 0x21BADE13 EQ PUSH2 0x2740 JUMPI DUP1 PUSH4 0x24AA225B EQ PUSH2 0x2717 JUMPI DUP1 PUSH4 0x2655E840 EQ PUSH2 0x269E JUMPI DUP1 PUSH4 0x328EF051 EQ PUSH2 0x252A JUMPI DUP1 PUSH4 0x35D93897 EQ PUSH2 0x24E7 JUMPI DUP1 PUSH4 0x368E0ED8 EQ PUSH2 0x2440 JUMPI DUP1 PUSH4 0x37FB67BD EQ PUSH2 0x1E29 JUMPI DUP1 PUSH4 0x3BABD14B EQ PUSH2 0x2417 JUMPI DUP1 PUSH4 0x3F5D3B9B EQ PUSH2 0x23D1 JUMPI DUP1 PUSH4 0x4C8DF037 EQ PUSH2 0x23AD JUMPI DUP1 PUSH4 0x541C155A EQ PUSH2 0x2155 JUMPI DUP1 PUSH4 0x5722BB51 EQ PUSH2 0x20F5 JUMPI DUP1 PUSH4 0x5E5C06E2 EQ PUSH2 0x1F86 JUMPI DUP1 PUSH4 0x62F91FBD EQ PUSH2 0x1F1B JUMPI DUP1 PUSH4 0x67989D03 EQ PUSH2 0x1E9C JUMPI DUP1 PUSH4 0x68780125 EQ PUSH2 0x1E78 JUMPI DUP1 PUSH4 0x6895EC97 EQ PUSH2 0x1E29 JUMPI DUP1 PUSH4 0x6A2D2864 EQ PUSH2 0x1D31 JUMPI DUP1 PUSH4 0x715018A6 EQ PUSH2 0x1CD7 JUMPI DUP1 PUSH4 0x7386BBC5 EQ PUSH2 0x1C47 JUMPI DUP1 PUSH4 0x74AA3A98 EQ PUSH2 0x19B8 JUMPI DUP1 PUSH4 0x7A4F6258 EQ PUSH2 0x195A JUMPI DUP1 PUSH4 0x8BC076E6 EQ PUSH2 0x18CB JUMPI DUP1 PUSH4 0x8DA5CB5B EQ PUSH2 0x18A4 JUMPI DUP1 PUSH4 0xA5A2CB19 EQ PUSH2 0x164A JUMPI DUP1 PUSH4 0xAB2611EE EQ PUSH2 0x15E7 JUMPI DUP1 PUSH4 0xB7DF5B5D EQ PUSH2 0x12DC JUMPI DUP1 PUSH4 0xBE4BECD3 EQ PUSH2 0x1172 JUMPI DUP1 PUSH4 0xBEA2DC14 EQ PUSH2 0xFA2 JUMPI DUP1 PUSH4 0xC9C6B556 EQ PUSH2 0xF4D JUMPI DUP1 PUSH4 0xC9D95482 EQ PUSH2 0xF24 JUMPI DUP1 PUSH4 0xD018DB3E EQ PUSH2 0x9A3 JUMPI DUP1 PUSH4 0xD2FABB18 EQ PUSH2 0x985 JUMPI DUP1 PUSH4 0xD3A238C1 EQ PUSH2 0x95C JUMPI DUP1 PUSH4 0xD60F7239 EQ PUSH2 0x8EA JUMPI DUP1 PUSH4 0xD85BF0B1 EQ PUSH2 0x8C6 JUMPI DUP1 PUSH4 0xECE2E4BA EQ PUSH2 0x652 JUMPI DUP1 PUSH4 0xF2FDE38B EQ PUSH2 0x5C2 JUMPI DUP1 PUSH4 0xF603BFA0 EQ PUSH2 0x568 JUMPI DUP1 PUSH4 0xF71D96CB EQ PUSH2 0x524 JUMPI DUP1 PUSH4 0xF9FE7B19 EQ PUSH2 0x4FB JUMPI DUP1 PUSH4 0xFA470F85 EQ PUSH2 0x490 JUMPI PUSH4 0xFBB84EFB SUB PUSH2 0x10 JUMPI CALLVALUE PUSH2 0x48D JUMPI PUSH1 0x20 DUP1 PUSH1 0x3 NOT CALLDATASIZE ADD SLT PUSH2 0x489 JUMPI PUSH1 0x1 PUSH1 0x1 PUSH1 0x40 SHL SUB PUSH1 0x4 CALLDATALOAD DUP2 DUP2 GT PUSH2 0x485 JUMPI CALLDATASIZE PUSH1 0x23 DUP3 ADD SLT ISZERO PUSH2 0x485 JUMPI DUP1 PUSH1 0x4 ADD CALLDATALOAD SWAP2 DUP3 GT PUSH2 0x485 JUMPI PUSH1 0x24 DUP2 ADD SWAP1 PUSH1 0x24 CALLDATASIZE SWAP2 DUP5 PUSH1 0x5 SHL ADD ADD GT PUSH2 0x485 JUMPI PUSH2 0x3B2 PUSH2 0x38CC JUMP JUMPDEST DUP2 ISZERO ISZERO DUP1 PUSH2 0x47A JUMPI JUMPDEST ISZERO PUSH2 0x440 JUMPI DUP4 JUMPDEST DUP3 DUP2 LT PUSH2 0x3D2 JUMPI JUMPDEST DUP5 PUSH1 0x1 DUP1 SSTORE DUP1 RETURN JUMPDEST CALLER DUP6 MSTORE PUSH1 0x6 SWAP1 DUP2 DUP6 MSTORE PUSH1 0x4 PUSH1 0x40 DUP8 KECCAK256 ADD SLOAD ISZERO PUSH2 0x43A JUMPI PUSH1 0x1 SWAP2 PUSH1 0x1 PUSH1 0x1 PUSH1 0xA0 SHL SUB PUSH2 0x406 PUSH2 0x401 DUP5 DUP9 DUP9 PUSH2 0x38A8 JUMP JUMPDEST PUSH2 0x38B8 JUMP JUMPDEST AND DUP8 MSTORE DUP6 MSTORE PUSH1 0x4 PUSH1 0x40 DUP8 KECCAK256 ADD SLOAD ISZERO PUSH2 0x435 JUMPI PUSH2 0x42F PUSH2 0x429 PUSH2 0x401 DUP4 DUP8 DUP8 PUSH2 0x38A8 JUMP JUMPDEST CALLER PUSH2 0x476B JUMP JUMPDEST ADD PUSH2 0x3C2 JUMP JUMPDEST PUSH2 0x42F JUMP JUMPDEST POP PUSH2 0x3CA JUMP JUMPDEST PUSH1 0x40 MLOAD PUSH3 0x461BCD PUSH1 0xE5 SHL DUP2 MSTORE PUSH1 0x20 PUSH1 0x4 DUP3 ADD MSTORE PUSH1 0x12 PUSH1 0x24 DUP3 ADD MSTORE PUSH18 0x312D3520646566656E64657273206F6E6C79 PUSH1 0x70 SHL PUSH1 0x44 DUP3 ADD MSTORE PUSH1 0x64 SWAP1 REVERT JUMPDEST POP PUSH1 0x5 DUP3 GT ISZERO PUSH2 0x3BB JUMP JUMPDEST DUP4 DUP1 REVERT JUMPDEST POP DUP1 REVERT JUMPDEST DUP1 REVERT JUMPDEST POP CALLVALUE PUSH2 0x48D JUMPI PUSH1 0x20 CALLDATASIZE PUSH1 0x3 NOT ADD SLT PUSH2 0x48D JUMPI PUSH1 0x20 SWAP1 PUSH1 0x40 SWAP1 PUSH1 0x1 PUSH1 0x1 PUSH1 0xA0 SHL SUB PUSH2 0x4B8 PUSH2 0x3088 JUMP JUMPDEST AND DUP2 MSTORE PUSH1 0x6 DUP4 MSTORE KECCAK256 PUSH1 0x4 DUP2 ADD SLOAD ISZERO SWAP1 DUP2 PUSH2 0x4ED JUMPI JUMPDEST DUP2 PUSH2 0x4DE JUMPI JUMPDEST POP PUSH1 0x40 MLOAD SWAP1 ISZERO ISZERO DUP2 MSTORE RETURN JUMPDEST PUSH1 0x12 SWAP2 POP ADD SLOAD TIMESTAMP LT ISZERO CODESIZE PUSH2 0x4D3 JUMP JUMPDEST PUSH1 0x12 DUP2 ADD SLOAD ISZERO ISZERO SWAP2 POP PUSH2 0x4CD JUMP JUMPDEST POP CALLVALUE PUSH2 0x48D JUMPI DUP1 PUSH1 0x3 NOT CALLDATASIZE ADD SLT PUSH2 0x48D JUMPI PUSH1 0x4 SLOAD PUSH1 0x40 MLOAD PUSH1 0x1 PUSH1 0x1 PUSH1 0xA0 SHL SUB SWAP1 SWAP2 AND DUP2 MSTORE PUSH1 0x20 SWAP1 RETURN JUMPDEST POP CALLVALUE PUSH2 0x48D JUMPI PUSH1 0x20 CALLDATASIZE PUSH1 0x3 NOT ADD SLT PUSH2 0x48D JUMPI PUSH1 0x4 CALLDATALOAD SWAP1 PUSH1 0xA SLOAD DUP3 LT ISZERO PUSH2 0x48D JUMPI PUSH1 0x20 PUSH2 0x54F DUP4 PUSH2 0x3360 JUMP JUMPDEST SWAP1 SLOAD PUSH1 0x40 MLOAD PUSH1 0x3 SWAP3 SWAP1 SWAP3 SHL SHR PUSH1 0x1 PUSH1 0x1 PUSH1 0xA0 SHL SUB AND DUP2 MSTORE RETURN JUMPDEST POP CALLVALUE PUSH2 0x48D JUMPI PUSH1 0x20 CALLDATASIZE PUSH1 0x3 NOT ADD SLT PUSH2 0x48D JUMPI PUSH1 0x20 SWAP1 PUSH2 0x5BA SWAP1 PUSH1 0x40 SWAP1 PUSH1 0x1 PUSH1 0x1 PUSH1 0xA0 SHL SUB PUSH2 0x594 PUSH2 0x3088 JUMP JUMPDEST AND DUP2 MSTORE PUSH1 0x6 DUP5 MSTORE KECCAK256 PUSH1 0x6 PUSH2 0x5B1 PUSH1 0x7 DUP4 ADD SLOAD PUSH1 0x8 DUP5 ADD SLOAD SWAP1 PUSH2 0x33AD JUMP JUMPDEST SWAP2 ADD SLOAD SWAP1 PUSH2 0x33AD JUMP JUMPDEST PUSH1 0x40 MLOAD SWAP1 DUP2 MSTORE RETURN JUMPDEST POP CALLVALUE PUSH2 0x48D JUMPI PUSH1 0x20 CALLDATASIZE PUSH1 0x3 NOT ADD SLT PUSH2 0x48D JUMPI PUSH2 0x5DC PUSH2 0x3088 JUMP JUMPDEST PUSH2 0x5E4 PUSH2 0x38EF JUMP JUMPDEST PUSH1 0x1 PUSH1 0x1 PUSH1 0xA0 SHL SUB SWAP1 DUP2 AND SWAP1 DUP2 ISZERO PUSH2 0x639 JUMPI PUSH1 0x0 SLOAD DUP3 PUSH12 0xFFFFFFFFFFFFFFFFFFFFFFFF PUSH1 0xA0 SHL DUP3 AND OR PUSH1 0x0 SSTORE AND PUSH32 0x8BE0079C531659141344CD1FD0A4F28419497F9722A3DAAFE3B4186F6B6457E0 PUSH1 0x0 DUP1 LOG3 DUP1 RETURN JUMPDEST PUSH1 0x40 MLOAD PUSH4 0x1E4FBDF7 PUSH1 0xE0 SHL DUP2 MSTORE PUSH1 0x4 DUP2 ADD DUP5 SWAP1 MSTORE PUSH1 0x24 SWAP1 REVERT JUMPDEST POP CALLVALUE PUSH2 0x48D JUMPI PUSH2 0x100 SWAP1 DUP2 PUSH1 0x3 NOT CALLDATASIZE ADD SLT PUSH2 0x48D JUMPI PUSH1 0x1 PUSH1 0x1 PUSH1 0x40 SHL SUB SWAP2 PUSH1 0x4 CALLDATALOAD DUP4 DUP2 GT PUSH2 0x8C2 JUMPI PUSH2 0x688 SWAP1 CALLDATASIZE SWAP1 PUSH1 0x4 ADD PUSH2 0x32C2 JUMP JUMPDEST SWAP1 SWAP2 PUSH2 0x692 PUSH2 0x38EF JUMP JUMPDEST PUSH1 0x40 MLOAD SWAP1 DUP2 ADD DUP2 DUP2 LT DUP7 DUP3 GT OR PUSH2 0x8AC JUMPI PUSH1 0x40 MSTORE PUSH2 0x6B1 CALLDATASIZE DUP4 DUP6 PUSH2 0x318E JUMP JUMPDEST DUP2 MSTORE PUSH1 0x24 CALLDATALOAD PUSH1 0x20 DUP3 ADD MSTORE PUSH1 0x44 CALLDATALOAD PUSH1 0x40 DUP3 ADD MSTORE PUSH1 0x64 CALLDATALOAD PUSH1 0x60 DUP3 ADD MSTORE PUSH1 0x84 CALLDATALOAD PUSH1 0x80 DUP3 ADD MSTORE PUSH1 0xA4 CALLDATALOAD PUSH1 0xA0 DUP3 ADD MSTORE PUSH1 0xC4 CALLDATALOAD PUSH1 0xC0 DUP3 ADD MSTORE PUSH1 0xE4 CALLDATALOAD PUSH1 0xE0 DUP3 ADD MSTORE PUSH1 0x9 SLOAD DUP5 MSTORE PUSH1 0x7 PUSH1 0x20 MSTORE PUSH1 0x40 DUP5 KECCAK256 SWAP1 DUP1 MLOAD SWAP6 DUP7 MLOAD SWAP1 DUP2 GT PUSH2 0x898 JUMPI PUSH2 0x710 DUP4 SLOAD PUSH2 0x31D4 JUMP JUMPDEST PUSH1 0x1F DUP2 GT PUSH2 0x857 JUMPI JUMPDEST POP PUSH1 0x20 PUSH1 0x1F DUP3 GT PUSH1 0x1 EQ PUSH2 0x7E8 JUMPI SWAP2 DUP2 PUSH1 0xE0 SWAP3 PUSH1 0x7 SWAP5 DUP10 SWAP11 PUSH2 0x7D7 SWAP11 SWAP3 PUSH2 0x7DD JUMPI JUMPDEST POP POP DUP2 PUSH1 0x1 SHL SWAP2 PUSH1 0x0 NOT SWAP1 PUSH1 0x3 SHL SHR NOT AND OR DUP5 SSTORE JUMPDEST PUSH1 0x20 DUP2 ADD MLOAD PUSH1 0x1 DUP6 ADD SSTORE PUSH1 0x40 DUP2 ADD MLOAD PUSH1 0x2 DUP6 ADD SSTORE PUSH1 0x60 DUP2 ADD MLOAD PUSH1 0x3 DUP6 ADD SSTORE PUSH1 0x80 DUP2 ADD MLOAD PUSH1 0x4 DUP6 ADD SSTORE PUSH1 0xA0 DUP2 ADD MLOAD PUSH1 0x5 DUP6 ADD SSTORE PUSH1 0xC0 DUP2 ADD MLOAD PUSH1 0x6 DUP6 ADD SSTORE ADD MLOAD SWAP2 ADD SSTORE PUSH32 0xBCE75DB7677467DA57E0A1C1497E4A7C42D79D4071DBB0578DF54307E986FE07 PUSH1 0x9 SLOAD SWAP3 DUP4 SWAP3 PUSH2 0x7CF PUSH1 0x40 MLOAD SWAP3 DUP4 SWAP3 PUSH1 0x20 DUP5 MSTORE PUSH1 0x20 DUP5 ADD SWAP2 PUSH2 0x3887 JUMP JUMPDEST SUB SWAP1 LOG2 PUSH2 0x3527 JUMP JUMPDEST PUSH1 0x9 SSTORE DUP1 RETURN JUMPDEST ADD MLOAD SWAP1 POP CODESIZE DUP1 PUSH2 0x73B JUMP JUMPDEST DUP4 DUP8 MSTORE PUSH1 0x20 DUP8 KECCAK256 SWAP8 DUP8 JUMPDEST PUSH1 0x1F NOT DUP5 AND DUP2 LT PUSH2 0x83F JUMPI POP DUP3 PUSH2 0x7D7 SWAP9 SWAP10 PUSH1 0x7 SWAP6 SWAP4 PUSH1 0x1 SWAP4 PUSH1 0xE0 SWAP7 PUSH1 0x1F NOT DUP2 AND LT PUSH2 0x826 JUMPI JUMPDEST POP POP POP DUP2 SHL ADD DUP5 SSTORE PUSH2 0x750 JUMP JUMPDEST ADD MLOAD PUSH1 0x0 NOT PUSH1 0xF8 DUP5 PUSH1 0x3 SHL AND SHR NOT AND SWAP1 SSTORE CODESIZE DUP1 DUP1 PUSH2 0x819 JUMP JUMPDEST DUP3 DUP3 ADD MLOAD DUP11 SSTORE PUSH1 0x1 SWAP1 SWAP10 ADD SWAP9 PUSH1 0x20 SWAP3 DUP4 ADD SWAP3 ADD PUSH2 0x7F2 JUMP JUMPDEST DUP4 DUP8 MSTORE PUSH1 0x20 DUP8 KECCAK256 PUSH1 0x1F DUP4 ADD PUSH1 0x5 SHR DUP2 ADD PUSH1 0x20 DUP5 LT PUSH2 0x891 JUMPI JUMPDEST PUSH1 0x1F DUP4 ADD PUSH1 0x5 SHR DUP3 ADD DUP2 LT PUSH2 0x886 JUMPI POP POP PUSH2 0x719 JUMP JUMPDEST DUP9 DUP2 SSTORE PUSH1 0x1 ADD PUSH2 0x870 JUMP JUMPDEST POP DUP1 PUSH2 0x870 JUMP JUMPDEST PUSH4 0x4E487B71 PUSH1 0xE0 SHL DUP7 MSTORE PUSH1 0x41 PUSH1 0x4 MSTORE PUSH1 0x24 DUP7 REVERT JUMPDEST PUSH4 0x4E487B71 PUSH1 0xE0 SHL PUSH1 0x0 MSTORE PUSH1 0x41 PUSH1 0x4 MSTORE PUSH1 0x24 PUSH1 0x0 REVERT JUMPDEST DUP3 DUP1 REVERT JUMPDEST POP CALLVALUE PUSH2 0x48D JUMPI PUSH1 0x20 CALLDATASIZE PUSH1 0x3 NOT ADD SLT PUSH2 0x48D JUMPI PUSH1 0x20 PUSH2 0x5BA PUSH2 0x8E5 PUSH2 0x3088 JUMP JUMPDEST PUSH2 0x383F JUMP JUMPDEST POP CALLVALUE PUSH2 0x48D JUMPI PUSH1 0x80 CALLDATASIZE PUSH1 0x3 NOT ADD SLT PUSH2 0x48D JUMPI PUSH1 0x1 PUSH1 0x1 PUSH1 0x40 SHL SUB PUSH1 0x4 CALLDATALOAD DUP2 DUP2 GT PUSH2 0x8C2 JUMPI PUSH2 0x91C SWAP1 CALLDATASIZE SWAP1 PUSH1 0x4 ADD PUSH2 0x32C2 JUMP JUMPDEST SWAP1 PUSH2 0x925 PUSH2 0x32B3 JUMP JUMPDEST PUSH1 0x64 CALLDATALOAD SWAP4 DUP5 GT PUSH2 0x958 JUMPI PUSH2 0x94A PUSH2 0x943 PUSH2 0x955 SWAP6 CALLDATASIZE SWAP1 PUSH1 0x4 ADD PUSH2 0x32C2 JUMP JUMPDEST CALLDATASIZE SWAP2 PUSH2 0x318E JUMP JUMPDEST SWAP3 PUSH1 0x44 CALLDATALOAD SWAP3 CALLER PUSH2 0x3A4C JUMP JUMPDEST DUP1 RETURN JUMPDEST DUP5 DUP1 REVERT JUMPDEST POP CALLVALUE PUSH2 0x48D JUMPI DUP1 PUSH1 0x3 NOT CALLDATASIZE ADD SLT PUSH2 0x48D JUMPI PUSH1 0x5 SLOAD PUSH1 0x40 MLOAD PUSH1 0x1 PUSH1 0x1 PUSH1 0xA0 SHL SUB SWAP1 SWAP2 AND DUP2 MSTORE PUSH1 0x20 SWAP1 RETURN JUMPDEST POP CALLVALUE PUSH2 0x48D JUMPI DUP1 PUSH1 0x3 NOT CALLDATASIZE ADD SLT PUSH2 0x48D JUMPI PUSH1 0x20 PUSH1 0x9 SLOAD PUSH1 0x40 MLOAD SWAP1 DUP2 MSTORE RETURN JUMPDEST POP CALLVALUE PUSH2 0x48D JUMPI PUSH1 0x20 DUP1 PUSH1 0x3 NOT CALLDATASIZE ADD SLT PUSH2 0x489 JUMPI PUSH2 0x9BE PUSH2 0x3088 JUMP JUMPDEST SWAP1 PUSH2 0x9C7 PUSH2 0x38CC JUMP JUMPDEST CALLER DUP4 MSTORE PUSH1 0x6 DUP2 MSTORE PUSH1 0x40 DUP4 KECCAK256 SWAP2 PUSH1 0x1 DUP1 PUSH1 0xA0 SHL SUB DUP1 SWAP2 AND SWAP2 DUP3 DUP6 MSTORE PUSH1 0x40 DUP6 KECCAK256 SWAP1 PUSH1 0x4 DUP6 ADD DUP1 SLOAD ISZERO ISZERO DUP1 PUSH2 0xF17 JUMPI JUMPDEST ISZERO PUSH2 0xEDC JUMPI PUSH1 0x1 SWAP6 PUSH1 0xFF DUP8 DUP3 ADD SLOAD AND DUP1 ISZERO PUSH2 0xECF JUMPI JUMPDEST ISZERO PUSH2 0xE8A JUMPI PUSH1 0xB DUP2 ADD SWAP2 DUP3 SLOAD SWAP5 PUSH1 0xB DUP2 ADD SWAP6 DUP7 SLOAD DUP2 SUB PUSH2 0xE4D JUMPI PUSH1 0x10 DUP5 ADD SLOAD TIMESTAMP LT ISZERO DUP1 PUSH2 0xE3F JUMPI JUMPDEST ISZERO PUSH2 0xE0E JUMPI PUSH2 0xA40 SWAP1 PUSH2 0x3556 JUMP JUMPDEST PUSH2 0xDBE JUMPI PUSH1 0x7 DUP4 ADD SLOAD PUSH1 0x8 DUP3 ADD SLOAD DUP1 DUP3 GT ISZERO PUSH2 0xDB5 JUMPI PUSH2 0xA5F SWAP2 PUSH2 0x351A JUMP JUMPDEST SWAP6 JUMPDEST PUSH1 0x7 DUP3 ADD SLOAD PUSH1 0x8 DUP6 ADD SLOAD DUP1 DUP3 GT ISZERO PUSH2 0xDAD JUMPI PUSH2 0xA7C SWAP2 PUSH2 0x351A JUMP JUMPDEST PUSH1 0x4 DUP4 ADD DUP1 SLOAD SWAP1 SWAP9 DUP2 DUP2 LT PUSH2 0xD9D JUMPI POP POP DUP12 DUP9 SSTORE JUMPDEST DUP4 SLOAD SWAP1 DUP2 DUP2 LT PUSH2 0xD8D JUMPI POP POP DUP11 DUP4 SSTORE JUMPDEST DUP11 SWAP7 SLOAD ISZERO PUSH2 0xB08 JUMPI JUMPDEST POP POP PUSH32 0x1D099E3DA7A64D91BF9ED0E41ACEAF6A8E2C1FC0D072EF2779F2EA6988D27988 SWAP5 SWAP6 POP SLOAD ISZERO PUSH2 0xAE9 JUMPI JUMPDEST POP POP PUSH1 0x40 MLOAD SWAP3 ISZERO ISZERO DUP4 MSTORE CALLER SWAP3 LOG3 DUP1 SSTORE DUP1 RETURN JUMPDEST DUP7 PUSH1 0x9 DUP3 ADD SSTORE PUSH1 0xF TIMESTAMP SWAP2 ADD SSTORE PUSH2 0xAFF DUP2 SLOAD PUSH2 0x46AD JUMP JUMPDEST SWAP1 SSTORE CODESIZE DUP1 PUSH2 0xAD7 JUMP JUMPDEST SWAP1 SWAP6 POP DUP9 PUSH1 0x9 DUP8 ADD SSTORE TIMESTAMP PUSH1 0xF DUP8 ADD SSTORE PUSH2 0xB21 DUP2 SLOAD PUSH2 0x46AD JUMP JUMPDEST SWAP1 SSTORE PUSH1 0x9 DUP3 ADD SLOAD PUSH1 0x32 DUP2 MUL SWAP1 DUP1 DUP3 DIV PUSH1 0x32 EQ SWAP1 ISZERO OR ISZERO PUSH2 0xD79 JUMPI PUSH1 0x2 DUP2 SWAP7 ADD SWAP1 DUP2 SLOAD DUP1 SWAP2 GT PUSH2 0xD71 JUMPI JUMPDEST DUP7 PUSH2 0xB55 SWAP2 PUSH2 0x351A JUMP JUMPDEST SWAP1 SSTORE PUSH1 0x2 DUP3 ADD PUSH2 0xB66 DUP7 DUP3 SLOAD PUSH2 0x33AD JUMP JUMPDEST SWAP1 SSTORE DUP8 SWAP6 DUP1 PUSH1 0x2 SLOAD AND DUP1 PUSH2 0xCCE JUMPI JUMPDEST POP DUP10 DUP2 PUSH1 0x4 SLOAD AND DUP1 PUSH2 0xC40 JUMPI JUMPDEST POP POP PUSH1 0x3 SLOAD AND SWAP5 DUP6 PUSH2 0xB96 JUMPI JUMPDEST DUP7 SWAP6 PUSH2 0xAAA JUMP JUMPDEST DUP6 EXTCODESIZE ISZERO PUSH2 0xC3C JUMPI PUSH1 0x40 MLOAD PUSH4 0xA4D60AF PUSH1 0xE2 SHL DUP2 MSTORE CALLER PUSH1 0x4 DUP3 ADD MSTORE PUSH1 0x24 DUP2 ADD DUP3 SWAP1 MSTORE SWAP6 DUP11 SWAP1 DUP2 SWAP1 DUP9 SWAP1 PUSH1 0x44 SWAP1 DUP3 SWAP1 DUP5 SWAP1 GAS CALL SWAP7 DUP8 PUSH2 0xC28 JUMPI JUMPDEST POP POP PUSH32 0x1D099E3DA7A64D91BF9ED0E41ACEAF6A8E2C1FC0D072EF2779F2EA6988D27988 SWAP6 ISZERO PUSH2 0xB8F JUMPI PUSH1 0x40 MLOAD SWAP1 DUP2 MSTORE PUSH32 0x14EC6B65E2DC0E143E0ACFDEF3DD4E0B07D54172C8E3D85BD7622E044424E344 DUP6 CALLER SWAP3 LOG2 CODESIZE PUSH2 0xB8F JUMP JUMPDEST PUSH2 0xC31 SWAP1 PUSH2 0x3124 JUMP JUMPDEST PUSH2 0xC3C JUMPI DUP10 CODESIZE PUSH2 0xBCE JUMP JUMPDEST DUP10 DUP1 REVERT JUMPDEST DUP1 EXTCODESIZE ISZERO PUSH2 0x489 JUMPI DUP2 PUSH1 0x40 MLOAD DUP1 SWAP3 PUSH4 0x3470275 PUSH1 0xE4 SHL DUP3 MSTORE CALLER PUSH1 0x4 DUP4 ADD MSTORE PUSH1 0xA PUSH1 0x24 DUP4 ADD MSTORE PUSH1 0x60 PUSH1 0x44 DUP4 ADD MSTORE DUP2 DUP4 DUP2 PUSH2 0xC7A PUSH1 0x64 DUP3 ADD PUSH2 0x3822 JUMP JUMPDEST SUB SWAP3 GAS CALL PUSH2 0xCBA JUMPI JUMPDEST POP POP PUSH1 0x40 MLOAD PUSH1 0xA DUP2 MSTORE PUSH1 0x40 DUP7 DUP3 ADD MSTORE PUSH1 0x0 DUP1 MLOAD PUSH1 0x20 PUSH2 0x4FBC DUP4 CODECOPY DUP2 MLOAD SWAP2 MSTORE CALLER SWAP2 DUP1 PUSH2 0xCB0 PUSH1 0x40 DUP3 ADD PUSH2 0x3822 JUMP JUMPDEST SUB SWAP1 LOG2 DUP10 CODESIZE PUSH2 0xB82 JUMP JUMPDEST PUSH2 0xCC3 SWAP1 PUSH2 0x3124 JUMP JUMPDEST PUSH2 0xC3C JUMPI DUP10 CODESIZE PUSH2 0xC83 JUMP JUMPDEST DUP1 EXTCODESIZE ISZERO PUSH2 0xD6D JUMPI PUSH1 0x40 MLOAD PUSH3 0xFE2119 PUSH1 0xE5 SHL DUP2 MSTORE CALLER PUSH1 0x4 DUP3 ADD MSTORE DUP12 DUP1 DUP3 PUSH8 0xDE0B6B3A7640000 SWAP5 DUP6 PUSH1 0x24 DUP4 ADD MSTORE PUSH1 0x60 PUSH1 0x44 DUP4 ADD MSTORE DUP2 DUP4 DUP2 PUSH2 0xD10 PUSH1 0x64 DUP3 ADD PUSH2 0x3822 JUMP JUMPDEST SUB SWAP3 GAS CALL SWAP2 DUP3 PUSH2 0xD55 JUMPI JUMPDEST POP POP ISZERO PUSH2 0xB75 JUMPI PUSH1 0x40 MLOAD SWAP1 DUP2 MSTORE PUSH1 0x40 DUP7 DUP3 ADD MSTORE PUSH1 0x0 DUP1 MLOAD PUSH1 0x20 PUSH2 0x4FDC DUP4 CODECOPY DUP2 MLOAD SWAP2 MSTORE CALLER SWAP2 DUP1 PUSH2 0xD4C PUSH1 0x40 DUP3 ADD PUSH2 0x3822 JUMP JUMPDEST SUB SWAP1 LOG2 CODESIZE PUSH2 0xB75 JUMP JUMPDEST PUSH2 0xD5E SWAP1 PUSH2 0x3124 JUMP JUMPDEST PUSH2 0xD69 JUMPI DUP12 CODESIZE PUSH2 0xD1B JUMP JUMPDEST DUP12 DUP1 REVERT JUMPDEST DUP11 DUP1 REVERT JUMPDEST SWAP6 POP DUP6 PUSH2 0xB4B JUMP JUMPDEST PUSH4 0x4E487B71 PUSH1 0xE0 SHL DUP11 MSTORE PUSH1 0x11 PUSH1 0x4 MSTORE PUSH1 0x24 DUP11 REVERT JUMPDEST PUSH2 0xD96 SWAP2 PUSH2 0x351A JUMP JUMPDEST DUP4 SSTORE PUSH2 0xAA1 JUMP JUMPDEST PUSH2 0xDA6 SWAP2 PUSH2 0x351A JUMP JUMPDEST DUP9 SSTORE PUSH2 0xA91 JUMP JUMPDEST POP POP DUP11 PUSH2 0xA7C JUMP JUMPDEST POP POP DUP10 SWAP6 PUSH2 0xA61 JUMP JUMPDEST PUSH1 0x40 MLOAD PUSH3 0x461BCD PUSH1 0xE5 SHL DUP2 MSTORE PUSH1 0x4 DUP2 ADD DUP7 SWAP1 MSTORE PUSH1 0x22 PUSH1 0x24 DUP3 ADD MSTORE PUSH32 0x43616E6E6F742061747461636B20617420706F727473202D2073616665206172 PUSH1 0x44 DUP3 ADD MSTORE PUSH2 0x6561 PUSH1 0xF0 SHL PUSH1 0x64 DUP3 ADD MSTORE PUSH1 0x84 SWAP1 REVERT JUMPDEST PUSH1 0x40 MLOAD PUSH3 0x461BCD PUSH1 0xE5 SHL DUP2 MSTORE PUSH1 0x4 DUP2 ADD DUP8 SWAP1 MSTORE PUSH1 0x9 PUSH1 0x24 DUP3 ADD MSTORE PUSH9 0x125B881D1C985D995B PUSH1 0xBA SHL PUSH1 0x44 DUP3 ADD MSTORE PUSH1 0x64 SWAP1 REVERT JUMPDEST POP PUSH1 0x10 DUP3 ADD SLOAD TIMESTAMP LT ISZERO PUSH2 0xA32 JUMP JUMPDEST PUSH1 0x40 MLOAD PUSH3 0x461BCD PUSH1 0xE5 SHL DUP2 MSTORE PUSH1 0x4 DUP2 ADD DUP8 SWAP1 MSTORE PUSH1 0x15 PUSH1 0x24 DUP3 ADD MSTORE PUSH21 0x26BAB9BA1031329039B0B6B2903637B1B0BA34B7B7 PUSH1 0x59 SHL PUSH1 0x44 DUP3 ADD MSTORE PUSH1 0x64 SWAP1 REVERT JUMPDEST PUSH1 0x40 MLOAD PUSH3 0x461BCD PUSH1 0xE5 SHL DUP2 MSTORE PUSH1 0x4 DUP2 ADD DUP5 SWAP1 MSTORE PUSH1 0x17 PUSH1 0x24 DUP3 ADD MSTORE PUSH32 0x4E6176792063616E6E6F742061747461636B204E617679000000000000000000 PUSH1 0x44 DUP3 ADD MSTORE PUSH1 0x64 SWAP1 REVERT JUMPDEST POP PUSH1 0xFF DUP8 DUP6 ADD SLOAD AND PUSH2 0xA0A JUMP JUMPDEST PUSH1 0x40 MLOAD PUSH3 0x461BCD PUSH1 0xE5 SHL DUP2 MSTORE PUSH1 0x4 DUP2 ADD DUP4 SWAP1 MSTORE PUSH1 0x13 PUSH1 0x24 DUP3 ADD MSTORE PUSH19 0x13DB99481CDA1A5C081A5CC81DDC9958DAD959 PUSH1 0x6A SHL PUSH1 0x44 DUP3 ADD MSTORE PUSH1 0x64 SWAP1 REVERT JUMPDEST POP PUSH1 0x4 DUP4 ADD SLOAD ISZERO ISZERO PUSH2 0x9F4 JUMP JUMPDEST POP CALLVALUE PUSH2 0x48D JUMPI DUP1 PUSH1 0x3 NOT CALLDATASIZE ADD SLT PUSH2 0x48D JUMPI PUSH1 0x3 SLOAD PUSH1 0x40 MLOAD PUSH1 0x1 PUSH1 0x1 PUSH1 0xA0 SHL SUB SWAP1 SWAP2 AND DUP2 MSTORE PUSH1 0x20 SWAP1 RETURN JUMPDEST POP CALLVALUE PUSH2 0x48D JUMPI PUSH1 0x20 CALLDATASIZE PUSH1 0x3 NOT ADD SLT PUSH2 0x48D JUMPI PUSH1 0x60 SWAP1 PUSH1 0x1 PUSH1 0x1 PUSH1 0xA0 SHL SUB SWAP1 PUSH1 0x40 SWAP1 DUP3 PUSH2 0xF77 PUSH2 0x3088 JUMP JUMPDEST AND DUP2 MSTORE PUSH1 0xB PUSH1 0x20 MSTORE KECCAK256 SWAP1 DUP2 SLOAD AND SWAP1 PUSH1 0x2 PUSH1 0x1 DUP3 ADD SLOAD SWAP2 ADD SLOAD SWAP1 PUSH1 0x40 MLOAD SWAP3 DUP4 MSTORE PUSH1 0x20 DUP4 ADD MSTORE PUSH1 0x40 DUP3 ADD MSTORE RETURN JUMPDEST POP CALLVALUE PUSH2 0x48D JUMPI PUSH1 0x20 SWAP1 PUSH1 0x20 PUSH1 0x3 NOT CALLDATASIZE ADD SLT PUSH2 0x48D JUMPI POP PUSH1 0xA SLOAD PUSH1 0x4 CALLDATALOAD DUP1 DUP3 LT ISZERO PUSH2 0x116D JUMPI POP DUP1 JUMPDEST PUSH2 0xFD2 DUP2 PUSH2 0x37DC JUMP JUMPDEST SWAP2 PUSH2 0xFDC DUP3 PUSH2 0x37DC JUMP JUMPDEST SWAP4 PUSH1 0x0 JUMPDEST DUP3 DUP2 LT PUSH2 0x1015 JUMPI PUSH2 0x1003 DUP6 PUSH2 0x1011 DUP9 PUSH1 0x40 MLOAD SWAP4 DUP5 SWAP4 PUSH1 0x40 DUP6 MSTORE PUSH1 0x40 DUP6 ADD SWAP1 PUSH2 0x32EF JUMP JUMPDEST SWAP1 DUP4 DUP3 SUB PUSH1 0x20 DUP6 ADD MSTORE PUSH2 0x332C JUMP JUMPDEST SUB SWAP1 RETURN JUMPDEST PUSH2 0x101E DUP2 PUSH2 0x3360 JUMP JUMPDEST SWAP1 PUSH1 0x1 DUP1 PUSH1 0xA0 SHL SUB DUP1 SWAP2 SLOAD PUSH1 0x3 SWAP4 DUP5 SHL SHR AND PUSH1 0x0 MSTORE PUSH2 0x1092 PUSH1 0x6 DUP1 DUP7 MSTORE PUSH2 0x106C DUP2 PUSH1 0x40 PUSH1 0x0 KECCAK256 ADD SLOAD DUP5 PUSH2 0x1050 DUP9 PUSH2 0x3360 JUMP JUMPDEST SWAP1 SLOAD SWAP1 DUP9 SHL SHR AND PUSH1 0x0 MSTORE DUP3 DUP9 MSTORE PUSH1 0x7 PUSH1 0x40 PUSH1 0x0 KECCAK256 ADD SLOAD SWAP1 PUSH2 0x33AD JUMP JUMPDEST SWAP1 DUP4 PUSH2 0x1077 DUP8 PUSH2 0x3360 JUMP JUMPDEST SWAP1 SLOAD SWAP1 DUP8 SHL SHR AND PUSH1 0x0 MSTORE DUP7 MSTORE PUSH1 0x8 PUSH1 0x40 PUSH1 0x0 KECCAK256 ADD SLOAD SWAP1 PUSH2 0x33AD JUMP JUMPDEST SWAP2 PUSH1 0x0 JUMPDEST DUP8 DUP2 LT PUSH2 0x10AA JUMPI JUMPDEST POP POP POP POP PUSH1 0x1 ADD PUSH2 0xFE0 JUMP JUMPDEST PUSH2 0x10B4 DUP2 DUP12 PUSH2 0x380E JUMP JUMPDEST MLOAD DUP5 GT PUSH2 0x10C3 JUMPI PUSH1 0x1 ADD PUSH2 0x1096 JUMP JUMPDEST SWAP2 SWAP1 PUSH1 0x0 NOT DUP9 DUP2 ADD DUP10 DUP2 GT PUSH2 0x1157 JUMPI JUMPDEST DUP5 DUP2 GT PUSH2 0x1110 JUMPI POP POP SWAP2 PUSH2 0x1106 SWAP2 DUP6 SWAP5 SWAP4 PUSH2 0x10EF PUSH1 0x1 SWAP8 PUSH2 0x3360 JUMP JUMPDEST SWAP1 SLOAD SWAP2 SHL SHR AND PUSH2 0x10FF DUP3 DUP12 PUSH2 0x380E JUMP JUMPDEST MSTORE DUP10 PUSH2 0x380E JUMP JUMPDEST MSTORE SWAP1 CODESIZE DUP1 DUP1 PUSH2 0x109E JUMP JUMPDEST DUP2 DUP2 ADD DUP2 DUP2 GT PUSH2 0x1157 JUMPI PUSH2 0x1149 DUP3 PUSH2 0x1142 DUP16 SWAP4 DUP16 PUSH2 0x113B DUP5 DUP12 PUSH2 0x1133 DUP6 DUP6 PUSH2 0x380E JUMP JUMPDEST MLOAD AND SWAP3 PUSH2 0x380E JUMP JUMPDEST MSTORE DUP5 PUSH2 0x380E JUMP JUMPDEST MLOAD SWAP3 PUSH2 0x380E JUMP JUMPDEST MSTORE DUP1 ISZERO PUSH2 0x1157 JUMPI DUP2 ADD PUSH2 0x10D3 JUMP JUMPDEST PUSH4 0x4E487B71 PUSH1 0xE0 SHL PUSH1 0x0 MSTORE PUSH1 0x11 PUSH1 0x4 MSTORE PUSH1 0x24 PUSH1 0x0 REVERT JUMPDEST PUSH2 0xFC9 JUMP JUMPDEST POP CALLVALUE PUSH2 0x48D JUMPI DUP1 PUSH1 0x3 NOT CALLDATASIZE ADD SLT PUSH2 0x48D JUMPI PUSH2 0x118B PUSH2 0x38CC JUMP JUMPDEST CALLER DUP2 MSTORE PUSH1 0x6 PUSH1 0x20 MSTORE PUSH1 0x40 DUP2 KECCAK256 PUSH2 0x11A6 PUSH1 0x4 DUP3 ADD SLOAD ISZERO ISZERO PUSH2 0x34DF JUMP JUMPDEST PUSH2 0x11B3 PUSH1 0xB DUP3 ADD SLOAD PUSH2 0x3556 JUMP JUMPDEST ISZERO PUSH2 0x12A3 JUMPI PUSH1 0x9 DUP2 ADD SWAP1 DUP2 SLOAD PUSH1 0xA DUP3 ADD SWAP1 DUP2 SLOAD GT ISZERO PUSH2 0x125E JUMPI PUSH2 0x11D5 CALLER PUSH2 0x391B JUMP JUMPDEST SLOAD PUSH2 0x11E1 DUP4 SLOAD DUP3 PUSH2 0x351A JUMP JUMPDEST SWAP3 PUSH1 0xA DUP5 MUL SWAP3 DUP5 DUP5 DIV PUSH1 0xA EQ DUP6 ISZERO OR ISZERO PUSH2 0x124A JUMPI PUSH1 0x2 ADD PUSH2 0x120F DUP5 DUP3 SLOAD PUSH2 0x120A DUP3 DUP3 LT ISZERO PUSH2 0x36AF JUMP JUMPDEST PUSH2 0x351A JUMP JUMPDEST SWAP1 SSTORE SSTORE PUSH1 0x40 MLOAD SWAP2 DUP3 MSTORE PUSH1 0x20 DUP3 ADD MSTORE PUSH32 0x868567670EC4DEFB3ADFCE8655DF1B0AAFA7F429CDB1F700FFE925B1AA983560 PUSH1 0x40 CALLER SWAP3 LOG2 PUSH1 0x1 DUP1 SSTORE DUP1 RETURN JUMPDEST PUSH4 0x4E487B71 PUSH1 0xE0 SHL DUP7 MSTORE PUSH1 0x11 PUSH1 0x4 MSTORE PUSH1 0x24 DUP7 REVERT JUMPDEST PUSH1 0x40 MLOAD PUSH3 0x461BCD PUSH1 0xE5 SHL DUP2 MSTORE PUSH1 0x20 PUSH1 0x4 DUP3 ADD MSTORE PUSH1 0x17 PUSH1 0x24 DUP3 ADD MSTORE PUSH32 0x4372657720616C7265616479206174206D6178696D756D000000000000000000 PUSH1 0x44 DUP3 ADD MSTORE PUSH1 0x64 SWAP1 REVERT JUMPDEST PUSH1 0x40 MLOAD PUSH3 0x461BCD PUSH1 0xE5 SHL DUP2 MSTORE PUSH1 0x20 PUSH1 0x4 DUP3 ADD MSTORE PUSH1 0x11 PUSH1 0x24 DUP3 ADD MSTORE PUSH17 0x135D5CDD08189948185D0818481C1BDC9D PUSH1 0x7A SHL PUSH1 0x44 DUP3 ADD MSTORE PUSH1 0x64 SWAP1 REVERT JUMPDEST POP CALLVALUE PUSH2 0x48D JUMPI PUSH1 0x20 DUP1 PUSH1 0x3 NOT CALLDATASIZE ADD SLT PUSH2 0x489 JUMPI PUSH1 0xA SLOAD DUP3 SWAP2 SWAP1 PUSH1 0x4 CALLDATALOAD DUP4 JUMPDEST DUP3 DUP2 LT PUSH2 0x1554 JUMPI POP PUSH2 0x130B DUP6 PUSH2 0x37DC JUMP JUMPDEST SWAP3 PUSH2 0x1315 DUP7 PUSH2 0x37C5 JUMP JUMPDEST SWAP3 PUSH2 0x1323 PUSH1 0x40 MLOAD SWAP5 DUP6 PUSH2 0x316D JUMP JUMPDEST DUP7 DUP5 MSTORE PUSH2 0x132F DUP8 PUSH2 0x37C5 JUMP JUMPDEST PUSH1 0x1F NOT SWAP8 SWAP1 DUP9 ADD DUP8 JUMPDEST DUP2 DUP2 LT PUSH2 0x1545 JUMPI POP POP PUSH2 0x134A SWAP1 PUSH2 0x37DC JUMP JUMPDEST SWAP3 DUP7 DUP1 JUMPDEST DUP4 DUP3 LT PUSH2 0x13DE JUMPI POP POP POP POP SWAP5 PUSH2 0x1372 SWAP6 PUSH1 0x40 MLOAD SWAP7 DUP8 SWAP6 PUSH1 0x60 DUP8 MSTORE PUSH1 0x60 DUP8 ADD SWAP1 PUSH2 0x32EF JUMP JUMPDEST DUP6 DUP2 SUB DUP3 DUP8 ADD MSTORE DUP5 MLOAD SWAP3 DUP4 DUP3 MSTORE DUP3 DUP3 ADD SWAP1 DUP4 DUP1 DUP7 PUSH1 0x5 SHL DUP6 ADD ADD SWAP8 ADD SWAP9 SWAP3 JUMPDEST DUP6 DUP5 LT PUSH2 0x13AC JUMPI DUP9 DUP1 PUSH2 0x1011 DUP11 DUP11 DUP4 DUP3 SUB PUSH1 0x40 DUP6 ADD MSTORE PUSH2 0x332C JUMP JUMPDEST SWAP2 SWAP4 DUP1 DUP1 SWAP8 SWAP10 POP PUSH2 0x13CA DUP10 DUP5 DUP7 PUSH1 0x1 SWAP7 SWAP9 SWAP11 SWAP13 SUB ADD DUP9 MSTORE DUP13 MLOAD PUSH2 0x30FF JUMP JUMPDEST SWAP11 ADD SWAP5 ADD SWAP5 ADD SWAP2 DUP10 SWAP8 SWAP6 SWAP4 SWAP9 SWAP7 SWAP5 SWAP2 PUSH2 0x1391 JUMP JUMPDEST DUP8 PUSH2 0x13EF DUP4 SWAP12 SWAP9 SWAP11 SWAP7 SWAP8 SWAP10 SWAP12 PUSH2 0x3360 JUMP JUMPDEST SWAP2 SWAP1 PUSH1 0x1 DUP1 PUSH1 0xA0 SHL SUB DUP1 SWAP2 SLOAD PUSH1 0x3 SWAP5 DUP6 SHL SHR AND DUP9 MSTORE DUP8 DUP10 DUP14 PUSH1 0x6 SWAP5 DUP6 DUP4 MSTORE DUP10 PUSH1 0xB PUSH1 0x40 DUP7 KECCAK256 ADD SLOAD EQ DUP1 PUSH2 0x151E JUMPI JUMPDEST PUSH2 0x143A JUMPI JUMPDEST POP POP POP POP POP POP POP SWAP1 PUSH1 0x1 ADD SWAP1 SWAP9 SWAP7 SWAP5 SWAP4 SWAP8 SWAP6 SWAP9 PUSH2 0x134E JUMP JUMPDEST DUP9 PUSH1 0x7 PUSH1 0x40 DUP10 SWAP7 DUP10 DUP13 SWAP11 SWAP8 PUSH2 0x14A6 DUP13 PUSH1 0x1 SWAP16 SWAP10 PUSH2 0x1512 SWAP16 SWAP10 PUSH2 0x1474 PUSH2 0x1502 SWAP16 SWAP13 DUP14 PUSH2 0x14E0 SWAP14 PUSH2 0x1468 DUP15 PUSH2 0x3360 JUMP JUMPDEST SWAP1 SLOAD SWAP2 SHL SHR AND SWAP3 PUSH2 0x380E JUMP JUMPDEST MSTORE DUP11 DUP14 PUSH2 0x1480 DUP12 PUSH2 0x3360 JUMP JUMPDEST SWAP1 SLOAD SWAP2 SHL SHR AND DUP7 MSTORE DUP5 DUP5 MSTORE PUSH2 0x1496 DUP8 DUP8 KECCAK256 PUSH2 0x320E JUMP JUMPDEST PUSH2 0x14A0 DUP4 DUP4 PUSH2 0x380E JUMP JUMPDEST MSTORE PUSH2 0x380E JUMP JUMPDEST POP DUP8 PUSH2 0x14B1 DUP8 PUSH2 0x3360 JUMP JUMPDEST SWAP1 SLOAD SWAP1 DUP13 SHL SHR AND DUP4 MSTORE DUP2 DUP2 MSTORE DUP8 PUSH2 0x14CD DUP4 DUP7 DUP7 KECCAK256 ADD SLOAD SWAP8 PUSH2 0x3360 JUMP JUMPDEST SWAP1 SLOAD SWAP1 DUP13 SHL SHR AND DUP4 MSTORE MSTORE KECCAK256 ADD SLOAD SWAP1 PUSH2 0x33AD JUMP JUMPDEST SWAP3 PUSH2 0x14EA DUP10 PUSH2 0x3360 JUMP JUMPDEST SWAP1 SLOAD SWAP2 SHL SHR AND DUP11 MSTORE DUP11 MSTORE PUSH1 0x8 PUSH1 0x40 DUP11 KECCAK256 ADD SLOAD SWAP1 PUSH2 0x33AD JUMP JUMPDEST PUSH2 0x150C DUP3 DUP13 PUSH2 0x380E JUMP JUMPDEST MSTORE PUSH2 0x3527 JUMP JUMPDEST SWAP1 CODESIZE DUP1 DUP8 DUP10 DUP14 DUP16 PUSH2 0x1422 JUMP JUMPDEST POP DUP5 PUSH2 0x1529 DUP11 PUSH2 0x3360 JUMP JUMPDEST SWAP1 SLOAD SWAP1 DUP10 SHL SHR AND DUP5 MSTORE DUP6 DUP4 MSTORE PUSH1 0x10 PUSH1 0x40 DUP6 KECCAK256 ADD SLOAD TIMESTAMP LT ISZERO PUSH2 0x141D JUMP JUMPDEST PUSH1 0x60 DUP8 DUP3 ADD DUP7 ADD MSTORE DUP5 ADD PUSH2 0x1338 JUMP JUMPDEST PUSH2 0x1564 DUP2 SWAP7 SWAP4 SWAP6 SWAP7 SWAP5 SWAP3 SWAP5 PUSH2 0x3360 JUMP JUMPDEST SWAP1 SLOAD PUSH1 0x3 SWAP2 DUP3 SHL SHR PUSH1 0x1 PUSH1 0x1 PUSH1 0xA0 SHL SUB SWAP1 DUP2 AND DUP9 MSTORE PUSH1 0x6 DUP1 DUP6 MSTORE PUSH1 0x40 DUP10 KECCAK256 PUSH1 0xB ADD SLOAD DUP8 EQ SWAP3 SWAP1 SWAP2 SWAP1 DUP4 PUSH2 0x15BD JUMPI JUMPDEST POP POP POP PUSH2 0x15A9 JUMPI JUMPDEST PUSH1 0x1 ADD SWAP5 SWAP4 SWAP2 SWAP5 SWAP3 SWAP1 SWAP3 PUSH2 0x12FA JUMP JUMPDEST SWAP2 PUSH2 0x15B5 PUSH1 0x1 SWAP2 PUSH2 0x3527 JUMP JUMPDEST SWAP3 SWAP1 POP PUSH2 0x159A JUMP JUMPDEST SWAP1 SWAP2 SWAP3 POP PUSH2 0x15CA DUP5 PUSH2 0x3360 JUMP JUMPDEST SWAP1 SLOAD SWAP2 SHL SHR AND DUP8 MSTORE DUP3 MSTORE PUSH1 0x10 PUSH1 0x40 DUP8 KECCAK256 ADD SLOAD TIMESTAMP LT ISZERO CODESIZE DUP1 DUP1 PUSH2 0x1592 JUMP JUMPDEST POP CALLVALUE PUSH2 0x48D JUMPI PUSH1 0x60 CALLDATASIZE PUSH1 0x3 NOT ADD SLT PUSH2 0x48D JUMPI PUSH1 0x1 PUSH1 0x1 PUSH1 0x40 SHL SUB PUSH1 0x4 CALLDATALOAD DUP2 DUP2 GT PUSH2 0x8C2 JUMPI PUSH2 0x1619 SWAP1 CALLDATASIZE SWAP1 PUSH1 0x4 ADD PUSH2 0x32C2 JUMP JUMPDEST SWAP1 PUSH2 0x1622 PUSH2 0x32B3 JUMP JUMPDEST PUSH1 0x40 MLOAD SWAP3 PUSH1 0x20 DUP5 ADD SWAP5 DUP5 DUP7 LT SWAP1 DUP7 GT OR PUSH2 0x8AC JUMPI PUSH2 0x955 SWAP5 PUSH1 0x40 MSTORE DUP6 DUP5 MSTORE PUSH1 0x44 CALLDATALOAD SWAP3 CALLER PUSH2 0x3A4C JUMP JUMPDEST POP CALLVALUE PUSH2 0x48D JUMPI PUSH1 0x20 DUP1 PUSH1 0x3 NOT CALLDATASIZE ADD SLT PUSH2 0x489 JUMPI DUP2 PUSH1 0x4 CALLDATALOAD PUSH2 0x1669 PUSH2 0x38CC JUMP JUMPDEST DUP1 DUP3 MSTORE PUSH1 0x7 DUP4 MSTORE PUSH1 0x40 DUP3 KECCAK256 CALLER DUP4 MSTORE PUSH1 0x6 DUP5 MSTORE PUSH1 0x9 PUSH1 0x7 PUSH1 0x40 DUP6 KECCAK256 SWAP3 PUSH2 0x16BC PUSH1 0x1 DUP3 ADD PUSH2 0x1697 DUP2 SLOAD ISZERO ISZERO PUSH2 0x36ED JUMP JUMPDEST PUSH2 0x16A0 CALLER PUSH2 0x391B JUMP JUMPDEST CALLER DUP9 MSTORE PUSH1 0x8 DUP10 MSTORE PUSH1 0x40 DUP9 KECCAK256 DUP8 DUP10 MSTORE DUP10 MSTORE PUSH1 0x40 DUP9 KECCAK256 SLOAD SWAP1 SLOAD PUSH2 0x39D8 JUMP JUMPDEST PUSH2 0x16D2 PUSH1 0x2 DUP7 ADD SWAP2 DUP3 SLOAD PUSH2 0x120A DUP3 DUP3 LT ISZERO PUSH2 0x36AF JUMP JUMPDEST SWAP1 SSTORE CALLER DUP7 MSTORE PUSH1 0x8 DUP8 MSTORE PUSH1 0x40 DUP7 KECCAK256 DUP6 DUP8 MSTORE DUP8 MSTORE PUSH1 0x40 DUP7 KECCAK256 PUSH2 0x16F2 DUP2 SLOAD PUSH2 0x3527 JUMP JUMPDEST SWAP1 SSTORE PUSH1 0x2 DUP2 ADD SLOAD PUSH2 0x1708 PUSH1 0xC DUP7 ADD SWAP2 DUP3 SLOAD PUSH2 0x33AD JUMP JUMPDEST SWAP1 SSTORE PUSH1 0x3 DUP2 ADD DUP1 SLOAD PUSH2 0x171F PUSH1 0x5 DUP8 ADD SWAP2 DUP3 SLOAD PUSH2 0x33AD JUMP JUMPDEST SWAP1 SSTORE SLOAD PUSH2 0x1731 PUSH1 0x4 DUP7 ADD SWAP2 DUP3 SLOAD PUSH2 0x33AD JUMP JUMPDEST SWAP1 SSTORE PUSH1 0x4 DUP2 ADD SLOAD PUSH2 0x1747 PUSH1 0x6 DUP7 ADD SWAP2 DUP3 SLOAD PUSH2 0x33AD JUMP JUMPDEST SWAP1 SSTORE PUSH1 0x5 DUP2 ADD SLOAD PUSH2 0x175C DUP4 DUP7 ADD SWAP2 DUP3 SLOAD PUSH2 0x33AD JUMP JUMPDEST SWAP1 SSTORE PUSH1 0x6 DUP2 ADD SLOAD PUSH2 0x1772 PUSH1 0x8 DUP7 ADD SWAP2 DUP3 SLOAD PUSH2 0x33AD JUMP JUMPDEST SWAP1 SSTORE ADD SLOAD SWAP2 PUSH2 0x1786 PUSH1 0xA DUP3 ADD SWAP4 DUP5 SLOAD PUSH2 0x33AD JUMP JUMPDEST DUP1 SWAP4 SSTORE ADD DUP2 DUP2 SLOAD GT PUSH2 0x189C JUMPI JUMPDEST POP POP PUSH1 0x40 MLOAD SWAP1 CALLER PUSH32 0xCF52C8AA8ED6B7D560B4E75DB6AB973723DE269D5580985C8880844D4ED6D7C0 DUP5 DUP1 LOG3 PUSH1 0x4 SLOAD PUSH1 0x1 PUSH1 0x1 PUSH1 0xA0 SHL SUB AND DUP1 PUSH2 0x17D8 JUMPI JUMPDEST DUP3 PUSH1 0x1 DUP1 SSTORE DUP1 RETURN JUMPDEST DUP1 EXTCODESIZE ISZERO PUSH2 0x8C2 JUMPI PUSH4 0x3470275 PUSH1 0xE4 SHL DUP3 MSTORE CALLER PUSH1 0x4 DUP4 ADD MSTORE PUSH1 0x3 PUSH1 0x24 DUP4 ADD MSTORE PUSH1 0x60 PUSH1 0x44 DUP4 ADD MSTORE PUSH1 0x11 PUSH1 0x64 DUP4 ADD MSTORE PUSH17 0x1D5C19DC98591957DC1D5C98DA185CD959 PUSH1 0x7A SHL PUSH1 0x84 DUP4 ADD MSTORE DUP3 SWAP1 DUP3 SWAP1 PUSH1 0xA4 SWAP1 DUP3 SWAP1 DUP5 SWAP1 GAS CALL PUSH2 0x1888 JUMPI JUMPDEST POP POP PUSH1 0x40 DUP1 MLOAD SWAP2 PUSH1 0x3 DUP4 MSTORE DUP3 ADD MSTORE PUSH1 0x0 DUP1 MLOAD PUSH1 0x20 PUSH2 0x4FBC DUP4 CODECOPY DUP2 MLOAD SWAP2 MSTORE CALLER SWAP2 DUP1 PUSH2 0x187C PUSH1 0x40 DUP3 ADD PUSH1 0x40 SWAP1 PUSH1 0x11 DUP2 MSTORE PUSH17 0x1D5C19DC98591957DC1D5C98DA185CD959 PUSH1 0x7A SHL PUSH1 0x20 DUP3 ADD MSTORE ADD SWAP1 JUMP JUMPDEST SUB SWAP1 LOG2 CODESIZE DUP2 DUP2 DUP1 PUSH2 0x17D0 JUMP JUMPDEST PUSH2 0x1891 SWAP1 PUSH2 0x3124 JUMP JUMPDEST PUSH2 0x489 JUMPI DUP2 CODESIZE PUSH2 0x1830 JUMP JUMPDEST SSTORE CODESIZE DUP1 PUSH2 0x1793 JUMP JUMPDEST POP CALLVALUE PUSH2 0x48D JUMPI DUP1 PUSH1 0x3 NOT CALLDATASIZE ADD SLT PUSH2 0x48D JUMPI SLOAD PUSH1 0x40 MLOAD PUSH1 0x1 PUSH1 0x1 PUSH1 0xA0 SHL SUB SWAP1 SWAP2 AND DUP2 MSTORE PUSH1 0x20 SWAP1 RETURN JUMPDEST POP CALLVALUE PUSH2 0x48D JUMPI PUSH1 0x20 CALLDATASIZE PUSH1 0x3 NOT ADD SLT PUSH2 0x48D JUMPI PUSH2 0x100 SWAP1 PUSH1 0x40 SWAP1 PUSH1 0x1 PUSH1 0x1 PUSH1 0xA0 SHL SUB PUSH2 0x18F4 PUSH2 0x3088 JUMP JUMPDEST AND DUP2 MSTORE PUSH1 0x6 PUSH1 0x20 MSTORE KECCAK256 PUSH1 0x7 DUP2 ADD SLOAD SWAP1 PUSH1 0x8 DUP2 ADD SLOAD SWAP1 PUSH1 0x4 DUP2 ADD SLOAD PUSH1 0x5 DUP3 ADD SLOAD PUSH1 0x2 DUP4 ADD SLOAD SWAP1 PUSH1 0x9 DUP5 ADD SLOAD SWAP3 PUSH1 0xFF PUSH1 0x1 PUSH1 0xB DUP8 ADD SLOAD SWAP7 ADD SLOAD AND SWAP6 PUSH1 0x40 MLOAD SWAP8 DUP9 MSTORE PUSH1 0x20 DUP9 ADD MSTORE PUSH1 0x40 DUP8 ADD MSTORE PUSH1 0x60 DUP7 ADD MSTORE PUSH1 0x80 DUP6 ADD MSTORE PUSH1 0xA0 DUP5 ADD MSTORE PUSH1 0xC0 DUP4 ADD MSTORE ISZERO ISZERO PUSH1 0xE0 DUP3 ADD MSTORE RETURN JUMPDEST POP CALLVALUE PUSH2 0x48D JUMPI PUSH1 0x20 CALLDATASIZE PUSH1 0x3 NOT ADD SLT PUSH2 0x48D JUMPI PUSH1 0x4 CALLDATALOAD SWAP1 PUSH1 0x1 PUSH1 0x1 PUSH1 0x40 SHL SUB DUP3 GT PUSH2 0x48D JUMPI PUSH1 0x20 PUSH2 0x198D CALLDATASIZE PUSH1 0x4 DUP6 ADD PUSH2 0x32C2 JUMP JUMPDEST DUP1 PUSH1 0x40 MLOAD SWAP3 DUP4 CALLDATACOPY PUSH1 0xC SWAP1 DUP3 ADD SWAP1 DUP2 MSTORE DUP2 SWAP1 SUB DUP3 ADD SWAP1 KECCAK256 SLOAD PUSH1 0x40 MLOAD PUSH1 0x1 PUSH1 0x1 PUSH1 0xA0 SHL SUB SWAP1 SWAP2 AND ISZERO ISZERO DUP2 MSTORE RETURN JUMPDEST POP PUSH1 0x40 CALLDATASIZE PUSH1 0x3 NOT ADD SLT PUSH2 0x48D JUMPI PUSH1 0x4 CALLDATALOAD PUSH2 0x19D0 PUSH2 0x32B3 JUMP JUMPDEST PUSH2 0x19D8 PUSH2 0x38CC JUMP JUMPDEST CALLER DUP4 MSTORE PUSH1 0x20 PUSH1 0x6 DUP2 MSTORE PUSH1 0x40 DUP5 KECCAK256 SWAP1 PUSH2 0x19F5 PUSH1 0x4 DUP4 ADD SLOAD ISZERO ISZERO PUSH2 0x34DF JUMP JUMPDEST PUSH1 0x10 DUP3 ADD SWAP2 DUP3 SLOAD TIMESTAMP LT PUSH2 0x1C0E JUMPI PUSH1 0x64 DUP6 GT PUSH2 0x1BD6 JUMPI PUSH1 0xB DUP2 ADD SWAP1 DUP2 SLOAD DUP1 DUP8 EQ PUSH2 0x1BA1 JUMPI DUP7 DUP2 DUP2 GT ISZERO PUSH2 0x1B93 JUMPI SWAP1 PUSH2 0x1A2B SWAP2 PUSH2 0x351A JUMP JUMPDEST PUSH2 0xE10 SWAP1 DUP2 DUP2 MUL SWAP1 DUP1 DUP3 DIV DUP4 EQ DUP2 ISZERO OR ISZERO PUSH2 0xD79 JUMPI PUSH1 0x6 DUP5 ADD SLOAD PUSH2 0x12C SWAP1 DUP2 DUP2 MUL SWAP2 DUP2 DUP4 DIV EQ SWAP1 ISZERO OR ISZERO PUSH2 0x1B7F JUMPI SWAP1 PUSH2 0x1A63 SWAP2 PUSH2 0x33BA JUMP JUMPDEST DUP2 DUP2 LT PUSH2 0x1B71 JUMPI POP POP DUP8 JUMPDEST DUP7 ISZERO PUSH2 0x1B28 JUMPI DIV SWAP1 DUP2 ISZERO PUSH2 0x1B1F JUMPI JUMPDEST CALLVALUE PUSH2 0x1AE8 JUMPI PUSH1 0x3 ADD DUP1 SLOAD DUP8 SWAP4 SWAP3 PUSH2 0x1A9A SWAP2 PUSH2 0x120A DUP3 DUP3 LT ISZERO PUSH2 0x366D JUMP JUMPDEST SWAP1 SSTORE PUSH2 0x1AA7 DUP8 JUMPDEST TIMESTAMP PUSH2 0x33AD JUMP JUMPDEST DUP1 SWAP5 SSTORE SSTORE PUSH1 0x40 MLOAD SWAP4 DUP5 MSTORE DUP4 ADD MSTORE ISZERO ISZERO PUSH1 0x40 DUP3 ADD MSTORE PUSH32 0x9782A86993C9E75E77FDBBA3381A28A46E4F356E9516E67313BD4BD859C88A3F PUSH1 0x60 CALLER SWAP3 LOG2 PUSH1 0x1 DUP1 SSTORE DUP1 RETURN JUMPDEST PUSH1 0x40 MLOAD PUSH3 0x461BCD PUSH1 0xE5 SHL DUP2 MSTORE PUSH1 0x4 DUP2 ADD DUP6 SWAP1 MSTORE PUSH1 0xF PUSH1 0x24 DUP3 ADD MSTORE PUSH15 0x14185E481D9A5848191A585B5BDB99 PUSH1 0x8A SHL PUSH1 0x44 DUP3 ADD MSTORE PUSH1 0x64 SWAP1 REVERT JUMPDEST PUSH1 0x1 SWAP2 POP PUSH2 0x1A7D JUMP JUMPDEST SWAP2 POP POP CALLVALUE PUSH2 0x1B3B JUMPI SWAP1 PUSH2 0x1AA7 DUP7 SWAP3 PUSH2 0x1AA1 JUMP JUMPDEST PUSH1 0x40 MLOAD PUSH3 0x461BCD PUSH1 0xE5 SHL DUP2 MSTORE PUSH1 0x4 DUP2 ADD DUP5 SWAP1 MSTORE PUSH1 0xE PUSH1 0x24 DUP3 ADD MSTORE PUSH14 0x111BDB89DD081CD95B9908135395 PUSH1 0x92 SHL PUSH1 0x44 DUP3 ADD MSTORE PUSH1 0x64 SWAP1 REVERT JUMPDEST PUSH2 0x1B7A SWAP2 PUSH2 0x351A JUMP JUMPDEST PUSH2 0x1A6E JUMP JUMPDEST PUSH4 0x4E487B71 PUSH1 0xE0 SHL DUP12 MSTORE PUSH1 0x11 PUSH1 0x4 MSTORE PUSH1 0x24 DUP12 REVERT JUMPDEST PUSH2 0x1B9C SWAP2 PUSH2 0x351A JUMP JUMPDEST PUSH2 0x1A2B JUMP JUMPDEST PUSH1 0x40 MLOAD PUSH3 0x461BCD PUSH1 0xE5 SHL DUP2 MSTORE PUSH1 0x4 DUP2 ADD DUP6 SWAP1 MSTORE PUSH1 0xD PUSH1 0x24 DUP3 ADD MSTORE PUSH13 0x29B0B6B2903637B1B0BA34B7B7 PUSH1 0x99 SHL PUSH1 0x44 DUP3 ADD MSTORE PUSH1 0x64 SWAP1 REVERT JUMPDEST PUSH1 0x40 MLOAD PUSH3 0x461BCD PUSH1 0xE5 SHL DUP2 MSTORE PUSH1 0x4 DUP2 ADD DUP4 SWAP1 MSTORE PUSH1 0x10 PUSH1 0x24 DUP3 ADD MSTORE PUSH16 0x131BD8D85D1A5BDB881A5B9D985B1A59 PUSH1 0x82 SHL PUSH1 0x44 DUP3 ADD MSTORE PUSH1 0x64 SWAP1 REVERT JUMPDEST PUSH1 0x40 MLOAD PUSH3 0x461BCD PUSH1 0xE5 SHL DUP2 MSTORE PUSH1 0x4 DUP2 ADD DUP4 SWAP1 MSTORE PUSH1 0x11 PUSH1 0x24 DUP3 ADD MSTORE PUSH17 0x416C72656164792074726176656C696E67 PUSH1 0x78 SHL PUSH1 0x44 DUP3 ADD MSTORE PUSH1 0x64 SWAP1 REVERT JUMPDEST POP CALLVALUE PUSH2 0x48D JUMPI PUSH1 0x20 CALLDATASIZE PUSH1 0x3 NOT ADD SLT PUSH2 0x48D JUMPI PUSH1 0x40 PUSH2 0x1CAF SWAP2 PUSH1 0x4 CALLDATALOAD DUP2 MSTORE PUSH1 0x7 PUSH1 0x20 MSTORE KECCAK256 PUSH2 0x1C73 DUP2 PUSH2 0x320E JUMP JUMPDEST SWAP1 PUSH1 0x1 DUP2 ADD SLOAD SWAP1 PUSH1 0x2 DUP2 ADD SLOAD SWAP1 PUSH1 0x3 DUP2 ADD SLOAD PUSH1 0x4 DUP3 ADD SLOAD PUSH1 0x5 DUP4 ADD SLOAD SWAP2 PUSH1 0x7 PUSH1 0x6 DUP6 ADD SLOAD SWAP5 ADD SLOAD SWAP5 PUSH1 0x40 MLOAD SWAP9 DUP10 SWAP9 PUSH2 0x100 DUP1 DUP12 MSTORE DUP11 ADD SWAP1 PUSH2 0x30FF JUMP JUMPDEST SWAP7 PUSH1 0x20 DUP10 ADD MSTORE PUSH1 0x40 DUP9 ADD MSTORE PUSH1 0x60 DUP8 ADD MSTORE PUSH1 0x80 DUP7 ADD MSTORE PUSH1 0xA0 DUP6 ADD MSTORE PUSH1 0xC0 DUP5 ADD MSTORE PUSH1 0xE0 DUP4 ADD MSTORE SUB SWAP1 RETURN JUMPDEST POP CALLVALUE PUSH2 0x48D JUMPI DUP1 PUSH1 0x3 NOT CALLDATASIZE ADD SLT PUSH2 0x48D JUMPI PUSH2 0x1CF0 PUSH2 0x38EF JUMP JUMPDEST PUSH1 0x0 DUP1 SLOAD PUSH1 0x1 PUSH1 0x1 PUSH1 0xA0 SHL SUB NOT DUP2 AND DUP3 SSTORE PUSH1 0x1 PUSH1 0x1 PUSH1 0xA0 SHL SUB AND PUSH32 0x8BE0079C531659141344CD1FD0A4F28419497F9722A3DAAFE3B4186F6B6457E0 DUP3 DUP1 LOG3 DUP1 RETURN JUMPDEST POP CALLVALUE PUSH2 0x48D JUMPI PUSH1 0x80 CALLDATASIZE PUSH1 0x3 NOT ADD SLT PUSH2 0x48D JUMPI PUSH2 0x1D4B PUSH2 0x3088 JUMP JUMPDEST PUSH2 0x1D53 PUSH2 0x309E JUMP JUMPDEST PUSH1 0x44 CALLDATALOAD PUSH1 0x1 PUSH1 0x1 PUSH1 0xA0 SHL SUB DUP2 DUP2 AND SWAP2 DUP3 SWAP1 SUB PUSH2 0x1E24 JUMPI PUSH1 0x64 CALLDATALOAD SWAP4 DUP2 DUP6 AND DUP1 SWAP6 SUB PUSH2 0x1E24 JUMPI DUP2 SWAP1 PUSH2 0x1D81 PUSH2 0x38EF JUMP JUMPDEST AND SWAP3 DUP4 ISZERO PUSH2 0x1DE7 JUMPI PUSH12 0xFFFFFFFFFFFFFFFFFFFFFFFF PUSH1 0xA0 SHL SWAP4 DUP5 PUSH1 0x2 SLOAD AND OR PUSH1 0x2 SSTORE AND DUP1 PUSH2 0x1DD8 JUMPI JUMPDEST POP DUP1 PUSH2 0x1DC9 JUMPI JUMPDEST POP DUP2 PUSH2 0x1DBB JUMPI DUP3 DUP1 RETURN JUMPDEST PUSH1 0x5 SLOAD AND OR PUSH1 0x5 SSTORE CODESIZE DUP1 DUP3 DUP1 RETURN JUMPDEST DUP2 PUSH1 0x4 SLOAD AND OR PUSH1 0x4 SSTORE CODESIZE PUSH2 0x1DB1 JUMP JUMPDEST DUP3 PUSH1 0x3 SLOAD AND OR PUSH1 0x3 SSTORE CODESIZE PUSH2 0x1DAA JUMP JUMPDEST PUSH1 0x40 MLOAD PUSH3 0x461BCD PUSH1 0xE5 SHL DUP2 MSTORE PUSH1 0x20 PUSH1 0x4 DUP3 ADD MSTORE PUSH1 0x15 PUSH1 0x24 DUP3 ADD MSTORE PUSH21 0x496E76616C696420746F6B656E2061646472657373 PUSH1 0x58 SHL PUSH1 0x44 DUP3 ADD MSTORE PUSH1 0x64 SWAP1 REVERT JUMPDEST PUSH1 0x0 DUP1 REVERT JUMPDEST POP CALLVALUE PUSH2 0x48D JUMPI PUSH1 0x20 CALLDATASIZE PUSH1 0x3 NOT ADD SLT PUSH2 0x48D JUMPI PUSH2 0x1011 SWAP1 PUSH2 0x1E64 SWAP1 PUSH1 0x40 SWAP1 PUSH1 0x1 PUSH1 0x1 PUSH1 0xA0 SHL SUB PUSH2 0x1E56 PUSH2 0x3088 JUMP JUMPDEST AND DUP2 MSTORE PUSH1 0xD PUSH1 0x20 MSTORE KECCAK256 PUSH2 0x320E JUMP JUMPDEST PUSH1 0x40 MLOAD SWAP2 DUP3 SWAP2 PUSH1 0x20 DUP4 MSTORE PUSH1 0x20 DUP4 ADD SWAP1 PUSH2 0x30FF JUMP JUMPDEST POP CALLVALUE PUSH2 0x48D JUMPI PUSH1 0x20 CALLDATASIZE PUSH1 0x3 NOT ADD SLT PUSH2 0x48D JUMPI PUSH1 0x20 PUSH2 0x5BA PUSH2 0x1E97 PUSH2 0x3088 JUMP JUMPDEST PUSH2 0x3772 JUMP JUMPDEST POP CALLVALUE PUSH2 0x48D JUMPI PUSH1 0x40 CALLDATASIZE PUSH1 0x3 NOT ADD SLT PUSH2 0x48D JUMPI PUSH2 0x1EB6 PUSH2 0x3088 JUMP JUMPDEST PUSH2 0x1EBE PUSH2 0x38EF JUMP JUMPDEST PUSH1 0x1 PUSH1 0x1 PUSH1 0xA0 SHL SUB AND DUP1 DUP3 MSTORE PUSH1 0x6 PUSH1 0x20 MSTORE PUSH1 0x40 DUP3 KECCAK256 PUSH1 0x4 DUP2 ADD SLOAD PUSH2 0x1EED SWAP2 SWAP1 ISZERO DUP1 ISZERO SWAP2 SWAP1 PUSH2 0x1F0D JUMPI JUMPDEST POP PUSH2 0x372D JUMP JUMPDEST DUP2 MSTORE PUSH1 0x6 PUSH1 0x20 MSTORE PUSH1 0x3 PUSH1 0x40 DUP3 KECCAK256 ADD PUSH2 0x1F08 PUSH1 0x24 CALLDATALOAD DUP3 SLOAD PUSH2 0x33AD JUMP JUMPDEST SWAP1 SSTORE DUP1 RETURN JUMPDEST PUSH1 0x5 SWAP2 POP ADD SLOAD ISZERO ISZERO CODESIZE PUSH2 0x1EE7 JUMP JUMPDEST POP CALLVALUE PUSH2 0x48D JUMPI PUSH1 0x40 CALLDATASIZE PUSH1 0x3 NOT ADD SLT PUSH2 0x48D JUMPI PUSH2 0x1F35 PUSH2 0x3088 JUMP JUMPDEST PUSH2 0x1F3D PUSH2 0x38EF JUMP JUMPDEST PUSH1 0x1 PUSH1 0x1 PUSH1 0xA0 SHL SUB AND DUP1 DUP3 MSTORE PUSH1 0x6 PUSH1 0x20 MSTORE PUSH1 0x40 DUP3 KECCAK256 PUSH1 0x4 DUP2 ADD SLOAD PUSH2 0x1F6B SWAP2 SWAP1 ISZERO DUP1 ISZERO SWAP2 SWAP1 PUSH2 0x1F0D JUMPI POP PUSH2 0x372D JUMP JUMPDEST DUP2 MSTORE PUSH1 0x6 PUSH1 0x20 MSTORE PUSH1 0x2 PUSH1 0x40 DUP3 KECCAK256 ADD PUSH2 0x1F08 PUSH1 0x24 CALLDATALOAD DUP3 SLOAD PUSH2 0x33AD JUMP JUMPDEST POP CALLVALUE PUSH2 0x48D JUMPI PUSH1 0x20 CALLDATASIZE PUSH1 0x3 NOT ADD SLT PUSH2 0x48D JUMPI PUSH1 0x1 PUSH1 0x1 PUSH1 0xA0 SHL SUB PUSH2 0x1FA8 PUSH2 0x3088 JUMP JUMPDEST AND DUP2 MSTORE PUSH1 0x6 PUSH1 0x20 MSTORE PUSH1 0x40 SWAP1 KECCAK256 PUSH2 0x1FBD DUP2 PUSH2 0x320E JUMP JUMPDEST SWAP1 PUSH1 0x1 DUP2 ADD SLOAD PUSH1 0xFF AND PUSH1 0xE0 MSTORE PUSH1 0x2 DUP2 ADD SLOAD PUSH2 0x100 MSTORE PUSH1 0x3 DUP2 ADD SLOAD PUSH2 0x120 MSTORE PUSH1 0x4 DUP2 ADD SLOAD SWAP2 PUSH1 0x5 DUP3 ADD SLOAD PUSH1 0x6 DUP4 ADD SLOAD PUSH1 0x7 DUP5 ADD SLOAD PUSH1 0x8 DUP6 ADD SLOAD PUSH1 0x9 DUP7 ADD SLOAD PUSH1 0xA DUP8 ADD SLOAD SWAP1 PUSH1 0xB DUP9 ADD SLOAD SWAP3 PUSH1 0xC DUP10 ADD SLOAD SWAP5 PUSH1 0xD DUP11 ADD SLOAD SWAP7 PUSH1 0xE DUP12 ADD SLOAD SWAP9 PUSH1 0xF DUP13 ADD SLOAD SWAP11 PUSH1 0x10 DUP14 ADD SLOAD SWAP13 PUSH1 0x11 DUP2 ADD SLOAD PUSH1 0x80 MSTORE PUSH1 0x12 ADD SLOAD PUSH1 0xA0 MSTORE PUSH1 0x40 MLOAD PUSH1 0xC0 MSTORE PUSH2 0x260 DUP1 PUSH1 0xC0 MLOAD MSTORE PUSH1 0xC0 MLOAD ADD PUSH2 0x204E SWAP2 PUSH2 0x30FF JUMP JUMPDEST SWAP13 PUSH1 0xE0 MLOAD ISZERO ISZERO PUSH1 0xC0 MLOAD PUSH1 0x20 ADD MSTORE PUSH2 0x100 MLOAD PUSH1 0xC0 MLOAD PUSH1 0x40 ADD MSTORE PUSH2 0x120 MLOAD PUSH1 0xC0 MLOAD PUSH1 0x60 ADD MSTORE PUSH1 0xC0 MLOAD PUSH1 0x80 ADD MSTORE PUSH1 0xC0 MLOAD PUSH1 0xA0 ADD MSTORE PUSH1 0xC0 MLOAD PUSH1 0xC0 ADD MSTORE PUSH1 0xC0 MLOAD PUSH1 0xE0 ADD MSTORE PUSH1 0xC0 MLOAD PUSH2 0x100 ADD MSTORE PUSH1 0xC0 MLOAD PUSH2 0x120 ADD MSTORE PUSH1 0xC0 MLOAD PUSH2 0x140 ADD MSTORE PUSH1 0xC0 MLOAD PUSH2 0x160 ADD MSTORE PUSH1 0xC0 MLOAD PUSH2 0x180 ADD MSTORE PUSH1 0xC0 MLOAD PUSH2 0x1A0 ADD MSTORE PUSH1 0xC0 MLOAD PUSH2 0x1C0 ADD MSTORE PUSH1 0xC0 MLOAD PUSH2 0x1E0 ADD MSTORE PUSH1 0xC0 MLOAD PUSH2 0x200 ADD MSTORE PUSH1 0x80 MLOAD PUSH1 0xC0 MLOAD PUSH2 0x220 ADD MSTORE PUSH1 0xA0 MLOAD PUSH1 0xC0 MLOAD PUSH2 0x240 ADD MSTORE PUSH1 0xC0 MLOAD SWAP1 SUB PUSH1 0xC0 MLOAD RETURN JUMPDEST POP CALLVALUE PUSH2 0x48D JUMPI PUSH1 0x40 CALLDATASIZE PUSH1 0x3 NOT ADD SLT PUSH2 0x48D JUMPI PUSH2 0x5BA PUSH1 0x20 SWAP2 PUSH1 0x40 PUSH1 0x4 CALLDATALOAD SWAP2 PUSH2 0x211B PUSH2 0x309E JUMP JUMPDEST SWAP3 DUP1 DUP3 MSTORE PUSH1 0x7 DUP7 MSTORE PUSH1 0x1 DUP4 DUP4 KECCAK256 ADD SLOAD SWAP4 PUSH2 0x2136 DUP6 ISZERO ISZERO PUSH2 0x36ED JUMP JUMPDEST PUSH1 0x1 PUSH1 0x1 PUSH1 0xA0 SHL SUB AND DUP3 MSTORE PUSH1 0x8 DUP7 MSTORE DUP3 DUP3 KECCAK256 SWAP1 DUP3 MSTORE DUP6 MSTORE KECCAK256 SLOAD SWAP1 PUSH2 0x39D8 JUMP JUMPDEST POP CALLVALUE PUSH2 0x48D JUMPI PUSH1 0x20 DUP1 PUSH1 0x3 NOT CALLDATASIZE ADD SLT PUSH2 0x489 JUMPI PUSH1 0x4 CALLDATALOAD SWAP1 PUSH1 0x3 DUP3 LT ISZERO PUSH2 0x8C2 JUMPI PUSH2 0x217D PUSH2 0x38CC JUMP JUMPDEST CALLER DUP4 MSTORE PUSH1 0x6 DUP2 MSTORE PUSH1 0x40 DUP4 KECCAK256 PUSH2 0x2196 PUSH1 0x4 DUP3 ADD SLOAD ISZERO PUSH2 0x357F JUMP JUMPDEST PUSH1 0x12 DUP2 ADD SWAP2 DUP3 SLOAD TIMESTAMP LT PUSH2 0x2374 JUMPI PUSH2 0x21B0 PUSH1 0xB DUP4 ADD SLOAD PUSH2 0x3556 JUMP JUMPDEST ISZERO PUSH2 0x233E JUMPI PUSH1 0x40 MLOAD PUSH4 0xAFBCEA5 PUSH1 0xE0 SHL DUP2 MSTORE CALLER PUSH1 0x4 DUP3 ADD MSTORE DUP6 SWAP3 DUP4 SWAP2 SWAP1 PUSH1 0xC0 DUP3 PUSH1 0x24 DUP2 ADDRESS GAS STATICCALL SWAP2 DUP3 ISZERO PUSH2 0x2333 JUMPI DUP9 SWAP1 DUP10 SWAP4 PUSH2 0x22E6 JUMPI JUMPDEST POP PUSH1 0x0 SWAP4 DUP9 PUSH2 0x2254 JUMPI POP POP POP MLOAD SWAP4 PUSH2 0x21FE DUP6 TIMESTAMP PUSH2 0x33AD JUMP JUMPDEST SWAP1 SSTORE JUMPDEST PUSH2 0x2240 JUMPI PUSH1 0x40 MLOAD SWAP4 DUP5 MSTORE DUP4 ADD MSTORE PUSH1 0x40 DUP3 ADD MSTORE PUSH32 0xCEAF11028A962CAC404996BD00DF91DB254D60670B1D4C940EB519227E998B37 PUSH1 0x60 CALLER SWAP3 LOG2 PUSH1 0x1 DUP1 SSTORE DUP1 RETURN JUMPDEST PUSH4 0x4E487B71 PUSH1 0xE0 SHL DUP6 MSTORE PUSH1 0x21 PUSH1 0x4 MSTORE PUSH1 0x24 DUP6 REVERT JUMPDEST SWAP1 SWAP2 SWAP7 SWAP3 SWAP6 PUSH1 0x1 DUP10 EQ PUSH1 0x0 EQ PUSH2 0x22A0 JUMPI POP POP DUP4 DUP1 PUSH1 0x2 SWAP3 ADD MLOAD SWAP6 ADD MLOAD SWAP6 PUSH2 0x227A CALLER PUSH2 0x391B JUMP JUMPDEST ADD PUSH2 0x228D DUP6 DUP3 SLOAD PUSH2 0x120A DUP3 DUP3 LT ISZERO PUSH2 0x36AF JUMP JUMPDEST SWAP1 SSTORE PUSH2 0x2299 DUP6 TIMESTAMP PUSH2 0x33AD JUMP JUMPDEST SWAP1 SSTORE PUSH2 0x2201 JUMP JUMPDEST SWAP6 POP SWAP6 SWAP2 SWAP1 SWAP3 POP PUSH1 0x0 SWAP3 PUSH1 0x2 DUP9 EQ PUSH2 0x22BB JUMPI JUMPDEST POP POP POP PUSH2 0x2201 JUMP JUMPDEST PUSH1 0x3 SWAP2 SWAP3 SWAP6 POP PUSH1 0x40 ADD MLOAD SWAP5 ADD PUSH2 0x22D9 DUP6 DUP3 SLOAD PUSH2 0x120A DUP3 DUP3 LT ISZERO PUSH2 0x366D JUMP JUMPDEST SWAP1 SSTORE TIMESTAMP SWAP1 SSTORE CODESIZE DUP1 DUP1 PUSH2 0x22B3 JUMP JUMPDEST SWAP3 POP POP PUSH1 0xC0 RETURNDATASIZE PUSH1 0xC0 GT PUSH2 0x232C JUMPI JUMPDEST PUSH2 0x22FE DUP2 DUP5 PUSH2 0x316D JUMP JUMPDEST DUP3 ADD PUSH1 0xC0 DUP4 DUP3 SUB SLT PUSH2 0x2328 JUMPI DUP1 PUSH1 0x60 PUSH2 0x231A PUSH2 0x2321 SWAP4 DUP7 PUSH2 0x3628 JUMP JUMPDEST SWAP5 ADD PUSH2 0x3628 JUMP JUMPDEST SWAP2 CODESIZE PUSH2 0x21E6 JUMP JUMPDEST DUP9 DUP1 REVERT JUMPDEST POP RETURNDATASIZE PUSH2 0x22F4 JUMP JUMPDEST PUSH1 0x40 MLOAD RETURNDATASIZE DUP11 DUP3 RETURNDATACOPY RETURNDATASIZE SWAP1 REVERT JUMPDEST PUSH1 0x64 SWAP1 PUSH1 0x40 MLOAD SWAP1 PUSH3 0x461BCD PUSH1 0xE5 SHL DUP3 MSTORE PUSH1 0x4 DUP3 ADD MSTORE PUSH1 0xF PUSH1 0x24 DUP3 ADD MSTORE PUSH15 0x135D5CDD08189948185D081C1BDC9D PUSH1 0x8A SHL PUSH1 0x44 DUP3 ADD MSTORE REVERT JUMPDEST PUSH1 0x64 SWAP1 PUSH1 0x40 MLOAD SWAP1 PUSH3 0x461BCD PUSH1 0xE5 SHL DUP3 MSTORE PUSH1 0x4 DUP3 ADD MSTORE PUSH1 0x12 PUSH1 0x24 DUP3 ADD MSTORE PUSH18 0x52657061697220696E2070726F6772657373 PUSH1 0x70 SHL PUSH1 0x44 DUP3 ADD MSTORE REVERT JUMPDEST POP CALLVALUE PUSH2 0x48D JUMPI PUSH1 0x20 CALLDATASIZE PUSH1 0x3 NOT ADD SLT PUSH2 0x48D JUMPI PUSH1 0x20 PUSH2 0x5BA PUSH2 0x23CC PUSH2 0x3088 JUMP JUMPDEST PUSH2 0x35BE JUMP JUMPDEST POP CALLVALUE PUSH2 0x48D JUMPI DUP1 PUSH1 0x3 NOT CALLDATASIZE ADD SLT PUSH2 0x48D JUMPI PUSH2 0x23EA PUSH2 0x38EF JUMP JUMPDEST DUP1 DUP1 DUP1 DUP1 SELFBALANCE DUP2 DUP2 ISZERO PUSH2 0x240E JUMPI JUMPDEST CALLER SWAP1 CALL ISZERO PUSH2 0x2402 JUMPI DUP1 RETURN JUMPDEST PUSH1 0x40 MLOAD SWAP1 RETURNDATASIZE SWAP1 DUP3 RETURNDATACOPY RETURNDATASIZE SWAP1 REVERT JUMPDEST POP PUSH2 0x8FC PUSH2 0x23F7 JUMP JUMPDEST POP CALLVALUE PUSH2 0x48D JUMPI DUP1 PUSH1 0x3 NOT CALLDATASIZE ADD SLT PUSH2 0x48D JUMPI PUSH1 0x2 SLOAD PUSH1 0x40 MLOAD PUSH1 0x1 PUSH1 0x1 PUSH1 0xA0 SHL SUB SWAP1 SWAP2 AND DUP2 MSTORE PUSH1 0x20 SWAP1 RETURN JUMPDEST POP CALLVALUE PUSH2 0x48D JUMPI PUSH1 0x20 CALLDATASIZE PUSH1 0x3 NOT ADD SLT PUSH2 0x48D JUMPI PUSH2 0x245A PUSH2 0x3088 JUMP JUMPDEST PUSH2 0x2462 PUSH2 0x38EF JUMP JUMPDEST PUSH1 0x1 PUSH1 0x1 PUSH1 0xA0 SHL SUB AND DUP1 ISZERO PUSH2 0x24AA JUMPI PUSH1 0xE DUP1 SLOAD PUSH1 0x1 PUSH1 0x1 PUSH1 0xA0 SHL SUB NOT AND DUP3 OR SWAP1 SSTORE PUSH32 0xDA05B298405D30FAA06FD33FD0F66BE4C5B369D0617617BAF90412C4BB25FCEA DUP3 DUP1 LOG2 DUP1 RETURN JUMPDEST PUSH1 0x40 MLOAD PUSH3 0x461BCD PUSH1 0xE5 SHL DUP2 MSTORE PUSH1 0x20 PUSH1 0x4 DUP3 ADD MSTORE PUSH1 0x15 PUSH1 0x24 DUP3 ADD MSTORE PUSH21 0x496E76616C6964206172656E612061646472657373 PUSH1 0x58 SHL PUSH1 0x44 DUP3 ADD MSTORE PUSH1 0x64 SWAP1 REVERT JUMPDEST POP CALLVALUE PUSH2 0x48D JUMPI PUSH1 0x40 CALLDATASIZE PUSH1 0x3 NOT ADD SLT PUSH2 0x48D JUMPI PUSH1 0x20 SWAP1 PUSH1 0x40 SWAP1 PUSH1 0x1 PUSH1 0x1 PUSH1 0xA0 SHL SUB PUSH2 0x250F PUSH2 0x3088 JUMP JUMPDEST AND DUP2 MSTORE PUSH1 0x8 DUP4 MSTORE DUP2 DUP2 KECCAK256 PUSH1 0x24 CALLDATALOAD DUP3 MSTORE DUP4 MSTORE KECCAK256 SLOAD PUSH1 0x40 MLOAD SWAP1 DUP2 MSTORE RETURN JUMPDEST POP CALLVALUE PUSH2 0x48D JUMPI DUP1 PUSH1 0x3 NOT CALLDATASIZE ADD SLT PUSH2 0x48D JUMPI PUSH2 0x2543 PUSH2 0x38CC JUMP JUMPDEST CALLER DUP2 MSTORE PUSH1 0x6 PUSH1 0x20 MSTORE PUSH1 0x40 DUP2 KECCAK256 SWAP1 PUSH1 0x4 DUP3 ADD PUSH2 0x255F DUP2 SLOAD ISZERO PUSH2 0x357F JUMP JUMPDEST PUSH1 0x12 DUP4 ADD SWAP1 DUP2 SLOAD SWAP1 DUP2 TIMESTAMP LT PUSH2 0x2666 JUMPI DUP2 ISZERO PUSH2 0x2629 JUMPI PUSH1 0x5 DUP6 ADD SLOAD DUP1 SWAP2 SSTORE DUP4 PUSH1 0xF DUP7 ADD SSTORE PUSH1 0x18 DUP2 ADD DUP1 SWAP2 GT PUSH2 0x2615 JUMPI PUSH1 0x19 SWAP1 DIV SWAP1 PUSH2 0x708 SWAP2 DUP3 DUP2 MUL SWAP3 DUP2 DUP5 DIV EQ SWAP1 ISZERO OR ISZERO PUSH2 0x2615 JUMPI PUSH1 0x3B NOT DUP3 ADD SWAP2 DUP3 GT PUSH2 0x2615 JUMPI LT PUSH2 0x2604 JUMPI PUSH1 0xA DUP4 ADD SLOAD SWAP3 PUSH1 0x1 DUP5 ADD DUP1 SWAP5 GT PUSH2 0x25F0 JUMPI PUSH1 0x1 PUSH1 0x9 DUP5 SWAP6 DUP3 SHR SWAP3 ADD SWAP2 DUP1 DUP4 SSTORE LT PUSH2 0x25E6 JUMPI JUMPDEST POP JUMPDEST SSTORE PUSH1 0x1 DUP1 SSTORE DUP1 RETURN JUMPDEST PUSH1 0x1 SWAP1 SSTORE CODESIZE PUSH2 0x25DC JUMP JUMPDEST PUSH4 0x4E487B71 PUSH1 0xE0 SHL DUP4 MSTORE PUSH1 0x11 PUSH1 0x4 MSTORE PUSH1 0x24 DUP4 REVERT JUMPDEST DUP3 PUSH1 0x9 PUSH1 0xA DUP5 SWAP6 ADD SLOAD SWAP2 ADD SSTORE PUSH2 0x25DE JUMP JUMPDEST PUSH4 0x4E487B71 PUSH1 0xE0 SHL DUP5 MSTORE PUSH1 0x11 PUSH1 0x4 MSTORE PUSH1 0x24 DUP5 REVERT JUMPDEST PUSH1 0x40 MLOAD PUSH3 0x461BCD PUSH1 0xE5 SHL DUP2 MSTORE PUSH1 0x20 PUSH1 0x4 DUP3 ADD MSTORE PUSH1 0x15 PUSH1 0x24 DUP3 ADD MSTORE PUSH21 0x4E6F2072657061697220696E2070726F6772657373 PUSH1 0x58 SHL PUSH1 0x44 DUP3 ADD MSTORE PUSH1 0x64 SWAP1 REVERT JUMPDEST PUSH1 0x40 MLOAD PUSH3 0x461BCD PUSH1 0xE5 SHL DUP2 MSTORE PUSH1 0x20 PUSH1 0x4 DUP3 ADD MSTORE PUSH1 0x10 PUSH1 0x24 DUP3 ADD MSTORE PUSH16 0x526570616972206E6F74207265616479 PUSH1 0x80 SHL PUSH1 0x44 DUP3 ADD MSTORE PUSH1 0x64 SWAP1 REVERT JUMPDEST POP CALLVALUE PUSH2 0x48D JUMPI PUSH1 0x20 CALLDATASIZE PUSH1 0x3 NOT ADD SLT PUSH2 0x48D JUMPI PUSH1 0x4 CALLDATALOAD SWAP1 PUSH1 0x1 PUSH1 0x1 PUSH1 0x40 SHL SUB DUP3 GT PUSH2 0x48D JUMPI CALLDATASIZE PUSH1 0x23 DUP4 ADD SLT ISZERO PUSH2 0x48D JUMPI PUSH1 0x20 PUSH2 0x26E1 CALLDATASIZE PUSH1 0x4 DUP6 ADD CALLDATALOAD PUSH1 0x24 DUP7 ADD PUSH2 0x318E JUMP JUMPDEST DUP2 PUSH2 0x26F5 PUSH1 0x40 MLOAD SWAP3 DUP4 DUP2 MLOAD SWAP4 DUP5 SWAP3 ADD PUSH2 0x30DC JUMP JUMPDEST PUSH1 0xC SWAP1 DUP3 ADD SWAP1 DUP2 MSTORE DUP2 SWAP1 SUB DUP3 ADD SWAP1 KECCAK256 SLOAD PUSH1 0x40 MLOAD PUSH1 0x1 PUSH1 0x1 PUSH1 0xA0 SHL SUB SWAP1 SWAP2 AND DUP2 MSTORE RETURN JUMPDEST POP CALLVALUE PUSH2 0x48D JUMPI PUSH1 0x20 CALLDATASIZE PUSH1 0x3 NOT ADD SLT PUSH2 0x48D JUMPI PUSH1 0x20 PUSH2 0x2736 PUSH1 0x4 CALLDATALOAD PUSH2 0x3556 JUMP JUMPDEST PUSH1 0x40 MLOAD SWAP1 ISZERO ISZERO DUP2 MSTORE RETURN JUMPDEST POP CALLVALUE PUSH2 0x48D JUMPI PUSH1 0x20 CALLDATASIZE PUSH1 0x3 NOT ADD SLT PUSH2 0x48D JUMPI PUSH2 0x27A9 SWAP1 PUSH1 0x1 PUSH1 0x1 PUSH1 0xA0 SHL SUB SWAP1 DUP2 PUSH2 0x2768 PUSH2 0x3088 JUMP JUMPDEST AND DUP2 MSTORE PUSH1 0xD PUSH1 0x20 MSTORE PUSH1 0x40 DUP1 DUP3 KECCAK256 SWAP2 PUSH1 0xB PUSH1 0x20 MSTORE KECCAK256 SWAP2 DUP3 SLOAD AND SWAP1 PUSH2 0x2794 PUSH1 0x2 PUSH1 0x1 DUP6 ADD SLOAD SWAP5 ADD SLOAD SWAP2 PUSH2 0x320E JUMP JUMPDEST SWAP3 PUSH1 0x40 MLOAD SWAP5 DUP6 SWAP5 PUSH1 0x80 DUP7 MSTORE PUSH1 0x80 DUP7 ADD SWAP1 PUSH2 0x30FF JUMP JUMPDEST SWAP3 PUSH1 0x20 DUP6 ADD MSTORE PUSH1 0x40 DUP5 ADD MSTORE PUSH1 0x60 DUP4 ADD MSTORE SUB SWAP1 RETURN JUMPDEST POP CALLVALUE PUSH2 0x48D JUMPI DUP1 PUSH1 0x3 NOT CALLDATASIZE ADD SLT PUSH2 0x48D JUMPI CALLER DUP2 MSTORE PUSH1 0x6 PUSH1 0x20 MSTORE PUSH1 0x40 DUP2 KECCAK256 PUSH2 0x27E9 PUSH1 0x4 DUP3 ADD SLOAD ISZERO ISZERO PUSH2 0x34DF JUMP JUMPDEST PUSH3 0x15180 DUP1 TIMESTAMP DIV PUSH1 0xD DUP4 ADD SWAP2 DUP3 SLOAD DIV DUP2 DUP2 LT ISZERO PUSH2 0x2A18 JUMPI PUSH1 0x0 NOT DUP3 ADD SWAP2 DUP3 GT PUSH2 0x29F8 JUMPI SUB PUSH2 0x2A0C JUMPI PUSH1 0xE DUP3 ADD DUP1 SLOAD SWAP1 PUSH1 0x1 DUP3 ADD DUP1 SWAP3 GT PUSH2 0x29F8 JUMPI SSTORE JUMPDEST TIMESTAMP SWAP1 SSTORE PUSH1 0x9 DUP2 ADD SLOAD SWAP1 PUSH1 0x19 DUP3 MUL SWAP2 DUP1 DUP4 DIV PUSH1 0x19 EQ SWAP1 ISZERO OR ISZERO PUSH2 0x25F0 JUMPI PUSH1 0xE DUP2 ADD SLOAD SWAP2 DUP3 PUSH1 0x5 MUL SWAP1 PUSH1 0x5 DUP3 DIV DUP5 SUB PUSH2 0x29F8 JUMPI PUSH1 0x2 SWAP2 PUSH2 0x2862 SWAP2 PUSH2 0x33AD JUMP JUMPDEST SWAP2 ADD PUSH2 0x286F DUP3 DUP3 SLOAD PUSH2 0x33AD JUMP JUMPDEST SWAP1 SSTORE PUSH1 0x40 MLOAD SWAP2 DUP3 MSTORE PUSH1 0x20 DUP3 ADD MSTORE PUSH32 0xB9CFEA4717F167774A6E8643C33472935D3EF918453525EEFCA6936078B7CFDD PUSH1 0x40 CALLER SWAP3 LOG2 PUSH1 0x2 SLOAD DUP2 SWAP1 PUSH1 0x1 PUSH1 0x1 PUSH1 0xA0 SHL SUB SWAP1 DUP2 AND DUP1 PUSH2 0x2953 JUMPI JUMPDEST POP PUSH1 0x4 SLOAD AND DUP1 PUSH2 0x28C5 JUMPI POP RETURN JUMPDEST DUP1 EXTCODESIZE ISZERO PUSH2 0x2950 JUMPI DUP2 PUSH1 0x40 MLOAD DUP1 SWAP3 PUSH4 0x3470275 PUSH1 0xE4 SHL DUP3 MSTORE CALLER PUSH1 0x4 DUP4 ADD MSTORE PUSH1 0x5 PUSH1 0x24 DUP4 ADD MSTORE PUSH1 0x60 PUSH1 0x44 DUP4 ADD MSTORE DUP2 DUP4 DUP2 PUSH2 0x28FF PUSH1 0x64 DUP3 ADD PUSH2 0x3536 JUMP JUMPDEST SUB SWAP3 GAS CALL PUSH2 0x293C JUMPI JUMPDEST POP POP PUSH1 0x40 MLOAD PUSH1 0x5 DUP2 MSTORE PUSH1 0x40 PUSH1 0x20 DUP3 ADD MSTORE PUSH1 0x0 DUP1 MLOAD PUSH1 0x20 PUSH2 0x4FBC DUP4 CODECOPY DUP2 MLOAD SWAP2 MSTORE CALLER SWAP2 DUP1 PUSH2 0x2936 PUSH1 0x40 DUP3 ADD PUSH2 0x3536 JUMP JUMPDEST SUB SWAP1 LOG2 DUP1 RETURN JUMPDEST PUSH2 0x2945 SWAP1 PUSH2 0x3124 JUMP JUMPDEST PUSH2 0x48D JUMPI DUP1 CODESIZE PUSH2 0x2908 JUMP JUMPDEST POP REVERT JUMPDEST DUP1 EXTCODESIZE ISZERO PUSH2 0x29F4 JUMPI PUSH1 0x40 MLOAD PUSH3 0xFE2119 PUSH1 0xE5 SHL DUP2 MSTORE CALLER PUSH1 0x4 DUP3 ADD MSTORE DUP4 DUP1 DUP3 PUSH8 0xDE0B6B3A7640000 SWAP5 DUP6 PUSH1 0x24 DUP4 ADD MSTORE PUSH1 0x60 PUSH1 0x44 DUP4 ADD MSTORE DUP2 DUP4 DUP2 PUSH2 0x2995 PUSH1 0x64 DUP3 ADD PUSH2 0x3536 JUMP JUMPDEST SUB SWAP3 GAS CALL SWAP2 DUP3 PUSH2 0x29DB JUMPI JUMPDEST POP POP ISZERO PUSH2 0x28B8 JUMPI PUSH1 0x40 MLOAD SWAP1 DUP2 MSTORE PUSH1 0x40 PUSH1 0x20 DUP3 ADD MSTORE PUSH1 0x0 DUP1 MLOAD PUSH1 0x20 PUSH2 0x4FDC DUP4 CODECOPY DUP2 MLOAD SWAP2 MSTORE CALLER SWAP2 DUP1 PUSH2 0x29D2 PUSH1 0x40 DUP3 ADD PUSH2 0x3536 JUMP JUMPDEST SUB SWAP1 LOG2 CODESIZE PUSH2 0x28B8 JUMP JUMPDEST PUSH2 0x29E4 SWAP1 PUSH2 0x3124 JUMP JUMPDEST PUSH2 0x29EF JUMPI DUP4 CODESIZE PUSH2 0x29A0 JUMP JUMPDEST POP POP POP REVERT JUMPDEST POP POP REVERT JUMPDEST PUSH4 0x4E487B71 PUSH1 0xE0 SHL DUP6 MSTORE PUSH1 0x11 PUSH1 0x4 MSTORE PUSH1 0x24 DUP6 REVERT JUMPDEST PUSH1 0x1 PUSH1 0xE DUP4 ADD SSTORE PUSH2 0x2825 JUMP JUMPDEST PUSH1 0x40 MLOAD PUSH3 0x461BCD PUSH1 0xE5 SHL DUP2 MSTORE PUSH1 0x20 PUSH1 0x4 DUP3 ADD MSTORE PUSH1 0x18 PUSH1 0x24 DUP3 ADD MSTORE PUSH32 0x416C726561647920636865636B656420696E20746F6461790000000000000000 PUSH1 0x44 DUP3 ADD MSTORE PUSH1 0x64 SWAP1 REVERT JUMPDEST POP CALLVALUE PUSH2 0x48D JUMPI PUSH1 0x40 CALLDATASIZE PUSH1 0x3 NOT ADD SLT PUSH2 0x48D JUMPI PUSH2 0x2A77 PUSH2 0x3088 JUMP JUMPDEST SWAP1 PUSH2 0x2A80 PUSH2 0x309E JUMP JUMPDEST PUSH1 0xE SLOAD PUSH1 0x1 PUSH1 0x1 PUSH1 0xA0 SHL SUB SWAP4 SWAP2 SWAP3 SWAP2 SWAP1 DUP5 AND CALLER SUB PUSH2 0x2DC2 JUMPI DUP4 DUP2 AND DUP1 DUP4 MSTORE PUSH1 0x6 PUSH1 0x20 MSTORE PUSH1 0x40 DUP4 KECCAK256 DUP6 DUP6 AND SWAP6 DUP7 DUP6 MSTORE PUSH1 0x40 DUP6 KECCAK256 SWAP7 PUSH1 0x5 DUP4 ADD SLOAD SWAP4 DUP5 ISZERO PUSH2 0x2D85 JUMPI PUSH1 0x5 DUP10 ADD SLOAD SWAP5 DUP6 ISZERO PUSH2 0x2D48 JUMPI PUSH1 0x4 DUP6 ADD DUP1 SLOAD PUSH1 0x4 DUP13 ADD SWAP2 DUP3 SLOAD SWAP4 SWAP9 SWAP8 DUP14 PUSH1 0x8 PUSH1 0x7 DUP4 ADD SLOAD SWAP2 ADD SLOAD DUP1 DUP3 GT PUSH1 0x0 EQ PUSH2 0x2D3A JUMPI PUSH2 0x2AFE PUSH1 0x7 SWAP2 PUSH1 0x8 SWAP4 PUSH2 0x351A JUMP JUMPDEST SWAP16 JUMPDEST ADD SLOAD SWAP2 ADD SLOAD DUP1 DUP3 GT ISZERO PUSH2 0x2D2D JUMPI PUSH2 0x2B16 SWAP2 PUSH2 0x351A JUMP JUMPDEST SWAP10 SWAP9 SWAP8 SWAP9 JUMPDEST DUP12 SWAP10 JUMPDEST DUP10 ISZERO ISZERO DUP1 PUSH2 0x2D24 JUMPI JUMPDEST DUP1 PUSH2 0x2D1A JUMPI JUMPDEST ISZERO PUSH2 0x2B7D JUMPI DUP12 SWAP1 DUP16 DUP2 DUP2 LT PUSH2 0x2B6E JUMPI POP POP DUP13 SWAP10 JUMPDEST DUP1 DUP3 LT PUSH2 0x2B5B JUMPI POP POP PUSH2 0x2B54 DUP13 SWAP11 PUSH2 0x3527 JUMP JUMPDEST SWAP10 SWAP9 PUSH2 0x2B1E JUMP JUMPDEST PUSH2 0x2B54 SWAP2 PUSH2 0x2B68 SWAP2 PUSH2 0x351A JUMP JUMPDEST SWAP11 PUSH2 0x3527 JUMP JUMPDEST PUSH2 0x2B77 SWAP2 PUSH2 0x351A JUMP JUMPDEST SWAP10 PUSH2 0x2B41 JUMP JUMPDEST DUP14 SWAP1 DUP14 SWAP11 DUP1 ISZERO DUP1 ISZERO DUP1 PUSH2 0x2D12 JUMPI JUMPDEST ISZERO PUSH2 0x2CDC JUMPI POP POP POP POP SWAP8 JUMPDEST DUP8 PUSH1 0x2 SLOAD AND DUP1 PUSH2 0x2C65 JUMPI JUMPDEST POP DUP8 PUSH1 0x4 SLOAD AND DUP1 PUSH2 0x2BFB JUMPI JUMPDEST POP POP SSTORE SSTORE PUSH32 0x7131C2E3E81F8C0CBCD8D31B4768770C3A09894928686CA9844FBAD1AC42ABC8 PUSH1 0x20 PUSH1 0x40 MLOAD SWAP5 DUP8 DUP7 MSTORE DUP7 AND SWAP5 LOG4 PUSH1 0x40 DUP1 MLOAD PUSH1 0x1 PUSH1 0x1 PUSH1 0xA0 SHL SUB SWAP3 SWAP1 SWAP3 AND DUP3 MSTORE PUSH1 0x20 DUP3 ADD SWAP3 SWAP1 SWAP3 MSTORE RETURN JUMPDEST DUP1 EXTCODESIZE ISZERO PUSH2 0x489 JUMPI PUSH1 0x40 MLOAD PUSH4 0x3470275 PUSH1 0xE4 SHL DUP2 MSTORE DUP10 DUP12 AND PUSH1 0x4 DUP3 ADD MSTORE PUSH1 0xA PUSH1 0x24 DUP3 ADD MSTORE PUSH1 0x60 PUSH1 0x44 DUP3 ADD MSTORE PUSH1 0x9 PUSH1 0x64 DUP3 ADD MSTORE PUSH9 0x30B932B730AFBBB4B7 PUSH1 0xB9 SHL PUSH1 0x84 DUP3 ADD MSTORE SWAP1 DUP3 SWAP1 DUP3 SWAP1 PUSH1 0xA4 SWAP1 DUP3 SWAP1 DUP5 SWAP1 GAS CALL ISZERO PUSH2 0x2BAD JUMPI PUSH2 0x2C5B DUP3 SWAP2 PUSH2 0x3124 JUMP JUMPDEST PUSH2 0x48D JUMPI DUP1 PUSH2 0x2BAD JUMP JUMPDEST DUP1 EXTCODESIZE ISZERO PUSH2 0x489 JUMPI PUSH1 0x40 MLOAD PUSH3 0xFE2119 PUSH1 0xE5 SHL DUP2 MSTORE DUP10 DUP12 AND PUSH1 0x4 DUP3 ADD MSTORE PUSH8 0xDE0B6B3A7640000 PUSH1 0x24 DUP3 ADD MSTORE PUSH1 0x60 PUSH1 0x44 DUP3 ADD MSTORE PUSH1 0x9 PUSH1 0x64 DUP3 ADD MSTORE PUSH9 0x30B932B730AFBBB4B7 PUSH1 0xB9 SHL PUSH1 0x84 DUP3 ADD MSTORE DUP3 SWAP2 DUP3 SWAP1 DUP3 SWAP1 PUSH1 0xA4 SWAP1 DUP3 SWAP1 DUP5 SWAP1 GAS CALL PUSH2 0x2CC8 JUMPI JUMPDEST POP PUSH2 0x2BA1 JUMP JUMPDEST PUSH2 0x2CD1 SWAP1 PUSH2 0x3124 JUMP JUMPDEST PUSH2 0x48D JUMPI DUP1 DUP12 PUSH2 0x2CC2 JUMP JUMPDEST DUP3 ISZERO ISZERO SWAP1 DUP2 PUSH2 0x2D0A JUMPI JUMPDEST POP ISZERO PUSH2 0x2CF6 JUMPI POP POP SWAP1 POP SWAP8 PUSH2 0x2B96 JUMP JUMPDEST LT PUSH2 0x2D03 JUMPI POP JUMPDEST SWAP8 PUSH2 0x2B96 JUMP JUMPDEST SWAP1 POP PUSH2 0x2CFD JUMP JUMPDEST SWAP1 POP DUP15 PUSH2 0x2CE6 JUMP JUMPDEST POP DUP3 ISZERO PUSH2 0x2B8B JUMP JUMPDEST POP PUSH1 0xC8 DUP12 LT PUSH2 0x2B2D JUMP JUMPDEST POP DUP1 ISZERO ISZERO PUSH2 0x2B27 JUMP JUMPDEST POP POP PUSH1 0x1 SWAP10 SWAP9 SWAP8 SWAP9 PUSH2 0x2B1B JUMP JUMPDEST POP POP PUSH1 0x8 PUSH1 0x7 PUSH1 0x1 SWAP16 PUSH2 0x2B00 JUMP JUMPDEST PUSH1 0x40 MLOAD PUSH3 0x461BCD PUSH1 0xE5 SHL DUP2 MSTORE PUSH1 0x20 PUSH1 0x4 DUP3 ADD MSTORE PUSH1 0x15 PUSH1 0x24 DUP3 ADD MSTORE PUSH21 0x1059D95B9D0C881A185CC81B9BC81858D8DBDD5B9D PUSH1 0x5A SHL PUSH1 0x44 DUP3 ADD MSTORE PUSH1 0x64 SWAP1 REVERT JUMPDEST PUSH1 0x40 MLOAD PUSH3 0x461BCD PUSH1 0xE5 SHL DUP2 MSTORE PUSH1 0x20 PUSH1 0x4 DUP3 ADD MSTORE PUSH1 0x15 PUSH1 0x24 DUP3 ADD MSTORE PUSH21 0x1059D95B9D0C481A185CC81B9BC81858D8DBDD5B9D PUSH1 0x5A SHL PUSH1 0x44 DUP3 ADD MSTORE PUSH1 0x64 SWAP1 REVERT JUMPDEST PUSH1 0x40 MLOAD PUSH3 0x461BCD PUSH1 0xE5 SHL DUP2 MSTORE PUSH1 0x20 PUSH1 0x4 DUP3 ADD MSTORE PUSH1 0x13 PUSH1 0x24 DUP3 ADD MSTORE PUSH19 0x13DB9B1E48185C995B984818DBDB9D1C9858DD PUSH1 0x6A SHL PUSH1 0x44 DUP3 ADD MSTORE PUSH1 0x64 SWAP1 REVERT JUMPDEST POP CALLVALUE PUSH2 0x48D JUMPI DUP1 PUSH1 0x3 NOT CALLDATASIZE ADD SLT PUSH2 0x48D JUMPI PUSH2 0x2E16 PUSH2 0x38CC JUMP JUMPDEST CALLER DUP2 MSTORE PUSH1 0x20 SWAP1 PUSH1 0x6 DUP3 MSTORE PUSH1 0x40 DUP2 KECCAK256 PUSH2 0x2E33 PUSH1 0x4 DUP3 ADD SLOAD ISZERO ISZERO PUSH2 0x34DF JUMP JUMPDEST PUSH1 0xC DUP2 ADD SLOAD DUP1 ISZERO PUSH2 0x2FE9 JUMPI PUSH1 0x11 DUP3 ADD SWAP2 PUSH2 0x2E4E DUP4 SLOAD TIMESTAMP PUSH2 0x351A JUMP JUMPDEST SWAP2 DUP3 ISZERO PUSH2 0x2FB2 JUMPI DUP3 PUSH2 0x2E5F SWAP2 PUSH2 0x33BA JUMP JUMPDEST SWAP3 DUP4 ISZERO PUSH2 0x2F7A JUMPI SWAP1 PUSH1 0x2 SWAP2 TIMESTAMP SWAP1 SSTORE ADD PUSH2 0x2E79 DUP4 DUP3 SLOAD PUSH2 0x33AD JUMP JUMPDEST SWAP1 SSTORE PUSH1 0x40 MLOAD SWAP2 DUP3 MSTORE DUP4 DUP3 ADD MSTORE PUSH32 0x6ED0C81F2EB08CA19CF12AAB8DFA5D3566D3140926B3E0035B8423029996C185 PUSH1 0x40 CALLER SWAP3 LOG2 PUSH1 0x4 SLOAD PUSH1 0x1 PUSH1 0x1 PUSH1 0xA0 SHL SUB AND DUP1 PUSH2 0x2EC5 JUMPI JUMPDEST POP PUSH1 0x1 DUP1 SSTORE DUP1 RETURN JUMPDEST DUP1 EXTCODESIZE ISZERO PUSH2 0x489 JUMPI PUSH1 0x40 MLOAD PUSH4 0x3470275 PUSH1 0xE4 SHL DUP2 MSTORE CALLER PUSH1 0x4 DUP3 ADD MSTORE PUSH1 0x1 PUSH1 0x24 DUP3 ADD MSTORE PUSH1 0x60 PUSH1 0x44 DUP3 ADD MSTORE PUSH1 0xB PUSH1 0x64 DUP3 ADD MSTORE PUSH11 0x19DC1B57D8DB185A5B5959 PUSH1 0xAA SHL PUSH1 0x84 DUP3 ADD MSTORE SWAP1 DUP3 SWAP1 DUP3 SWAP1 PUSH1 0xA4 SWAP1 DUP3 SWAP1 DUP5 SWAP1 GAS CALL PUSH2 0x2F6B JUMPI JUMPDEST POP SWAP1 PUSH1 0x40 DUP1 MLOAD SWAP2 PUSH1 0x1 DUP4 MSTORE DUP3 ADD MSTORE PUSH1 0x0 DUP1 MLOAD PUSH1 0x20 PUSH2 0x4FBC DUP4 CODECOPY DUP2 MLOAD SWAP2 MSTORE CALLER SWAP2 DUP1 PUSH2 0x2F61 PUSH1 0x40 DUP3 ADD PUSH1 0x40 SWAP1 PUSH1 0xB DUP2 MSTORE PUSH11 0x19DC1B57D8DB185A5B5959 PUSH1 0xAA SHL PUSH1 0x20 DUP3 ADD MSTORE ADD SWAP1 JUMP JUMPDEST SUB SWAP1 LOG2 DUP1 CODESIZE PUSH2 0x2EBD JUMP JUMPDEST PUSH2 0x2F74 SWAP1 PUSH2 0x3124 JUMP JUMPDEST CODESIZE PUSH2 0x2F1B JUMP JUMPDEST PUSH1 0x40 MLOAD PUSH3 0x461BCD PUSH1 0xE5 SHL DUP2 MSTORE PUSH1 0x4 DUP2 ADD DUP8 SWAP1 MSTORE PUSH1 0x10 PUSH1 0x24 DUP3 ADD MSTORE PUSH16 0x4E6F20676F6C6420746F20636C61696D PUSH1 0x80 SHL PUSH1 0x44 DUP3 ADD MSTORE PUSH1 0x64 SWAP1 REVERT JUMPDEST PUSH1 0x40 MLOAD PUSH3 0x461BCD PUSH1 0xE5 SHL DUP2 MSTORE PUSH1 0x4 DUP2 ADD DUP8 SWAP1 MSTORE PUSH1 0xF PUSH1 0x24 DUP3 ADD MSTORE PUSH15 0x139BC81D1A5B5948195B185C1CD959 PUSH1 0x8A SHL PUSH1 0x44 DUP3 ADD MSTORE PUSH1 0x64 SWAP1 REVERT JUMPDEST PUSH1 0x40 MLOAD PUSH3 0x461BCD PUSH1 0xE5 SHL DUP2 MSTORE PUSH1 0x4 DUP2 ADD DUP6 SWAP1 MSTORE PUSH1 0xF PUSH1 0x24 DUP3 ADD MSTORE PUSH15 0x4E6F2047504D20746F20636C61696D PUSH1 0x88 SHL PUSH1 0x44 DUP3 ADD MSTORE PUSH1 0x64 SWAP1 REVERT JUMPDEST POP CALLVALUE PUSH2 0x48D JUMPI PUSH1 0x20 CALLDATASIZE PUSH1 0x3 NOT ADD SLT PUSH2 0x48D JUMPI PUSH1 0xC0 PUSH2 0x3061 PUSH2 0x3047 PUSH2 0x3042 PUSH2 0x3088 JUMP JUMPDEST PUSH2 0x33CD JUMP JUMPDEST PUSH2 0x3057 PUSH1 0x40 SWAP4 SWAP3 SWAP4 MLOAD DUP1 SWAP5 PUSH2 0x30B4 JUMP JUMPDEST PUSH1 0x60 DUP4 ADD SWAP1 PUSH2 0x30B4 JUMP JUMPDEST RETURN JUMPDEST SWAP1 POP CALLVALUE PUSH2 0x489 JUMPI DUP2 PUSH1 0x3 NOT CALLDATASIZE ADD SLT PUSH2 0x489 JUMPI PUSH1 0xE SLOAD PUSH1 0x1 PUSH1 0x1 PUSH1 0xA0 SHL SUB AND DUP2 MSTORE PUSH1 0x20 SWAP1 RETURN JUMPDEST PUSH1 0x4 CALLDATALOAD SWAP1 PUSH1 0x1 PUSH1 0x1 PUSH1 0xA0 SHL SUB DUP3 AND DUP3 SUB PUSH2 0x1E24 JUMPI JUMP JUMPDEST PUSH1 0x24 CALLDATALOAD SWAP1 PUSH1 0x1 PUSH1 0x1 PUSH1 0xA0 SHL SUB DUP3 AND DUP3 SUB PUSH2 0x1E24 JUMPI JUMP JUMPDEST PUSH1 0x0 SWAP2 JUMPDEST PUSH1 0x3 DUP4 LT PUSH2 0x30C5 JUMPI POP POP POP JUMP JUMPDEST PUSH1 0x1 SWAP1 DUP3 MLOAD DUP2 MSTORE PUSH1 0x20 DUP1 SWAP2 ADD SWAP3 ADD SWAP3 ADD SWAP2 SWAP1 PUSH2 0x30B8 JUMP JUMPDEST PUSH1 0x0 JUMPDEST DUP4 DUP2 LT PUSH2 0x30EF JUMPI POP POP PUSH1 0x0 SWAP2 ADD MSTORE JUMP JUMPDEST DUP2 DUP2 ADD MLOAD DUP4 DUP3 ADD MSTORE PUSH1 0x20 ADD PUSH2 0x30DF JUMP JUMPDEST SWAP1 PUSH1 0x20 SWAP2 PUSH2 0x3118 DUP2 MLOAD DUP1 SWAP3 DUP2 DUP6 MSTORE DUP6 DUP1 DUP7 ADD SWAP2 ADD PUSH2 0x30DC JUMP JUMPDEST PUSH1 0x1F ADD PUSH1 0x1F NOT AND ADD ADD SWAP1 JUMP JUMPDEST PUSH1 0x1 PUSH1 0x1 PUSH1 0x40 SHL SUB DUP2 GT PUSH2 0x8AC JUMPI PUSH1 0x40 MSTORE JUMP JUMPDEST PUSH1 0x60 DUP2 ADD SWAP1 DUP2 LT PUSH1 0x1 PUSH1 0x1 PUSH1 0x40 SHL SUB DUP3 GT OR PUSH2 0x8AC JUMPI PUSH1 0x40 MSTORE JUMP JUMPDEST PUSH1 0x40 DUP2 ADD SWAP1 DUP2 LT PUSH1 0x1 PUSH1 0x1 PUSH1 0x40 SHL SUB DUP3 GT OR PUSH2 0x8AC JUMPI PUSH1 0x40 MSTORE JUMP JUMPDEST SWAP1 PUSH1 0x1F DUP1 NOT SWAP2 ADD AND DUP2 ADD SWAP1 DUP2 LT PUSH1 0x1 PUSH1 0x1 PUSH1 0x40 SHL SUB DUP3 GT OR PUSH2 0x8AC JUMPI PUSH1 0x40 MSTORE JUMP JUMPDEST SWAP3 SWAP2 SWAP3 PUSH1 0x1 PUSH1 0x1 PUSH1 0x40 SHL SUB DUP3 GT PUSH2 0x8AC JUMPI PUSH1 0x40 MLOAD SWAP2 PUSH2 0x31B7 PUSH1 0x1F DUP3 ADD PUSH1 0x1F NOT AND PUSH1 0x20 ADD DUP5 PUSH2 0x316D JUMP JUMPDEST DUP3 SWAP5 DUP2 DUP5 MSTORE DUP2 DUP4 ADD GT PUSH2 0x1E24 JUMPI DUP3 DUP2 PUSH1 0x20 SWAP4 DUP5 PUSH1 0x0 SWAP7 ADD CALLDATACOPY ADD ADD MSTORE JUMP JUMPDEST SWAP1 PUSH1 0x1 DUP3 DUP2 SHR SWAP3 AND DUP1 ISZERO PUSH2 0x3204 JUMPI JUMPDEST PUSH1 0x20 DUP4 LT EQ PUSH2 0x31EE JUMPI JUMP JUMPDEST PUSH4 0x4E487B71 PUSH1 0xE0 SHL PUSH1 0x0 MSTORE PUSH1 0x22 PUSH1 0x4 MSTORE PUSH1 0x24 PUSH1 0x0 REVERT JUMPDEST SWAP2 PUSH1 0x7F AND SWAP2 PUSH2 0x31E3 JUMP JUMPDEST SWAP1 PUSH1 0x40 MLOAD SWAP2 DUP3 PUSH1 0x0 DUP3 SLOAD PUSH2 0x3221 DUP2 PUSH2 0x31D4 JUMP JUMPDEST SWAP1 DUP2 DUP5 MSTORE PUSH1 0x20 SWAP5 PUSH1 0x1 SWAP2 PUSH1 0x1 DUP2 AND SWAP1 DUP2 PUSH1 0x0 EQ PUSH2 0x3291 JUMPI POP PUSH1 0x1 EQ PUSH2 0x3252 JUMPI JUMPDEST POP POP POP PUSH2 0x3250 SWAP3 POP SUB DUP4 PUSH2 0x316D JUMP JUMPDEST JUMP JUMPDEST PUSH1 0x0 SWAP1 DUP2 MSTORE DUP6 DUP2 KECCAK256 SWAP6 SWAP4 POP SWAP2 SWAP1 JUMPDEST DUP2 DUP4 LT PUSH2 0x3279 JUMPI POP POP PUSH2 0x3250 SWAP4 POP DUP3 ADD ADD CODESIZE DUP1 DUP1 PUSH2 0x3241 JUMP JUMPDEST DUP6 SLOAD DUP9 DUP5 ADD DUP6 ADD MSTORE SWAP5 DUP6 ADD SWAP5 DUP8 SWAP5 POP SWAP2 DUP4 ADD SWAP2 PUSH2 0x3260 JUMP JUMPDEST SWAP3 POP POP POP PUSH2 0x3250 SWAP5 SWAP3 POP PUSH1 0xFF NOT AND DUP3 DUP5 ADD MSTORE ISZERO ISZERO PUSH1 0x5 SHL DUP3 ADD ADD CODESIZE DUP1 DUP1 PUSH2 0x3241 JUMP JUMPDEST PUSH1 0x24 CALLDATALOAD SWAP1 DUP2 ISZERO ISZERO DUP3 SUB PUSH2 0x1E24 JUMPI JUMP JUMPDEST SWAP2 DUP2 PUSH1 0x1F DUP5 ADD SLT ISZERO PUSH2 0x1E24 JUMPI DUP3 CALLDATALOAD SWAP2 PUSH1 0x1 PUSH1 0x1 PUSH1 0x40 SHL SUB DUP4 GT PUSH2 0x1E24 JUMPI PUSH1 0x20 DUP4 DUP2 DUP7 ADD SWAP6 ADD ADD GT PUSH2 0x1E24 JUMPI JUMP JUMPDEST SWAP1 DUP2 MLOAD DUP1 DUP3 MSTORE PUSH1 0x20 DUP1 DUP1 SWAP4 ADD SWAP4 ADD SWAP2 PUSH1 0x0 JUMPDEST DUP3 DUP2 LT PUSH2 0x330F JUMPI POP POP POP POP SWAP1 JUMP JUMPDEST DUP4 MLOAD PUSH1 0x1 PUSH1 0x1 PUSH1 0xA0 SHL SUB AND DUP6 MSTORE SWAP4 DUP2 ADD SWAP4 SWAP3 DUP2 ADD SWAP3 PUSH1 0x1 ADD PUSH2 0x3301 JUMP JUMPDEST SWAP1 DUP2 MLOAD DUP1 DUP3 MSTORE PUSH1 0x20 DUP1 DUP1 SWAP4 ADD SWAP4 ADD SWAP2 PUSH1 0x0 JUMPDEST DUP3 DUP2 LT PUSH2 0x334C JUMPI POP POP POP POP SWAP1 JUMP JUMPDEST DUP4 MLOAD DUP6 MSTORE SWAP4 DUP2 ADD SWAP4 SWAP3 DUP2 ADD SWAP3 PUSH1 0x1 ADD PUSH2 0x333E JUMP JUMPDEST PUSH1 0xA SLOAD DUP2 LT ISZERO PUSH2 0x3397 JUMPI PUSH1 0xA PUSH1 0x0 MSTORE PUSH32 0xC65A7BB8D6351C1CF70C95A316CC6A92839C986682D98BC35F958F4883F9D2A8 ADD SWAP1 PUSH1 0x0 SWAP1 JUMP JUMPDEST PUSH4 0x4E487B71 PUSH1 0xE0 SHL PUSH1 0x0 MSTORE PUSH1 0x32 PUSH1 0x4 MSTORE PUSH1 0x24 PUSH1 0x0 REVERT JUMPDEST SWAP2 SWAP1 DUP3 ADD DUP1 SWAP3 GT PUSH2 0x1157 JUMPI JUMP JUMPDEST DUP2 DUP2 MUL SWAP3 SWAP2 DUP2 ISZERO SWAP2 DUP5 DIV EQ OR ISZERO PUSH2 0x1157 JUMPI JUMP JUMPDEST SWAP1 PUSH1 0x40 DUP1 MLOAD PUSH2 0x33DB DUP2 PUSH2 0x3137 JUMP JUMPDEST PUSH1 0x60 CALLDATASIZE DUP3 CALLDATACOPY SWAP1 DUP1 MLOAD PUSH2 0x33EC DUP2 PUSH2 0x3137 JUMP JUMPDEST PUSH1 0x60 CALLDATASIZE DUP3 CALLDATACOPY PUSH1 0x1 PUSH1 0x1 PUSH1 0xA0 SHL SUB SWAP1 SWAP5 AND PUSH1 0x0 SWAP1 DUP2 MSTORE PUSH1 0x6 PUSH1 0x20 MSTORE DUP2 DUP2 KECCAK256 PUSH1 0x4 DUP2 ADD SLOAD PUSH2 0x34A4 JUMPI PUSH1 0x5 ADD SLOAD SWAP1 PUSH1 0x18 DUP3 ADD DUP1 DUP4 GT PUSH2 0x3490 JUMPI PUSH1 0x19 SWAP1 DIV PUSH2 0x708 DUP1 DUP3 MUL DUP3 ISZERO SWAP2 DUP4 DUP3 DIV EQ DUP3 OR ISZERO PUSH2 0x2615 JUMPI DUP9 MSTORE PUSH2 0x12C DUP1 DUP4 MUL SWAP3 DUP4 DIV EQ OR ISZERO PUSH2 0x3490 JUMPI PUSH1 0x20 DUP8 ADD MSTORE DUP1 DUP4 DUP8 ADD MSTORE DUP1 DUP5 MSTORE PUSH1 0x14 DUP3 MUL SWAP2 DUP1 DUP4 DIV PUSH1 0x14 EQ SWAP1 ISZERO OR ISZERO PUSH2 0x347C JUMPI POP PUSH1 0x20 DUP4 ADD MSTORE PUSH1 0x1 SWAP1 DUP3 ADD MSTORE SWAP2 SWAP1 JUMP JUMPDEST PUSH4 0x4E487B71 PUSH1 0xE0 SHL DUP2 MSTORE PUSH1 0x11 PUSH1 0x4 MSTORE PUSH1 0x24 SWAP1 REVERT JUMPDEST PUSH4 0x4E487B71 PUSH1 0xE0 SHL DUP3 MSTORE PUSH1 0x11 PUSH1 0x4 MSTORE PUSH1 0x24 DUP3 REVERT JUMPDEST POP SWAP2 POP DUP1 SWAP4 POP MLOAD SWAP1 PUSH2 0x34B5 DUP3 PUSH2 0x3137 JUMP JUMPDEST DUP1 DUP3 MSTORE DUP1 PUSH1 0x20 DUP4 ADD MSTORE DUP1 DUP5 DUP4 ADD MSTORE DUP4 MLOAD SWAP4 PUSH2 0x34CF DUP6 PUSH2 0x3137 JUMP JUMPDEST DUP2 DUP6 MSTORE DUP2 PUSH1 0x20 DUP7 ADD MSTORE DUP5 ADD MSTORE SWAP2 SWAP1 JUMP JUMPDEST ISZERO PUSH2 0x34E6 JUMPI JUMP JUMPDEST PUSH1 0x40 MLOAD PUSH3 0x461BCD PUSH1 0xE5 SHL DUP2 MSTORE PUSH1 0x20 PUSH1 0x4 DUP3 ADD MSTORE PUSH1 0xC PUSH1 0x24 DUP3 ADD MSTORE PUSH12 0x14DA1A5C081DDC9958DAD959 PUSH1 0xA2 SHL PUSH1 0x44 DUP3 ADD MSTORE PUSH1 0x64 SWAP1 REVERT JUMPDEST SWAP2 SWAP1 DUP3 SUB SWAP2 DUP3 GT PUSH2 0x1157 JUMPI JUMP JUMPDEST PUSH1 0x0 NOT DUP2 EQ PUSH2 0x1157 JUMPI PUSH1 0x1 ADD SWAP1 JUMP JUMPDEST PUSH1 0xD DUP2 MSTORE PUSH13 0x3230B4B63CAFB1B432B1B5B4B7 PUSH1 0x99 SHL PUSH1 0x20 DUP3 ADD MSTORE PUSH1 0x40 ADD SWAP1 JUMP JUMPDEST PUSH1 0x19 DUP2 EQ SWAP1 DUP2 ISZERO PUSH2 0x3574 JUMPI JUMPDEST DUP2 ISZERO PUSH2 0x356C JUMPI POP SWAP1 JUMP JUMPDEST PUSH1 0x59 SWAP2 POP EQ SWAP1 JUMP JUMPDEST PUSH1 0x37 DUP2 EQ SWAP2 POP PUSH2 0x3562 JUMP JUMPDEST ISZERO PUSH2 0x3586 JUMPI JUMP JUMPDEST PUSH1 0x40 MLOAD PUSH3 0x461BCD PUSH1 0xE5 SHL DUP2 MSTORE PUSH1 0x20 PUSH1 0x4 DUP3 ADD MSTORE PUSH1 0x10 PUSH1 0x24 DUP3 ADD MSTORE PUSH16 0x14DA1A5C081B9BDD081DDC9958DAD959 PUSH1 0x82 SHL PUSH1 0x44 DUP3 ADD MSTORE PUSH1 0x64 SWAP1 REVERT JUMPDEST PUSH1 0x1 PUSH1 0x1 PUSH1 0xA0 SHL SUB AND PUSH1 0x0 SWAP1 DUP2 MSTORE PUSH1 0x6 PUSH1 0x20 MSTORE PUSH1 0x40 SWAP1 KECCAK256 PUSH1 0x4 DUP2 ADD SLOAD ISZERO DUP1 ISZERO PUSH2 0x3616 JUMPI JUMPDEST PUSH2 0x3610 JUMPI DUP1 PUSH1 0x9 PUSH1 0xA PUSH2 0x35FA SWAP4 ADD SLOAD SWAP2 ADD SLOAD SWAP1 PUSH2 0x351A JUMP JUMPDEST PUSH1 0xA DUP2 MUL SWAP1 DUP1 DUP3 DIV PUSH1 0xA EQ SWAP1 ISZERO OR ISZERO PUSH2 0x1157 JUMPI SWAP1 JUMP JUMPDEST POP PUSH1 0x0 SWAP1 JUMP JUMPDEST POP PUSH1 0x9 DUP2 ADD SLOAD PUSH1 0xA DUP3 ADD SLOAD GT ISZERO PUSH2 0x35E2 JUMP JUMPDEST SWAP1 DUP1 PUSH1 0x1F DUP4 ADD SLT ISZERO PUSH2 0x1E24 JUMPI PUSH1 0x40 MLOAD SWAP2 PUSH2 0x3641 DUP4 PUSH2 0x3137 JUMP JUMPDEST DUP3 SWAP1 PUSH1 0x60 DUP2 ADD SWAP3 DUP4 GT PUSH2 0x1E24 JUMPI SWAP1 JUMPDEST DUP3 DUP3 LT PUSH2 0x365D JUMPI POP POP POP SWAP1 JUMP JUMPDEST DUP2 MLOAD DUP2 MSTORE PUSH1 0x20 SWAP2 DUP3 ADD SWAP2 ADD PUSH2 0x3650 JUMP JUMPDEST ISZERO PUSH2 0x3674 JUMPI JUMP JUMPDEST PUSH1 0x40 MLOAD PUSH3 0x461BCD PUSH1 0xE5 SHL DUP2 MSTORE PUSH1 0x20 PUSH1 0x4 DUP3 ADD MSTORE PUSH1 0x13 PUSH1 0x24 DUP3 ADD MSTORE PUSH19 0x4E6F7420656E6F756768206469616D6F6E6473 PUSH1 0x68 SHL PUSH1 0x44 DUP3 ADD MSTORE PUSH1 0x64 SWAP1 REVERT JUMPDEST ISZERO PUSH2 0x36B6 JUMPI JUMP JUMPDEST PUSH1 0x40 MLOAD PUSH3 0x461BCD PUSH1 0xE5 SHL DUP2 MSTORE PUSH1 0x20 PUSH1 0x4 DUP3 ADD MSTORE PUSH1 0xF PUSH1 0x24 DUP3 ADD MSTORE PUSH15 0x139BDD08195B9BDD59DA0819DBDB19 PUSH1 0x8A SHL PUSH1 0x44 DUP3 ADD MSTORE PUSH1 0x64 SWAP1 REVERT JUMPDEST ISZERO PUSH2 0x36F4 JUMPI JUMP JUMPDEST PUSH1 0x40 MLOAD PUSH3 0x461BCD PUSH1 0xE5 SHL DUP2 MSTORE PUSH1 0x20 PUSH1 0x4 DUP3 ADD MSTORE PUSH1 0x11 PUSH1 0x24 DUP3 ADD MSTORE PUSH17 0x155C19DC985919481B9BDD08195E1A5CDD PUSH1 0x7A SHL PUSH1 0x44 DUP3 ADD MSTORE PUSH1 0x64 SWAP1 REVERT JUMPDEST ISZERO PUSH2 0x3734 JUMPI JUMP JUMPDEST PUSH1 0x40 MLOAD PUSH3 0x461BCD PUSH1 0xE5 SHL DUP2 MSTORE PUSH1 0x20 PUSH1 0x4 DUP3 ADD MSTORE PUSH1 0x16 PUSH1 0x24 DUP3 ADD MSTORE PUSH22 0x1058D8DBDD5B9D08191BD95CC81B9BDD08195E1A5CDD PUSH1 0x52 SHL PUSH1 0x44 DUP3 ADD MSTORE PUSH1 0x64 SWAP1 REVERT JUMPDEST PUSH1 0x1 PUSH1 0x1 PUSH1 0xA0 SHL SUB AND PUSH1 0x0 SWAP1 DUP2 MSTORE PUSH1 0x6 PUSH1 0x20 MSTORE PUSH1 0x40 SWAP1 KECCAK256 PUSH1 0x4 DUP2 ADD SLOAD ISZERO DUP1 ISZERO PUSH2 0x37B9 JUMPI JUMPDEST PUSH2 0x3610 JUMPI DUP1 PUSH1 0xC PUSH2 0x37AE PUSH1 0x11 PUSH2 0x37B6 SWAP5 ADD SLOAD TIMESTAMP PUSH2 0x351A JUMP JUMPDEST SWAP2 ADD SLOAD PUSH2 0x33BA JUMP JUMPDEST SWAP1 JUMP JUMPDEST POP PUSH1 0xC DUP2 ADD SLOAD ISZERO PUSH2 0x3796 JUMP JUMPDEST PUSH1 0x1 PUSH1 0x1 PUSH1 0x40 SHL SUB DUP2 GT PUSH2 0x8AC JUMPI PUSH1 0x5 SHL PUSH1 0x20 ADD SWAP1 JUMP JUMPDEST SWAP1 PUSH2 0x37E6 DUP3 PUSH2 0x37C5 JUMP JUMPDEST PUSH2 0x37F3 PUSH1 0x40 MLOAD SWAP2 DUP3 PUSH2 0x316D JUMP JUMPDEST DUP3 DUP2 MSTORE DUP1 SWAP3 PUSH2 0x3804 PUSH1 0x1F NOT SWAP2 PUSH2 0x37C5 JUMP JUMPDEST ADD SWAP1 PUSH1 0x20 CALLDATASIZE SWAP2 ADD CALLDATACOPY JUMP JUMPDEST DUP1 MLOAD DUP3 LT ISZERO PUSH2 0x3397 JUMPI PUSH1 0x20 SWAP2 PUSH1 0x5 SHL ADD ADD SWAP1 JUMP JUMPDEST PUSH1 0xA DUP2 MSTORE PUSH10 0x3130BA3A3632AFBBB4B7 PUSH1 0xB1 SHL PUSH1 0x20 DUP3 ADD MSTORE PUSH1 0x40 ADD SWAP1 JUMP JUMPDEST PUSH1 0x1 PUSH1 0x1 PUSH1 0xA0 SHL SUB AND PUSH1 0x0 SWAP1 DUP2 MSTORE PUSH1 0x6 PUSH1 0x20 MSTORE PUSH1 0x40 SWAP1 KECCAK256 PUSH1 0x4 DUP2 ADD SLOAD ISZERO DUP1 ISZERO PUSH2 0x387B JUMPI JUMPDEST PUSH2 0x3610 JUMPI PUSH1 0x11 PUSH2 0x3875 SWAP2 ADD SLOAD TIMESTAMP PUSH2 0x351A JUMP JUMPDEST POP PUSH1 0x1 SWAP1 JUMP JUMPDEST POP PUSH1 0xC DUP2 ADD SLOAD ISZERO PUSH2 0x3863 JUMP JUMPDEST SWAP1 DUP1 PUSH1 0x20 SWAP4 SWAP3 DUP2 DUP5 MSTORE DUP5 DUP5 ADD CALLDATACOPY PUSH1 0x0 DUP3 DUP3 ADD DUP5 ADD MSTORE PUSH1 0x1F ADD PUSH1 0x1F NOT AND ADD ADD SWAP1 JUMP JUMPDEST SWAP2 SWAP1 DUP2 LT ISZERO PUSH2 0x3397 JUMPI PUSH1 0x5 SHL ADD SWAP1 JUMP JUMPDEST CALLDATALOAD PUSH1 0x1 PUSH1 0x1 PUSH1 0xA0 SHL SUB DUP2 AND DUP2 SUB PUSH2 0x1E24 JUMPI SWAP1 JUMP JUMPDEST PUSH1 0x2 PUSH1 0x1 SLOAD EQ PUSH2 0x38DD JUMPI PUSH1 0x2 PUSH1 0x1 SSTORE JUMP JUMPDEST PUSH1 0x40 MLOAD PUSH4 0x3EE5AEB5 PUSH1 0xE0 SHL DUP2 MSTORE PUSH1 0x4 SWAP1 REVERT JUMPDEST PUSH1 0x0 SLOAD PUSH1 0x1 PUSH1 0x1 PUSH1 0xA0 SHL SUB AND CALLER SUB PUSH2 0x3903 JUMPI JUMP JUMPDEST PUSH1 0x40 MLOAD PUSH4 0x118CDAA7 PUSH1 0xE0 SHL DUP2 MSTORE CALLER PUSH1 0x4 DUP3 ADD MSTORE PUSH1 0x24 SWAP1 REVERT JUMPDEST PUSH1 0x1 PUSH1 0x1 PUSH1 0xA0 SHL SUB AND PUSH1 0x0 DUP2 DUP2 MSTORE PUSH1 0x6 PUSH1 0x20 MSTORE PUSH1 0x40 SWAP1 KECCAK256 PUSH1 0x4 DUP2 ADD SLOAD ISZERO DUP1 ISZERO PUSH2 0x39CC JUMPI JUMPDEST PUSH2 0x39C8 JUMPI PUSH1 0x11 DUP2 ADD SWAP1 PUSH2 0x3953 DUP3 SLOAD TIMESTAMP PUSH2 0x351A JUMP JUMPDEST DUP1 ISZERO PUSH2 0x39C2 JUMPI PUSH2 0x3967 DUP2 PUSH1 0xC DUP5 ADD SLOAD PUSH2 0x33BA JUMP JUMPDEST SWAP1 DUP2 PUSH2 0x3975 JUMPI JUMPDEST POP POP POP POP POP JUMP JUMPDEST PUSH1 0x2 PUSH1 0x40 SWAP4 PUSH32 0x6ED0C81F2EB08CA19CF12AAB8DFA5D3566D3140926B3E0035B8423029996C185 SWAP6 TIMESTAMP SWAP1 SSTORE ADD PUSH2 0x39AB DUP4 DUP3 SLOAD PUSH2 0x33AD JUMP JUMPDEST SWAP1 SSTORE DUP3 MLOAD SWAP2 DUP3 MSTORE PUSH1 0x20 DUP3 ADD MSTORE LOG2 CODESIZE DUP1 DUP1 DUP1 DUP1 PUSH2 0x396E JUMP JUMPDEST POP POP POP POP JUMP JUMPDEST POP POP JUMP JUMPDEST POP PUSH1 0xC DUP2 ADD SLOAD ISZERO PUSH2 0x393F JUMP JUMPDEST DUP2 ISZERO PUSH2 0x3A47 JUMPI PUSH1 0x1 SWAP2 PUSH1 0x1 SWAP3 PUSH1 0x0 SWAP2 JUMPDEST DUP1 DUP4 LT PUSH2 0x3A12 JUMPI POP POP POP DUP2 ISZERO PUSH2 0x39FC JUMPI DIV SWAP1 JUMP JUMPDEST PUSH4 0x4E487B71 PUSH1 0xE0 SHL PUSH1 0x0 MSTORE PUSH1 0x12 PUSH1 0x4 MSTORE PUSH1 0x24 PUSH1 0x0 REVERT JUMPDEST SWAP1 SWAP2 SWAP4 SWAP3 PUSH1 0xF SWAP1 DUP2 DUP2 MUL SWAP2 DUP2 DUP4 DIV EQ SWAP1 ISZERO OR ISZERO PUSH2 0x1157 JUMPI SWAP3 PUSH1 0xA SWAP1 DUP2 DUP2 MUL SWAP2 DUP2 DUP4 DIV EQ SWAP1 ISZERO OR ISZERO PUSH2 0x1157 JUMPI SWAP4 DUP3 ADD SWAP2 SWAP1 PUSH2 0x39E8 JUMP JUMPDEST SWAP1 POP SWAP1 JUMP JUMPDEST SWAP5 SWAP2 SWAP4 SWAP3 SWAP1 SWAP4 PUSH1 0x0 SWAP5 DUP2 ISZERO ISZERO DUP1 PUSH2 0x46A2 JUMPI JUMPDEST ISZERO PUSH2 0x465D JUMPI PUSH1 0x64 DUP6 GT PUSH2 0x461F JUMPI PUSH1 0x1 PUSH1 0x1 PUSH1 0xA0 SHL SUB DUP8 AND DUP7 MSTORE PUSH1 0x6 PUSH1 0x20 MSTORE PUSH1 0x40 DUP7 KECCAK256 PUSH1 0x4 DUP2 ADD SLOAD ISZERO SWAP1 DUP2 PUSH2 0x4612 JUMPI JUMPDEST POP ISZERO PUSH2 0x45D7 JUMPI DUP6 SWAP5 DUP5 MLOAD DUP1 PUSH2 0x4467 JUMPI JUMPDEST POP PUSH1 0x64 SWAP1 DUP8 PUSH1 0x1 PUSH1 0x1 PUSH1 0xA0 SHL SUB DUP9 AND PUSH2 0x445A JUMPI JUMPDEST PUSH1 0x40 MLOAD SWAP3 DUP4 PUSH2 0x260 DUP2 ADD LT PUSH1 0x1 PUSH1 0x1 PUSH1 0x40 SHL SUB PUSH2 0x260 DUP7 ADD GT OR PUSH2 0x4446 JUMPI PUSH2 0x260 DUP5 ADD PUSH1 0x40 MSTORE PUSH2 0x3AE2 CALLDATASIZE DUP8 DUP8 PUSH2 0x318E JUMP JUMPDEST DUP5 MSTORE DUP7 ISZERO ISZERO PUSH1 0x20 DUP6 ADD MSTORE PUSH1 0x40 DUP5 ADD MSTORE PUSH1 0x60 DUP4 ADD MSTORE PUSH1 0x64 PUSH1 0x80 DUP4 ADD MSTORE PUSH1 0x64 PUSH1 0xA0 DUP4 ADD MSTORE PUSH1 0x1 PUSH1 0xC0 DUP4 ADD MSTORE PUSH1 0x1 PUSH1 0xE0 DUP4 ADD MSTORE PUSH1 0x1 PUSH2 0x100 DUP4 ADD MSTORE PUSH1 0x1 PUSH2 0x120 DUP4 ADD MSTORE PUSH1 0xA PUSH2 0x140 DUP4 ADD MSTORE PUSH2 0x160 DUP3 ADD MSTORE DUP7 PUSH2 0x180 DUP3 ADD MSTORE DUP7 PUSH2 0x1A0 DUP3 ADD MSTORE DUP7 PUSH2 0x1C0 DUP3 ADD MSTORE DUP7 PUSH2 0x1E0 DUP3 ADD MSTORE DUP7 PUSH2 0x200 DUP3 ADD MSTORE TIMESTAMP PUSH2 0x220 DUP3 ADD MSTORE DUP7 PUSH2 0x240 DUP3 ADD MSTORE PUSH1 0x1 DUP1 PUSH1 0xA0 SHL SUB DUP9 AND DUP8 MSTORE PUSH1 0x6 PUSH1 0x20 MSTORE PUSH1 0x40 DUP8 KECCAK256 SWAP1 DUP1 MLOAD DUP1 MLOAD SWAP1 PUSH1 0x1 PUSH1 0x1 PUSH1 0x40 SHL SUB DUP3 GT PUSH2 0x4446 JUMPI PUSH2 0x3B93 DUP5 SLOAD PUSH2 0x31D4 JUMP JUMPDEST PUSH1 0x1F DUP2 GT PUSH2 0x4404 JUMPI JUMPDEST POP PUSH1 0x20 SWAP1 PUSH1 0x1F DUP4 GT PUSH1 0x1 EQ PUSH2 0x4397 JUMPI SWAP2 DUP1 PUSH1 0x12 SWAP5 SWAP3 PUSH2 0x240 SWAP5 DUP14 SWAP3 PUSH2 0x438C JUMPI JUMPDEST POP POP DUP2 PUSH1 0x1 SHL SWAP2 PUSH1 0x0 NOT SWAP1 PUSH1 0x3 SHL SHR NOT AND OR DUP5 SSTORE JUMPDEST PUSH1 0x1 DUP5 ADD PUSH1 0x20 DUP3 ADD MLOAD ISZERO ISZERO PUSH1 0xFF DUP1 NOT DUP4 SLOAD AND SWAP2 AND OR SWAP1 SSTORE PUSH1 0x40 DUP2 ADD MLOAD PUSH1 0x2 DUP6 ADD SSTORE PUSH1 0x60 DUP2 ADD MLOAD PUSH1 0x3 DUP6 ADD SSTORE PUSH1 0x80 DUP2 ADD MLOAD PUSH1 0x4 DUP6 ADD SSTORE PUSH1 0xA0 DUP2 ADD MLOAD PUSH1 0x5 DUP6 ADD SSTORE PUSH1 0xC0 DUP2 ADD MLOAD PUSH1 0x6 DUP6 ADD SSTORE PUSH1 0xE0 DUP2 ADD MLOAD PUSH1 0x7 DUP6 ADD SSTORE PUSH2 0x100 DUP2 ADD MLOAD PUSH1 0x8 DUP6 ADD SSTORE PUSH2 0x120 DUP2 ADD MLOAD PUSH1 0x9 DUP6 ADD SSTORE PUSH2 0x140 DUP2 ADD MLOAD PUSH1 0xA DUP6 ADD SSTORE PUSH2 0x160 DUP2 ADD MLOAD PUSH1 0xB DUP6 ADD SSTORE PUSH2 0x180 DUP2 ADD MLOAD PUSH1 0xC DUP6 ADD SSTORE PUSH2 0x1A0 DUP2 ADD MLOAD PUSH1 0xD DUP6 ADD SSTORE PUSH2 0x1C0 DUP2 ADD MLOAD PUSH1 0xE DUP6 ADD SSTORE PUSH2 0x1E0 DUP2 ADD MLOAD PUSH1 0xF DUP6 ADD SSTORE PUSH2 0x200 DUP2 ADD MLOAD PUSH1 0x10 DUP6 ADD SSTORE PUSH2 0x220 DUP2 ADD MLOAD PUSH1 0x11 DUP6 ADD SSTORE ADD MLOAD SWAP2 ADD SSTORE PUSH1 0xA SLOAD PUSH9 0x10000000000000000 DUP2 LT ISZERO PUSH2 0x4378 JUMPI DUP1 PUSH1 0x1 PUSH2 0x3CBB SWAP3 ADD PUSH1 0xA SSTORE PUSH2 0x3360 JUMP JUMPDEST DUP2 SLOAD PUSH1 0x1 PUSH1 0x1 PUSH1 0xA0 SHL SUB DUP11 DUP2 AND PUSH1 0x3 SWAP4 SWAP1 SWAP4 SHL SWAP3 DUP4 SHL SWAP3 SHL NOT AND OR SWAP1 SSTORE PUSH1 0x40 MLOAD PUSH12 0xFFFFFFFFFFFFFFFFFFFFFFFF NOT PUSH1 0x60 DUP10 SWAP1 SHL AND PUSH1 0x20 DUP3 ADD MSTORE PUSH1 0x14 DUP2 MSTORE PUSH2 0x3D01 DUP2 PUSH2 0x3152 JUMP JUMPDEST PUSH1 0x40 MLOAD SWAP1 PUSH2 0x3D0E DUP3 PUSH2 0x3152 JUMP JUMPDEST PUSH1 0xA DUP3 MSTORE PUSH1 0x20 CALLDATASIZE DUP2 DUP5 ADD CALLDATACOPY DUP2 MLOAD ISZERO PUSH2 0x4364 JUMPI PUSH1 0x52 PUSH1 0x20 DUP4 ADD MSTORE8 DUP2 MLOAD PUSH1 0x1 LT ISZERO PUSH2 0x4364 JUMPI PUSH1 0x45 PUSH1 0x21 DUP4 ADD MSTORE8 DUP2 MLOAD PUSH1 0x2 LT ISZERO PUSH2 0x4364 JUMPI PUSH1 0x46 PUSH1 0x22 DUP4 ADD MSTORE8 DUP2 MLOAD PUSH1 0x3 LT ISZERO PUSH2 0x4364 JUMPI PUSH1 0x5F PUSH1 0x23 DUP4 ADD MSTORE8 PUSH1 0x40 MLOAD SWAP1 PUSH2 0x3D67 DUP3 PUSH2 0x3152 JUMP JUMPDEST PUSH1 0x10 DUP3 MSTORE PUSH16 0x181899199A1A9B1B9C1CA0A121A222A3 PUSH1 0x81 SHL PUSH1 0x20 DUP4 ADD MSTORE DUP9 JUMPDEST PUSH1 0x6 DUP2 LT PUSH2 0x431D JUMPI POP POP POP PUSH1 0x40 MLOAD PUSH1 0x20 DUP2 DUP4 MLOAD PUSH2 0x3DA6 DUP2 DUP4 DUP6 DUP9 ADD PUSH2 0x30DC JUMP JUMPDEST PUSH1 0xC SWAP1 DUP3 ADD SWAP1 DUP2 MSTORE SUB ADD SWAP1 KECCAK256 DUP1 SLOAD PUSH1 0x1 PUSH1 0x1 PUSH1 0xA0 SHL SUB NOT AND PUSH1 0x1 PUSH1 0x1 PUSH1 0xA0 SHL SUB DUP11 AND SWAP1 DUP2 OR SWAP1 SWAP2 SSTORE DUP8 MSTORE PUSH1 0xD PUSH1 0x20 MSTORE PUSH1 0x40 DUP8 KECCAK256 DUP2 MLOAD PUSH1 0x1 PUSH1 0x1 PUSH1 0x40 SHL SUB DUP2 GT PUSH2 0x4309 JUMPI PUSH2 0x3DF3 DUP3 SLOAD PUSH2 0x31D4 JUMP JUMPDEST PUSH1 0x1F DUP2 GT PUSH2 0x42C8 JUMPI JUMPDEST POP PUSH1 0x20 PUSH1 0x1F DUP3 GT PUSH1 0x1 EQ PUSH2 0x423C JUMPI SWAP2 DUP2 PUSH2 0x3EA5 SWAP5 SWAP3 PUSH32 0x47456E7EC68E981A8F02D9C9528370ADEA595C1B26225BE6797E6D441C47FC02 SWAP8 SWAP7 SWAP5 DUP13 SWAP2 PUSH2 0x4231 JUMPI JUMPDEST POP DUP2 PUSH1 0x1 SHL SWAP2 PUSH1 0x0 NOT SWAP1 PUSH1 0x3 SHL SHR NOT AND OR SWAP1 SSTORE JUMPDEST PUSH32 0x86D606287C9D4F3A350B0E6EA78A04D97425FFF091713F4A433942578DC6F161 PUSH1 0x40 MLOAD PUSH1 0x20 DUP2 MSTORE DUP1 PUSH2 0x3E90 DUP14 PUSH1 0x1 DUP1 PUSH1 0xA0 SHL SUB AND SWAP5 PUSH1 0x20 DUP4 ADD SWAP1 PUSH2 0x30FF JUMP JUMPDEST SUB SWAP1 LOG2 PUSH1 0x40 MLOAD SWAP3 PUSH1 0x40 DUP5 MSTORE PUSH1 0x40 DUP5 ADD SWAP2 PUSH2 0x3887 JUMP JUMPDEST SWAP3 ISZERO ISZERO PUSH1 0x20 DUP3 ADD MSTORE PUSH1 0x1 PUSH1 0x1 PUSH1 0xA0 SHL SUB DUP8 AND SWAP3 DUP2 SWAP1 SUB SWAP1 LOG2 PUSH1 0x1 PUSH1 0x1 PUSH1 0xA0 SHL SUB DUP3 AND PUSH2 0x3FB4 JUMPI JUMPDEST POP POP PUSH1 0x4 SLOAD PUSH1 0x1 PUSH1 0x1 PUSH1 0xA0 SHL SUB AND DUP1 PUSH2 0x3EE4 JUMPI POP POP POP JUMP JUMPDEST DUP1 EXTCODESIZE ISZERO PUSH2 0x489 JUMPI PUSH1 0x40 MLOAD PUSH4 0x3470275 PUSH1 0xE4 SHL DUP2 MSTORE PUSH1 0x1 PUSH1 0x1 PUSH1 0xA0 SHL SUB DUP5 AND PUSH1 0x4 DUP3 ADD MSTORE PUSH1 0x5 PUSH1 0x24 DUP3 ADD MSTORE PUSH1 0x60 PUSH1 0x44 DUP3 ADD MSTORE PUSH1 0xF PUSH1 0x64 DUP3 ADD MSTORE PUSH15 0x1858D8DBDD5B9D17D8DC99585D1959 PUSH1 0x8A SHL PUSH1 0x84 DUP3 ADD MSTORE SWAP1 DUP3 SWAP1 DUP3 SWAP1 PUSH1 0xA4 SWAP1 DUP3 SWAP1 DUP5 SWAP1 GAS CALL PUSH2 0x3FA0 JUMPI JUMPDEST POP POP PUSH1 0x0 DUP1 MLOAD PUSH1 0x20 PUSH2 0x4FBC DUP4 CODECOPY DUP2 MLOAD SWAP2 MSTORE PUSH1 0x40 MLOAD SWAP2 PUSH1 0x5 DUP4 MSTORE PUSH1 0x40 PUSH1 0x20 DUP5 ADD MSTORE PUSH1 0x1 DUP1 PUSH1 0xA0 SHL SUB AND SWAP2 DUP1 PUSH2 0x3F9B PUSH1 0x40 DUP3 ADD PUSH1 0x40 SWAP1 PUSH1 0xF DUP2 MSTORE PUSH15 0x1858D8DBDD5B9D17D8DC99585D1959 PUSH1 0x8A SHL PUSH1 0x20 DUP3 ADD MSTORE ADD SWAP1 JUMP JUMPDEST SUB SWAP1 LOG2 JUMP JUMPDEST PUSH2 0x3FAA DUP3 SWAP2 PUSH2 0x3124 JUMP JUMPDEST PUSH2 0x48D JUMPI DUP1 PUSH2 0x3F47 JUMP JUMPDEST PUSH1 0x2 SLOAD PUSH1 0x1 PUSH1 0x1 PUSH1 0xA0 SHL SUB AND DUP1 PUSH2 0x4159 JUMPI JUMPDEST POP PUSH1 0x1 PUSH1 0x1 PUSH1 0xA0 SHL SUB DUP3 AND DUP4 MSTORE PUSH1 0x6 PUSH1 0x20 MSTORE PUSH1 0x40 DUP4 KECCAK256 PUSH1 0x3 ADD DUP1 SLOAD PUSH1 0x1 DUP2 ADD SWAP2 SWAP1 DUP3 LT PUSH2 0x29F8 JUMPI SSTORE PUSH1 0x1 PUSH1 0x1 PUSH1 0xA0 SHL SUB DUP3 AND DUP4 MSTORE PUSH1 0xB PUSH1 0x20 MSTORE PUSH1 0x40 DUP4 KECCAK256 PUSH1 0x2 ADD DUP1 SLOAD PUSH9 0x2B5E3AF16B1880000 SWAP2 DUP3 DUP3 ADD SWAP2 DUP3 LT PUSH2 0x124A JUMPI SSTORE PUSH1 0x2 SLOAD PUSH1 0x1 PUSH1 0x1 PUSH1 0xA0 SHL SUB AND DUP1 PUSH2 0x4083 JUMPI JUMPDEST POP POP PUSH1 0x40 MLOAD PUSH1 0x20 DUP1 DUP3 MSTORE PUSH1 0x1 PUSH1 0x1 PUSH1 0xA0 SHL SUB DUP7 DUP2 AND SWAP5 AND SWAP3 PUSH32 0x48CE27021A67A752436D8D11B0C2480ADA1B231FD0AB64D4453954EDE457DB93 SWAP3 SWAP2 DUP3 SWAP2 PUSH2 0x4079 SWAP2 DUP4 ADD SWAP1 PUSH2 0x30FF JUMP JUMPDEST SUB SWAP1 LOG3 CODESIZE DUP1 PUSH2 0x3ECC JUMP JUMPDEST DUP1 EXTCODESIZE ISZERO PUSH2 0x958 JUMPI PUSH1 0x40 MLOAD PUSH3 0xFE2119 PUSH1 0xE5 SHL DUP2 MSTORE PUSH1 0x1 PUSH1 0x1 PUSH1 0xA0 SHL SUB DUP6 AND PUSH1 0x4 DUP3 ADD MSTORE PUSH1 0x24 DUP2 ADD DUP4 SWAP1 MSTORE PUSH1 0x60 PUSH1 0x44 DUP3 ADD MSTORE PUSH1 0xE PUSH1 0x64 DUP3 ADD MSTORE PUSH14 0x726566657272616C5F626F6E7573 PUSH1 0x90 SHL PUSH1 0x84 DUP3 ADD MSTORE SWAP1 DUP6 SWAP1 DUP2 SWAP1 DUP4 SWAP1 PUSH1 0xA4 SWAP1 DUP3 SWAP1 DUP5 SWAP1 GAS CALL SWAP2 DUP3 PUSH2 0x4145 JUMPI JUMPDEST POP POP PUSH2 0x40F5 JUMPI JUMPDEST DUP1 PUSH2 0x4030 JUMP JUMPDEST PUSH1 0x40 DUP1 MLOAD SWAP2 DUP3 MSTORE PUSH1 0x20 DUP3 ADD DUP2 SWAP1 MSTORE PUSH1 0xE SWAP1 DUP3 ADD MSTORE PUSH14 0x726566657272616C5F626F6E7573 PUSH1 0x90 SHL PUSH1 0x60 DUP3 ADD MSTORE PUSH1 0x1 PUSH1 0x1 PUSH1 0xA0 SHL SUB DUP4 AND SWAP1 PUSH1 0x0 DUP1 MLOAD PUSH1 0x20 PUSH2 0x4FDC DUP4 CODECOPY DUP2 MLOAD SWAP2 MSTORE SWAP1 PUSH1 0x80 SWAP1 LOG2 CODESIZE PUSH2 0x40EF JUMP JUMPDEST PUSH2 0x414E SWAP1 PUSH2 0x3124 JUMP JUMPDEST PUSH2 0x958 JUMPI DUP5 CODESIZE PUSH2 0x40E8 JUMP JUMPDEST DUP1 EXTCODESIZE ISZERO PUSH2 0x485 JUMPI PUSH1 0x40 MLOAD PUSH3 0xFE2119 PUSH1 0xE5 SHL DUP2 MSTORE PUSH1 0x1 PUSH1 0x1 PUSH1 0xA0 SHL SUB DUP7 AND PUSH1 0x4 DUP3 ADD MSTORE PUSH9 0x56BC75E2D63100000 PUSH1 0x24 DUP3 ADD DUP2 SWAP1 MSTORE PUSH1 0x60 PUSH1 0x44 DUP4 ADD MSTORE PUSH1 0xF PUSH1 0x64 DUP4 ADD MSTORE PUSH15 0x726566657272616C5F7369676E757 PUSH1 0x8C SHL PUSH1 0x84 DUP4 ADD MSTORE SWAP2 DUP6 SWAP1 DUP3 SWAP1 PUSH1 0xA4 SWAP1 DUP3 SWAP1 DUP5 SWAP1 GAS CALL SWAP1 DUP2 PUSH2 0x421E JUMPI JUMPDEST POP ISZERO PUSH2 0x3FC6 JUMPI PUSH1 0x40 DUP1 MLOAD SWAP2 DUP3 MSTORE PUSH1 0x20 DUP3 ADD DUP2 SWAP1 MSTORE PUSH1 0xF SWAP1 DUP3 ADD MSTORE PUSH15 0x726566657272616C5F7369676E757 PUSH1 0x8C SHL PUSH1 0x60 DUP3 ADD MSTORE PUSH1 0x1 PUSH1 0x1 PUSH1 0xA0 SHL SUB DUP6 AND SWAP1 PUSH1 0x0 DUP1 MLOAD PUSH1 0x20 PUSH2 0x4FDC DUP4 CODECOPY DUP2 MLOAD SWAP2 MSTORE SWAP1 PUSH1 0x80 SWAP1 LOG2 CODESIZE PUSH2 0x3FC6 JUMP JUMPDEST PUSH2 0x422A SWAP1 SWAP6 SWAP2 SWAP6 PUSH2 0x3124 JUMP JUMPDEST SWAP4 CODESIZE PUSH2 0x41C7 JUMP JUMPDEST SWAP1 POP DUP4 ADD MLOAD CODESIZE PUSH2 0x3E3C JUMP JUMPDEST DUP3 DUP11 MSTORE PUSH1 0x20 DUP11 KECCAK256 SWAP1 DUP11 JUMPDEST PUSH1 0x1F NOT DUP5 AND DUP2 LT PUSH2 0x42B0 JUMPI POP DUP3 PUSH32 0x47456E7EC68E981A8F02D9C9528370ADEA595C1B26225BE6797E6D441C47FC02 SWAP8 SWAP7 SWAP5 SWAP3 PUSH1 0x1 SWAP3 PUSH2 0x3EA5 SWAP8 SWAP6 PUSH1 0x1F NOT DUP2 AND LT PUSH2 0x4297 JUMPI JUMPDEST POP POP DUP2 SHL ADD SWAP1 SSTORE PUSH2 0x3E50 JUMP JUMPDEST DUP6 ADD MLOAD PUSH1 0x0 NOT PUSH1 0xF8 DUP5 PUSH1 0x3 SHL AND SHR NOT AND SWAP1 SSTORE CODESIZE DUP1 PUSH2 0x428B JUMP JUMPDEST SWAP1 SWAP2 PUSH1 0x20 PUSH1 0x1 DUP2 SWAP3 DUP6 DUP10 ADD MLOAD DUP2 SSTORE ADD SWAP4 ADD SWAP2 ADD PUSH2 0x4246 JUMP JUMPDEST DUP3 DUP11 MSTORE PUSH1 0x20 DUP11 KECCAK256 PUSH1 0x1F DUP4 ADD PUSH1 0x5 SHR DUP2 ADD PUSH1 0x20 DUP5 LT PUSH2 0x4302 JUMPI JUMPDEST PUSH1 0x1F DUP4 ADD PUSH1 0x5 SHR DUP3 ADD DUP2 LT PUSH2 0x42F7 JUMPI POP POP PUSH2 0x3DFC JUMP JUMPDEST DUP12 DUP2 SSTORE PUSH1 0x1 ADD PUSH2 0x42E1 JUMP JUMPDEST POP DUP1 PUSH2 0x42E1 JUMP JUMPDEST PUSH4 0x4E487B71 PUSH1 0xE0 SHL DUP10 MSTORE PUSH1 0x41 PUSH1 0x4 MSTORE PUSH1 0x24 DUP10 REVERT JUMPDEST PUSH1 0x1 PUSH1 0x1 PUSH1 0xF8 SHL SUB NOT PUSH2 0x433D PUSH2 0x4333 DUP4 DUP6 PUSH2 0x4FAA JUMP JUMPDEST MLOAD PUSH1 0xFC SHR DUP6 PUSH2 0x4FAA JUMP JUMPDEST MLOAD AND DUP2 PUSH1 0x4 ADD PUSH1 0x4 GT PUSH2 0x1B7F JUMPI SWAP1 PUSH1 0x1 SWAP2 DUP12 BYTE PUSH2 0x435D DUP3 PUSH1 0x4 ADD DUP8 PUSH2 0x4FAA JUMP JUMPDEST MSTORE8 ADD PUSH2 0x3D86 JUMP JUMPDEST PUSH4 0x4E487B71 PUSH1 0xE0 SHL DUP9 MSTORE PUSH1 0x32 PUSH1 0x4 MSTORE PUSH1 0x24 DUP9 REVERT JUMPDEST PUSH4 0x4E487B71 PUSH1 0xE0 SHL DUP8 MSTORE PUSH1 0x41 PUSH1 0x4 MSTORE PUSH1 0x24 DUP8 REVERT JUMPDEST ADD MLOAD SWAP1 POP CODESIZE DUP1 PUSH2 0x3BBC JUMP JUMPDEST SWAP1 DUP5 DUP12 MSTORE PUSH1 0x20 DUP12 KECCAK256 SWAP2 DUP12 JUMPDEST PUSH1 0x1F NOT DUP6 AND DUP2 LT PUSH2 0x43EC JUMPI POP SWAP3 PUSH1 0x12 SWAP5 SWAP3 PUSH1 0x1 SWAP3 PUSH2 0x240 SWAP6 DUP4 PUSH1 0x1F NOT DUP2 AND LT PUSH2 0x43D3 JUMPI JUMPDEST POP POP POP DUP2 SHL ADD DUP5 SSTORE PUSH2 0x3BD1 JUMP JUMPDEST ADD MLOAD PUSH1 0x0 NOT PUSH1 0xF8 DUP5 PUSH1 0x3 SHL AND SHR NOT AND SWAP1 SSTORE CODESIZE DUP1 DUP1 PUSH2 0x43C6 JUMP JUMPDEST SWAP2 SWAP3 PUSH1 0x20 PUSH1 0x1 DUP2 SWAP3 DUP7 DUP6 ADD MLOAD DUP2 SSTORE ADD SWAP5 ADD SWAP3 ADD PUSH2 0x43A2 JUMP JUMPDEST DUP5 DUP12 MSTORE PUSH1 0x20 DUP12 KECCAK256 PUSH1 0x1F DUP5 ADD PUSH1 0x5 SHR DUP2 ADD PUSH1 0x20 DUP6 LT PUSH2 0x443F JUMPI JUMPDEST DUP13 PUSH1 0x1F DUP5 ADD PUSH1 0x5 SHR DUP4 ADD DUP3 LT PUSH2 0x4435 JUMPI POP POP POP PUSH2 0x3B9C JUMP JUMPDEST DUP2 SSTORE PUSH1 0x1 ADD PUSH2 0x441D JUMP JUMPDEST POP DUP1 PUSH2 0x441D JUMP JUMPDEST PUSH4 0x4E487B71 PUSH1 0xE0 SHL DUP11 MSTORE PUSH1 0x41 PUSH1 0x4 MSTORE PUSH1 0x24 DUP11 REVERT JUMPDEST POP PUSH2 0x12C SWAP2 POP PUSH1 0x1 PUSH2 0x3AB1 JUMP JUMPDEST PUSH1 0x40 MLOAD SWAP2 SWAP7 POP PUSH2 0x447B DUP2 DUP4 PUSH1 0x20 DUP10 ADD PUSH2 0x30DC JUMP JUMPDEST PUSH1 0xC SWAP1 DUP3 ADD SWAP1 DUP2 MSTORE DUP2 SWAP1 SUB PUSH1 0x20 ADD SWAP1 KECCAK256 SLOAD PUSH1 0x1 PUSH1 0x1 PUSH1 0xA0 SHL SUB AND SWAP5 DUP6 ISZERO PUSH2 0x459A JUMPI PUSH1 0x1 PUSH1 0x1 PUSH1 0xA0 SHL SUB DUP9 AND DUP7 EQ PUSH2 0x455D JUMPI DUP6 DUP8 MSTORE PUSH1 0x6 PUSH1 0x20 MSTORE PUSH1 0x4 PUSH1 0x40 DUP9 KECCAK256 ADD SLOAD ISZERO PUSH2 0x4518 JUMPI PUSH1 0x1 PUSH1 0x1 PUSH1 0xA0 SHL SUB DUP9 AND DUP8 MSTORE PUSH1 0xB PUSH1 0x20 MSTORE PUSH1 0x40 DUP1 DUP9 KECCAK256 DUP1 SLOAD PUSH1 0x1 PUSH1 0x1 PUSH1 0xA0 SHL SUB NOT AND DUP9 OR SWAP1 SSTORE DUP7 DUP9 MSTORE DUP8 KECCAK256 PUSH1 0x1 SWAP1 DUP2 ADD DUP1 SLOAD SWAP2 DUP3 ADD SWAP2 DUP3 LT PUSH2 0x4504 JUMPI SSTORE CODESIZE PUSH2 0x3A9D JUMP JUMPDEST PUSH4 0x4E487B71 PUSH1 0xE0 SHL DUP10 MSTORE PUSH1 0x11 PUSH1 0x4 MSTORE PUSH1 0x24 DUP10 REVERT JUMPDEST PUSH1 0x40 MLOAD PUSH3 0x461BCD PUSH1 0xE5 SHL DUP2 MSTORE PUSH1 0x20 PUSH1 0x4 DUP3 ADD MSTORE PUSH1 0x1A PUSH1 0x24 DUP3 ADD MSTORE PUSH32 0x5265666572726572206D7573742068617665206163636F756E74000000000000 PUSH1 0x44 DUP3 ADD MSTORE PUSH1 0x64 SWAP1 REVERT JUMPDEST PUSH1 0x40 MLOAD PUSH3 0x461BCD PUSH1 0xE5 SHL DUP2 MSTORE PUSH1 0x20 PUSH1 0x4 DUP3 ADD MSTORE PUSH1 0x15 PUSH1 0x24 DUP3 ADD MSTORE PUSH21 0x21B0B73737BA103932B332B9103CB7BAB939B2B633 PUSH1 0x59 SHL PUSH1 0x44 DUP3 ADD MSTORE PUSH1 0x64 SWAP1 REVERT JUMPDEST PUSH1 0x40 MLOAD PUSH3 0x461BCD PUSH1 0xE5 SHL DUP2 MSTORE PUSH1 0x20 PUSH1 0x4 DUP3 ADD MSTORE PUSH1 0x15 PUSH1 0x24 DUP3 ADD MSTORE PUSH21 0x496E76616C696420726566657272616C20636F6465 PUSH1 0x58 SHL PUSH1 0x44 DUP3 ADD MSTORE PUSH1 0x64 SWAP1 REVERT JUMPDEST PUSH1 0x40 MLOAD PUSH3 0x461BCD PUSH1 0xE5 SHL DUP2 MSTORE PUSH1 0x20 PUSH1 0x4 DUP3 ADD MSTORE PUSH1 0x13 PUSH1 0x24 DUP3 ADD MSTORE PUSH19 0x105B1C9958591E481A185CC81858D8DBDD5B9D PUSH1 0x6A SHL PUSH1 0x44 DUP3 ADD MSTORE PUSH1 0x64 SWAP1 REVERT JUMPDEST PUSH1 0x9 SWAP2 POP ADD SLOAD ISZERO CODESIZE PUSH2 0x3A8D JUMP JUMPDEST PUSH1 0x40 MLOAD PUSH3 0x461BCD PUSH1 0xE5 SHL DUP2 MSTORE PUSH1 0x20 PUSH1 0x4 DUP3 ADD MSTORE PUSH1 0x16 PUSH1 0x24 DUP3 ADD MSTORE PUSH22 0x4C6F636174696F6E206D75737420626520302D31303 PUSH1 0x54 SHL PUSH1 0x44 DUP3 ADD MSTORE PUSH1 0x64 SWAP1 REVERT JUMPDEST PUSH1 0x40 MLOAD PUSH3 0x461BCD PUSH1 0xE5 SHL DUP2 MSTORE PUSH1 0x20 PUSH1 0x4 DUP3 ADD MSTORE PUSH1 0x18 PUSH1 0x24 DUP3 ADD MSTORE PUSH32 0x426F6174206E616D6520696E76616C6964206C656E6774680000000000000000 PUSH1 0x44 DUP3 ADD MSTORE PUSH1 0x64 SWAP1 REVERT JUMPDEST POP PUSH1 0xC DUP3 GT ISZERO PUSH2 0x3A5E JUMP JUMPDEST PUSH1 0x0 PUSH1 0x19 DUP3 GT ISZERO PUSH2 0x4757 JUMPI POP PUSH1 0x18 NOT DUP2 ADD DUP2 DUP2 GT PUSH2 0x1157 JUMPI SWAP1 JUMPDEST PUSH1 0x0 PUSH1 0x37 DUP3 GT ISZERO PUSH2 0x4743 JUMPI POP PUSH1 0x36 NOT DUP2 ADD DUP2 DUP2 GT PUSH2 0x1157 JUMPI SWAP1 JUMPDEST PUSH1 0x0 PUSH1 0x59 DUP3 GT ISZERO PUSH2 0x472F JUMPI POP PUSH1 0x58 NOT DUP2 ADD SWAP1 DUP2 GT PUSH2 0x1157 JUMPI SWAP2 JUMPDEST DUP3 DUP3 DUP3 GT ISZERO SWAP2 DUP3 PUSH2 0x4724 JUMPI JUMPDEST POP POP ISZERO PUSH2 0x4715 JUMPI POP POP PUSH1 0x19 SWAP1 JUMP JUMPDEST GT PUSH2 0x471F JUMPI PUSH1 0x37 SWAP1 JUMP JUMPDEST PUSH1 0x59 SWAP1 JUMP JUMPDEST GT ISZERO SWAP1 POP DUP3 CODESIZE PUSH2 0x4707 JUMP JUMPDEST SWAP1 PUSH1 0x59 SUB SWAP1 PUSH1 0x59 DUP3 GT PUSH2 0x347C JUMPI POP SWAP2 PUSH2 0x46FB JUMP JUMPDEST DUP2 PUSH1 0x37 SUB SWAP1 PUSH1 0x37 DUP3 GT PUSH2 0x347C JUMPI POP SWAP1 PUSH2 0x46E1 JUMP JUMPDEST DUP2 PUSH1 0x19 SUB SWAP1 PUSH1 0x19 DUP3 GT PUSH2 0x347C JUMPI POP SWAP1 PUSH2 0x46C7 JUMP JUMPDEST PUSH1 0x0 SWAP1 PUSH1 0x1 DUP1 PUSH1 0xA0 SHL SUB SWAP3 DUP4 DUP3 AND SWAP3 DUP4 DUP2 MSTORE PUSH1 0x6 PUSH1 0x20 MSTORE PUSH1 0x40 SWAP2 DUP6 DUP4 DUP4 KECCAK256 SWAP2 AND SWAP6 DUP7 DUP4 MSTORE DUP4 DUP4 KECCAK256 SWAP1 PUSH1 0x4 SWAP4 DUP5 DUP5 ADD SWAP3 DUP4 SLOAD ISZERO DUP1 ISZERO PUSH2 0x4AF2 JUMPI JUMPDEST PUSH2 0x4AD7 JUMPI PUSH1 0xFF PUSH1 0x1 DUP7 ADD SLOAD AND ISZERO DUP1 PUSH2 0x4AE3 JUMPI JUMPDEST PUSH2 0x4AD7 JUMPI PUSH1 0xB DUP6 ADD SWAP6 DUP7 SLOAD SWAP9 PUSH1 0xB DUP4 ADD SWAP10 DUP11 SLOAD DUP2 SUB PUSH2 0x4ABB JUMPI PUSH1 0x10 DUP9 ADD SLOAD TIMESTAMP LT DUP1 ISZERO PUSH2 0x4ACA JUMPI JUMPDEST PUSH2 0x4ABB JUMPI PUSH2 0x47EB SWAP1 PUSH2 0x3556 JUMP JUMPDEST PUSH2 0x4AAD JUMPI PUSH1 0x7 DUP8 ADD SLOAD PUSH1 0x8 DUP5 ADD SLOAD DUP1 DUP3 GT ISZERO PUSH2 0x4AA4 JUMPI PUSH2 0x480A SWAP2 PUSH2 0x351A JUMP JUMPDEST SWAP10 JUMPDEST PUSH1 0x7 DUP5 ADD SLOAD PUSH1 0x8 DUP10 ADD SLOAD DUP1 DUP3 GT ISZERO PUSH2 0x4A9C JUMPI PUSH2 0x4827 SWAP2 PUSH2 0x351A JUMP JUMPDEST DUP5 DUP5 ADD DUP1 SLOAD SWAP1 SWAP13 DUP2 DUP2 LT PUSH2 0x4A8C JUMPI POP POP DUP6 DUP13 SSTORE JUMPDEST DUP8 SLOAD SWAP1 DUP2 DUP2 LT PUSH2 0x4A7C JUMPI POP POP DUP5 DUP8 SSTORE JUMPDEST DUP5 SWAP11 SLOAD ISZERO PUSH2 0x48B4 JUMPI JUMPDEST POP POP POP POP POP POP SWAP2 PUSH1 0x20 SWAP4 SWAP2 PUSH32 0x1D099E3DA7A64D91BF9ED0E41ACEAF6A8E2C1FC0D072EF2779F2EA6988D27988 SWAP6 SWAP4 SLOAD ISZERO PUSH2 0x4894 JUMPI JUMPDEST POP POP MLOAD SWAP1 ISZERO ISZERO DUP2 MSTORE LOG3 JUMP JUMPDEST PUSH1 0x1 PUSH1 0x9 DUP3 ADD SSTORE PUSH1 0xF TIMESTAMP SWAP2 ADD SSTORE PUSH2 0x48AB DUP2 SLOAD PUSH2 0x46AD JUMP JUMPDEST SWAP1 SSTORE CODESIZE DUP1 PUSH2 0x4889 JUMP JUMPDEST SWAP1 SWAP2 SWAP3 SWAP4 SWAP5 SWAP10 POP PUSH1 0x1 PUSH1 0x9 DUP6 ADD SSTORE TIMESTAMP PUSH1 0xF DUP6 ADD SSTORE PUSH2 0x48D2 DUP2 SLOAD PUSH2 0x46AD JUMP JUMPDEST SWAP1 SSTORE PUSH1 0x9 DUP7 ADD SLOAD PUSH1 0x32 DUP2 MUL SWAP1 DUP1 DUP3 DIV PUSH1 0x32 EQ SWAP1 ISZERO OR ISZERO PUSH2 0x4A69 JUMPI PUSH1 0x2 DUP2 SWAP5 ADD SWAP1 DUP2 SLOAD DUP1 SWAP2 GT PUSH2 0x4A61 JUMPI JUMPDEST DUP5 PUSH2 0x4906 SWAP2 PUSH2 0x351A JUMP JUMPDEST SWAP1 SSTORE PUSH1 0x2 DUP7 ADD PUSH2 0x4917 DUP5 DUP3 SLOAD PUSH2 0x33AD JUMP JUMPDEST SWAP1 SSTORE PUSH1 0x1 SWAP9 DUP1 PUSH1 0x2 SLOAD AND DUP1 PUSH2 0x4A06 JUMPI JUMPDEST POP DUP1 DUP4 SLOAD AND DUP1 PUSH2 0x49A3 JUMPI JUMPDEST POP PUSH1 0x3 SLOAD AND SWAP2 DUP3 PUSH2 0x4944 JUMPI JUMPDEST DUP1 PUSH2 0x4854 JUMP JUMPDEST DUP3 EXTCODESIZE ISZERO PUSH2 0x958 JUMPI DUP9 MLOAD PUSH4 0xA4D60AF PUSH1 0xE2 SHL DUP2 MSTORE PUSH1 0x1 PUSH1 0x1 PUSH1 0xA0 SHL SUB SWAP1 SWAP3 AND SWAP1 DUP3 ADD SWAP1 DUP2 MSTORE PUSH1 0x20 DUP2 ADD SWAP4 SWAP1 SWAP4 MSTORE SWAP2 DUP4 SWAP2 DUP4 SWAP2 DUP3 SWAP1 DUP5 SWAP1 DUP3 SWAP1 PUSH1 0x40 ADD SUB SWAP3 GAS CALL PUSH2 0x498F JUMPI JUMPDEST DUP1 DUP1 DUP1 PUSH2 0x493E JUMP JUMPDEST PUSH2 0x4999 DUP3 SWAP2 PUSH2 0x3124 JUMP JUMPDEST PUSH2 0x48D JUMPI DUP1 PUSH2 0x4987 JUMP JUMPDEST DUP1 EXTCODESIZE ISZERO PUSH2 0x4A02 JUMPI DUP10 MLOAD PUSH4 0x3470275 PUSH1 0xE4 SHL DUP2 MSTORE DUP5 DUP2 ADD DUP14 SWAP1 MSTORE PUSH1 0xA PUSH1 0x24 DUP3 ADD MSTORE PUSH1 0x60 PUSH1 0x44 DUP3 ADD MSTORE DUP7 SWAP2 DUP3 SWAP1 DUP3 SWAP1 DUP2 DUP4 DUP2 PUSH2 0x49DF PUSH1 0x64 DUP3 ADD PUSH2 0x3822 JUMP JUMPDEST SUB SWAP3 GAS CALL PUSH2 0x49EE JUMPI JUMPDEST POP PUSH2 0x4932 JUMP JUMPDEST PUSH2 0x49F7 SWAP1 PUSH2 0x3124 JUMP JUMPDEST PUSH2 0x958 JUMPI DUP5 CODESIZE PUSH2 0x49E8 JUMP JUMPDEST DUP6 DUP1 REVERT JUMPDEST DUP1 EXTCODESIZE ISZERO PUSH2 0x4A02 JUMPI DUP6 DUP13 DUP12 MLOAD SWAP3 DUP4 SWAP2 PUSH3 0xFE2119 PUSH1 0xE5 SHL DUP4 MSTORE DUP8 DUP4 ADD MSTORE PUSH8 0xDE0B6B3A7640000 PUSH1 0x24 DUP4 ADD MSTORE PUSH1 0x60 PUSH1 0x44 DUP4 ADD MSTORE DUP2 DUP4 DUP2 PUSH2 0x4A45 PUSH1 0x64 DUP3 ADD PUSH2 0x3822 JUMP JUMPDEST SUB SWAP3 GAS CALL ISZERO PUSH2 0x4927 JUMPI PUSH2 0x4A5A SWAP1 SWAP6 SWAP2 SWAP6 PUSH2 0x3124 JUMP JUMPDEST SWAP4 CODESIZE PUSH2 0x4927 JUMP JUMPDEST SWAP4 POP DUP4 PUSH2 0x48FC JUMP JUMPDEST PUSH4 0x4E487B71 PUSH1 0xE0 SHL DUP6 MSTORE PUSH1 0x11 DUP4 MSTORE PUSH1 0x24 DUP6 REVERT JUMPDEST PUSH2 0x4A85 SWAP2 PUSH2 0x351A JUMP JUMPDEST DUP8 SSTORE PUSH2 0x484B JUMP JUMPDEST PUSH2 0x4A95 SWAP2 PUSH2 0x351A JUMP JUMPDEST DUP13 SSTORE PUSH2 0x483B JUMP JUMPDEST POP POP DUP5 PUSH2 0x4827 JUMP JUMPDEST POP POP DUP4 SWAP10 PUSH2 0x480C JUMP JUMPDEST POP POP POP POP POP POP POP POP POP POP POP POP JUMP JUMPDEST POP POP POP POP POP POP POP POP POP POP POP POP POP JUMP JUMPDEST POP PUSH1 0x10 DUP5 ADD SLOAD TIMESTAMP LT PUSH2 0x47DE JUMP JUMPDEST POP POP POP POP POP POP POP POP POP POP JUMP JUMPDEST POP PUSH1 0xFF PUSH1 0x1 DUP3 ADD SLOAD AND ISZERO PUSH2 0x47B7 JUMP JUMPDEST POP DUP6 DUP2 ADD SLOAD ISZERO PUSH2 0x47A4 JUMP JUMPDEST PUSH1 0xA SLOAD PUSH1 0x1 DUP1 DUP3 LT ISZERO PUSH2 0x4CAF JUMPI DUP2 JUMPDEST PUSH2 0x4B15 DUP2 PUSH2 0x37DC JUMP JUMPDEST SWAP3 PUSH2 0x4B1F DUP3 PUSH2 0x37DC JUMP JUMPDEST PUSH1 0x0 JUMPDEST DUP3 DUP2 LT PUSH2 0x4B5C JUMPI POP POP POP POP POP DUP1 MLOAD ISZERO DUP1 ISZERO PUSH2 0x4B48 JUMPI POP POP PUSH1 0x0 SLOAD PUSH1 0x1 PUSH1 0x1 PUSH1 0xA0 SHL SUB AND SWAP1 JUMP JUMPDEST PUSH2 0x3397 JUMPI PUSH1 0x20 ADD MLOAD PUSH1 0x1 PUSH1 0x1 PUSH1 0xA0 SHL SUB AND SWAP1 JUMP JUMPDEST DUP1 PUSH2 0x4B67 DUP7 SWAP3 PUSH2 0x3360 JUMP JUMPDEST SWAP1 PUSH1 0x1 DUP1 PUSH1 0xA0 SHL SUB DUP1 SWAP2 SLOAD PUSH1 0x3 SWAP4 DUP5 SHL SHR AND PUSH1 0x0 MSTORE PUSH2 0x4BDC PUSH1 0x6 PUSH1 0x8 PUSH1 0x20 SWAP2 DUP1 DUP4 MSTORE PUSH1 0x40 SWAP1 PUSH2 0x4BBB DUP2 DUP4 PUSH1 0x0 KECCAK256 ADD SLOAD DUP8 PUSH2 0x4BA0 DUP12 PUSH2 0x3360 JUMP JUMPDEST SWAP1 SLOAD SWAP1 DUP12 SHL SHR AND PUSH1 0x0 MSTORE DUP3 DUP7 MSTORE PUSH1 0x7 DUP5 PUSH1 0x0 KECCAK256 ADD SLOAD SWAP1 PUSH2 0x33AD JUMP JUMPDEST SWAP4 DUP7 PUSH2 0x4BC6 DUP11 PUSH2 0x3360 JUMP JUMPDEST SWAP1 SLOAD SWAP1 DUP11 SHL SHR AND PUSH1 0x0 MSTORE MSTORE PUSH1 0x0 KECCAK256 ADD SLOAD SWAP1 PUSH2 0x33AD JUMP JUMPDEST SWAP2 PUSH1 0x0 JUMPDEST DUP9 DUP2 LT PUSH2 0x4BF2 JUMPI JUMPDEST POP POP POP POP ADD PUSH2 0x4B22 JUMP JUMPDEST PUSH2 0x4C02 DUP2 DUP9 SWAP8 SWAP4 SWAP5 SWAP6 SWAP7 SWAP8 PUSH2 0x380E JUMP JUMPDEST MLOAD DUP6 GT PUSH2 0x4C15 JUMPI ADD SWAP1 DUP9 SWAP5 SWAP4 SWAP3 SWAP2 PUSH2 0x4BE0 JUMP JUMPDEST SWAP3 SWAP2 SWAP1 POP PUSH1 0x0 NOT DUP9 DUP2 ADD DUP10 DUP2 GT PUSH2 0x1157 JUMPI SWAP1 DUP11 SWAP7 SWAP6 SWAP5 SWAP4 SWAP3 SWAP2 JUMPDEST DUP5 DUP2 GT PUSH2 0x4C68 JUMPI POP POP SWAP1 PUSH2 0x4C5E SWAP3 SWAP2 PUSH2 0x4C47 DUP7 PUSH2 0x3360 JUMP JUMPDEST SWAP1 SLOAD SWAP2 SHL SHR AND PUSH2 0x4C57 DUP3 DUP13 PUSH2 0x380E JUMP JUMPDEST MSTORE DUP6 PUSH2 0x380E JUMP JUMPDEST MSTORE CODESIZE DUP1 DUP1 DUP1 PUSH2 0x4BE8 JUMP JUMPDEST SWAP1 DUP1 SWAP3 SWAP4 SWAP5 SWAP6 SWAP7 SWAP8 POP DUP2 ADD DUP2 DUP2 GT PUSH2 0x1157 JUMPI DUP1 DUP14 PUSH2 0x10FF DUP5 DUP9 PUSH2 0x1133 PUSH2 0x4C8E SWAP7 DUP6 PUSH2 0x380E JUMP JUMPDEST MLOAD PUSH2 0x4C99 DUP3 DUP11 PUSH2 0x380E JUMP JUMPDEST MSTORE DUP1 ISZERO PUSH2 0x1157 JUMPI DUP2 ADD SWAP1 DUP11 SWAP7 SWAP6 SWAP5 SWAP4 SWAP3 SWAP2 PUSH2 0x4C2F JUMP JUMPDEST PUSH1 0x1 PUSH2 0x4B0C JUMP JUMPDEST PUSH1 0xA SLOAD PUSH1 0x2 DUP2 LT ISZERO PUSH2 0x4E08 JUMPI DUP1 JUMPDEST PUSH2 0x4CCD DUP2 PUSH2 0x37DC JUMP JUMPDEST SWAP2 PUSH2 0x4CD7 DUP3 PUSH2 0x37DC JUMP JUMPDEST PUSH1 0x0 JUMPDEST DUP3 DUP2 LT PUSH2 0x4D18 JUMPI POP POP POP POP DUP1 MLOAD PUSH1 0x1 DUP2 GT PUSH2 0x4D00 JUMPI POP POP PUSH1 0x0 SLOAD PUSH1 0x1 PUSH1 0x1 PUSH1 0xA0 SHL SUB AND SWAP1 JUMP JUMPDEST PUSH1 0x1 LT ISZERO PUSH2 0x3397 JUMPI PUSH1 0x40 ADD MLOAD PUSH1 0x1 PUSH1 0x1 PUSH1 0xA0 SHL SUB AND SWAP1 JUMP JUMPDEST PUSH2 0x4D21 DUP2 PUSH2 0x3360 JUMP JUMPDEST SWAP1 PUSH1 0x1 DUP1 PUSH1 0xA0 SHL SUB DUP1 SWAP2 SLOAD PUSH1 0x3 SWAP4 DUP5 SHL SHR AND PUSH1 0x0 MSTORE PUSH2 0x4D5A PUSH1 0x6 PUSH1 0x8 PUSH1 0x20 SWAP2 DUP1 DUP4 MSTORE PUSH1 0x40 SWAP1 PUSH2 0x4BBB DUP2 DUP4 PUSH1 0x0 KECCAK256 ADD SLOAD DUP8 PUSH2 0x4BA0 DUP12 PUSH2 0x3360 JUMP JUMPDEST SWAP2 PUSH1 0x0 JUMPDEST DUP8 DUP2 LT PUSH2 0x4D72 JUMPI JUMPDEST POP POP POP POP PUSH1 0x1 ADD PUSH2 0x4CDA JUMP JUMPDEST PUSH2 0x4D7C DUP2 DUP8 PUSH2 0x380E JUMP JUMPDEST MLOAD DUP5 GT PUSH2 0x4D8B JUMPI PUSH1 0x1 ADD PUSH2 0x4D5E JUMP JUMPDEST SWAP2 SWAP1 PUSH1 0x0 NOT DUP9 DUP2 ADD DUP10 DUP2 GT PUSH2 0x1157 JUMPI JUMPDEST DUP5 DUP2 GT PUSH2 0x4DD1 JUMPI POP POP SWAP2 PUSH2 0x4DC7 SWAP2 DUP6 SWAP5 SWAP4 PUSH2 0x4DB7 PUSH1 0x1 SWAP8 PUSH2 0x3360 JUMP JUMPDEST SWAP1 SLOAD SWAP2 SHL SHR AND PUSH2 0x4C57 DUP3 DUP12 PUSH2 0x380E JUMP JUMPDEST MSTORE SWAP1 CODESIZE DUP1 DUP1 PUSH2 0x4D66 JUMP JUMPDEST DUP2 DUP2 ADD DUP2 DUP2 GT PUSH2 0x1157 JUMPI DUP1 DUP13 PUSH2 0x10FF DUP5 DUP9 PUSH2 0x1133 PUSH2 0x4DEF SWAP7 DUP6 PUSH2 0x380E JUMP JUMPDEST MLOAD PUSH2 0x4DFA DUP3 DUP11 PUSH2 0x380E JUMP JUMPDEST MSTORE DUP1 ISZERO PUSH2 0x1157 JUMPI DUP2 ADD PUSH2 0x4D9B JUMP JUMPDEST PUSH1 0x2 PUSH2 0x4CC4 JUMP JUMPDEST PUSH1 0xA SLOAD PUSH1 0x3 SWAP1 DUP2 DUP2 LT ISZERO PUSH2 0x4FA3 JUMPI DUP1 JUMPDEST PUSH2 0x4E28 DUP3 PUSH2 0x37DC JUMP JUMPDEST SWAP3 PUSH2 0x4E32 DUP4 PUSH2 0x37DC JUMP JUMPDEST PUSH1 0x0 JUMPDEST DUP4 DUP2 LT PUSH2 0x4E74 JUMPI POP POP POP POP POP DUP1 MLOAD PUSH1 0x2 DUP2 GT PUSH2 0x4E5C JUMPI POP POP PUSH1 0x0 SLOAD PUSH1 0x1 PUSH1 0x1 PUSH1 0xA0 SHL SUB AND SWAP1 JUMP JUMPDEST PUSH1 0x2 LT ISZERO PUSH2 0x3397 JUMPI PUSH1 0x60 ADD MLOAD PUSH1 0x1 PUSH1 0x1 PUSH1 0xA0 SHL SUB AND SWAP1 JUMP JUMPDEST PUSH2 0x4E7D DUP2 PUSH2 0x3360 JUMP JUMPDEST SWAP1 PUSH1 0x1 DUP1 PUSH1 0xA0 SHL SUB SWAP2 DUP3 SWAP2 SLOAD SWAP1 DUP7 SHL SHR AND PUSH1 0x0 MSTORE PUSH2 0x4EF1 PUSH1 0x6 PUSH1 0x8 PUSH1 0x20 SWAP2 DUP1 DUP4 MSTORE PUSH1 0x40 SWAP1 PUSH2 0x4ED0 DUP2 DUP4 PUSH1 0x0 KECCAK256 ADD SLOAD DUP8 PUSH2 0x4EB5 DUP11 PUSH2 0x3360 JUMP JUMPDEST SWAP1 SLOAD SWAP1 DUP14 SHL SHR AND PUSH1 0x0 MSTORE DUP3 DUP7 MSTORE PUSH1 0x7 DUP5 PUSH1 0x0 KECCAK256 ADD SLOAD SWAP1 PUSH2 0x33AD JUMP JUMPDEST SWAP4 DUP7 PUSH2 0x4EDB DUP10 PUSH2 0x3360 JUMP JUMPDEST SWAP1 SLOAD SWAP1 DUP13 SHL SHR AND PUSH1 0x0 MSTORE MSTORE PUSH1 0x0 KECCAK256 ADD SLOAD SWAP1 PUSH2 0x33AD JUMP JUMPDEST SWAP1 PUSH1 0x0 JUMPDEST DUP8 DUP2 LT PUSH2 0x4F08 JUMPI JUMPDEST POP POP POP PUSH1 0x1 ADD PUSH2 0x4E35 JUMP JUMPDEST PUSH2 0x4F12 DUP2 DUP7 PUSH2 0x380E JUMP JUMPDEST MLOAD DUP4 GT PUSH2 0x4F21 JUMPI PUSH1 0x1 ADD PUSH2 0x4EF5 JUMP JUMPDEST SWAP1 PUSH1 0x0 NOT DUP9 DUP2 ADD DUP10 DUP2 GT PUSH2 0x1157 JUMPI JUMPDEST DUP4 DUP2 GT PUSH2 0x4F65 JUMPI POP POP DUP4 SWAP3 SWAP2 PUSH2 0x4F5C SWAP2 PUSH2 0x4F4B PUSH1 0x1 SWAP7 PUSH2 0x3360 JUMP JUMPDEST SWAP1 SLOAD SWAP1 DUP10 SHL SHR AND PUSH2 0x4C57 DUP3 DUP13 PUSH2 0x380E JUMP JUMPDEST MSTORE SWAP1 CODESIZE DUP1 PUSH2 0x4EFD JUMP JUMPDEST DUP2 DUP2 ADD DUP2 DUP2 GT PUSH2 0x1157 JUMPI DUP1 DUP13 PUSH2 0x4F83 DUP5 DUP8 PUSH2 0x1133 PUSH2 0x4F8A SWAP7 DUP6 PUSH2 0x380E JUMP JUMPDEST MSTORE DUP9 PUSH2 0x380E JUMP JUMPDEST MLOAD PUSH2 0x4F95 DUP3 DUP10 PUSH2 0x380E JUMP JUMPDEST MSTORE DUP1 ISZERO PUSH2 0x1157 JUMPI DUP2 ADD PUSH2 0x4F30 JUMP JUMPDEST DUP2 SWAP1 PUSH2 0x4E1F JUMP JUMPDEST SWAP1 DUP2 MLOAD DUP2 LT ISZERO PUSH2 0x3397 JUMPI ADD PUSH1 0x20 ADD SWAP1 JUMP INVALID 0xDD 0xD4 0xB8 DUP10 EXTCODECOPY PUSH26 0xF22E6354587AE21D27D5A9540822F87DFB9ECE9C2E1E9A0E5557 0xCE 0x2A ORIGIN 0x2A 0xCD DUP16 0xEC SWAP6 STATICCALL 0xCF DUP1 0xB5 0xDA RETURNDATASIZE LOG0 0x4D JUMP GAS 0xD2 SHR 0xD9 PREVRANDAO PUSH17 0x1E16BAD26F62C807DCA264697066735822 SLT KECCAK256 LT 0xD5 0x2D PREVRANDAO PUSH20 0xC83E0848AB6486CE2324BA6F01C5000AE6AC91DD 0x4C PUSH10 0xF74A2327E764736F6C63 NUMBER STOP ADDMOD XOR STOP CALLER "},"methodIdentifiers":{"accounts(address)":"5e5c06e2","addUpgrade(string,uint256,uint256,uint256,uint256,uint256,uint256,uint256)":"ece2e4ba","adminAddDiamonds(address,uint256)":"67989d03","adminAddGold(address,uint256)":"62f91fbd","arenaContract()":"082a8c4e","armadaToken()":"3babd14b","attack(address)":"d018db3e","batchAttack(address[])":"fbb84efb","battlePassContract()":"f9fe7b19","buyUpgrade(uint256)":"a5a2cb19","checkIn()":"183ff085","claimGPM()":"1771ec63","completeRepair()":"328ef051","createAccount(string,bool,uint256)":"ab2611ee","createAccountWithReferral(string,bool,uint256,string)":"d60f7239","executeDuel(address,address)":"17854530","getClaimableGold(address)":"68780125","getHireCrewCost(address)":"4c8df037","getPlayerBattlePower(address)":"f603bfa0","getPlayerReferralCode(address)":"6895ec97","getRanking(uint256)":"bea2dc14","getReferralStats(address)":"21bade13","getRepairOptions(address)":"0afbcea5","getShipStats(address)":"8bc076e6","getShipsAt(uint256)":"b7df5b5d","getTimeUntilNextGPM(address)":"d85bf0b1","getUpgradeCost(uint256,address)":"5722bb51","guildContract()":"c9d95482","hireCrew()":"be4becd3","isPort(uint256)":"24aa225b","isRepairReady(address)":"fa470f85","isValidReferralCode(string)":"7a4f6258","nextUpgradeId()":"d2fabb18","owner()":"8da5cb5b","playerReferralCode(address)":"37fb67bd","players(uint256)":"f71d96cb","purchaseCounts(address,uint256)":"35d93897","referralCodes(string)":"2655e840","referralData(address)":"c9c6b556","renounceOwnership()":"715018a6","repairShip(uint8)":"541c155a","rescueMNT()":"3f5d3b9b","setArenaContract(address)":"368e0ed8","setEcosystemContracts(address,address,address,address)":"6a2d2864","shipNFTContract()":"d3a238c1","transferOwnership(address)":"f2fde38b","travel(uint256,bool)":"74aa3a98","upgrades(uint256)":"7386bbc5"}}}}}