{
  "_format": "hh-sol-artifact-1",
  "contractName": "ShipNFT",
  "sourceName": "contracts/ShipNFT.sol",
  "abi": [
    {
      "inputs": [
        {
          "internalType": "address",
          "name": "_armadaTokenAddress",
          "type": "address"
        }
      ],
      "stateMutability": "nonpayable",
      "type": "constructor"
    },
    {
      "inputs": [
        {
          "internalType": "address",
          "name": "sender",
          "type": "address"
        },
        {
          "internalType": "uint256",
          "name": "tokenId",
          "type": "uint256"
        },
        {
          "internalType": "address",
          "name": "owner",
          "type": "address"
        }
      ],
      "name": "ERC721IncorrectOwner",
      "type": "error"
    },
    {
      "inputs": [
        {
          "internalType": "address",
          "name": "operator",
          "type": "address"
        },
        {
          "internalType": "uint256",
          "name": "tokenId",
          "type": "uint256"
        }
      ],
      "name": "ERC721InsufficientApproval",
      "type": "error"
    },
    {
      "inputs": [
        {
          "internalType": "address",
          "name": "approver",
          "type": "address"
        }
      ],
      "name": "ERC721InvalidApprover",
      "type": "error"
    },
    {
      "inputs": [
        {
          "internalType": "address",
          "name": "operator",
          "type": "address"
        }
      ],
      "name": "ERC721InvalidOperator",
      "type": "error"
    },
    {
      "inputs": [
        {
          "internalType": "address",
          "name": "owner",
          "type": "address"
        }
      ],
      "name": "ERC721InvalidOwner",
      "type": "error"
    },
    {
      "inputs": [
        {
          "internalType": "address",
          "name": "receiver",
          "type": "address"
        }
      ],
      "name": "ERC721InvalidReceiver",
      "type": "error"
    },
    {
      "inputs": [
        {
          "internalType": "address",
          "name": "sender",
          "type": "address"
        }
      ],
      "name": "ERC721InvalidSender",
      "type": "error"
    },
    {
      "inputs": [
        {
          "internalType": "uint256",
          "name": "tokenId",
          "type": "uint256"
        }
      ],
      "name": "ERC721NonexistentToken",
      "type": "error"
    },
    {
      "inputs": [
        {
          "internalType": "address",
          "name": "owner",
          "type": "address"
        }
      ],
      "name": "OwnableInvalidOwner",
      "type": "error"
    },
    {
      "inputs": [
        {
          "internalType": "address",
          "name": "account",
          "type": "address"
        }
      ],
      "name": "OwnableUnauthorizedAccount",
      "type": "error"
    },
    {
      "inputs": [],
      "name": "ReentrancyGuardReentrantCall",
      "type": "error"
    },
    {
      "anonymous": false,
      "inputs": [
        {
          "indexed": true,
          "internalType": "address",
          "name": "owner",
          "type": "address"
        },
        {
          "indexed": true,
          "internalType": "address",
          "name": "approved",
          "type": "address"
        },
        {
          "indexed": true,
          "internalType": "uint256",
          "name": "tokenId",
          "type": "uint256"
        }
      ],
      "name": "Approval",
      "type": "event"
    },
    {
      "anonymous": false,
      "inputs": [
        {
          "indexed": true,
          "internalType": "address",
          "name": "owner",
          "type": "address"
        },
        {
          "indexed": true,
          "internalType": "address",
          "name": "operator",
          "type": "address"
        },
        {
          "indexed": false,
          "internalType": "bool",
          "name": "approved",
          "type": "bool"
        }
      ],
      "name": "ApprovalForAll",
      "type": "event"
    },
    {
      "anonymous": false,
      "inputs": [
        {
          "indexed": true,
          "internalType": "address",
          "name": "previousOwner",
          "type": "address"
        },
        {
          "indexed": true,
          "internalType": "address",
          "name": "newOwner",
          "type": "address"
        }
      ],
      "name": "OwnershipTransferred",
      "type": "event"
    },
    {
      "anonymous": false,
      "inputs": [
        {
          "indexed": true,
          "internalType": "address",
          "name": "owner",
          "type": "address"
        },
        {
          "indexed": true,
          "internalType": "uint256",
          "name": "tokenId",
          "type": "uint256"
        },
        {
          "indexed": false,
          "internalType": "uint256",
          "name": "battlePower",
          "type": "uint256"
        },
        {
          "indexed": false,
          "internalType": "string",
          "name": "shipClass",
          "type": "string"
        }
      ],
      "name": "ShipMinted",
      "type": "event"
    },
    {
      "anonymous": false,
      "inputs": [
        {
          "indexed": true,
          "internalType": "uint256",
          "name": "tokenId",
          "type": "uint256"
        },
        {
          "indexed": false,
          "internalType": "uint256",
          "name": "oldPower",
          "type": "uint256"
        },
        {
          "indexed": false,
          "internalType": "uint256",
          "name": "newPower",
          "type": "uint256"
        }
      ],
      "name": "ShipPowerUpdated",
      "type": "event"
    },
    {
      "anonymous": false,
      "inputs": [
        {
          "indexed": true,
          "internalType": "uint256",
          "name": "tokenId",
          "type": "uint256"
        },
        {
          "indexed": false,
          "internalType": "bool",
          "name": "staked",
          "type": "bool"
        }
      ],
      "name": "ShipStaked",
      "type": "event"
    },
    {
      "anonymous": false,
      "inputs": [
        {
          "indexed": true,
          "internalType": "address",
          "name": "from",
          "type": "address"
        },
        {
          "indexed": true,
          "internalType": "address",
          "name": "to",
          "type": "address"
        },
        {
          "indexed": true,
          "internalType": "uint256",
          "name": "tokenId",
          "type": "uint256"
        }
      ],
      "name": "Transfer",
      "type": "event"
    },
    {
      "anonymous": false,
      "inputs": [
        {
          "indexed": true,
          "internalType": "address",
          "name": "owner",
          "type": "address"
        },
        {
          "indexed": true,
          "internalType": "uint256",
          "name": "tokenId",
          "type": "uint256"
        },
        {
          "indexed": false,
          "internalType": "uint256",
          "name": "amount",
          "type": "uint256"
        }
      ],
      "name": "YieldClaimed",
      "type": "event"
    },
    {
      "inputs": [],
      "name": "BASE_YIELD_RATE",
      "outputs": [
        {
          "internalType": "uint256",
          "name": "",
          "type": "uint256"
        }
      ],
      "stateMutability": "view",
      "type": "function"
    },
    {
      "inputs": [],
      "name": "BRIGANTINE_THRESHOLD",
      "outputs": [
        {
          "internalType": "uint256",
          "name": "",
          "type": "uint256"
        }
      ],
      "stateMutability": "view",
      "type": "function"
    },
    {
      "inputs": [],
      "name": "FRIGATE_THRESHOLD",
      "outputs": [
        {
          "internalType": "uint256",
          "name": "",
          "type": "uint256"
        }
      ],
      "stateMutability": "view",
      "type": "function"
    },
    {
      "inputs": [],
      "name": "MAN_OF_WAR_THRESHOLD",
      "outputs": [
        {
          "internalType": "uint256",
          "name": "",
          "type": "uint256"
        }
      ],
      "stateMutability": "view",
      "type": "function"
    },
    {
      "inputs": [],
      "name": "MAX_YIELD_RATE",
      "outputs": [
        {
          "internalType": "uint256",
          "name": "",
          "type": "uint256"
        }
      ],
      "stateMutability": "view",
      "type": "function"
    },
    {
      "inputs": [],
      "name": "MIN_BATTLE_POWER",
      "outputs": [
        {
          "internalType": "uint256",
          "name": "",
          "type": "uint256"
        }
      ],
      "stateMutability": "view",
      "type": "function"
    },
    {
      "inputs": [],
      "name": "SECONDS_PER_DAY",
      "outputs": [
        {
          "internalType": "uint256",
          "name": "",
          "type": "uint256"
        }
      ],
      "stateMutability": "view",
      "type": "function"
    },
    {
      "inputs": [],
      "name": "SLOOP_THRESHOLD",
      "outputs": [
        {
          "internalType": "uint256",
          "name": "",
          "type": "uint256"
        }
      ],
      "stateMutability": "view",
      "type": "function"
    },
    {
      "inputs": [],
      "name": "YIELD_MULTIPLIER",
      "outputs": [
        {
          "internalType": "uint256",
          "name": "",
          "type": "uint256"
        }
      ],
      "stateMutability": "view",
      "type": "function"
    },
    {
      "inputs": [
        {
          "internalType": "address",
          "name": "to",
          "type": "address"
        },
        {
          "internalType": "uint256",
          "name": "tokenId",
          "type": "uint256"
        }
      ],
      "name": "approve",
      "outputs": [],
      "stateMutability": "nonpayable",
      "type": "function"
    },
    {
      "inputs": [],
      "name": "armadaToken",
      "outputs": [
        {
          "internalType": "contract IArmadaToken",
          "name": "",
          "type": "address"
        }
      ],
      "stateMutability": "view",
      "type": "function"
    },
    {
      "inputs": [
        {
          "internalType": "address",
          "name": "owner",
          "type": "address"
        }
      ],
      "name": "balanceOf",
      "outputs": [
        {
          "internalType": "uint256",
          "name": "",
          "type": "uint256"
        }
      ],
      "stateMutability": "view",
      "type": "function"
    },
    {
      "inputs": [
        {
          "internalType": "uint256[]",
          "name": "_tokenIds",
          "type": "uint256[]"
        }
      ],
      "name": "claimMultipleYields",
      "outputs": [],
      "stateMutability": "nonpayable",
      "type": "function"
    },
    {
      "inputs": [
        {
          "internalType": "uint256",
          "name": "_tokenId",
          "type": "uint256"
        }
      ],
      "name": "claimYield",
      "outputs": [],
      "stateMutability": "nonpayable",
      "type": "function"
    },
    {
      "inputs": [],
      "name": "gameContract",
      "outputs": [
        {
          "internalType": "address",
          "name": "",
          "type": "address"
        }
      ],
      "stateMutability": "view",
      "type": "function"
    },
    {
      "inputs": [
        {
          "internalType": "uint256",
          "name": "tokenId",
          "type": "uint256"
        }
      ],
      "name": "getApproved",
      "outputs": [
        {
          "internalType": "address",
          "name": "",
          "type": "address"
        }
      ],
      "stateMutability": "view",
      "type": "function"
    },
    {
      "inputs": [
        {
          "internalType": "uint256",
          "name": "_tokenId",
          "type": "uint256"
        }
      ],
      "name": "getClaimableYield",
      "outputs": [
        {
          "internalType": "uint256",
          "name": "",
          "type": "uint256"
        }
      ],
      "stateMutability": "view",
      "type": "function"
    },
    {
      "inputs": [],
      "name": "getContractStats",
      "outputs": [
        {
          "internalType": "uint256",
          "name": "totalMinted",
          "type": "uint256"
        },
        {
          "internalType": "uint256",
          "name": "currentSupply",
          "type": "uint256"
        },
        {
          "internalType": "uint256",
          "name": "totalYieldGenerated",
          "type": "uint256"
        }
      ],
      "stateMutability": "view",
      "type": "function"
    },
    {
      "inputs": [
        {
          "internalType": "uint256",
          "name": "_tokenId",
          "type": "uint256"
        }
      ],
      "name": "getShipAPY",
      "outputs": [
        {
          "internalType": "uint256",
          "name": "",
          "type": "uint256"
        }
      ],
      "stateMutability": "view",
      "type": "function"
    },
    {
      "inputs": [],
      "name": "getShipClassDistribution",
      "outputs": [
        {
          "internalType": "uint256",
          "name": "sloops",
          "type": "uint256"
        },
        {
          "internalType": "uint256",
          "name": "brigantines",
          "type": "uint256"
        },
        {
          "internalType": "uint256",
          "name": "frigates",
          "type": "uint256"
        },
        {
          "internalType": "uint256",
          "name": "manOfWars",
          "type": "uint256"
        }
      ],
      "stateMutability": "view",
      "type": "function"
    },
    {
      "inputs": [
        {
          "internalType": "uint256",
          "name": "_tokenId",
          "type": "uint256"
        }
      ],
      "name": "getShipData",
      "outputs": [
        {
          "components": [
            {
              "internalType": "uint256",
              "name": "tokenId",
              "type": "uint256"
            },
            {
              "internalType": "uint256",
              "name": "battlePower",
              "type": "uint256"
            },
            {
              "internalType": "uint256",
              "name": "yieldRate",
              "type": "uint256"
            },
            {
              "internalType": "uint256",
              "name": "lastYieldClaim",
              "type": "uint256"
            },
            {
              "internalType": "uint256",
              "name": "totalYieldGenerated",
              "type": "uint256"
            },
            {
              "internalType": "uint256",
              "name": "mintedAt",
              "type": "uint256"
            },
            {
              "internalType": "string",
              "name": "shipClass",
              "type": "string"
            },
            {
              "internalType": "bool",
              "name": "isStaked",
              "type": "bool"
            }
          ],
          "internalType": "struct ShipNFT.ShipData",
          "name": "",
          "type": "tuple"
        }
      ],
      "stateMutability": "view",
      "type": "function"
    },
    {
      "inputs": [
        {
          "internalType": "address",
          "name": "_owner",
          "type": "address"
        }
      ],
      "name": "getShipsByOwner",
      "outputs": [
        {
          "internalType": "uint256[]",
          "name": "",
          "type": "uint256[]"
        }
      ],
      "stateMutability": "view",
      "type": "function"
    },
    {
      "inputs": [
        {
          "internalType": "address",
          "name": "_owner",
          "type": "address"
        }
      ],
      "name": "getTotalClaimableYield",
      "outputs": [
        {
          "internalType": "uint256",
          "name": "",
          "type": "uint256"
        }
      ],
      "stateMutability": "view",
      "type": "function"
    },
    {
      "inputs": [
        {
          "internalType": "address",
          "name": "owner",
          "type": "address"
        },
        {
          "internalType": "address",
          "name": "operator",
          "type": "address"
        }
      ],
      "name": "isApprovedForAll",
      "outputs": [
        {
          "internalType": "bool",
          "name": "",
          "type": "bool"
        }
      ],
      "stateMutability": "view",
      "type": "function"
    },
    {
      "inputs": [
        {
          "internalType": "address",
          "name": "_owner",
          "type": "address"
        },
        {
          "internalType": "uint256",
          "name": "_battlePower",
          "type": "uint256"
        }
      ],
      "name": "mintShipNFT",
      "outputs": [
        {
          "internalType": "uint256",
          "name": "",
          "type": "uint256"
        }
      ],
      "stateMutability": "nonpayable",
      "type": "function"
    },
    {
      "inputs": [],
      "name": "name",
      "outputs": [
        {
          "internalType": "string",
          "name": "",
          "type": "string"
        }
      ],
      "stateMutability": "view",
      "type": "function"
    },
    {
      "inputs": [],
      "name": "nextTokenId",
      "outputs": [
        {
          "internalType": "uint256",
          "name": "",
          "type": "uint256"
        }
      ],
      "stateMutability": "view",
      "type": "function"
    },
    {
      "inputs": [],
      "name": "owner",
      "outputs": [
        {
          "internalType": "address",
          "name": "",
          "type": "address"
        }
      ],
      "stateMutability": "view",
      "type": "function"
    },
    {
      "inputs": [
        {
          "internalType": "uint256",
          "name": "tokenId",
          "type": "uint256"
        }
      ],
      "name": "ownerOf",
      "outputs": [
        {
          "internalType": "address",
          "name": "",
          "type": "address"
        }
      ],
      "stateMutability": "view",
      "type": "function"
    },
    {
      "inputs": [],
      "name": "renounceOwnership",
      "outputs": [],
      "stateMutability": "nonpayable",
      "type": "function"
    },
    {
      "inputs": [
        {
          "internalType": "address",
          "name": "from",
          "type": "address"
        },
        {
          "internalType": "address",
          "name": "to",
          "type": "address"
        },
        {
          "internalType": "uint256",
          "name": "tokenId",
          "type": "uint256"
        }
      ],
      "name": "safeTransferFrom",
      "outputs": [],
      "stateMutability": "nonpayable",
      "type": "function"
    },
    {
      "inputs": [
        {
          "internalType": "address",
          "name": "from",
          "type": "address"
        },
        {
          "internalType": "address",
          "name": "to",
          "type": "address"
        },
        {
          "internalType": "uint256",
          "name": "tokenId",
          "type": "uint256"
        },
        {
          "internalType": "bytes",
          "name": "data",
          "type": "bytes"
        }
      ],
      "name": "safeTransferFrom",
      "outputs": [],
      "stateMutability": "nonpayable",
      "type": "function"
    },
    {
      "inputs": [
        {
          "internalType": "address",
          "name": "operator",
          "type": "address"
        },
        {
          "internalType": "bool",
          "name": "approved",
          "type": "bool"
        }
      ],
      "name": "setApprovalForAll",
      "outputs": [],
      "stateMutability": "nonpayable",
      "type": "function"
    },
    {
      "inputs": [
        {
          "internalType": "address",
          "name": "_gameContract",
          "type": "address"
        }
      ],
      "name": "setGameContract",
      "outputs": [],
      "stateMutability": "nonpayable",
      "type": "function"
    },
    {
      "inputs": [
        {
          "internalType": "uint256",
          "name": "",
          "type": "uint256"
        }
      ],
      "name": "ships",
      "outputs": [
        {
          "internalType": "uint256",
          "name": "tokenId",
          "type": "uint256"
        },
        {
          "internalType": "uint256",
          "name": "battlePower",
          "type": "uint256"
        },
        {
          "internalType": "uint256",
          "name": "yieldRate",
          "type": "uint256"
        },
        {
          "internalType": "uint256",
          "name": "lastYieldClaim",
          "type": "uint256"
        },
        {
          "internalType": "uint256",
          "name": "totalYieldGenerated",
          "type": "uint256"
        },
        {
          "internalType": "uint256",
          "name": "mintedAt",
          "type": "uint256"
        },
        {
          "internalType": "string",
          "name": "shipClass",
          "type": "string"
        },
        {
          "internalType": "bool",
          "name": "isStaked",
          "type": "bool"
        }
      ],
      "stateMutability": "view",
      "type": "function"
    },
    {
      "inputs": [
        {
          "internalType": "uint256",
          "name": "_tokenId",
          "type": "uint256"
        }
      ],
      "name": "stakeShip",
      "outputs": [],
      "stateMutability": "nonpayable",
      "type": "function"
    },
    {
      "inputs": [
        {
          "internalType": "bytes4",
          "name": "interfaceId",
          "type": "bytes4"
        }
      ],
      "name": "supportsInterface",
      "outputs": [
        {
          "internalType": "bool",
          "name": "",
          "type": "bool"
        }
      ],
      "stateMutability": "view",
      "type": "function"
    },
    {
      "inputs": [],
      "name": "symbol",
      "outputs": [
        {
          "internalType": "string",
          "name": "",
          "type": "string"
        }
      ],
      "stateMutability": "view",
      "type": "function"
    },
    {
      "inputs": [
        {
          "internalType": "uint256",
          "name": "tokenId",
          "type": "uint256"
        }
      ],
      "name": "tokenURI",
      "outputs": [
        {
          "internalType": "string",
          "name": "",
          "type": "string"
        }
      ],
      "stateMutability": "view",
      "type": "function"
    },
    {
      "inputs": [],
      "name": "totalShipsMinted",
      "outputs": [
        {
          "internalType": "uint256",
          "name": "",
          "type": "uint256"
        }
      ],
      "stateMutability": "view",
      "type": "function"
    },
    {
      "inputs": [
        {
          "internalType": "address",
          "name": "from",
          "type": "address"
        },
        {
          "internalType": "address",
          "name": "to",
          "type": "address"
        },
        {
          "internalType": "uint256",
          "name": "tokenId",
          "type": "uint256"
        }
      ],
      "name": "transferFrom",
      "outputs": [],
      "stateMutability": "nonpayable",
      "type": "function"
    },
    {
      "inputs": [
        {
          "internalType": "address",
          "name": "newOwner",
          "type": "address"
        }
      ],
      "name": "transferOwnership",
      "outputs": [],
      "stateMutability": "nonpayable",
      "type": "function"
    },
    {
      "inputs": [
        {
          "internalType": "uint256",
          "name": "_tokenId",
          "type": "uint256"
        }
      ],
      "name": "unstakeShip",
      "outputs": [],
      "stateMutability": "nonpayable",
      "type": "function"
    },
    {
      "inputs": [
        {
          "internalType": "uint256",
          "name": "_tokenId",
          "type": "uint256"
        },
        {
          "internalType": "uint256",
          "name": "_newBattlePower",
          "type": "uint256"
        }
      ],
      "name": "updateShipPower",
      "outputs": [],
      "stateMutability": "nonpayable",
      "type": "function"
    }
  ],
  "bytecode": "0x6080346200040b57601f90601f19906001600160401b039062002c5938819003858101851683018481118482101762000410578392829160405283396020928391810103126200040b57516001600160a01b0380821695909390918690036200040b576200006c62000426565b90600b82526a041726d61646120536869760ac1b848301526200008e62000426565b92600493848152630534849560e41b86820152835197838911620003f6576000988954956001968781811c91168015620003eb575b8a821014620003d85790818684931162000385575b50899086831160011462000324578c9262000318575b5050600019600383901b1c191690861b1789555b8151938411620003055784548581811c91168015620002fa575b88821014620002e757908184869594931162000290575b50879284116001146200022f5750889262000223575b5050600019600383901b1c191690821b1781555b33156200020b5760065460018060a01b03199533878316176006557f8be0079c531659141344cd1fd0a4f28419497f9722a3daafe3b4186f6b6457e0604051963393169180a380600755600b558415620001cc5750505060085416176008556040516128129081620004478239f35b62461bcd60e51b8352820152601560248201527f496e76616c696420746f6b656e20616464726573730000000000000000000000604482015260649150fd5b604051631e4fbdf760e01b8152808301869052602490fd5b01519050388062000149565b858a52878a20869590939291168a5b898282106200027957505084116200025f575b505050811b0181556200015d565b015160001960f88460031b161c1916905538808062000251565b83850151865588979095019493840193016200023e565b9091929350858a52878a208480870160051c8201928a8810620002dd575b9187968992969594930160051c01915b828110620002ce57505062000133565b8c8155879650889101620002be565b92508192620002ae565b634e487b7160e01b8a526022875260248afd5b90607f16906200011c565b634e487b7160e01b895260418652602489fd5b015190503880620000ee565b908c91858a95168380528c8420935b8d8282106200036e575050841162000354575b505050811b01895562000102565b015160001960f88460031b161c1916905538808062000346565b8385015186558c9790950194938401930162000333565b9091508b8052898c208680850160051c8201928c8610620003ce575b918a91869594930160051c01915b828110620003bf575050620000d8565b8e81558594508a9101620003af565b92508192620003a1565b634e487b7160e01b8c526022895260248cfd5b90607f1690620000c3565b604186634e487b7160e01b6000525260246000fd5b600080fd5b634e487b7160e01b600052604160045260246000fd5b60408051919082016001600160401b03811183821017620004105760405256fe608080604052600436101561001357600080fd5b600090813560e01c90816301ffc9a714611ec95750806306fdde0314611dfb57806307fc3e3314611d3c578063081812fc14611cff57806308e937f914611bc1578063095ea7b314611ade5780631332919314610c8f57806323b872dd14611ac657806332334ef41461151d5780633298b791146113c3578063330fd91a146111595780633babd14b14611130578063405ebd4d146110ac57806340bd2e2314610f7b57806341c3478e14610e0b57806342842e0e14610ddd5780634d4e8dfa14610d47578063593f677614610c8f5780636352211e14610d165780636987ca1d1461088357806370a0823114610cf2578063715018a614610c945780637200a71114610c8f57806374f0314f14610c7157806375794a3c14610c535780638da5cb5b14610c2a57806395d89b4114610b5b578063a22cb46514610aa9578063a8e23a361461095f578063b88d4fde146108c0578063b9a495dc146108a4578063beb85d0714610888578063c48d60fe14610883578063c87b56dd1461066f578063d3f3300914610646578063d6583c2d146105f8578063da8fce2f146105da578063df1de64e146105be578063dfe6b5d61461052e578063e09eb9d814610471578063e632dbfc1461038a578063e985e9c514610336578063ed9a4cd9146102925763f2fde38b1461020557600080fd5b3461028f57602036600319011261028f5761021e611f7e565b610226612665565b6001600160a01b0390811690811561027657600654826001600160601b0360a01b821617600655167f8be0079c531659141344cd1fd0a4f28419497f9722a3daafe3b4186f6b6457e0600080a380f35b604051631e4fbdf760e01b815260048101849052602490fd5b80fd5b503461028f57602036600319011261028f576102ac611f7e565b906102b682612451565b50600b54600192835b8281106102d157602084604051908152f35b6000818152600260205260409020548591906001600160a01b0316151580610319575b6102ff575b016102bf565b936103139061030d866125a9565b906123c1565b936102f9565b50610323816124a2565b6001600160a01b038481169116146102f4565b503461028f57604036600319011261028f57610350611f7e565b604061035a611f99565b9260018060a01b0380931681526005602052209116600052602052602060ff604060002054166040519015158152f35b503461028f578060031936011261028f578081828391600180600b545b8083106103cc5750505060809450604051938452602084015260408301526060820152f35b9091946103ee86600052600260205260018060a01b0360406000205416151590565b1561046957858852600a6020526040882083015460c8811061041f575061041583916123ce565b955b0191906103a7565b909594906064811061043c575061043683916123ce565b94610417565b909493906032116104575761045183916123ce565b93610417565b929561046383916123ce565b96610417565b948290610417565b503461028f57602036600319011261028f5760043561048e6124dd565b6104aa61049a826124a2565b6001600160a01b031633146123dd565b808252600a60205260076040832001805460ff8116156104fc5760ff191690557fb773e886be72ca3fca438e9436670c55e4398966500800f3d34835dc101f12586020604051848152a2600160075580f35b60405162461bcd60e51b815260206004820152600a602482015269139bdd081cdd185ad95960b21b6044820152606490fd5b503461028f578060031936011261028f578081600192600190600b54915b82811061056d5760608585600c549160405192835260208301526040820152f35b6000818152600260205260409020548691906001600160a01b0316610593575b0161054c565b93946105a16105b8916123ce565b95858452600a6020526004604085200154906123c1565b9361058d565b503461028f578060031936011261028f57602060405160c88152f35b503461028f578060031936011261028f576020600c54604051908152f35b503461028f57602036600319011261028f57602061063e60043561063961063482600052600260205260018060a01b0360406000205416151590565b6121b8565b6125a9565b604051908152f35b503461028f578060031936011261028f576009546040516001600160a01b039091168152602090f35b503461028f576020908160031936011261028f578160043591610691836124a2565b506040519261069f84612081565b8184528115610869578190807a184f03e93ff9f4daa797ed6e38ed64bf6a1f010000000000000000818181101561085b575b5050846d04ee2d6d415b85acef81000000008084101561084d575b5050662386f26fc100008083101561083e575b506305f5e1008083101561082f575b5061271080831015610820575b506064821015610810575b600a80921015610806575b600190816021600186019561075e6107488861219c565b97610756604051998a6120b9565b80895261219c565b878a019890601f1901368a3750860101905b6107d0575b50505050926107b692916107aa94604051958361079b8895518092888089019101611f36565b84019151809386840190611f36565b010380845201826120b9565b905b6107cc604051928284938452830190611f59565b0390f35b600019019083906f181899199a1a9b1b9c1cb0b131b232b360811b8282061a83530491821561080157919082610770565b610775565b9160010191610731565b9190606460029104910191610726565b6004919392049101913861071b565b6008919392049101913861070e565b601091939204910191386106ff565b9301929091049084386106ec565b6040945004915038806106d1565b5050505060405161087981612081565b60008152906107b8565b612180565b503461028f578060031936011261028f57602060405160018152f35b503461028f578060031936011261028f57602060405160328152f35b503461028f57608036600319011261028f576108da611f7e565b6108e2611f99565b6044356064359167ffffffffffffffff831161095b573660238401121561095b57826004013593856109138661219c565b9461092160405196876120b9565b8686523660248883010111610957578661095497602460209301838901378601015261094e838383612222565b33612691565b80f35b5080fd5b8480fd5b503461028f576020908160031936011261028f579061097c611f7e565b9161098683612451565b906109908261248a565b61099d60405191826120b9565b8281526109a98361248a565b8185019590601f19013687378293600194600192600b54935b848110610a05575b50505050506040519380850191818652518092526040850195925b8281106109f25785870386f35b83518752958101959281019284016109e5565b9687610a2c829b98999a969a600052600260205260018060a01b0360406000205416151590565b80610a8c575b610a44575b01989695989793976109c2565b9290508551811015610a7857610a648184878d9460051b8a0101526123ce565b92848403610a3757509695988498506109ca565b634e487b7160e01b88526032600452602488fd5b50610a96816124a2565b6001600160a01b03848116911614610a32565b503461028f57604036600319011261028f57610ac3611f7e565b6024359081151590818303610b57576001600160a01b0316918215610b3e57610b0f903385526005602052604085208460005260205260406000209060ff801983541691151516179055565b6040519081527f17307eab39ab6107e8899845ad3d59bd9653f200f220920489ca2b5937696c3160203392a380f35b604051630b61174360e31b815260048101849052602490fd5b8380fd5b503461028f578060031936011261028f57604051600060018260015492610b8184612000565b9283835260209485600182169182600014610c0a575050600114610bad575b506107b8925003836120b9565b84915060016000527fb10e2d527612073b26eecdfd717e6a320cf44b4afac2b0732d9fcbe2b7fa0cf6906000915b858310610bf25750506107b8935082010185610ba0565b80548389018501528794508693909201918101610bdb565b60ff1916858201526107b895151560051b8501019250879150610ba09050565b503461028f578060031936011261028f576006546040516001600160a01b039091168152602090f35b503461028f578060031936011261028f576020600b54604051908152f35b503461028f578060031936011261028f576020604051620151808152f35b611faf565b503461028f578060031936011261028f57610cad612665565b600680546001600160a01b031981169091556000906001600160a01b03167f8be0079c531659141344cd1fd0a4f28419497f9722a3daafe3b4186f6b6457e08280a380f35b503461028f57602036600319011261028f57602061063e610d11611f7e565b612451565b503461028f57602036600319011261028f576020610d356004356124a2565b6040516001600160a01b039091168152f35b503461028f57602036600319011261028f576040906004358152600a602052208054600182015490610dd1600284015493600381015492600482015460058301549060ff6007610d99600687016120db565b9501541695604051988998610100958a5260208a015260408901526060880152608087015260a08601528060c0860152840190611f59565b90151560e08301520390f35b503461028f57610954610def36611fcb565b9060405192610dfd84612081565b85845261094e838383612222565b503461028f576020806003193601126109575767ffffffffffffffff600435818111610b575736602382011215610b57578060040135918211610b575760249060053660248560051b84010111610f7757610e646124dd565b855b848110610e765786600160075580f35b6001600160a01b039080831b84018501353383610e92836124a2565b1603610f6d57808952600a8852886040812093610eae836125a9565b948515610f605760049042600382015501610eca8682546123c1565b905560085416803b156109575781604051809262fe211960e51b8252818381610ef78b3360048401612415565b03925af18015610f5557610f3d575b50506001926040519081527f10d8dedfc0745b8c25ba10b06e304138b251c18dcaadf2d71c7f3214719dc4d1893392a35b01610e66565b610f469061206d565b610f51578838610f06565b8880fd5b6040513d84823e3d90fd5b5050505060019150610f37565b5060019150610f37565b8580fd5b503461028f57602036600319011261028f57600435610f986124dd565b610fa1816124a2565b6001600160a01b0390610fb790821633146123dd565b818352600a60205260408320610fcc836125a9565b918215611073576004859242600382015501610fe98482546123c1565b905560085416803b156109575781604051809262fe211960e51b8252818381611016893360048401612415565b03925af18015610f555761105b575b50506040519081527f10d8dedfc0745b8c25ba10b06e304138b251c18dcaadf2d71c7f3214719dc4d160203392a3600160075580f35b6110649061206d565b61106f578238611025565b8280fd5b60405162461bcd60e51b81526020600482015260116024820152704e6f207969656c6420746f20636c61696d60781b6044820152606490fd5b503461028f57602036600319011261028f576110c6611f7e565b6110ce612665565b6001600160a01b031680156110f3576001600160601b0360a01b600954161760095580f35b60405162461bcd60e51b8152602060048201526015602482015274125b9d985b1a590819d85b594818dbdb9d1c9858dd605a1b6044820152606490fd5b503461028f578060031936011261028f576008546040516001600160a01b039091168152602090f35b503461028f57604036600319011261028f5760095460043590602435906001600160a01b03163303611389576000828152600260205260409020546111a8906001600160a01b031615156121b8565b818352602090600a825260408420916001808401938385549555600a840480800483148115171561137557600a0180600a11611375576064811161136d575b600282015560066111f785612500565b91019181519167ffffffffffffffff8311611359576112168454612000565b601f8111611313575b508490601f841160011461128a579280604097959381937fd666e3d1d5d3e67f55b8ce97026d83864fa994ac1e07fcbf223a462de20a79de9a98968d9461127f575b50501b916000199060031b1c19161790555b8351928352820152a280f35b015192503880611261565b848a52858a209293929190601f1984168b5b8181106112fe5750917fd666e3d1d5d3e67f55b8ce97026d83864fa994ac1e07fcbf223a462de20a79de99979593918560409a989694106112e5575b505050811b019055611273565b015160001960f88460031b161c191690553880806112d8565b8284015185559386019392880192880161129c565b848a52858a20601f850160051c81019187861061134f575b601f0160051c019083905b82811061134457505061121f565b8b8155018390611336565b909150819061132b565b634e487b7160e01b89526041600452602489fd5b5060646111e7565b634e487b7160e01b88526011600452602488fd5b60405162461bcd60e51b815260206004820152601260248201527113db9b1e4819d85b594818dbdb9d1c9858dd60721b6044820152606490fd5b503461028f57602036600319011261028f576004356113e06124dd565b6113e9816124a2565b6001600160a01b03906113ff90821633146123dd565b818352600a6020526040832090600782019060ff8254166114e7578490611425856125a9565b9081611473575b505050600160ff198254161790556003429101557fb773e886be72ca3fca438e9436670c55e4398966500800f3d34835dc101f1258602060405160018152a2600160075580f35b600485016114828382546123c1565b90556008541690813b1561106f5782916114b29160405194858094819362fe211960e51b83523360048401612415565b03925af180156114dc576114c9575b80859161142c565b6114d59094919461206d565b92386114c1565b6040513d87823e3d90fd5b60405162461bcd60e51b815260206004820152600e60248201526d105b1c9958591e481cdd185ad95960921b6044820152606490fd5b503461028f57604036600319011261028f57611537611f7e565b61153f6124dd565b6009546001600160a01b031633148015611ab4575b15611a8057600a60243510611a4457600b5490600a6024350480800460011481151715611a3057600a0180600a11611a305760648111611a28575b61159a602435612500565b906040516115a78161203a565b8481526020810191602435835260408201908152606082014281526080830188815260a084019142835260c08501938785528a60e0870152898b52600a60205260408b2096865188555160018801555160028701555160038601555160048501555160058401555180519067ffffffffffffffff8211611a145761162e6006850154612000565b601f81116119d0575b50602090601f831160011461195a57928260079360e09361168997968c9261194f575b50508160011b916000199060031b1c19161760068501555b0151151591019060ff801983541691151516179055565b60405161169581612081565b8481526001600160a01b03831692831561193657848652600260205260408620546001600160a01b0316801515908690869083611901575b818a52600360205260408a2060018154019055828a52600260205260408a20826001600160601b0360a01b8254161790557fddf252ad1be2c89b69c2b068fc378daa952ba7f163c4a11628f55a4df523b3ef8a80a46118e8573b61179d575b60208480857f588e01c1e953084c665be441df23cc5d9e03dd7990cc3c44e07f6aa854abc61261178d87611761600c546123ce565b600c5561176f600b546123ce565b600b5560405191829160243583526040898401526040830190611f59565b0390a36001600755604051908152f35b604093929351602081806117d9630a85bd0160e11b958683523360048401528a6024840152886044840152608060648401526084830190611f59565b038189895af186918161189f575b506118485785853d1561183f573d6117fe8161219c565b9061180c60405192836120b9565b8152809260203d92013e5b8151918261183857604051633250574960e11b815260048101839052602490fd5b9050602001fd5b60609150611817565b90919293945063ffffffff60e01b160361188657602092907f588e01c1e953084c665be441df23cc5d9e03dd7990cc3c44e07f6aa854abc61261172c565b604051633250574960e11b815260048101849052602490fd5b9091506020813d6020116118e0575b816118bb602093836120b9565b810103126118dc57516001600160e01b0319811681036118dc5790386117e7565b8680fd5b3d91506118ae565b6040516339e3563760e11b815260048101879052602490fd5b600083815260046020526040902080546001600160a01b0319169055808a52600360205260408a2080546000190190556116cd565b604051633250574960e11b815260048101879052602490fd5b01519050388061165a565b906006850189526020892091895b601f19851681106119b857508360e093611689979693600193600797601f1981161061199f575b505050811b016006850155611672565b015160001960f88460031b161c1916905538808061198f565b91926020600181928685015181550194019201611968565b60068501895260208920601f840160051c810160208510611a0d575b601f830160051c82018110611a02575050611637565b8a81556001016119ec565b50806119ec565b634e487b7160e01b88526041600452602488fd5b50606461158f565b634e487b7160e01b84526011600452602484fd5b60405162461bcd60e51b8152602060048201526014602482015273426174746c6520706f77657220746f6f206c6f7760601b6044820152606490fd5b60405162461bcd60e51b815260206004820152600c60248201526b155b985d5d1a1bdc9a5e995960a21b6044820152606490fd5b50336001600160a01b03821614611554565b503461028f57610954611ad836611fcb565b91612222565b503461028f57604036600319011261028f57611af8611f7e565b602435611b04816124a2565b33151580611bae575b80611b83575b611b6b576001600160a01b039283169282918491167f8c5be1e5ebec7d5bd14f71427d1e84f3dd0314c0f7b2291e5b200ac8c7c3b9258680a4825260046020526040822080546001600160a01b031916909117905580f35b60405163a9fbf51f60e01b8152336004820152602490fd5b506001600160a01b038116845260056020908152604080862033875290915284205460ff1615611b13565b506001600160a01b038116331415611b0d565b503461028f576020908160031936011261028f576040906004358160e08451611be98161203a565b828152828782015282868201528260608201528260808201528260a0820152606060c08201520152611c3361063482600052600260205260018060a01b0360406000205416151590565b8152600a83522060405190611c478261203a565b805482526001810154908383019182526002810154604084019081526003820154606085019081526004830154906080860191825260058401549260a0870193845260ff6007611c99600688016120db565b9660c08a019788520154169560e088019615158752604051988998818a5251908901525160408801525160608701525160808601525160a08501525160c084015251611cf3610100918260e0860152610120850190611f59565b91511515908301520390f35b503461028f57602036600319011261028f57602090600435611d20816124a2565b50815260048252604060018060a01b0391205416604051908152f35b503461028f57602036600319011261028f57600435600081815260026020526040902054611d74906001600160a01b031615156121b8565b8152600a6020526040812060028101549161016d92838102938185041481151715611de75760ff60078594015416611db2575b602083604051908152f35b6102da919250029180830460021490151715611dd357506020903880611da7565b634e487b7160e01b81526011600452602490fd5b634e487b7160e01b82526011600452602482fd5b503461028f578060031936011261028f57604051908082825491611e1e83612000565b9283835260209460019186600182169182600014611ea7575050600114611e4e575b50506107b8925003836120b9565b908592508180527f290decd9548b62a8d60345a988386fc84ba6bc95484008f6362f93160ef3e5635b858310611e8f5750506107b893508201013880611e40565b80548389018501528794508693909201918101611e77565b92509350506107b894915060ff191682840152151560051b8201013880611e40565b9050346109575760203660031901126109575760043563ffffffff60e01b811680910361106f57602092506380ac58cd60e01b8114908115611f25575b8115611f14575b5015158152f35b6301ffc9a760e01b14905038611f0d565b635b5e139f60e01b81149150611f06565b60005b838110611f495750506000910152565b8181015183820152602001611f39565b90602091611f7281518092818552858086019101611f36565b601f01601f1916010190565b600435906001600160a01b0382168203611f9457565b600080fd5b602435906001600160a01b0382168203611f9457565b34611f94576000366003190112611f94576020604051600a8152f35b6060906003190112611f94576001600160a01b03906004358281168103611f9457916024359081168103611f94579060443590565b90600182811c92168015612030575b602083101461201a57565b634e487b7160e01b600052602260045260246000fd5b91607f169161200f565b610100810190811067ffffffffffffffff82111761205757604052565b634e487b7160e01b600052604160045260246000fd5b67ffffffffffffffff811161205757604052565b6020810190811067ffffffffffffffff82111761205757604052565b6040810190811067ffffffffffffffff82111761205757604052565b90601f8019910116810190811067ffffffffffffffff82111761205757604052565b906040519182600082546120ee81612000565b9081845260209460019160018116908160001461215e575060011461211f575b50505061211d925003836120b9565b565b600090815285812095935091905b81831061214657505061211d935082010138808061210e565b8554888401850152948501948794509183019161212d565b9250505061211d94925060ff191682840152151560051b82010138808061210e565b34611f94576000366003190112611f9457602060405160648152f35b67ffffffffffffffff811161205757601f01601f191660200190565b156121bf57565b60405162461bcd60e51b815260206004820152601260248201527114da1a5c08191bd95cdb89dd08195e1a5cdd60721b6044820152606490fd5b8181029291811591840414171561220c57565b634e487b7160e01b600052601160045260246000fd5b6001600160a01b0391821692909183156123a857600092828452826020956002875260409684888820541696879133151580612312575b509060027fddf252ad1be2c89b69c2b068fc378daa952ba7f163c4a11628f55a4df523b3ef92846122df575b858352600381528b8320805460010190558683525289812080546001600160a01b0319168517905580a416928383036122be5750505050565b6064945051926364283d7b60e01b8452600484015260248301526044820152fd5b600087815260046020526040902080546001600160a01b0319169055848352600381528b83208054600019019055612285565b91939450915080612367575b1561232e57859291879138612259565b87868861234b576024915190637e27328960e01b82526004820152fd5b604491519063177e802f60e01b82523360048301526024820152fd5b50338714801561238c575b8061231e575085825260048152338589842054161461231e565b5086825260058152878220338352815260ff8883205416612372565b604051633250574960e11b815260006004820152602490fd5b9190820180921161220c57565b600019811461220c5760010190565b156123e457565b60405162461bcd60e51b81526020600482015260096024820152682737ba1037bbb732b960b91b6044820152606490fd5b909160a092600180851b03168252602082015260606040820152600e60608201526d1cda1a5c17db999d17de5a595b1960921b60808201520190565b6001600160a01b0316801561247157600052600360205260406000205490565b6040516322718ad960e21b815260006004820152602490fd5b67ffffffffffffffff81116120575760051b60200190565b6000818152600260205260409020546001600160a01b03169081156124c5575090565b60249060405190637e27328960e01b82526004820152fd5b6002600754146124ee576002600755565b604051633ee5aeb560e01b8152600490fd5b60c8811061252f57506040516125158161209d565b600a81526926b0b716b7b316abb0b960b11b602082015290565b6064811061255b57506040516125448161209d565b60078152664672696761746560c81b602082015290565b6032116125885760405161256e8161209d565b600a81526942726967616e74696e6560b01b602082015290565b6040516125948161209d565b60058152640536c6f6f760dc1b602082015290565b6000908152600a602052604081209060038201548042039042821161264b57421461265f57670de0b6b3a764000090818102908104820361264b57612607906126026201518060018701549204916002870154906121f9565b6121f9565b818102918183041490151715611de757600769021e19e0c9bab240000060ff920493015416612634575090565b8160011b9180830460021490151715611dd3575090565b634e487b7160e01b83526011600452602483fd5b50905090565b6006546001600160a01b0316330361267957565b60405163118cdaa760e01b8152336004820152602490fd5b909192833b6126a2575b5050505050565b604051630a85bd0160e11b8082526001600160a01b0393841660048301529383166024820152604481019190915260806064820152602095919093169390919083906126f2906084830190611f59565b039285816000958187895af184918161279c575b50612766575050503d60001461275e573d6127208161219c565b9061272e60405192836120b9565b81528091843d92013e5b8051928361275957604051633250574960e11b815260048101849052602490fd5b019050fd5b506060612738565b919450915063ffffffff60e01b16036127845750388080808061269b565b60249060405190633250574960e11b82526004820152fd5b9091508681813d83116127d5575b6127b481836120b9565b8101031261095b57516001600160e01b03198116810361095b579038612706565b503d6127aa56fea26469706673582212203e45b39d13b279ffc7e1af9b09b67ec96843cb701a06c29b6774bb946022e52264736f6c63430008180033",
  "linkReferences": {},
  "deployedLinkReferences": {}
}