{
  "_format": "hh-sol-artifact-1",
  "contractName": "TournamentArena",
  "sourceName": "contracts/TournamentArena.sol",
  "abi": [
    {
      "inputs": [
        {
          "internalType": "address",
          "name": "_gameContract",
          "type": "address"
        },
        {
          "internalType": "address",
          "name": "_agentController",
          "type": "address"
        },
        {
          "internalType": "address",
          "name": "_seasToken",
          "type": "address"
        },
        {
          "internalType": "address",
          "name": "_treasury",
          "type": "address"
        }
      ],
      "stateMutability": "nonpayable",
      "type": "constructor"
    },
    {
      "inputs": [
        {
          "internalType": "address",
          "name": "owner",
          "type": "address"
        }
      ],
      "name": "OwnableInvalidOwner",
      "type": "error"
    },
    {
      "inputs": [
        {
          "internalType": "address",
          "name": "account",
          "type": "address"
        }
      ],
      "name": "OwnableUnauthorizedAccount",
      "type": "error"
    },
    {
      "inputs": [],
      "name": "ReentrancyGuardReentrantCall",
      "type": "error"
    },
    {
      "anonymous": false,
      "inputs": [
        {
          "indexed": true,
          "internalType": "address",
          "name": "previousOwner",
          "type": "address"
        },
        {
          "indexed": true,
          "internalType": "address",
          "name": "newOwner",
          "type": "address"
        }
      ],
      "name": "OwnershipTransferred",
      "type": "event"
    },
    {
      "anonymous": false,
      "inputs": [
        {
          "indexed": true,
          "internalType": "uint256",
          "name": "tournamentId",
          "type": "uint256"
        },
        {
          "indexed": true,
          "internalType": "address",
          "name": "participant",
          "type": "address"
        }
      ],
      "name": "ParticipantJoined",
      "type": "event"
    },
    {
      "anonymous": false,
      "inputs": [
        {
          "indexed": true,
          "internalType": "uint256",
          "name": "tournamentId",
          "type": "uint256"
        },
        {
          "indexed": false,
          "internalType": "uint8",
          "name": "round",
          "type": "uint8"
        },
        {
          "indexed": false,
          "internalType": "address[]",
          "name": "survivors",
          "type": "address[]"
        }
      ],
      "name": "RoundAdvanced",
      "type": "event"
    },
    {
      "anonymous": false,
      "inputs": [
        {
          "indexed": true,
          "internalType": "uint256",
          "name": "tournamentId",
          "type": "uint256"
        },
        {
          "indexed": true,
          "internalType": "address",
          "name": "champion",
          "type": "address"
        },
        {
          "indexed": false,
          "internalType": "uint256",
          "name": "prize",
          "type": "uint256"
        }
      ],
      "name": "TournamentComplete",
      "type": "event"
    },
    {
      "anonymous": false,
      "inputs": [
        {
          "indexed": true,
          "internalType": "uint256",
          "name": "tournamentId",
          "type": "uint256"
        },
        {
          "indexed": false,
          "internalType": "uint256",
          "name": "entryFee",
          "type": "uint256"
        },
        {
          "indexed": false,
          "internalType": "uint8",
          "name": "maxParticipants",
          "type": "uint8"
        }
      ],
      "name": "TournamentCreated",
      "type": "event"
    },
    {
      "anonymous": false,
      "inputs": [
        {
          "indexed": true,
          "internalType": "uint256",
          "name": "tournamentId",
          "type": "uint256"
        }
      ],
      "name": "TournamentStarted",
      "type": "event"
    },
    {
      "inputs": [],
      "name": "activeTournamentCount",
      "outputs": [
        {
          "internalType": "uint256",
          "name": "",
          "type": "uint256"
        }
      ],
      "stateMutability": "view",
      "type": "function"
    },
    {
      "inputs": [
        {
          "internalType": "uint256",
          "name": "tournamentId",
          "type": "uint256"
        }
      ],
      "name": "advanceRound",
      "outputs": [],
      "stateMutability": "nonpayable",
      "type": "function"
    },
    {
      "inputs": [],
      "name": "agentController",
      "outputs": [
        {
          "internalType": "contract IAgentControllerTournament",
          "name": "",
          "type": "address"
        }
      ],
      "stateMutability": "view",
      "type": "function"
    },
    {
      "inputs": [
        {
          "internalType": "uint256",
          "name": "entryFee",
          "type": "uint256"
        },
        {
          "internalType": "uint8",
          "name": "maxParticipants",
          "type": "uint8"
        }
      ],
      "name": "createTournament",
      "outputs": [
        {
          "internalType": "uint256",
          "name": "tournamentId",
          "type": "uint256"
        }
      ],
      "stateMutability": "nonpayable",
      "type": "function"
    },
    {
      "inputs": [],
      "name": "gameContract",
      "outputs": [
        {
          "internalType": "contract IGameContractTournament",
          "name": "",
          "type": "address"
        }
      ],
      "stateMutability": "view",
      "type": "function"
    },
    {
      "inputs": [],
      "name": "getActiveTournaments",
      "outputs": [
        {
          "internalType": "uint256[]",
          "name": "",
          "type": "uint256[]"
        }
      ],
      "stateMutability": "view",
      "type": "function"
    },
    {
      "inputs": [
        {
          "internalType": "uint256",
          "name": "tournamentId",
          "type": "uint256"
        }
      ],
      "name": "getTournament",
      "outputs": [
        {
          "internalType": "uint256",
          "name": "entryFee",
          "type": "uint256"
        },
        {
          "internalType": "uint8",
          "name": "maxParticipants",
          "type": "uint8"
        },
        {
          "internalType": "uint8",
          "name": "currentParticipants",
          "type": "uint8"
        },
        {
          "internalType": "uint8",
          "name": "currentRound",
          "type": "uint8"
        },
        {
          "internalType": "bool",
          "name": "isActive",
          "type": "bool"
        },
        {
          "internalType": "bool",
          "name": "isStarted",
          "type": "bool"
        },
        {
          "internalType": "bool",
          "name": "isComplete",
          "type": "bool"
        },
        {
          "internalType": "address",
          "name": "champion",
          "type": "address"
        },
        {
          "internalType": "uint256",
          "name": "prizePool",
          "type": "uint256"
        }
      ],
      "stateMutability": "view",
      "type": "function"
    },
    {
      "inputs": [
        {
          "internalType": "uint256",
          "name": "tournamentId",
          "type": "uint256"
        }
      ],
      "name": "getTournamentParticipants",
      "outputs": [
        {
          "internalType": "address[]",
          "name": "",
          "type": "address[]"
        }
      ],
      "stateMutability": "view",
      "type": "function"
    },
    {
      "inputs": [
        {
          "internalType": "uint256",
          "name": "tournamentId",
          "type": "uint256"
        }
      ],
      "name": "joinTournament",
      "outputs": [],
      "stateMutability": "nonpayable",
      "type": "function"
    },
    {
      "inputs": [],
      "name": "owner",
      "outputs": [
        {
          "internalType": "address",
          "name": "",
          "type": "address"
        }
      ],
      "stateMutability": "view",
      "type": "function"
    },
    {
      "inputs": [],
      "name": "renounceOwnership",
      "outputs": [],
      "stateMutability": "nonpayable",
      "type": "function"
    },
    {
      "inputs": [],
      "name": "seasToken",
      "outputs": [
        {
          "internalType": "contract IERC20",
          "name": "",
          "type": "address"
        }
      ],
      "stateMutability": "view",
      "type": "function"
    },
    {
      "inputs": [],
      "name": "tournamentCounter",
      "outputs": [
        {
          "internalType": "uint256",
          "name": "",
          "type": "uint256"
        }
      ],
      "stateMutability": "view",
      "type": "function"
    },
    {
      "inputs": [
        {
          "internalType": "uint256",
          "name": "",
          "type": "uint256"
        }
      ],
      "name": "tournaments",
      "outputs": [
        {
          "internalType": "uint256",
          "name": "tournamentId",
          "type": "uint256"
        },
        {
          "internalType": "uint256",
          "name": "entryFee",
          "type": "uint256"
        },
        {
          "internalType": "uint8",
          "name": "maxParticipants",
          "type": "uint8"
        },
        {
          "internalType": "uint8",
          "name": "currentParticipants",
          "type": "uint8"
        },
        {
          "internalType": "uint8",
          "name": "currentRound",
          "type": "uint8"
        },
        {
          "internalType": "bool",
          "name": "isActive",
          "type": "bool"
        },
        {
          "internalType": "bool",
          "name": "isStarted",
          "type": "bool"
        },
        {
          "internalType": "bool",
          "name": "isComplete",
          "type": "bool"
        },
        {
          "internalType": "address",
          "name": "champion",
          "type": "address"
        },
        {
          "internalType": "uint256",
          "name": "prizePool",
          "type": "uint256"
        }
      ],
      "stateMutability": "view",
      "type": "function"
    },
    {
      "inputs": [
        {
          "internalType": "address",
          "name": "newOwner",
          "type": "address"
        }
      ],
      "name": "transferOwnership",
      "outputs": [],
      "stateMutability": "nonpayable",
      "type": "function"
    },
    {
      "inputs": [],
      "name": "treasury",
      "outputs": [
        {
          "internalType": "address",
          "name": "",
          "type": "address"
        }
      ],
      "stateMutability": "view",
      "type": "function"
    }
  ],
  "bytecode": "0x6080346200012057601f6200153d38819003918201601f19168301916001600160401b03831184841017620001255780849260809460405283398101031262000120576200004d816200013b565b6200005b602083016200013b565b9162000078606062000070604084016200013b565b92016200013b565b6001600055331562000107576001549360018060a01b03928380928160018060a01b03199733898b161760015560405199823391167f8be0079c531659141344cd1fd0a4f28419497f9722a3daafe3b4186f6b6457e0600080a3168760035416176003551685600454161760045516836002541617600255169060055416176005556113ec9081620001518239f35b604051631e4fbdf760e01b815260006004820152602490fd5b600080fd5b634e487b7160e01b600052604160045260246000fd5b51906001600160a01b0382168203620001205756fe608080604052600436101561001357600080fd5b60003560e01c9081631a5bd7fc1461114b57508063432d2bb614610fe857806343a02ff014610fbf5780635cc49f2314610f9657806361d027b314610f6d578063692734fe14610e92578063715018a614610e3557806373ed5c1c14610e175780637503e1b714610d735780637f5f9f8214610d555780638da5cb5b14610d2c578063c2a8b11b14610c9f578063c781bd7a1461052a578063d115cac61461018d578063d3f33009146101645763f2fde38b146100cf57600080fd5b3461015f57602036600319011261015f576004356001600160a01b038181169182900361015f576100fe611367565b811561014657600154826bffffffffffffffffffffffff60a01b821617600155167f8be0079c531659141344cd1fd0a4f28419497f9722a3daafe3b4186f6b6457e0600080a3005b604051631e4fbdf760e01b815260006004820152602490fd5b600080fd5b3461015f57600036600319011261015f576003546040516001600160a01b039091168152602090f35b3461015f5760208060031936011261015f57600435906101ab611393565b81600052600881526040600020600281019182549060ff91828160181c16156104ed578281831c166104a857828082169160081c1610156104725760018060a01b0380600454169060405163c3c5a54760e01b8152336004820152838160248181965afa9081156103b657600091610455575b501561041757600060039260038701938454925b8381106103c25750505050600254169160008160018701946064865460405194859384926323b872dd60e01b845233600485015230602485015260448401525af19081156103b657600091610389575b501561035257506102949033906112fe565b83549161ff006102a8828560081c1661133e565b60081b16936102c960048661ff0019871617948589555492019182546112a7565b905533867f7dd8cb04159701bc1976c246434d7d96812782e7489e6c5c34db49a388fe9e80600080a38083169160081c1614610307575b6001600055005b64ff0000ff001916176401000000001762ff00001916620100001790557f6092323421a4a860e7644d69619f90504d467bc4d0ef357c6c17e786217500c5600080a280808080610300565b6064906040519062461bcd60e51b82526004820152601060248201526f115b9d1c9e481999594819985a5b195960821b6044820152fd5b6103a99150823d84116103af575b6103a18183611259565b81019061134f565b88610282565b503d610397565b6040513d6000823e3d90fd5b846103cd82886112e6565b905490841b1c1633146103e257600101610232565b60405162461bcd60e51b815260048101889052600e818501526d105b1c9958591e481a9bda5b995960921b6044820152606490fd5b60405162461bcd60e51b8152600481018490526016602482015275139bdd0818481c9959da5cdd195c9959081859d95b9d60521b6044820152606490fd5b61046c9150843d86116103af576103a18183611259565b8861021e565b6064906040519062461bcd60e51b82526004820152600f60248201526e151bdd5c9b985b595b9d08199d5b1b608a1b6044820152fd5b60405162461bcd60e51b815260048101839052601a60248201527f546f75726e616d656e7420616c726561647920737461727465640000000000006044820152606490fd5b60405162461bcd60e51b8152600481018390526015602482015274546f75726e616d656e74206e6f742061637469766560581b6044820152606490fd5b3461015f57602036600319011261015f57600435610546611393565b8060005260086020526040600020600281015460ff8160201c1615610c6c5760281c60ff16610c3457600381015460028110610bef5761059081600161059593169060011c6112a7565b6112b4565b6000805b600384015480821015610842576001820180831161076557101561080057600380546001600160a01b0316906105d290839087016112e6565b905460039190911b1c6001600160a01b03166001830183116107655760409060446106036001860160038a016112e6565b60018060a01b0391549060031b1c1691600084519586948593630178545360e41b8552600485015260248401525af19081156103b6576000916107be575b5061065561064e84611220565b9385611293565b6001600160a01b039091169081905261067182600387016112e6565b905460039190911b1c6001600160a01b031681036107995761069960018301600387016112e6565b905460039190911b1c6001600160a01b0316905b60018060a01b0360045416906001870154823b1561015f5760646000928360405195869485936332b0e7c960e21b855260048501526001602485015260448401525af180156103b65761078a575b5060018060a01b0360045416906001860154823b1561015f5760646000928360405195869485936332b0e7c960e21b855260018060a01b0316600485015282602485015260448401525af180156103b65761077b575b506002810180911161076557935b93610599565b634e487b7160e01b600052601160045260246000fd5b6107849061122f565b85610751565b6107939061122f565b866106fb565b6107a682600387016112e6565b905460039190911b1c6001600160a01b0316906106ad565b90506040813d6040116107f8575b816107d960409383611259565b8101031261015f57516001600160a01b038116810361015f5786610641565b3d91506107cc565b8061081161083c92600387016112e6565b905460039190911b1c6001600160a01b031661083661082f85611220565b9486611293565b52611220565b9361075f565b8386868561084f816112b4565b9360005b828110610bc75750505060038101546000600383015580610b9d575b5060005b83518110156108a55760019061089f6001600160a01b036108948388611293565b5116600385016112fe565b01610873565b5060ff60028201549162ff00006108c0838560101c1661133e565b60101b16948562ff00001985161780600284015560001993849160101c160160ff81116107655760ff7f5c286e39c6a4d915659656353a43e188acaff06bb9fa93ace2db6c2d740920329161092a88946040519384931683526040602084015260408301906111e3565b0390a2600381015460018114610941576001600055005b15610b8757600381016000908152602090205464ffff010000600160d01b0319909316909417603083901b6601000000000000600160d01b031617650100000000001763ff000000191660028501556007546001600160a01b039283169490918215610765576004920160075501546050810281810460501482151715610765576064900491828203918083116107655760025460405163a9059cbb60e01b8082526001600160a01b03891660048301526024820187905292916020908290604490829060009089165af19081156103b657600091610b68575b5015610b2b5784141580610b1e575b610a68575b50505060207f574790f2090b2c4a9b968f46f69bd92c2113bbb657fad892e157c246f714ae6c91604051908152a3808080808080610300565b60025460055460405192835283166001600160a01b0316600483015260248201939093529160209183916044918391600091165af19081156103b657600091610aff575b5015610aba57838080610a2f565b60405162461bcd60e51b815260206004820152601860248201527f5472656173757279207472616e73666572206661696c656400000000000000006044820152606490fd5b610b18915060203d6020116103af576103a18183611259565b84610aac565b5081600554161515610a2a565b60405162461bcd60e51b8152602060048201526015602482015274141c9a5e99481d1c985b9cd9995c8819985a5b1959605a1b6044820152606490fd5b610b81915060203d6020116103af576103a18183611259565b88610a1b565b634e487b7160e01b600052603260045260246000fd5b600382016000526020600020908101905b818110610bbb575061086f565b60008155600101610bae565b6001906001600160a01b03610bdc8285611293565b5116610be88289611293565b5201610853565b60405162461bcd60e51b815260206004820152601c60248201527f4e656564206174206c656173742032207061727469636970616e7473000000006044820152606490fd5b60405162461bcd60e51b815260206004820152601060248201526f416c726561647920636f6d706c65746560801b6044820152606490fd5b60405162461bcd60e51b815260206004820152600b60248201526a139bdd081cdd185c9d195960aa1b6044820152606490fd5b3461015f5760208060031936011261015f5760043560005260088152600360406000200190604051808383829554938481520190600052836000209260005b85828210610d0d57505050610cf592500383611259565b610d096040519282849384528301906111e3565b0390f35b85546001600160a01b0316845260019586019588955093019201610cde565b3461015f57600036600319011261015f576001546040516001600160a01b039091168152602090f35b3461015f57600036600319011261015f576020600754604051908152f35b3461015f57602036600319011261015f5760043560005260086020526101406040600020805490600181015490600281015490600460ff9101549260405194855260208501528082166040850152808260081c166060850152808260101c166080850152808260181c16151560a0850152808260201c16151560c08501528160281c16151560e084015260018060a01b039060301c16610100830152610120820152f35b3461015f57600036600319011261015f576020600654604051908152f35b3461015f57600036600319011261015f57610e4e611367565b600180546001600160a01b031981169091556000906001600160a01b03167f8be0079c531659141344cd1fd0a4f28419497f9722a3daafe3b4186f6b6457e08280a3005b3461015f57600036600319011261015f57600754610ec8610eb28261127b565b91610ec06040519384611259565b80835261127b565b60208083019291601f1901368437600654600191906000835b82811115610f245750505060405192818401908285525180915260408401949160005b828110610f115785870386f35b8351875295810195928101928401610f04565b80610f4e916000989698979597526008875260ff60026040600020015460181c16610f5957611220565b959395949294610ee1565b80610836610f6685611220565b9487611293565b3461015f57600036600319011261015f576005546040516001600160a01b039091168152602090f35b3461015f57600036600319011261015f576004546040516001600160a01b039091168152602090f35b3461015f57600036600319011261015f576002546040516001600160a01b039091168152602090f35b3461015f57604036600319011261015f576004356024359060ff821680920361015f57600482148015611141575b8015611137575b156110f357678ac7230489e8000081106110b6576020917f8193c9cd78446d3107bab90bb8600bd2c2f667c9254fd8a05203825f7b00dff26040611062600654611220565b93849384600655611074600754611220565b60075584600052600887526002836000208681558360018201550163010000008265ffffffffffff1983541617179055825191825286820152a2604051908152f35b60405162461bcd60e51b81526020600482015260156024820152744d696e20656e74727920666565203130205345415360581b6044820152606490fd5b606460405162461bcd60e51b815260206004820152602060248201527f4d75737420626520342c20382c206f72203136207061727469636970616e74736044820152fd5b506010821461101d565b5060088214611016565b3461015f57602036600319011261015f576101209060043560005260086020526040600020600181015490600281015490600460ff9101549284528082166020850152808260081c166040850152808260101c166060850152808260181c1615156080850152808260201c16151560a08501528160281c16151560c084015260018060a01b039060301c1660e0830152610100820152f35b90815180825260208080930193019160005b828110611203575050505090565b83516001600160a01b0316855293810193928101926001016111f5565b60001981146107655760010190565b67ffffffffffffffff811161124357604052565b634e487b7160e01b600052604160045260246000fd5b90601f8019910116810190811067ffffffffffffffff82111761124357604052565b67ffffffffffffffff81116112435760051b60200190565b8051821015610b875760209160051b010190565b9190820180921161076557565b906112be8261127b565b6112cb6040519182611259565b82815280926112dc601f199161127b565b0190602036910137565b8054821015610b875760005260206000200190600090565b80546801000000000000000081101561124357611320916001820181556112e6565b60018060a09493941b038084549260031b9316831b921b1916179055565b60ff1660ff81146107655760010190565b9081602091031261015f5751801515810361015f5790565b6001546001600160a01b0316330361137b57565b60405163118cdaa760e01b8152336004820152602490fd5b6002600054146113a4576002600055565b604051633ee5aeb560e01b8152600490fdfea264697066735822122088253a88e0947ed205173f6556b41b0fc84e65f82a1d25483ab1be9edf8f2d9f64736f6c63430008180033",
  "linkReferences": {},
  "deployedLinkReferences": {}
}