{
  "_format": "hh-sol-artifact-1",
  "contractName": "ArmadaToken",
  "sourceName": "contracts/ArmadaToken.sol",
  "abi": [
    {
      "inputs": [],
      "stateMutability": "nonpayable",
      "type": "constructor"
    },
    {
      "inputs": [
        {
          "internalType": "address",
          "name": "spender",
          "type": "address"
        },
        {
          "internalType": "uint256",
          "name": "allowance",
          "type": "uint256"
        },
        {
          "internalType": "uint256",
          "name": "needed",
          "type": "uint256"
        }
      ],
      "name": "ERC20InsufficientAllowance",
      "type": "error"
    },
    {
      "inputs": [
        {
          "internalType": "address",
          "name": "sender",
          "type": "address"
        },
        {
          "internalType": "uint256",
          "name": "balance",
          "type": "uint256"
        },
        {
          "internalType": "uint256",
          "name": "needed",
          "type": "uint256"
        }
      ],
      "name": "ERC20InsufficientBalance",
      "type": "error"
    },
    {
      "inputs": [
        {
          "internalType": "address",
          "name": "approver",
          "type": "address"
        }
      ],
      "name": "ERC20InvalidApprover",
      "type": "error"
    },
    {
      "inputs": [
        {
          "internalType": "address",
          "name": "receiver",
          "type": "address"
        }
      ],
      "name": "ERC20InvalidReceiver",
      "type": "error"
    },
    {
      "inputs": [
        {
          "internalType": "address",
          "name": "sender",
          "type": "address"
        }
      ],
      "name": "ERC20InvalidSender",
      "type": "error"
    },
    {
      "inputs": [
        {
          "internalType": "address",
          "name": "spender",
          "type": "address"
        }
      ],
      "name": "ERC20InvalidSpender",
      "type": "error"
    },
    {
      "inputs": [
        {
          "internalType": "address",
          "name": "owner",
          "type": "address"
        }
      ],
      "name": "OwnableInvalidOwner",
      "type": "error"
    },
    {
      "inputs": [
        {
          "internalType": "address",
          "name": "account",
          "type": "address"
        }
      ],
      "name": "OwnableUnauthorizedAccount",
      "type": "error"
    },
    {
      "inputs": [],
      "name": "ReentrancyGuardReentrantCall",
      "type": "error"
    },
    {
      "anonymous": false,
      "inputs": [
        {
          "indexed": true,
          "internalType": "address",
          "name": "owner",
          "type": "address"
        },
        {
          "indexed": true,
          "internalType": "address",
          "name": "spender",
          "type": "address"
        },
        {
          "indexed": false,
          "internalType": "uint256",
          "name": "value",
          "type": "uint256"
        }
      ],
      "name": "Approval",
      "type": "event"
    },
    {
      "anonymous": false,
      "inputs": [
        {
          "indexed": true,
          "internalType": "address",
          "name": "minter",
          "type": "address"
        },
        {
          "indexed": false,
          "internalType": "string",
          "name": "contractName",
          "type": "string"
        }
      ],
      "name": "MinterAdded",
      "type": "event"
    },
    {
      "anonymous": false,
      "inputs": [
        {
          "indexed": true,
          "internalType": "address",
          "name": "minter",
          "type": "address"
        }
      ],
      "name": "MinterRemoved",
      "type": "event"
    },
    {
      "anonymous": false,
      "inputs": [
        {
          "indexed": true,
          "internalType": "address",
          "name": "previousOwner",
          "type": "address"
        },
        {
          "indexed": true,
          "internalType": "address",
          "name": "newOwner",
          "type": "address"
        }
      ],
      "name": "OwnershipTransferred",
      "type": "event"
    },
    {
      "anonymous": false,
      "inputs": [
        {
          "indexed": true,
          "internalType": "address",
          "name": "from",
          "type": "address"
        },
        {
          "indexed": false,
          "internalType": "uint256",
          "name": "amount",
          "type": "uint256"
        },
        {
          "indexed": false,
          "internalType": "string",
          "name": "reason",
          "type": "string"
        }
      ],
      "name": "TokensBurned",
      "type": "event"
    },
    {
      "anonymous": false,
      "inputs": [
        {
          "indexed": true,
          "internalType": "address",
          "name": "to",
          "type": "address"
        },
        {
          "indexed": false,
          "internalType": "uint256",
          "name": "amount",
          "type": "uint256"
        },
        {
          "indexed": false,
          "internalType": "string",
          "name": "reason",
          "type": "string"
        }
      ],
      "name": "TokensMintedFromGameplay",
      "type": "event"
    },
    {
      "anonymous": false,
      "inputs": [
        {
          "indexed": true,
          "internalType": "address",
          "name": "from",
          "type": "address"
        },
        {
          "indexed": true,
          "internalType": "address",
          "name": "to",
          "type": "address"
        },
        {
          "indexed": false,
          "internalType": "uint256",
          "name": "value",
          "type": "uint256"
        }
      ],
      "name": "Transfer",
      "type": "event"
    },
    {
      "inputs": [],
      "name": "MAX_MINT_PER_BATTLE",
      "outputs": [
        {
          "internalType": "uint256",
          "name": "",
          "type": "uint256"
        }
      ],
      "stateMutability": "view",
      "type": "function"
    },
    {
      "inputs": [],
      "name": "MAX_MINT_PER_CHECKIN",
      "outputs": [
        {
          "internalType": "uint256",
          "name": "",
          "type": "uint256"
        }
      ],
      "stateMutability": "view",
      "type": "function"
    },
    {
      "inputs": [],
      "name": "MAX_MINT_PER_PASS_REWARD",
      "outputs": [
        {
          "internalType": "uint256",
          "name": "",
          "type": "uint256"
        }
      ],
      "stateMutability": "view",
      "type": "function"
    },
    {
      "inputs": [
        {
          "internalType": "address",
          "name": "_minter",
          "type": "address"
        },
        {
          "internalType": "string",
          "name": "_contractName",
          "type": "string"
        }
      ],
      "name": "addMinter",
      "outputs": [],
      "stateMutability": "nonpayable",
      "type": "function"
    },
    {
      "inputs": [
        {
          "internalType": "address",
          "name": "owner",
          "type": "address"
        },
        {
          "internalType": "address",
          "name": "spender",
          "type": "address"
        }
      ],
      "name": "allowance",
      "outputs": [
        {
          "internalType": "uint256",
          "name": "",
          "type": "uint256"
        }
      ],
      "stateMutability": "view",
      "type": "function"
    },
    {
      "inputs": [
        {
          "internalType": "address",
          "name": "spender",
          "type": "address"
        },
        {
          "internalType": "uint256",
          "name": "value",
          "type": "uint256"
        }
      ],
      "name": "approve",
      "outputs": [
        {
          "internalType": "bool",
          "name": "",
          "type": "bool"
        }
      ],
      "stateMutability": "nonpayable",
      "type": "function"
    },
    {
      "inputs": [
        {
          "internalType": "address",
          "name": "account",
          "type": "address"
        }
      ],
      "name": "balanceOf",
      "outputs": [
        {
          "internalType": "uint256",
          "name": "",
          "type": "uint256"
        }
      ],
      "stateMutability": "view",
      "type": "function"
    },
    {
      "inputs": [
        {
          "internalType": "uint256",
          "name": "amount",
          "type": "uint256"
        },
        {
          "internalType": "string",
          "name": "reason",
          "type": "string"
        }
      ],
      "name": "burn",
      "outputs": [],
      "stateMutability": "nonpayable",
      "type": "function"
    },
    {
      "inputs": [
        {
          "internalType": "address",
          "name": "from",
          "type": "address"
        },
        {
          "internalType": "uint256",
          "name": "amount",
          "type": "uint256"
        },
        {
          "internalType": "string",
          "name": "reason",
          "type": "string"
        }
      ],
      "name": "burnFrom",
      "outputs": [],
      "stateMutability": "nonpayable",
      "type": "function"
    },
    {
      "inputs": [
        {
          "internalType": "address",
          "name": "account",
          "type": "address"
        }
      ],
      "name": "checkMinter",
      "outputs": [
        {
          "internalType": "bool",
          "name": "",
          "type": "bool"
        }
      ],
      "stateMutability": "view",
      "type": "function"
    },
    {
      "inputs": [],
      "name": "decimals",
      "outputs": [
        {
          "internalType": "uint8",
          "name": "",
          "type": "uint8"
        }
      ],
      "stateMutability": "view",
      "type": "function"
    },
    {
      "inputs": [],
      "name": "getTokenInfo",
      "outputs": [
        {
          "internalType": "string",
          "name": "tokenName",
          "type": "string"
        },
        {
          "internalType": "string",
          "name": "tokenSymbol",
          "type": "string"
        },
        {
          "internalType": "uint8",
          "name": "tokenDecimals",
          "type": "uint8"
        },
        {
          "internalType": "uint256",
          "name": "supply",
          "type": "uint256"
        },
        {
          "internalType": "uint256",
          "name": "gameplayMinted",
          "type": "uint256"
        }
      ],
      "stateMutability": "view",
      "type": "function"
    },
    {
      "inputs": [
        {
          "internalType": "address",
          "name": "",
          "type": "address"
        }
      ],
      "name": "isMinter",
      "outputs": [
        {
          "internalType": "bool",
          "name": "",
          "type": "bool"
        }
      ],
      "stateMutability": "view",
      "type": "function"
    },
    {
      "inputs": [
        {
          "internalType": "address",
          "name": "to",
          "type": "address"
        },
        {
          "internalType": "uint256",
          "name": "amount",
          "type": "uint256"
        },
        {
          "internalType": "string",
          "name": "reason",
          "type": "string"
        }
      ],
      "name": "mintFromGameplay",
      "outputs": [],
      "stateMutability": "nonpayable",
      "type": "function"
    },
    {
      "inputs": [],
      "name": "name",
      "outputs": [
        {
          "internalType": "string",
          "name": "",
          "type": "string"
        }
      ],
      "stateMutability": "view",
      "type": "function"
    },
    {
      "inputs": [],
      "name": "owner",
      "outputs": [
        {
          "internalType": "address",
          "name": "",
          "type": "address"
        }
      ],
      "stateMutability": "view",
      "type": "function"
    },
    {
      "inputs": [
        {
          "internalType": "address",
          "name": "_minter",
          "type": "address"
        }
      ],
      "name": "removeMinter",
      "outputs": [],
      "stateMutability": "nonpayable",
      "type": "function"
    },
    {
      "inputs": [],
      "name": "renounceOwnership",
      "outputs": [],
      "stateMutability": "nonpayable",
      "type": "function"
    },
    {
      "inputs": [],
      "name": "symbol",
      "outputs": [
        {
          "internalType": "string",
          "name": "",
          "type": "string"
        }
      ],
      "stateMutability": "view",
      "type": "function"
    },
    {
      "inputs": [],
      "name": "totalMintedFromGameplay",
      "outputs": [
        {
          "internalType": "uint256",
          "name": "",
          "type": "uint256"
        }
      ],
      "stateMutability": "view",
      "type": "function"
    },
    {
      "inputs": [],
      "name": "totalSupply",
      "outputs": [
        {
          "internalType": "uint256",
          "name": "",
          "type": "uint256"
        }
      ],
      "stateMutability": "view",
      "type": "function"
    },
    {
      "inputs": [
        {
          "internalType": "address",
          "name": "to",
          "type": "address"
        },
        {
          "internalType": "uint256",
          "name": "value",
          "type": "uint256"
        }
      ],
      "name": "transfer",
      "outputs": [
        {
          "internalType": "bool",
          "name": "",
          "type": "bool"
        }
      ],
      "stateMutability": "nonpayable",
      "type": "function"
    },
    {
      "inputs": [
        {
          "internalType": "address",
          "name": "from",
          "type": "address"
        },
        {
          "internalType": "address",
          "name": "to",
          "type": "address"
        },
        {
          "internalType": "uint256",
          "name": "value",
          "type": "uint256"
        }
      ],
      "name": "transferFrom",
      "outputs": [
        {
          "internalType": "bool",
          "name": "",
          "type": "bool"
        }
      ],
      "stateMutability": "nonpayable",
      "type": "function"
    },
    {
      "inputs": [
        {
          "internalType": "address",
          "name": "newOwner",
          "type": "address"
        }
      ],
      "name": "transferOwnership",
      "outputs": [],
      "stateMutability": "nonpayable",
      "type": "function"
    }
  ],
  "bytecode": "0x608034620003e4576001600160401b039060409080820183811182821017620002e4578252600c815260206b20b936b0b230902a37b5b2b760a11b8183015282519183830183811086821117620002e4578452600683526541524d41444160d01b82840152805194808611620002e45760038054966001938489811c99168015620003d9575b868a1014620003c3578190601f998a81116200036d575b5086908a83116001146200030657600092620002fa575b505060001982841b1c191690841b1781555b8451918211620002e45760049485548481811c91168015620002d9575b86821014620002c45788811162000279575b508497831160011462000210579682939495969760009362000204575b505082841b92600019911b1c19161783555b3315620001ed5760058054336001600160a01b0319821681179092556001600160a01b03167f8be0079c531659141344cd1fd0a4f28419497f9722a3daafe3b4186f6b6457e0600080a360065560025469d3c21bcecceda100000092838201809211620001d857506000917fddf252ad1be2c89b69c2b068fc378daa952ba7f163c4a11628f55a4df523b3ef9160025533835282815284832084815401905584519384523393a3516113739081620003ea8239f35b601190634e487b7160e01b6000525260246000fd5b8351631e4fbdf760e01b8152600081850152602490fd5b01519150388062000111565b90601f1983169786600052856000209260005b8a811062000263575084869798999a1062000248575b50505050811b01835562000123565b01519060f884600019921b161c191690553880808062000239565b8183015185559386019391870191870162000223565b86600052856000208980860160051c820192888710620002ba575b0160051c019085905b828110620002ad575050620000f4565b600081550185906200029d565b9250819262000294565b602287634e487b7160e01b6000525260246000fd5b90607f1690620000e2565b634e487b7160e01b600052604160045260246000fd5b015190503880620000b3565b90869350601f1983169185600052886000209260005b8a8282106200035657505084116200033d575b505050811b018155620000c5565b015160001983861b60f8161c191690553880806200032f565b8385015186558a979095019493840193016200031c565b90915083600052866000208a80850160051c820192898610620003b9575b918891869594930160051c01915b828110620003a95750506200009c565b6000815585945088910162000399565b925081926200038b565b634e487b7160e01b600052602260045260246000fd5b98607f169862000085565b600080fdfe6040608081526004908136101561001557600080fd5b600091823560e01c90816306fdde0314610cd0578163095ea7b314610c2657816318160ddd14610c075781631fc423201461080f57816323b872dd146107d25781633092afd514610712578163313ce567146106f6578163424f3c8e146105a55781634a5b8de31461058657816370a082311461054f578163715018a6146104ef5781637641e6f31461044757816382c0df55146104235781638da5cb5b146103fa57816392d88a2f146103d757816395d89b41146103a2578163979430d214610302578163a9059cbb146102d1578163aa271e1a1461022d578163abb1dc441461026b578163b789bb1a1461022d578163dd62ed3e146101e4578163f2fde38b14610150575063f3622ce71461012b57600080fd5b3461014c578160031936011261014c5760209051674563918244f400008152f35b5080fd5b9050346101e05760203660031901126101e05761016b610d2e565b90610174611272565b6001600160a01b039182169283156101ca575050600554826bffffffffffffffffffffffff60a01b821617600555167f8be0079c531659141344cd1fd0a4f28419497f9722a3daafe3b4186f6b6457e08380a380f35b51631e4fbdf760e01b8152908101849052602490fd5b8280fd5b50503461014c578060031936011261014c5780602092610202610d2e565b61020a610d49565b6001600160a01b0391821683526001865283832091168252845220549051908152f35b50503461014c57602036600319011261014c5760209160ff9082906001600160a01b03610258610d2e565b1681526007855220541690519015158152f35b50503461014c578160031936011261014c576102b190610289610e28565b90610292610f15565b60025460126102bf60085493855197889760a0895260a0890190610cee565b908782036020890152610cee565b93850152606084015260808301520390f35b50503461014c578060031936011261014c576020906102fb6102f1610d2e565b6024359033611194565b5160018152f35b50503461014c577ffad31924d655455395c87544c8aa1ffdb5a7505a22a3c2e03f28003b6556a75f6103979161033736610d8d565b6103439692939661109e565b61034e841515610fcb565b6103828460018060a01b03891698898b528a60205261037282898d2054101561105b565b61037d8233836110c1565b61129e565b8451948594855280602086015284019161103a565b0390a2600160065580f35b50503461014c578160031936011261014c576103d3906103c0610f15565b9051918291602083526020830190610cee565b0390f35b50503461014c578160031936011261014c5760209051678ac7230489e800008152f35b50503461014c578160031936011261014c5760055490516001600160a01b039091168152602090f35b50503461014c578160031936011261014c576020905168056bc75e2d631000008152f35b9050346101e057816003193601126101e05760243590803567ffffffffffffffff83116104eb5761049f610397927ffad31924d655455395c87544c8aa1ffdb5a7505a22a3c2e03f28003b6556a75f94369101610d5f565b92906104a961109e565b6104b4831515610fcb565b338752866020526104ca8387892054101561105b565b6104d4833361129e565b85519384938452866020850152339684019161103a565b8480fd5b833461054c578060031936011261054c57610508611272565b600580546001600160a01b0319811690915581906001600160a01b03167f8be0079c531659141344cd1fd0a4f28419497f9722a3daafe3b4186f6b6457e08280a380f35b80fd5b50503461014c57602036600319011261014c5760209181906001600160a01b03610577610d2e565b16815280845220549051908152f35b50503461014c578160031936011261014c576020906008549051908152f35b8391503461014c578260031936011261014c576105c0610d2e565b60243567ffffffffffffffff81116106f2576105df9036908401610d5f565b90916105e9611272565b6001600160a01b03169283156106a557838552600760205260ff8686205416610662575061065c8495847facf1921979e1bd89a28b7c5a40cab173d71ea3f152c3c1fa85b16b0959ab37f89596526007602052808720600160ff198254161790555192839260208452602084019161103a565b0390a280f35b606490602087519162461bcd60e51b8352820152601b60248201527f4164647265737320697320616c72656164792061206d696e74657200000000006044820152fd5b608490602087519162461bcd60e51b8352820152602160248201527f43616e6e6f7420616464207a65726f2061646472657373206173206d696e74656044820152603960f91b6064820152fd5b8380fd5b50503461014c578160031936011261014c576020905160128152f35b919050346101e05760203660031901126101e05761072e610d2e565b610736611272565b6001600160a01b031680845260076020528184205490929060ff1615610790575081835260076020528220805460ff191690557fe94479a9f7e1952cc78f2d6baab678adc1b772d936c6583def489e524cb666928280a280f35b6020606492519162461bcd60e51b8352820152601760248201527f41646472657373206973206e6f742061206d696e7465720000000000000000006044820152fd5b50503461014c57606036600319011261014c576020906102fb6107f3610d2e565b6107fb610d49565b6044359161080a8333836110c1565b611194565b919050346101e05761082036610d8d565b9091929361082c61109e565b3387526020946007865260ff828920541615610bc6576001600160a01b0316958615610b855761085d851515610fcb565b67ffffffffffffffff8311610b72578151610881601f8501601f1916880182610e06565b838152868101903685870111610b6e578486833789888683010152519020693130ba3a3632afbbb4b760b11b8784516108b981610dd4565b600a815201527f5dc92983ca28dbc12779dc60aed67afad9c55d838f9e0011af626b62fc5e8b7881036109cc5750674563918244f40000851161098b575091610397917f08ec08a12a58a7880720ac105cab0cb988f4ffcc98fa7b341f90e570177f5bbd9594935b61092d85600254611017565b60025587895288865280892085815401905587897fddf252ad1be2c89b69c2b068fc378daa952ba7f163c4a11628f55a4df523b3ef888451898152a361097585600854611017565b600855808051968796875286015284019161103a565b85606492519162461bcd60e51b8352820152601b60248201527f45786365656473206d6178206d696e742070657220626174746c6500000000006044820152fd5b6c3230b4b63cafb1b432b1b5b4b760991b8784516109e981610dd4565b600d815201527fc345c9054401578418d2e0bdecb30545ccb6fda5704a91ec6528c33a773469548103610a965750678ac7230489e800008511610a55575091610397917f08ec08a12a58a7880720ac105cab0cb988f4ffcc98fa7b341f90e570177f5bbd959493610921565b85606492519162461bcd60e51b8352820152601d60248201527f45786365656473206d6178206d696e742070657220636865636b2d696e0000006044820152fd5b7ffb993c5d8cac527e53b4ea5164cae6ab81689a045f6eff4471197be996437723907118985d1d1b1957dc185cdcd7dc995dd85c9960721b88859b9a999897969551610ae181610dd4565b60128152015214610b1c575b5090610397917f08ec08a12a58a7880720ac105cab0cb988f4ffcc98fa7b341f90e570177f5bbd959697610921565b68056bc75e2d63100000841115610aed5760649085808a519262461bcd60e51b845283015260248201527f45786365656473206d6178206d696e74207065722070617373207265776172646044820152fd5b8980fd5b634e487b7160e01b885260419052602487fd5b85606492519162461bcd60e51b8352820152601b60248201527f43616e6e6f74206d696e7420746f207a65726f206164647265737300000000006044820152fd5b606487878085519262461bcd60e51b845283015260248201527f4f6e6c7920617574686f72697a6564206d696e746572732063616e206d696e746044820152fd5b50503461014c578160031936011261014c576020906002549051908152f35b9050346101e057816003193601126101e057610c40610d2e565b602435903315610cb9576001600160a01b0316918215610ca257508083602095338152600187528181208582528752205582519081527f8c5be1e5ebec7d5bd14f71427d1e84f3dd0314c0f7b2291e5b200ac8c7c3b925843392a35160018152f35b8351634a1406b160e11b8152908101859052602490fd5b835163e602df0560e01b8152808401869052602490fd5b50503461014c578160031936011261014c576103d3906103c0610e28565b919082519283825260005b848110610d1a575050826000602080949584010152601f8019910116010190565b602081830181015184830182015201610cf9565b600435906001600160a01b0382168203610d4457565b600080fd5b602435906001600160a01b0382168203610d4457565b9181601f84011215610d445782359167ffffffffffffffff8311610d445760208381860195010111610d4457565b6060600319820112610d44576004356001600160a01b0381168103610d445791602435916044359067ffffffffffffffff8211610d4457610dd091600401610d5f565b9091565b6040810190811067ffffffffffffffff821117610df057604052565b634e487b7160e01b600052604160045260246000fd5b90601f8019910116810190811067ffffffffffffffff821117610df057604052565b6040519060006003549060018260011c9060018416938415610f0b575b6020948584108114610ef75783885287949392918115610ed75750600114610e78575b5050610e7692500383610e06565b565b9093915060036000527fc2575a0e9e593c00f959f8c92f12db2869c3395a3b0502d05e2516446f71f85b936000915b818310610ebf575050610e7693508201013880610e68565b85548884018501529485019487945091830191610ea7565b915050610e7694925060ff191682840152151560051b8201013880610e68565b634e487b7160e01b85526022600452602485fd5b91607f1691610e45565b6040519060006004549060018260011c9060018416938415610fc1575b6020948584108114610ef75783885287949392918115610ed75750600114610f62575050610e7692500383610e06565b9093915060046000527f8a35acfbc15ff81a39ae7d344fd709f28e8600b4aa8c65c6b64bfe7fe36bd19b936000915b818310610fa9575050610e7693508201013880610e68565b85548884018501529485019487945091830191610f91565b91607f1691610f32565b15610fd257565b60405162461bcd60e51b815260206004820152601d60248201527f416d6f756e74206d7573742062652067726561746572207468616e20300000006044820152606490fd5b9190820180921161102457565b634e487b7160e01b600052601160045260246000fd5b908060209392818452848401376000828201840152601f01601f1916010190565b1561106257565b60405162461bcd60e51b8152602060048201526014602482015273496e73756666696369656e742062616c616e636560601b6044820152606490fd5b6002600654146110af576002600655565b604051633ee5aeb560e01b8152600490fd5b9160018060a01b038093169160009383855260016020526040938486209183169182875260205284862054926000198410611100575b50505050505050565b8484106111645750801561114c578115611134578552600160205283852090855260205203912055388080808080806110f7565b8451634a1406b160e11b815260048101879052602490fd5b845163e602df0560e01b815260048101879052602490fd5b8551637dc7a0d960e11b81526001600160a01b039190911660048201526024810184905260448101859052606490fd5b916001600160a01b038084169283156112595716928315611240576000908382528160205260408220549083821061120e575091604082827fddf252ad1be2c89b69c2b068fc378daa952ba7f163c4a11628f55a4df523b3ef958760209652828652038282205586815220818154019055604051908152a3565b60405163391434e360e21b81526001600160a01b03919091166004820152602481019190915260448101839052606490fd5b60405163ec442f0560e01b815260006004820152602490fd5b604051634b637e8f60e11b815260006004820152602490fd5b6005546001600160a01b0316330361128657565b60405163118cdaa760e01b8152336004820152602490fd5b906001600160a01b038216908115611259576000928284528360205260408420549082821061130b5750817fddf252ad1be2c89b69c2b068fc378daa952ba7f163c4a11628f55a4df523b3ef926020928587528684520360408620558060025403600255604051908152a3565b60405163391434e360e21b81526001600160a01b03919091166004820152602481019190915260448101829052606490fdfea2646970667358221220dc2609ad89244195a8fc9df3486abedf5f1a9a2f09d30e9450e72843e3599b9364736f6c63430008180033",
  "linkReferences": {},
  "deployedLinkReferences": {}
}