{
  "_format": "hh-sol-artifact-1",
  "contractName": "SEASToken",
  "sourceName": "contracts/SEASToken.sol",
  "abi": [
    {
      "inputs": [],
      "stateMutability": "nonpayable",
      "type": "constructor"
    },
    {
      "inputs": [
        {
          "internalType": "address",
          "name": "spender",
          "type": "address"
        },
        {
          "internalType": "uint256",
          "name": "allowance",
          "type": "uint256"
        },
        {
          "internalType": "uint256",
          "name": "needed",
          "type": "uint256"
        }
      ],
      "name": "ERC20InsufficientAllowance",
      "type": "error"
    },
    {
      "inputs": [
        {
          "internalType": "address",
          "name": "sender",
          "type": "address"
        },
        {
          "internalType": "uint256",
          "name": "balance",
          "type": "uint256"
        },
        {
          "internalType": "uint256",
          "name": "needed",
          "type": "uint256"
        }
      ],
      "name": "ERC20InsufficientBalance",
      "type": "error"
    },
    {
      "inputs": [
        {
          "internalType": "address",
          "name": "approver",
          "type": "address"
        }
      ],
      "name": "ERC20InvalidApprover",
      "type": "error"
    },
    {
      "inputs": [
        {
          "internalType": "address",
          "name": "receiver",
          "type": "address"
        }
      ],
      "name": "ERC20InvalidReceiver",
      "type": "error"
    },
    {
      "inputs": [
        {
          "internalType": "address",
          "name": "sender",
          "type": "address"
        }
      ],
      "name": "ERC20InvalidSender",
      "type": "error"
    },
    {
      "inputs": [
        {
          "internalType": "address",
          "name": "spender",
          "type": "address"
        }
      ],
      "name": "ERC20InvalidSpender",
      "type": "error"
    },
    {
      "inputs": [
        {
          "internalType": "address",
          "name": "owner",
          "type": "address"
        }
      ],
      "name": "OwnableInvalidOwner",
      "type": "error"
    },
    {
      "inputs": [
        {
          "internalType": "address",
          "name": "account",
          "type": "address"
        }
      ],
      "name": "OwnableUnauthorizedAccount",
      "type": "error"
    },
    {
      "anonymous": false,
      "inputs": [
        {
          "indexed": true,
          "internalType": "address",
          "name": "owner",
          "type": "address"
        },
        {
          "indexed": true,
          "internalType": "address",
          "name": "spender",
          "type": "address"
        },
        {
          "indexed": false,
          "internalType": "uint256",
          "name": "value",
          "type": "uint256"
        }
      ],
      "name": "Approval",
      "type": "event"
    },
    {
      "anonymous": false,
      "inputs": [
        {
          "indexed": true,
          "internalType": "address",
          "name": "claimer",
          "type": "address"
        },
        {
          "indexed": false,
          "internalType": "uint256",
          "name": "amount",
          "type": "uint256"
        }
      ],
      "name": "FaucetClaimed",
      "type": "event"
    },
    {
      "anonymous": false,
      "inputs": [
        {
          "indexed": true,
          "internalType": "address",
          "name": "minter",
          "type": "address"
        }
      ],
      "name": "MinterAdded",
      "type": "event"
    },
    {
      "anonymous": false,
      "inputs": [
        {
          "indexed": true,
          "internalType": "address",
          "name": "minter",
          "type": "address"
        }
      ],
      "name": "MinterRemoved",
      "type": "event"
    },
    {
      "anonymous": false,
      "inputs": [
        {
          "indexed": true,
          "internalType": "address",
          "name": "previousOwner",
          "type": "address"
        },
        {
          "indexed": true,
          "internalType": "address",
          "name": "newOwner",
          "type": "address"
        }
      ],
      "name": "OwnershipTransferred",
      "type": "event"
    },
    {
      "anonymous": false,
      "inputs": [
        {
          "indexed": true,
          "internalType": "address",
          "name": "from",
          "type": "address"
        },
        {
          "indexed": true,
          "internalType": "address",
          "name": "to",
          "type": "address"
        },
        {
          "indexed": false,
          "internalType": "uint256",
          "name": "value",
          "type": "uint256"
        }
      ],
      "name": "Transfer",
      "type": "event"
    },
    {
      "inputs": [],
      "name": "FAUCET_AMOUNT",
      "outputs": [
        {
          "internalType": "uint256",
          "name": "",
          "type": "uint256"
        }
      ],
      "stateMutability": "view",
      "type": "function"
    },
    {
      "inputs": [],
      "name": "MAX_SUPPLY",
      "outputs": [
        {
          "internalType": "uint256",
          "name": "",
          "type": "uint256"
        }
      ],
      "stateMutability": "view",
      "type": "function"
    },
    {
      "inputs": [
        {
          "internalType": "address",
          "name": "minter",
          "type": "address"
        }
      ],
      "name": "addMinter",
      "outputs": [],
      "stateMutability": "nonpayable",
      "type": "function"
    },
    {
      "inputs": [
        {
          "internalType": "address",
          "name": "owner",
          "type": "address"
        },
        {
          "internalType": "address",
          "name": "spender",
          "type": "address"
        }
      ],
      "name": "allowance",
      "outputs": [
        {
          "internalType": "uint256",
          "name": "",
          "type": "uint256"
        }
      ],
      "stateMutability": "view",
      "type": "function"
    },
    {
      "inputs": [
        {
          "internalType": "address",
          "name": "spender",
          "type": "address"
        },
        {
          "internalType": "uint256",
          "name": "value",
          "type": "uint256"
        }
      ],
      "name": "approve",
      "outputs": [
        {
          "internalType": "bool",
          "name": "",
          "type": "bool"
        }
      ],
      "stateMutability": "nonpayable",
      "type": "function"
    },
    {
      "inputs": [
        {
          "internalType": "address",
          "name": "account",
          "type": "address"
        }
      ],
      "name": "balanceOf",
      "outputs": [
        {
          "internalType": "uint256",
          "name": "",
          "type": "uint256"
        }
      ],
      "stateMutability": "view",
      "type": "function"
    },
    {
      "inputs": [
        {
          "internalType": "address[]",
          "name": "recipients",
          "type": "address[]"
        },
        {
          "internalType": "uint256[]",
          "name": "amounts",
          "type": "uint256[]"
        }
      ],
      "name": "batchTransfer",
      "outputs": [],
      "stateMutability": "nonpayable",
      "type": "function"
    },
    {
      "inputs": [],
      "name": "claimTestTokens",
      "outputs": [],
      "stateMutability": "nonpayable",
      "type": "function"
    },
    {
      "inputs": [],
      "name": "decimals",
      "outputs": [
        {
          "internalType": "uint8",
          "name": "",
          "type": "uint8"
        }
      ],
      "stateMutability": "view",
      "type": "function"
    },
    {
      "inputs": [
        {
          "internalType": "address",
          "name": "",
          "type": "address"
        }
      ],
      "name": "hasClaimed",
      "outputs": [
        {
          "internalType": "bool",
          "name": "",
          "type": "bool"
        }
      ],
      "stateMutability": "view",
      "type": "function"
    },
    {
      "inputs": [
        {
          "internalType": "address",
          "name": "to",
          "type": "address"
        },
        {
          "internalType": "uint256",
          "name": "amount",
          "type": "uint256"
        }
      ],
      "name": "mint",
      "outputs": [],
      "stateMutability": "nonpayable",
      "type": "function"
    },
    {
      "inputs": [
        {
          "internalType": "address",
          "name": "",
          "type": "address"
        }
      ],
      "name": "minters",
      "outputs": [
        {
          "internalType": "bool",
          "name": "",
          "type": "bool"
        }
      ],
      "stateMutability": "view",
      "type": "function"
    },
    {
      "inputs": [],
      "name": "name",
      "outputs": [
        {
          "internalType": "string",
          "name": "",
          "type": "string"
        }
      ],
      "stateMutability": "view",
      "type": "function"
    },
    {
      "inputs": [],
      "name": "owner",
      "outputs": [
        {
          "internalType": "address",
          "name": "",
          "type": "address"
        }
      ],
      "stateMutability": "view",
      "type": "function"
    },
    {
      "inputs": [
        {
          "internalType": "address",
          "name": "minter",
          "type": "address"
        }
      ],
      "name": "removeMinter",
      "outputs": [],
      "stateMutability": "nonpayable",
      "type": "function"
    },
    {
      "inputs": [],
      "name": "renounceOwnership",
      "outputs": [],
      "stateMutability": "nonpayable",
      "type": "function"
    },
    {
      "inputs": [],
      "name": "symbol",
      "outputs": [
        {
          "internalType": "string",
          "name": "",
          "type": "string"
        }
      ],
      "stateMutability": "view",
      "type": "function"
    },
    {
      "inputs": [],
      "name": "totalSupply",
      "outputs": [
        {
          "internalType": "uint256",
          "name": "",
          "type": "uint256"
        }
      ],
      "stateMutability": "view",
      "type": "function"
    },
    {
      "inputs": [
        {
          "internalType": "address",
          "name": "to",
          "type": "address"
        },
        {
          "internalType": "uint256",
          "name": "value",
          "type": "uint256"
        }
      ],
      "name": "transfer",
      "outputs": [
        {
          "internalType": "bool",
          "name": "",
          "type": "bool"
        }
      ],
      "stateMutability": "nonpayable",
      "type": "function"
    },
    {
      "inputs": [
        {
          "internalType": "address",
          "name": "from",
          "type": "address"
        },
        {
          "internalType": "address",
          "name": "to",
          "type": "address"
        },
        {
          "internalType": "uint256",
          "name": "value",
          "type": "uint256"
        }
      ],
      "name": "transferFrom",
      "outputs": [
        {
          "internalType": "bool",
          "name": "",
          "type": "bool"
        }
      ],
      "stateMutability": "nonpayable",
      "type": "function"
    },
    {
      "inputs": [
        {
          "internalType": "address",
          "name": "newOwner",
          "type": "address"
        }
      ],
      "name": "transferOwnership",
      "outputs": [],
      "stateMutability": "nonpayable",
      "type": "function"
    }
  ],
  "bytecode": "0x6080346200040c576040906001600160401b039080830182811182821017620003f6578352601081526020906f29b2bb32b71029b2b0b9902a37b5b2b760811b8282015283519284840184811082821117620003f6578552600493848152635345415360e01b848201528251828111620003e1576003918254916001958684811c94168015620003d6575b88851014620003c1578190601f948581116200036b575b5088908583116001146200030457600092620002f8575b505060001982861b1c191690861b1783555b8051938411620002e35786548581811c91168015620002d8575b87821014620002c35782811162000278575b50859184116001146200020d5793839491849260009562000201575b50501b92600019911b1c19161782555b3315620001ea5760058054336001600160a01b0319821681179092556001600160a01b03167f8be0079c531659141344cd1fd0a4f28419497f9722a3daafe3b4186f6b6457e0600080a36002546a52b7d2dcc80cd2e400000092838201809211620001d557506000917fddf252ad1be2c89b69c2b068fc378daa952ba7f163c4a11628f55a4df523b3ef9160025533835282815284832084815401905584519384523393a351610e399081620004128239f35b601190634e487b7160e01b6000525260246000fd5b5060006024925191631e4fbdf760e01b8352820152fd5b01519350388062000112565b9190601f198416928760005284876000209460005b898983831062000260575050501062000245575b50505050811b01825562000122565b01519060f884600019921b161c191690553880808062000236565b86860151895590970196948501948893500162000222565b87600052866000208380870160051c820192898810620002b9575b0160051c019086905b828110620002ac575050620000f6565b600081550186906200029c565b9250819262000293565b602288634e487b7160e01b6000525260246000fd5b90607f1690620000e4565b604187634e487b7160e01b6000525260246000fd5b015190503880620000b8565b90889350601f19831691876000528a6000209260005b8c8282106200035457505084116200033b575b505050811b018355620000ca565b015160001983881b60f8161c191690553880806200032d565b8385015186558c979095019493840193016200031a565b90915085600052886000208580850160051c8201928b8610620003b7575b918a91869594930160051c01915b828110620003a7575050620000a1565b600081558594508a910162000397565b9250819262000389565b602289634e487b7160e01b6000525260246000fd5b93607f16936200008a565b604186634e487b7160e01b6000525260246000fd5b634e487b7160e01b600052604160045260246000fd5b600080fdfe608060408181526004918236101561001657600080fd5b600092833560e01c91826306fdde0314610b2b57508163095ea7b314610a8157816310f00ae11461090057816318160ddd146108e157816323b872dd146107ed5781633092afd514610787578163313ce5671461076b57816332cb6b0c1461074457816340c10f19146105f057816370a08231146105b9578163715018a61461055957816373b2e80e1461051b57816376697640146104f657816388d695b21461040d5781638da5cb5b146103e457816395d89b41146102c3578163983b2d561461025a578163a9059cbb14610229578163dd62ed3e146101e0578163f2fde38b1461014c575063f46eccc41461010c57600080fd5b346101485760203660031901126101485760209160ff9082906001600160a01b03610135610c4e565b1681526007855220541690519015158152f35b5080fd5b9050346101dc5760203660031901126101dc57610167610c4e565b90610170610dd7565b6001600160a01b039182169283156101c6575050600554826bffffffffffffffffffffffff60a01b821617600555167f8be0079c531659141344cd1fd0a4f28419497f9722a3daafe3b4186f6b6457e08380a380f35b51631e4fbdf760e01b8152908101849052602490fd5b8280fd5b505034610148578060031936011261014857806020926101fe610c4e565b610206610c69565b6001600160a01b0391821683526001865283832091168252845220549051908152f35b505034610148578060031936011261014857602090610253610249610c4e565b6024359033610cf9565b5160018152f35b50503461014857602036600319011261014857610275610c4e565b61027d610dd7565b6001600160a01b03168083526007602052908220805460ff191660011790557f6ae172837ea30b801fbfcdd4108aa1d5bf8ff775444fd70256b44e6bf3dfc3f68280a280f35b83833461014857816003193601126101485780519082845460018160011c90600183169283156103da575b60209384841081146103c7578388529081156103ab5750600114610356575b505050829003601f01601f191682019267ffffffffffffffff841183851017610343575082918261033f925282610c05565b0390f35b634e487b7160e01b815260418552602490fd5b8787529192508591837f8a35acfbc15ff81a39ae7d344fd709f28e8600b4aa8c65c6b64bfe7fe36bd19b5b838510610397575050505083010185808061030d565b805488860183015293019284908201610381565b60ff1916878501525050151560051b840101905085808061030d565b634e487b7160e01b895260228a52602489fd5b91607f16916102ee565b50503461014857816003193601126101485760055490516001600160a01b039091168152602090f35b9050346101dc57816003193601126101dc5767ffffffffffffffff9181358381116104f25761043f9036908401610c7f565b90936024359081116104ee576104589036908501610c7f565b939092610463610dd7565b8483036104b9575050845b818110610479578580f35b610484818387610cd3565b35906001600160a01b03821682036104b5576104af6001926104a7838888610cd3565b359033610cf9565b0161046e565b8680fd5b906020606492519162461bcd60e51b8352820152600f60248201526e098cadccee8d040dad2e6dac2e8c6d608b1b6044820152fd5b8580fd5b8480fd5b5050346101485781600319360112610148576020905169021e19e0c9bab24000008152f35b5050346101485760203660031901126101485760209160ff9082906001600160a01b03610546610c4e565b1681526006855220541690519015158152f35b83346105b657806003193601126105b657610572610dd7565b600580546001600160a01b0319811690915581906001600160a01b03167f8be0079c531659141344cd1fd0a4f28419497f9722a3daafe3b4186f6b6457e08280a380f35b80fd5b5050346101485760203660031901126101485760209181906001600160a01b036105e1610c4e565b16815280845220549051908152f35b919050346101dc57806003193601126101dc5761060b610c4e565b9060243591338552600760205260ff82862054168015610730575b156106f557600254906b033b2e3c9fd0803ce80000006106468584610cb0565b116106bd576001600160a01b03169384156106a65750827fddf252ad1be2c89b69c2b068fc378daa952ba7f163c4a11628f55a4df523b3ef9261068c8795602094610cb0565b60025585855284835280852082815401905551908152a380f35b825163ec442f0560e01b8152908101869052602490fd5b825162461bcd60e51b8152602081870152601260248201527145786365656473206d617820737570706c7960701b6044820152606490fd5b815162461bcd60e51b815260208186015260156024820152742737ba1030baba3437b934bd32b21036b4b73a32b960591b6044820152606490fd5b506005546001600160a01b03163314610626565b505034610148578160031936011261014857602090516b033b2e3c9fd0803ce80000008152f35b5050346101485781600319360112610148576020905160128152f35b505034610148576020366003190112610148576107a2610c4e565b6107aa610dd7565b6001600160a01b03168083526007602052908220805460ff191690557fe94479a9f7e1952cc78f2d6baab678adc1b772d936c6583def489e524cb666928280a280f35b905082346105b65760603660031901126105b657610809610c4e565b610811610c69565b916044359360018060a01b03831680835260016020528683203384526020528683205491600019831061084d575b602088610253898989610cf9565b8683106108b557811561089e573315610887575082526001602090815286832033845281529186902090859003905582906102538761083f565b8751634a1406b160e11b8152908101849052602490fd5b875163e602df0560e01b8152908101849052602490fd5b8751637dc7a0d960e11b8152339181019182526020820193909352604081018790528291506060010390fd5b5050346101485781600319360112610148576020906002549051908152f35b83833461014857816003193601126101485733825260206006815260ff8284205416610a46576002549169021e19e0c9bab2400000928381018091116109e5576b033b2e3c9fd0803ce800000010610a0e573380855260068352818520805460ff19166001179055156109f8576002548381018091116109e557907f5d4f415c63cd8a5874d9d291cdd64cec37e5dc236d90d659c958d109d78074b392916002553385528482528085208481540190558051848152857fddf252ad1be2c89b69c2b068fc378daa952ba7f163c4a11628f55a4df523b3ef843393a3519283523392a280f35b634e487b7160e01b855260118652602485fd5b5163ec442f0560e01b8152808501849052602490fd5b5162461bcd60e51b815280850191909152601260248201527113585e081cdd5c1c1b1e481c995858da195960721b6044820152606490fd5b8390606492519162461bcd60e51b83528201526016602482015275105b1c9958591e4818db185a5b59590819985d58d95d60521b6044820152fd5b9050346101dc57816003193601126101dc57610a9b610c4e565b602435903315610b14576001600160a01b0316918215610afd57508083602095338152600187528181208582528752205582519081527f8c5be1e5ebec7d5bd14f71427d1e84f3dd0314c0f7b2291e5b200ac8c7c3b925843392a35160018152f35b8351634a1406b160e11b8152908101859052602490fd5b835163e602df0560e01b8152808401869052602490fd5b849084346101dc57826003193601126101dc578260035460018160011c9060018316928315610bfb575b60209384841081146103c7578388529081156103ab5750600114610ba557505050829003601f01601f191682019267ffffffffffffffff841183851017610343575082918261033f925282610c05565b600387529192508591837fc2575a0e9e593c00f959f8c92f12db2869c3395a3b0502d05e2516446f71f85b5b838510610be7575050505083010185808061030d565b805488860183015293019284908201610bd1565b91607f1691610b55565b6020808252825181830181905290939260005b828110610c3a57505060409293506000838284010152601f8019910116010190565b818101860151848201604001528501610c18565b600435906001600160a01b0382168203610c6457565b600080fd5b602435906001600160a01b0382168203610c6457565b9181601f84011215610c645782359167ffffffffffffffff8311610c64576020808501948460051b010111610c6457565b91908201809211610cbd57565b634e487b7160e01b600052601160045260246000fd5b9190811015610ce35760051b0190565b634e487b7160e01b600052603260045260246000fd5b916001600160a01b03808416928315610dbe5716928315610da55760009083825281602052604082205490838210610d73575091604082827fddf252ad1be2c89b69c2b068fc378daa952ba7f163c4a11628f55a4df523b3ef958760209652828652038282205586815220818154019055604051908152a3565b60405163391434e360e21b81526001600160a01b03919091166004820152602481019190915260448101839052606490fd5b60405163ec442f0560e01b815260006004820152602490fd5b604051634b637e8f60e11b815260006004820152602490fd5b6005546001600160a01b03163303610deb57565b60405163118cdaa760e01b8152336004820152602490fdfea264697066735822122075b5d13ea53904fe394bbe69551408679dee3b0600e18bf7bb92e626484eed7d64736f6c63430008180033",
  "linkReferences": {},
  "deployedLinkReferences": {}
}