{
  "_format": "hh-sol-artifact-1",
  "contractName": "AgentController",
  "sourceName": "contracts/AgentController.sol",
  "abi": [
    {
      "inputs": [
        {
          "internalType": "address",
          "name": "_gameContract",
          "type": "address"
        },
        {
          "internalType": "address",
          "name": "_seasToken",
          "type": "address"
        }
      ],
      "stateMutability": "nonpayable",
      "type": "constructor"
    },
    {
      "inputs": [
        {
          "internalType": "address",
          "name": "owner",
          "type": "address"
        }
      ],
      "name": "OwnableInvalidOwner",
      "type": "error"
    },
    {
      "inputs": [
        {
          "internalType": "address",
          "name": "account",
          "type": "address"
        }
      ],
      "name": "OwnableUnauthorizedAccount",
      "type": "error"
    },
    {
      "inputs": [],
      "name": "ReentrancyGuardReentrantCall",
      "type": "error"
    },
    {
      "anonymous": false,
      "inputs": [
        {
          "indexed": true,
          "internalType": "address",
          "name": "agent",
          "type": "address"
        },
        {
          "indexed": false,
          "internalType": "string",
          "name": "action",
          "type": "string"
        },
        {
          "indexed": false,
          "internalType": "uint256",
          "name": "value",
          "type": "uint256"
        }
      ],
      "name": "AgentDecision",
      "type": "event"
    },
    {
      "anonymous": false,
      "inputs": [
        {
          "indexed": true,
          "internalType": "address",
          "name": "agentAddress",
          "type": "address"
        },
        {
          "indexed": false,
          "internalType": "enum AgentController.AgentType",
          "name": "agentType",
          "type": "uint8"
        },
        {
          "indexed": false,
          "internalType": "string",
          "name": "agentAlias",
          "type": "string"
        }
      ],
      "name": "AgentRegistered",
      "type": "event"
    },
    {
      "anonymous": false,
      "inputs": [
        {
          "indexed": true,
          "internalType": "address",
          "name": "agent",
          "type": "address"
        },
        {
          "indexed": false,
          "internalType": "uint256",
          "name": "amount",
          "type": "uint256"
        }
      ],
      "name": "BankrollDeposited",
      "type": "event"
    },
    {
      "anonymous": false,
      "inputs": [
        {
          "indexed": true,
          "internalType": "address",
          "name": "agent",
          "type": "address"
        },
        {
          "indexed": false,
          "internalType": "bool",
          "name": "won",
          "type": "bool"
        },
        {
          "indexed": false,
          "internalType": "uint256",
          "name": "eloAfter",
          "type": "uint256"
        }
      ],
      "name": "MatchResultRecorded",
      "type": "event"
    },
    {
      "anonymous": false,
      "inputs": [
        {
          "indexed": true,
          "internalType": "address",
          "name": "previousOwner",
          "type": "address"
        },
        {
          "indexed": true,
          "internalType": "address",
          "name": "newOwner",
          "type": "address"
        }
      ],
      "name": "OwnershipTransferred",
      "type": "event"
    },
    {
      "anonymous": false,
      "inputs": [
        {
          "indexed": true,
          "internalType": "address",
          "name": "agent",
          "type": "address"
        },
        {
          "indexed": false,
          "internalType": "uint256",
          "name": "amount",
          "type": "uint256"
        }
      ],
      "name": "ProfitsWithdrawn",
      "type": "event"
    },
    {
      "inputs": [
        {
          "internalType": "uint256",
          "name": "",
          "type": "uint256"
        }
      ],
      "name": "agentList",
      "outputs": [
        {
          "internalType": "address",
          "name": "",
          "type": "address"
        }
      ],
      "stateMutability": "view",
      "type": "function"
    },
    {
      "inputs": [
        {
          "internalType": "address",
          "name": "",
          "type": "address"
        }
      ],
      "name": "agents",
      "outputs": [
        {
          "internalType": "address",
          "name": "owner",
          "type": "address"
        },
        {
          "internalType": "enum AgentController.AgentType",
          "name": "agentType",
          "type": "uint8"
        },
        {
          "internalType": "uint256",
          "name": "eloRating",
          "type": "uint256"
        },
        {
          "internalType": "uint256",
          "name": "wins",
          "type": "uint256"
        },
        {
          "internalType": "uint256",
          "name": "losses",
          "type": "uint256"
        },
        {
          "internalType": "uint256",
          "name": "bankroll",
          "type": "uint256"
        },
        {
          "internalType": "uint256",
          "name": "totalWagers",
          "type": "uint256"
        },
        {
          "internalType": "bool",
          "name": "isActive",
          "type": "bool"
        },
        {
          "internalType": "string",
          "name": "agentAlias",
          "type": "string"
        }
      ],
      "stateMutability": "view",
      "type": "function"
    },
    {
      "inputs": [
        {
          "internalType": "uint256",
          "name": "amount",
          "type": "uint256"
        }
      ],
      "name": "depositBankroll",
      "outputs": [],
      "stateMutability": "nonpayable",
      "type": "function"
    },
    {
      "inputs": [],
      "name": "gameContract",
      "outputs": [
        {
          "internalType": "contract IGameContract",
          "name": "",
          "type": "address"
        }
      ],
      "stateMutability": "view",
      "type": "function"
    },
    {
      "inputs": [],
      "name": "getAgentCount",
      "outputs": [
        {
          "internalType": "uint256",
          "name": "",
          "type": "uint256"
        }
      ],
      "stateMutability": "view",
      "type": "function"
    },
    {
      "inputs": [
        {
          "internalType": "address",
          "name": "agentAddress",
          "type": "address"
        }
      ],
      "name": "getAgentDecision",
      "outputs": [
        {
          "internalType": "string",
          "name": "action",
          "type": "string"
        },
        {
          "internalType": "uint256",
          "name": "value",
          "type": "uint256"
        }
      ],
      "stateMutability": "view",
      "type": "function"
    },
    {
      "inputs": [
        {
          "internalType": "address",
          "name": "agentAddress",
          "type": "address"
        }
      ],
      "name": "getAgentStats",
      "outputs": [
        {
          "internalType": "uint256",
          "name": "bankroll",
          "type": "uint256"
        },
        {
          "internalType": "uint256",
          "name": "wins",
          "type": "uint256"
        },
        {
          "internalType": "uint256",
          "name": "losses",
          "type": "uint256"
        },
        {
          "internalType": "uint256",
          "name": "eloRating",
          "type": "uint256"
        },
        {
          "internalType": "uint256",
          "name": "totalWagers",
          "type": "uint256"
        }
      ],
      "stateMutability": "view",
      "type": "function"
    },
    {
      "inputs": [
        {
          "internalType": "uint256",
          "name": "count",
          "type": "uint256"
        }
      ],
      "name": "getLeaderboard",
      "outputs": [
        {
          "internalType": "address[]",
          "name": "addrs",
          "type": "address[]"
        },
        {
          "internalType": "uint256[]",
          "name": "elos",
          "type": "uint256[]"
        }
      ],
      "stateMutability": "view",
      "type": "function"
    },
    {
      "inputs": [
        {
          "internalType": "address",
          "name": "agentAddress",
          "type": "address"
        }
      ],
      "name": "isRegistered",
      "outputs": [
        {
          "internalType": "bool",
          "name": "",
          "type": "bool"
        }
      ],
      "stateMutability": "view",
      "type": "function"
    },
    {
      "inputs": [],
      "name": "owner",
      "outputs": [
        {
          "internalType": "address",
          "name": "",
          "type": "address"
        }
      ],
      "stateMutability": "view",
      "type": "function"
    },
    {
      "inputs": [
        {
          "internalType": "enum AgentController.AgentType",
          "name": "agentType",
          "type": "uint8"
        },
        {
          "internalType": "uint256",
          "name": "initialBankroll",
          "type": "uint256"
        },
        {
          "internalType": "string",
          "name": "agentAlias",
          "type": "string"
        }
      ],
      "name": "registerAgent",
      "outputs": [],
      "stateMutability": "nonpayable",
      "type": "function"
    },
    {
      "inputs": [],
      "name": "renounceOwnership",
      "outputs": [],
      "stateMutability": "nonpayable",
      "type": "function"
    },
    {
      "inputs": [],
      "name": "seasToken",
      "outputs": [
        {
          "internalType": "contract IERC20",
          "name": "",
          "type": "address"
        }
      ],
      "stateMutability": "view",
      "type": "function"
    },
    {
      "inputs": [
        {
          "internalType": "address",
          "name": "_wagerArena",
          "type": "address"
        }
      ],
      "name": "setWagerArena",
      "outputs": [],
      "stateMutability": "nonpayable",
      "type": "function"
    },
    {
      "inputs": [
        {
          "internalType": "address",
          "name": "newOwner",
          "type": "address"
        }
      ],
      "name": "transferOwnership",
      "outputs": [],
      "stateMutability": "nonpayable",
      "type": "function"
    },
    {
      "inputs": [
        {
          "internalType": "address",
          "name": "agentAddress",
          "type": "address"
        },
        {
          "internalType": "bool",
          "name": "won",
          "type": "bool"
        },
        {
          "internalType": "uint256",
          "name": "wagerAmount",
          "type": "uint256"
        }
      ],
      "name": "updateAfterMatch",
      "outputs": [],
      "stateMutability": "nonpayable",
      "type": "function"
    },
    {
      "inputs": [],
      "name": "wagerArena",
      "outputs": [
        {
          "internalType": "address",
          "name": "",
          "type": "address"
        }
      ],
      "stateMutability": "view",
      "type": "function"
    },
    {
      "inputs": [
        {
          "internalType": "uint256",
          "name": "amount",
          "type": "uint256"
        }
      ],
      "name": "withdrawProfits",
      "outputs": [],
      "stateMutability": "nonpayable",
      "type": "function"
    }
  ],
  "bytecode": "0x608034620000eb57601f62001bd338819003918201601f19168301916001600160401b03831184841017620000f0578084926040948552833981010312620000eb576200005a6020620000528362000106565b920162000106565b903315620000d2576000549160018060a01b03908160018060a01b031993338587161760005560405195823391167f8be0079c531659141344cd1fd0a4f28419497f9722a3daafe3b4186f6b6457e0600080a3600180551683600254161760025516906003541617600355611ab790816200011c8239f35b604051631e4fbdf760e01b815260006004820152602490fd5b600080fd5b634e487b7160e01b600052604160045260246000fd5b51906001600160a01b0382168203620000eb5756fe6080604052600436101561001257600080fd5b60003560e01c80630331053d14610cf95780632f80c54f14610cb757806343a02ff014610c8e5780636751d28314610c4b578063715018a614610bf2578063771dec1e14610a7d5780637c6c060c14610a3b5780638da5cb5b14610a1257806391cab63e146109f4578063a34b46fe146107d0578063b5695b3814610767578063c3c5a54714610725578063cac39f24146104e2578063d3f33009146104b9578063df04517f14610490578063f2fde38b14610402578063fd66091e1461028e5763ff8c94a8146100e257600080fd5b3461021b5760208060031936011261021b5760043590610100611626565b33600052600581526004604060002061011f60ff6006830154166113ae565b01805468056bc75e2d63100000848101809111610278578110610233579061014a8460009493611619565b905560035460405163a9059cbb60e01b81523360048201526024810185905292829184916044918391906001600160a01b03165af1918215610227576000926101c8575b506101b97f124fd12bda4dcb813885ca782fb4ea9350d4f752b1a881cadf8742d8f128bb8e926113eb565b6040519283523392a260018055005b91508082813d8311610220575b6101df8183611372565b8101031261021b576101b96102147f124fd12bda4dcb813885ca782fb4ea9350d4f752b1a881cadf8742d8f128bb8e936113a1565b925061018e565b600080fd5b503d6101d5565b6040513d6000823e3d90fd5b60405162461bcd60e51b815260048101849052601e60248201527f4d757374206d61696e7461696e203130302053454153206d696e696d756d00006044820152606490fd5b634e487b7160e01b600052601160045260246000fd5b3461021b57602036600319011261021b576001600160a01b03806102b06112c6565b166000526005602052604060002090815490600192600181015460028201546003830154600484015491600585015493600760ff6006880154169601604051809a60009280546102ff8161131c565b8094526001811690816000146103c35750600114610385575b506103528b6103818e8d8d8d8d8d8d8d610334888f0389611372565b6040519a8b9a6101209881168c5260ff60208d019160a01c16611394565b60408a01526060890152608088015260a087015260c0860152151560e0850152806101008501528301906112dc565b0390f35b6000908152602081209093505b8284106103ab575050508901602001816103348b610318565b805460208e8601810191909152909301928101610392565b8e9b9997955061033493506103529e925060209150936103819c9a98969460ff191682840152151560051b820101939597999c50829496989a50610318565b3461021b57602036600319011261021b5761041b6112c6565b610423611649565b6001600160a01b0390811690811561047757600054826bffffffffffffffffffffffff60a01b821617600055167f8be0079c531659141344cd1fd0a4f28419497f9722a3daafe3b4186f6b6457e0600080a3005b604051631e4fbdf760e01b815260006004820152602490fd5b3461021b57600036600319011261021b576004546040516001600160a01b039091168152602090f35b3461021b57600036600319011261021b576002546040516001600160a01b039091168152602090f35b3461021b57606036600319011261021b576104fb6112c6565b6024908135908115159182810361021b57600454604435926001600160a01b0391821633148015610718575b156106e3571693846000526005602052604060002092600684019261054f60ff855416611436565b6005850161055e838254611429565b90551561062457600284018054906001820180921161060f575561058760048501918254611429565b905560018301805491601483018093116105fb5750927f9eade9d23c35419aa769604f16279c5b3f9f9442421f3be74ba64b2dc1a6afca9492600192604095555b68056bc75e2d631000006004830154106105ed575b50015482519182526020820152a2005b805460ff19169055866105dd565b634e487b7160e01b60009081526011600452fd5b83634e487b7160e01b60005260116004526000fd5b600384018054906001820180921161060f5755600484019080825410156000146106d957610653908254611619565b90555b6001830160738154116000146106a6578054600e198101929083116105fb5750927f9eade9d23c35419aa769604f16279c5b3f9f9442421f3be74ba64b2dc1a6afca9492600192604095556105c8565b60019150927f9eade9d23c35419aa769604f16279c5b3f9f9442421f3be74ba64b2dc1a6afca94926064604095556105c8565b5060009055610656565b60405162461bcd60e51b815260206004820152600e818801526d139bdd08185d5d1a1bdc9a5e995960921b6044820152606490fd5b5081600054163314610527565b3461021b57602036600319011261021b576001600160a01b036107466112c6565b166000526005602052602060ff600660406000200154166040519015158152f35b3461021b57602036600319011261021b576001600160a01b036107886112c6565b16600052600560205260a06040600020600481015490600281015490600381015460056001830154920154926040519485526020850152604084015260608301526080820152f35b3461021b57602036600319011261021b57600654600435808210156109ef5750805b6107fb816115ed565b916108096040519384611372565b818352610815826115ed565b601f199290830136602086013761082b816115ed565b926108396040519485611372565b818452610845826115ed565b0136602085013760005b8281106108e25783856040519182916040830160408452815180915260206060850192019060005b8181106108c05750505082810360208401526020808351928381520192019060005b8181106108a7575050500390f35b8251845285945060209384019390920191600101610899565b82516001600160a01b0316845286955060209384019390920191600101610877565b6108eb81611279565b60018060a01b0391549060031b1c1680600052600560205260406000209060ff600683015416156109e5576001809201549060005b858110610936575b505050506001905b0161084f565b6109408189611605565b51831161094e578301610920565b919250846000198101116102785760001985015b82811161098e5750816109849161097d60019695948b611605565b5287611605565b5290868080610928565b80600019810111610278576001600160a01b036109af60001983018b611605565b51166109bb828b611605565b526109ca600019820189611605565b516109d5828a611605565b5280156102785760001901610962565b5050600190610930565b6107f2565b3461021b57600036600319011261021b576020600654604051908152f35b3461021b57600036600319011261021b576000546040516001600160a01b039091168152602090f35b3461021b57602036600319011261021b57610a73610a5f610a5a6112c6565b611475565b6040519283926040845260408401906112dc565b9060208301520390f35b3461021b5760208060031936011261021b5760043590610a9b611626565b3360005260058152610ab760ff600660406000200154166113ae565b8115610bb9576003546040516323b872dd60e01b81523360048201523060248201526044810184905291908190839060649082906000906001600160a01b03165af191821561022757600092610b5f575b50610b337f66250ab67bdde5237a4f3f6ae11b39da8cd2e3c2e2073dcacb568f309cd68fc6926113eb565b33600052600581526004604060002001610b4e848254611429565b90556040519283523392a260018055005b91508082813d8311610bb2575b610b768183611372565b8101031261021b57610b33610bab7f66250ab67bdde5237a4f3f6ae11b39da8cd2e3c2e2073dcacb568f309cd68fc6936113a1565b9250610b08565b503d610b6c565b6064906040519062461bcd60e51b8252600482015260126024820152710416d6f756e74206d757374206265203e20360741b6044820152fd5b3461021b57600036600319011261021b57610c0b611649565b600080546001600160a01b0319811682556001600160a01b03167f8be0079c531659141344cd1fd0a4f28419497f9722a3daafe3b4186f6b6457e08280a3005b3461021b57602036600319011261021b57610c646112c6565b610c6c611649565b600480546001600160a01b0319166001600160a01b0392909216919091179055005b3461021b57600036600319011261021b576003546040516001600160a01b039091168152602090f35b3461021b57602036600319011261021b5760043560065481101561021b57610ce0602091611279565b905460405160039290921b1c6001600160a01b03168152f35b3461021b57606036600319011261021b57600435600581101561021b576044359067ffffffffffffffff821161021b573660238301121561021b5767ffffffffffffffff82600401351161021b5736602483600401358401011161021b57610d5f611626565b33600052600560205260ff6006604060002001541661123f5768056bc75e2d63100000602435106112025781600401351515806111f3575b156111bb576003546040516323b872dd60e01b81523360048201523060248083019190915235604482015290602090829060649082906000906001600160a01b03165af190811561022757600091611181575b501561114557604051610120810181811067ffffffffffffffff821117611057576040523381528160208201526103e86040820152600060608201526000608082015260243560a0820152600060c0820152600160e0820152604051610e5e6020601f19601f876004013501160182611372565b60048401358082526024850160208301376000602085600401358301015261010082015233600052600560205260406000209060018060a01b03815116908254602082015192600584101561112f576101009360ff60a01b9060a01b16916affffffffffffffffffffff60a81b161717835560408101516001840155606081015160028401556080810151600384015560a0810151600484015560c081015160058401556006830160e0820151151560ff80198354169116179055015180519067ffffffffffffffff821161105757610f3a600784015461131c565b601f81116110e8575b50602090601f831160011461107857600792916000918361106d575b50508160011b916000199060031b1c1916179101555b600654906801000000000000000082101561105757610fbb8260017f7721366ee4ce7a2cf0a8b69c0f4036d07298126f885e3cb106f39811d01bf5e59401600655611279565b81549060031b9033821b9160018060a01b03901b1916179055610fe16040518092611394565b60406020820152826004013560408201528260040135602484016060830137600060608460040135830101526060813394601f8019916004013501168101030190a260405160243581527f66250ab67bdde5237a4f3f6ae11b39da8cd2e3c2e2073dcacb568f309cd68fc660203392a260018055005b634e487b7160e01b600052604160045260246000fd5b015190508680610f5f565b906007840160005260206000209160005b601f19851681106110d05750918391600193600795601f198116106110b7575b505050811b01910155610f75565b015160001960f88460031b161c191690558680806110a9565b91926020600181928685015181550194019201611089565b600784016000526020600020601f840160051c810160208510611128575b601f830160051c8201811061111c575050610f43565b60008155600101611106565b5080611106565b634e487b7160e01b600052602160045260246000fd5b60405162461bcd60e51b815260206004820152601460248201527314d15054c81d1c985b9cd9995c8819985a5b195960621b6044820152606490fd5b90506020813d6020116111b3575b8161119c60209383611372565b8101031261021b576111ad906113a1565b83610dea565b3d915061118f565b60405162461bcd60e51b815260206004820152601060248201526f416c69617320312d323020636861727360801b6044820152606490fd5b50601482600401351115610d97565b60405162461bcd60e51b8152602060048201526015602482015274135a5b880c4c0c0814d15054c81c995c5d5a5c9959605a1b6044820152606490fd5b60405162461bcd60e51b8152602060048201526012602482015271105b1c9958591e481c9959da5cdd195c995960721b6044820152606490fd5b6006548110156112b05760066000527ff652222313e28459528d920b65115c16c04f3efc82aaedc97be59f3f377c0d3f0190600090565b634e487b7160e01b600052603260045260246000fd5b600435906001600160a01b038216820361021b57565b919082519283825260005b848110611308575050826000602080949584010152601f8019910116010190565b6020818301810151848301820152016112e7565b90600182811c9216801561134c575b602083101461133657565b634e487b7160e01b600052602260045260246000fd5b91607f169161132b565b6040810190811067ffffffffffffffff82111761105757604052565b90601f8019910116810190811067ffffffffffffffff82111761105757604052565b90600582101561112f5752565b5190811515820361021b57565b156113b557565b60405162461bcd60e51b815260206004820152600e60248201526d139bdd081c9959da5cdd195c995960921b6044820152606490fd5b156113f257565b60405162461bcd60e51b815260206004820152600f60248201526e151c985b9cd9995c8819985a5b1959608a1b6044820152606490fd5b9190820180921161027857565b1561143d57565b60405162461bcd60e51b815260206004820152601060248201526f4167656e74206e6f742061637469766560801b6044820152606490fd5b6001600160a01b03908116600081815260056020526040812060068101549093906114a29060ff16611436565b60025416916040519283916345e03b7360e11b835260048301528160246101009586935afa9081156115e257829083928480928197829361157b575b505060ff885460a01c169060058210156115675750806115085750505061150494611a03565b9091565b91949392916001810361152257505050506115049361195c565b939592945090926002810361153d575050506115049361184d565b6003909593919492951460001461155a57505050611504926117ae565b9091925061150494611713565b634e487b7160e01b81526021600452602490fd5b95509650945050505082813d83116115db575b6115988183611372565b810103126115d857815160208301516040840151916060850151936080860151916115ca60e060a089015198016113a1565b5092939491959038806114de565b80fd5b503d61158e565b6040513d84823e3d90fd5b67ffffffffffffffff81116110575760051b60200190565b80518210156112b05760209160051b010190565b9190820391821161027857565b600260015414611637576002600155565b604051633ee5aeb560e01b8152600490fd5b6000546001600160a01b0316330361165d57565b60405163118cdaa760e01b8152336004820152602490fd5b6040519061168282611356565b600b82526a07265706169725f736869760ac1b6020830152565b604051906116a982611356565b6009825268636c61696d5f67706d60b81b6020830152565b604051906116ce82611356565b600e82526d757067726164655f61747461636b60901b6020830152565b604051906116f882611356565b600c82526b77616765725f626174746c6560a01b6020830152565b939091926046116117a25761012c1161179757106117885760040154600f810290808204600f1490151715610278576064900490670de0b6b3a7640000808310611780575b50683635c9adc5dea00000808311611778575b506117746116eb565b9190565b91503861176b565b915038611758565b506117916116c1565b90600090565b50505061179161169c565b50505050611791611675565b906032116118235760040154600f810290808204600f1490151715610278576064900490670de0b6b3a764000080831061181b575b50683635c9adc5dea00000808311611811575b5061012c10611808575061179161169c565b906117746116eb565b915061012c6117f6565b9150386117e3565b505060405161183181611356565b6009815268686972655f6372657760b81b602082015290600090565b909192603c1161195157600281015461186a600383015482611429565b9081158061194657612710918281029281840414901517156102785761193057045b6117708111156119115750600460ff60145b16910154818102918183041490151715610278576064900491670de0b6b3a7640000808410611909575b50683635c9adc5dea00000808411611901575b5060788102908082046078149015171561027857606490041061180857506117916116c1565b9250386118db565b9250386118c8565b610fa0101561192557600460ff600f61189e565b600460ff600a61189e565b634e487b7160e01b600052601260045260246000fd5b50505061138861188c565b505050611791611675565b9291801591821592836119d3575b5050506119c9576103e810611982575061179161169c565b60040154600581029080820460051490151715610278576064900490670de0b6b3a76400008083106117805750683635c9adc5dea0000080831161177857506117746116eb565b5050611791611675565b9091925060648202918083046064149015171561027857604683029283046046141715610278571038808061196a565b926032116117a257101580611a76575b611a2f575060c811611a27576117916116c1565b61179161169c565b60040154601980820292508115918304141715610278576064900490670de0b6b3a76400008083106117805750683635c9adc5dea0000080831161177857506117746116eb565b506101f48211611a1356fea26469706673582212201962031531ce8b6717d44d230e906dda2470d4a79c5acfb4d3fb0b8f4081697364736f6c63430008180033",
  "linkReferences": {},
  "deployedLinkReferences": {}
}